:10100000FFFFFFFFFFFFFFFFFFFFFFFFFFFFFFFFF0
:2010100028420020018B000071B7000071B7000071B7000071B7000071B7000071B70000BA
:1C10300071B7000071B7000071B7000071B7000071B7000071B7000077BD000080
:20104C002DE9FE43B04C0F460646F80B80F03781B80880F0C9806069B90F69D2A07A0028DE
:20106C004AD138094AD3002501266570A74826720BF056FCA6492A4604F14C000BF025FE38
:20108C00607901281FD1A079E8B9DFF88882266AD4F81490D8F8000070B10BF0A9F9A0EB9E
:2010AC0009004346000B8619E0611868B6EBC01F28BF256208D2266204F1C8004FF000518A
:2010CC000BF0D2F831E0667104F1380140F60900088094F8450000F0F00040F0010084F804
:2010EC004500658794F8440000F0F00084F84400E563894E316018E0380914D2B80BC0F001
:20110C00FB8004F128000BF0FFFD061C08D0706830B17568F068B6F91C1082A20CCAA84788
:20112C0027F40057E8E00020A07227F00807E3E0D8B104200AF044FCB8B10BF059F9A061B0
:20114C006169814226BF401A401E401A000BF060F06840F6C41100F58D708142F06003D366
:20116C0040F2EE22824200D9F1600025D6F818C06561BCF1000F0FD094F8450010F00F0F18
:20118C000AD1708C40F60901814205D167A20CCA30466FF48071E047604904F14C002A4669
:2011AC000BF093FDA07950B10220ADF8000068460AF028FAA571BDF80800A4F8A0000120BD
:2011CC0060702079A846401C2071192084F807800BF0AAFA756925B156A20CCA3046414665
:2011EC00A84727F0005787E004F1300948460BF08BFD061C5AD008F0FCFB4FF00008B26943
:20120C00C6F818807068B8B1F07F42F00202002300F00700401E07D0401E03D0801E06D191
:20122C0046A002E047A000E048A090E80C007568F068B6F91C10A8470BF00EFC0546B4F9AB
:20124C003600401C6FF31F30E086206B1F30017801F07F01017048460AF02EFF28460BF086
:20126C0031FDF068B0F99410B4F9362091421DD1217801291AD090F8965095B9056885B1BF
:20128C00E1680968B1F1FF3F10D0254909687030B5FBF1F10BF05CFDF06870300BF056F822
:2012AC0004E080F89680404606F034F948460BF02BFD27F0020708B147F002071CE00BF046
:2012CC00CBFB014604F12C000BF01EFD0646B56908460BF0F7FCA8080CD25EB1B069A84377
:2012EC00B061706830B12A46F068B6F91C1075680023A84727F4804727B104F1C800394690
:20130C000AF0B2FFBDE8FE8320110020416A000089B300006030002000100440F93000008B
:20132C0000D8000000000000200000000000000000000002000000000000000400000000A3
:20134C0000000010000000000000004000000000000000202DE9FE430646DFF8DC82DFF862
:20136C00DC92B2780024101C00F03581801E00F00D81401E012840F2E180801E00F0A880E7
:20138C00401E7BD0401E59D0083800F04681801E40F046814546B08895F83E70ADF80000E2
:2013AC00052F45D001208DF80A0005F1CC000BF0AFFC95F83E0001281BD0042819D00328A1
:2013CC0006D0022804D0F28831897089B38907E0B5F84020B5F84210B5F84400B5F84630BD
:2013EC00ADF80220ADF80410ADF80600ADF8083020E0B5F84000F1888842D8BF081CADF849
:20140C0002003189B5F842008842D8BF081CADF804007189B5F844008842D8BF081CADF8D2
:20142C000600B5F84630B0898342D8BF031CDDE78DF80A4068460BF08BFAF1E0454605F1B0
:20144C00F0000BF065FC7078002840F0E980F088E882308928837089688305F1CC000BF0A4
:20146C0033F9002840F0DC80AB6A002B00F0D8801B68E88A298B6A8B9847D1E0B08809F099
:20148C00C9FE45462146062205F1380004F0ECFCEC822C836C83B079687305F1CC000BF088
:2014AC0037FC05F1F0000BF033FC01244FF6FF706F79A8824FB9B079082814BF0420052075
:2014CC00A87020460AF064FEAAE00320A870A7E0707858BB311D0A68454605F13800026004
:2014EC00898881800627AF707089A882F089E882308A2883708A6883F0784446287394F819
:20150C003E00012818BF02280AD11F2007F0E6FD4FF47A71024604F1CC00514308F0E2F8C6
:20152C00F0787289311D08F06DF87BE0707831286FD14D4604202870204623E07778002FDF
:20154C0067D14546698AA878032A13D02A796F7921B9012A14BF6C712C7106E0174304D0A8
:20156C0005F1A80008F0BEF8A878072814BF0420062007E0062807D02879002808BF032404
:20158C00DAD00220A8704DE00724D5E77078751C00283ED14246F7789078D1799FB90228CC
:2015AC0016D0072814D0062802D1517901290FD103280DD002F1A8000BF086F840B901201B
:2015CC000AF0E6FD04E08732204606F0FFFB28702878F0B924E07078D8B9454602201021F3
:2015EC0005F1480208F028FC0320102105F1580208F022FCF61C05F12C00B78831688780B6
:20160C0005F1680201600120A979A87006F0DEFB40B108204D46287004E0B0880BF08CF9F3
:20162C00012C06D14546686A18B1016809B1A8788847BDE8FE83C046E0080020E208002024
:20164C00F8B5A0F2013517460E46022D40F20C818649874C874A884B2D1F0F2D04D9143D6E
:20166C004AD0AD1E1CD011E0DFE815F0BA00B500EB00DB00AE00A700FE009F009800100001
:20168C001000900086007A006F006200282880F2EB80022E40F0E880398808F0F9F9F8BD78
:2016AC00012E40F0E1800A469078012800F0DC80D1783878D07081B9002800F0D580107829
:2016CC00012800F0A080042800F09D80062800F09A80052800F09780F8BD3878002840F063
:2016EC00C3801078032800F09980072800F09680052800F09380F8BD012E40F0B580387881
:20170C00012840F0B180254605F1F0000AF0DCFF002840F0A98004F13E01002004F0F0FD57
:20172C00002840F0A18004F1CC000BF0F1FAF8BD022E40F0998038880A28C0F29580B0F5F1
:20174C00486F00F39180114614E0022E40F08C803888B0F5FA7F80F2878011460880F8BD20
:20176C00022E40F08180388806287DDBB0F5486F7ADC1946891CF1E7022E75D138880628C4
:20178C0072DBB0F5486F6FDC1946E7E7012E6BD13878062868DA1146891F0CE0012E63D143
:2017AC003878042860DA093105E0012E5CD13878082859DA08310870F8BD012E54D138780F
:2017CC00042851DAC91DF6E7012E4DD1387804284ADC891DEFE7022E46D138881031BDE72C
:2017EC00012E41D10A46D07801283DD091783878907061B9002837D01078012803D004281C
:20180C0018BF052830D101200AF0C2FCF8BD387850BB1078022818BF052825D10AF0ECFEDE
:20182C00F8BD254600211F2205F18704204604F01BFB39463246204603F048FC0020EE7116
:20184C000EE0254600211F2205F16804204604F00BFB39463246204603F038FC0120AE713B
:20186C003146224606F0B2FAF8BDC046E2080020E008002024090020200900202DE9F04F23
:20188C000128ADF1140D40F0F280DFF81492D9F8DC00012840F0E9800220C9F8DC000AF00D
:2018AC0083FF0290012006F07DFF20B101210646C9F8DC10D5E00AF05FFF03906E484FF0F4
:2018CC000008C0F8008001200AF07AF8012818BFCDF8008004D1404606F086F8012000906A
:2018EC0066486E4CC0F800801934D4F8FF0F11200BF070F800280CBF4646012610200BF0B0
:20190C0069F808B146F002060F200BF063F808B146F004060B200BF05DF830B15848006881
:20192C005849006B0246088890470A200BF052F80028404618BF01204FF0805B0BF5DC7560
:20194C0028B128685049006B0246088890474F480127076028688069014646F02000884754
:20196C004B4807600BF030F800F001010191400815D248480AF078FF8246BAF1040FF8D03C
:20198C00BAF1010F06D1DBF8D801406802464148032190474049086820F00300086040468F
:2019AC0000F080F82868D4F8FF1F806B8047019801280ED0BAF1010F06D1DBF8D801406801
:2019CC0002463448394690473349086840F0030008602A48076028684069014630468847BC
:2019EC000B200AF0F7FF28B128682649C06A0246088890470A200AF0EDFF28B1286822492B
:201A0C00C06A024608889047204807600322C9F8DC201F4BC3F800802868406B0146304693
:201A2C0088470128F8D1042006F0BCFE124807601A48D4F8FF1F01688909FCD3009801286D
:201A4C0002D1384605F0D0FF0AF0B8FF082006F0A9FE06460398C9F8DC7008F06FFA05F0A5
:201A6C00E9FB029809F09CFB02E0042600E00126304605B0BDE8F08F0C40094000022243EE
:201A8C00B8010010F6CF0000F2CF00002820086080010443004003402422084014100940F5
:201AAC00441600202DE9F84FDFF8E8B10746ABF13500DFF8D4910068800880F0D68009F0CA
:201ACC00F3F9064677480830D0F8008000254FEA28725FEA985002F101020AD2C6F13E0093
:201AEC0016F10A0F4FEAE000D8BF08208242B8BF021C624BD3F87C01C0F304600AF0ADFED8
:201B0C0004461868C0F304400AF0A7FE12198246162A05DA12F10A0FB8BF6FF0090200E06A
:201B2C001522574B574802F01F0141F4F8511980006810F0030F18BF0125C00828BF45F09D
:201B4C0002050FB145F00405494691F90700301A052804DA8879A84208BF888865D0DFF831
:201B6C002CE10F2EA6F10F0C25DB0CEB0610A0F1F00C4FEA2C27072F88BF07273C46062CD8
:201B8C0088BF06245EF82400042303EB84037446E3581B1A03F0FF04E80824BFC3F30720E2
:201BAC000444A80824BFC3F307400444680828BF04EB136401E0002427465EF827E0E8087D
:201BCC000EF0FF0324BFCEF307200344A80824BFCEF307400344680828BF03EB1E63A4B2E9
:201BEC00ACEB0727BAEB020004FB07F404F1800403EB1423D8BF0120342208F0FF07424344
:201C0C007A43B2FBF3F04FF6FF72824238BF101C802E80B2888005DA16F1800FB8BF6FF09B
:201C2C007F0600E07F26CE718D71194A12681F280A604FF0000208D340F2FF11814206D2CA
:201C4C004008521C8142FBD301E01F208880124F0F38000942EAC00247EA0200CBF8FB0F6A
:201C6C000026CBF8FF6FBDE8F88F0D4F0B4E494608203760891D0870BDE8F88F3C110050EB
:201C8C006E62084024220840643000209C130050082009403500094000E7A480301009405C
:201CAC00FDFDA400AC3F00502DE9F0411C4615468C4208BF854282BF00230022E5E0002C68
:201CCC0008BF002D0AD100290EBF00286FF000006FF0000100F0E1F8BDE8F0815FF0000816
:201CEC005FF0000E002C08BF8D429CBF2C1C0025070C47EA01470E0CB44208BFBD429EBF32
:201D0C005FEA044444EA15445FEA0545070A47EA01670E0AB44208BFBD429EBF5FEA0424C0
:201D2C0044EA15645FEA0525470847EAC1774E08B44208BFBD4200F29380870847EA8177F6
:201D4C008E08B44208BFBD427CD8C70847EA4177CE08B44208BFBD4266D8070947EA017790
:201D6C000E09B44208BFBD4250D8470947EAC1674E09B44208BFBD423AD8870947EA8167E5
:201D8C008E09B44208BFBD4224D8C70947EA4167CE09B44208BFBD420DD8E60146EA5566F5
:201DAC00EF01B14208BFB84201D3C01BB14158EB08085EEB0E0EA60146EA95664FEA851773
:201DCC00B14208BFB84201D3C01BB14158EB08084EEB0E0E660146EAD5666F01B14208BFFE
:201DEC00B84201D3C01BB14158EB08084EEB0E0E260146EA15762F01B14208BFB84201D3FA
:201E0C00C01BB14158EB08085EEB0E0EE60046EA5576EF00B14208BFB84201D3C01BB1410C
:201E2C0058EB08084EEB0E0EA60046EA9576AF00B14208BFB84201D3C01BB14158EB0808B6
:201E4C004EEB0E0E660046EAD5766F00B14208BFB84201D3C01BB14158EB08085EEB0E0EC4
:201E6C00A14208BFA84201D3401BA14158EB08085EEB0E0EA34208BFAA423EBF2D0A45EAFE
:201E8C000465240A89D3734642461E4617460B46024631463846BDE8F08170472DE9F0439D
:201EAC00ADF11C0D05F04CFD714C04F1280004F1900103F059F96F4FE06039460AF0C9FE2E
:201ECC0008F0B6FF0AF076FA04F134000AF0E8FC04264FF47A7200236749206104F16C00CA
:201EEC00009606F033FA1F20012107F0D1FD01250020ADF806000621ADF80A1089468DF8CC
:201F0C00045080468DF8086001AAADF80C906420ADF80E802946ADF8100040F20530FFF78A
:201F2C008FFB40F2063002210DF10602FFF788FB04F14E024FF442701B21FFF781FB04F124
:201F4C00400240F207300E21FFF77AFB4FF44470294602AAFFF774FB40F2113002210DF125
:201F6C000A02FFF76DFB40F21230022103AAFFF767FB40F2133002210DF10E02FFF760FB58
:201F8C004FF44570022104AAFFF75AFB0AF0E6FC4846A02107F07CFD0720A02107F078FD32
:201FAC000820A02107F074FD0920A02107F070FD8DF8185040468DF81B50032305903146E1
:201FCC008DF8190005AA8DF81A304FF4816007F02BFD4FF48060294606AA07F025FD40F209
:201FEC00024029460DF1190207F01EFD40F2034029460DF11A0207F017FD40F20640294609
:20200C000DF11B0207F010FD0AF011FE0AF072FE0AF0BCF906F074F908F026FD03F0D6FF2D
:20202C00A0707F2814BF0A200F20052106F01EFD02F0C4FB30B900F07DFD18B9A07800F09D
:20204C00BF00A07008F0E4FF09F02CFB0AF034FB09F006F809F0BCFE08F090FB0AF0AFFDAE
:20206C00E06839460AF0F5FD07B0BDE8F083C04620050020D1B6000025C100002DE9F843C9
:20208C0081460AF095FC002100B901216B4E30680028FCD06C4D01242D1DEF6A346009B1D2
:2020AC000AF08CFCDFF89881C7F3072008F1BC0108600AF07DFC002100B92146306800282F
:2020CC00FCD02F68346009B10AF078FCC7F38440C8F8C0000AF06CFC0146002001B92046EE
:2020EC00014630680028FCD0ED69346009B10AF065FCC5F38120C8F8D000B9F5C061C8F88A
:20210C00B81000F0968098F8D80068B9C8F8D410D8F8C000C8F8C800D8F8BC70C8F8C470B0
:20212C00D8F8D060C8F8CC60D8F8D410D8F8BC60002954BF02206FF00100454605F1C803FD
:20214C001A6801EB41014018411000EB917002EBA0021A60D5F8C810C5F8C46000291CDD7D
:20216C001E293DDDD5F8CC0030B93429B4BF15391E21C5F8C81025E02A29BABFD5F8C80018
:20218C000B381E20C5F8C800D5F8C4003F28B4BF401C3F20C5F8C4001FE0D5F8CC000328C3
:2021AC0012D011F10B0FC6BFD5F8C8000B30201CC5F8C800D5F8C4000028CCBF401E00203D
:2021CC00C5F8C400032009E011F1150FC6BFD5F8C8001530201CC5F8C8000020C5F8CC0077
:2021EC00B5F8C400174E30214FF47F4208230090304606F047FA009404214FF400321123DE
:20220C00304606F03FFAB5F8C80004214FF4F80212230090304606F035FAB5F8CC0020211C
:20222C004FF440620A230090304606F02BFABDE8F883002088F8D800BDE8F88300800C40DB
:20224C004416002000A00C4000A00C402DE9F04FADF1840D00F032FE06F0F0F9002601284E
:20226C0004D109F081FE022808BF012658490868C0F38150012806D151F80C0C0127010EC0
:20228C0007FA01F006435348007808F021FE524D2C46286038B1FF2204F1400107467F1E0A
:2022AC0001F8012BFBD14D4909684FF0000901F0FF02FE2A1BD0DFF824C101F0FF074A468A
:2022CC000123FF2F0CD0B8427FD903FA07F73E427BD101F0FF0147EA0909611881F8402025
:2022EC005CF8041F521C01F0FF07FE2FE9D1092001F0FCFC3948002124220823606001A881
:20230C000AF0E0FB4FF0010804F1240001AA8DF81C80414608F0ECF8236843B300279435DB
:20232C004FF0040BBA4608FA07F0064219D119EA000F04BF07F0FF0141F4C04105D0E01948
:20234C00264990F8400051F82010254802F0DCF9F8B24FF0FF3109F05DFB2368C5F800A03B
:20236C0001E0C5F800B07F1C2D1D9F42DBD30AA80021302208230AF069FB0025FF2010216C
:20238C000AAB1290174A009504F1080007F0FEF816A82822082329460AF09AFB04F1600074
:2023AC0016AA1C9510491D952B4607F0B3FA0F4951F80D0C20F4F85040F4005041F80D0C94
:2023CC004746C1F8FF7F0A4E376021B0BDE8F08FB43F00506F300020E02B002054CE0000FA
:2023EC00007FC7673DBA0000358A00000D300940080009402DE9F843674C04F124000AF080
:20240C0083FC15460E4600900AF026FB05F001078146B6F1FF3F0CD1A06A20B9B4F936008B
:20242C00401C06B202E0A06AB0F91C60002084F8A300304608F044FB0326002800F09B8023
:20244C00A16ADFF84081814269D0009FB8422ED03FB100990A68904209D009680029009169
:20246C00F7D1832E41D048460AF02CFC3DE004F1A40009F0B7F900980168AA0802D20A68BE
:20248C0002600846002202600091009818B948460AF018FC28E0C17F41F00401C177684602
:2024AC0009F00AFE0146404607F044FCEDE704F1A40009F097F9A8083ABF606A006800201A
:2024CC00606248460AF0FEFB0099C87F40F00400C877684609F0F0FD0146404607F02AFCDC
:2024EC00009808B1A808EFD28326E07988B9207A012843D024480AF013FA022104F1C800A2
:20250C0009F0B2FE6078012838D020480AF008FA34E004F1C800022109F0A6FE2EE0A90849
:20252C0003D3616A009100266662C27F0121B9401143C1770AF020F90446002F14BF1448CC
:20254C00144809F05FF848460AF0BCFBA80801D3009820B9204607F0F1FC83260EE0C17F6E
:20256C0041F00401C177684609F0A6FD0146404607F0E0FBECE748460AF0A4FB3046BDE8E3
:20258C00F883C046501100204D100000C14100000100020401000104201100202DE9FC411D
:2025AC005E4C574D574EDFF860815A4F94F8E410481E0B2861D8DFE800F07B2C430623435C
:2025CC00062343067664042907D001220A2945F8212C14BF0220032004E02021012045F824
:2025EC00211C024684F8E200002045F8390C0827C5F8FF7FC5F8F37F45F8392CBDE8FC81ED
:20260C00052914BF09200620002584F8E400356070E094F8E1700120383D002FC5F81B007A
:20262C0004BF0620002102D00021F160032084F8E400032045F8010C31603068800859D274
:20264C0094F8E400012503280DD00021404660220523009106F016F894F8E400062814BF79
:20266C000A200720D1E702200090002160220523404606F007F80420C7E709F072FEBDE86D
:20268C00FC812249002622480E60012505600E2001F0C2FA022007F0DBFD84F8E45084F8C5
:2026AC00E360BDE8FC81002038600C2578601FE01948006800680146202088472C3D41F6C2
:2026CC001D560F2000214FF4C072072345F8010C4046C5F803600225009505F0D3FF404693
:2026EC0000214FF4C072072306F0B8FB0120386084F8E45004F1780009F028FEBDE8FC814E
:20270C0039400C4038600C4000A00C402C500C4004800C4034600C40A00100104416002075
:20272C002DE9F84F9A4693460E4681460AF094F9514C0090B4F93610B4F934000AAF401AC1
:20274C0040F6F8710140082980F28780B4F93400401C6FF31F30A086B4F9348008F0D2FFA5
:20276C00054609F1700009F03DF8AE6085F81EB0C5F804A0A5F81C80C5F80C9097E80C0093
:20278C0041A003C8002605F110071040194087E8030004F12400EE770768002F50D1294687
:2027AC0007F0C8FA002851D0A9F89480E87F40F08000E87789F89660607A40B1607830B1E5
:2027CC000120A07266722779A671781C207100980AF078FAA06A00284BD1607860BBE07968
:2027EC00012846D00AF038F90646207A00BBA86805F0F8FD224B2149E2681B68086040B9C3
:20280C0030460AF05FFA04F1C800042109F02CFD2FE00968D26804F1A400891AB1FBF3F159
:20282C000AF096FA04F1A40009F090FD30461EE0144901200870F9E7192009F075FF18E0FB
:20284C0004F12400294607F075FA48B9B4F9340000F6FF706FF31F30A0866FF0010805E013
:20286C00A9F89480E87F40F08000E87700980AF029FA4046BDE8F88F2011002060300020B9
:20288C0000D800005C300020F1EFFF9F20000000B0B5456884684F48297BADF1180D0129E4
:2028AC0016D0217E627E4C4B2F7E0143009143EA02010191494937F0010718BF081CA27EF0
:2028CC001043029095F88D000322FF2811D00DE0677E217E3843A37E019041F0004100911F
:2028EC0043F000403E49029095F88D00014304220391FE204DF82200694605F1900002F07C
:20290C0033FCC5F89C00002808BF00205FD0287B344951F8200001282BD02068B0F1804F40
:20292C0014BF22220A22217ED5F89C0008F044F82068B0F1804F14BF21220922617ED5F827
:20294C009C0008F039F82068B0F1804F14BF24220C22A17ED5F89C0008F02EF895F88D1097
:20296C00FF2933D02068B0F1804F14BF23220B2228E02068B0F1804F14BF21220922217E03
:20298C00D5F89C0008F018F82068B0F1804F14BF22220A22617ED5F89C0008F00DF82068B2
:2029AC00B0F1804F14BF24220C22A17ED5F89C0008F002F82068B0F1804F14BF23220B229D
:2029CC0095F88D10D5F89C0007F0F6FF012006B0B0BDC046000480A0004000800004C0A0DA
:2029EC0000200080D8D000002DE9F04305466E68AC680F46ADF1340D0AF02EF896F8D9103A
:202A0C00241D012903D10AF05DF9002084E04FF0010986F8D9900AF055F94FF00008C6F81A
:202A2C0088803869306178697061387E3076387B307338783070786886F8A4807060786969
:202A4C004146092828BF494686F88C10207A01F04DF9284604F06EFEE07D86F88D002846AD
:202A6C00FFF716FF50B9207A01F0D6F809F0F4FF86F8D9800AF026F945464CE001A841461A
:202A8C003022082309F0E2FF06956078CDF80080234A0990217801AB06F11C0006F076FD54
:202AAC0001A84146282208230AF012F805951D49606801AA4346079006F1380006F02AFF80
:202ACC00307878B901A841462422082309F0FAFF8DF81C9006F16C00414601AA07F008FDBC
:202AEC00114800E0B868B06004F0B8FCC6F8A000307B012808D1D6F89C000C490AF0A9F854
:202B0C00D6F89C0000B18560094A06F1C40004212B4608F005FA28460DB0BDE8F083C046C5
:202B2C00294D0000937C0000EBCB00000593000041CA00002DE9F84F06F030F95FEA0008DE
:202B4C0000F08A80464E002435680094B8F1000F4ED0C4F30C00002700B90127DFF808A165
:202B6C00B9460AF1100A48B928460F21012207F0ADF8284600220A2107F0A8F804F58020EC
:202B8C0004F0A0FA0025B8F1000F1FD0291950464FF4807202F09AFA28194FF4807152462F
:202BAC0000F5802003F0E6FB5FEA00080AD0D3464FF480771BF8011B009807F0D9FB7F1EF3
:202BCC000090F7D105F58075280BDCD03068B9F1000F054608D00F21002207F077F8284629
:202BEC0001220A2107F072F804F58054600CADD0B8F1010F04D04FF4F42004F063FA29E026
:202C0C0028460A21002207F061F80098002107F0AFFB002107F0ACFB04464FF4F42004F0EF
:202C2C0051FA104A0027978197804FF6FF70508014804FF40046D680042595734623137277
:202C4C00537293721021D372FF274FF4F420D77303F090FB07F03CFA4046BDE8F88FC046FE
:202C6C002C050020F02C0020F02C00202DE9F041424C474D8046C8F38140401E02D0401E46
:202C8C002AD025E0284620300168880C20D24FF4804020603A48D0F802204B0AC1F303374A
:202CAC0003F0800322F08F02134347EA0302C0F80220D0F801300E1266F30303C0F8013028
:202CCC00026801F0E70722F0E70247EA020102E04FF00041204601602A4E06F10800006868
:202CEC00C0F3C0070FB94020A0624FF40070206409F0B2FC40F0300084F8C800C8F3815016
:202D0C0038B3401E03D0401E1ED002211DE0012008F056FE07460420394605F0CBFA0420E4
:202D2C0008F04EFE8742FAD1366826F07F4007F047FA15480068036807214FF06022300EAD
:202D4C0098474FF4806020600321042005F0B2FA06E00420012105F0ADFA0C4807F030FABF
:202D6C00284600680B4947F6180700F03F0084F8CB0F094E0F803068BDE8F08140A00C407C
:202D8C000A600840A83F0050B4010010BD3786006C13005070B00C402C2009402DE9F04FDA
:202DAC000C464549CA7AADF12C0D84460592487B09900D7900958A7A488B4B8A0E7B91F876
:202DCC0005A091F802800492B1F846E008904A7A088B0392CD7807900A7AC88A02920F6A8F
:202DEC000690CA79888A01928A79E146A9F54079B9F11D0F10D8DFE809F05B5553514F4D5A
:202E0C004B494643413F3C3A380F34312E2B2923201E1C0F19181716BCF1280F49DA6046CE
:202E2C0006F05CF921E0099EB246D046CDF814801DE00898079007980690DDF818E005E011
:202E4C003831086820608888A08032E070460AE0B1F8440009E0B1F8420004E0B1F840009D
:202E6C0001E091F83E00034612E0208021E0059804900498039001E03231E2E70398029028
:202E8C000298009006E0019A87310DE068310BE01846EAE7009D0BE02C31D2E7276008E016
:202EAC00583100E048311022204602F00FF900E025700BB0BDE8F08FE00800202DE9F041EF
:202ECC00444C94F8E700ADF1280D00286FD1394F387B01250021242284F8E7507E6884F8CB
:202EEC00E6000823C4F80C6101A809F0D3FD002604F10C00069601ABADF814602E4907967E
:202F0C00324606F0E7FF2D4904F1300001AB324606F0E0FF2A4904F1540001AB324606F0E7
:202F2C00D9FFB868014628468847DFF89C8025487B7B0078D8F80410C1F381571BB1032FCD
:202F4C0003D184F8E150032F16D0022F14D0012F26D103201D4C009031464FF040521C23ED
:202F6C00204605F08FFB009531464FF400720923204605F087FB13E0022007F081F9032FDE
:202F8C000CBF4FF47A7142F21071114800685434B1FBF0F1204609F0DBFE204609F0D6F93B
:202FAC00D8F80000C00802D2304607F069F90AB0BDE8F0818CD6000037680000195600008A
:202FCC00F15D00006F300020B03F005000A00C4000D80000441600202DE9F0430746880F2E
:202FEC00ADF1140D75D304F067FA3F4D00261C352E60394845F81C0C384809F091FC38486C
:20300C00BC68B14640F60A0200F13801468790F844300A808046C0F83C9003F0F00380F822
:20302C00443090F845306680241D03F0F00343F0010380F8453000E01C1D236813B11888DA
:20304C008242F9D12160607A00F0F000607208F1240009F059FE80680088D21F82421DD04A
:20306C00521C82421AD007F120000388B3B197F82C2097F82D30C7F8249002F0F00287F884
:20308C002C2003F0F00242F0010287F82D20C8F83C00487B7E8400F0F0004873694608F0EF
:2030AC00C1FA684609F0D0FA28680028FCD02E60012008F085FC012808D0607A00F0F00071
:2030CC0040F001006072074809F02AFCB86845F81C0C05B0BDE8F08301010E044D100000B0
:2030EC0020110020497A000000100440F8B508F053FF404E3E4F0446A00823D3B96A09B383
:20310C003D4600200B698A69A86204EA0300104340F0020006F1080288610B691068984368
:20312C00106001F1100090E80C0030681A1C9043306005F1300006F0FDFD022105F1C80065
:20314C0009F092F8B86AA10815D200F110020CCA002122400B40002B08BF002A0BD0016926
:20316C0085690C40F8622C434FF48041846107F1C80009F079F8B86A002837D107F12404BB
:20318C00204609F0C1FD051C30D0F868E968884226D1A86805F026F917490860E0B906F1F7
:2031AC00080128690A6810430860326805F1100393E80300081C1043306000233361A8684D
:2031CC0046F80C0C06F1100000680028FAD0204608F072FFBD62F8BD086804F09BF9F8BDDC
:2031EC0007F1C8004FF4805109F03EF8F8BDC046201100200C100440603000202DE9F0415D
:20320C0004466768A5680E46ADF1380D09F024FC97F8DC102D1D012903D109F053FD002000
:20322C005EE04FF0010887F8DC8009F04BFDF168204603F0C7FD0028F1D130783870706858
:20324C007860307A002130220823F86001A809F0FDFB0694287A00260990234A0096696881
:20326C0001AB07F1100006F091F901A828220823314609F02DFC05941C49E86801AA3346E5
:20328C00079007F12C0006F045FB01A824220823314609F017FC8DF81C8007F16000414694
:2032AC0001AA07F025F9387838B907F17C00314601AA07F01DF90E487860C7F8BC603E7245
:2032CC00C7F8C060286800F011FD204605F092F9084A07F1C8000421234607F021FE204673
:2032EC000EB0BDE8F081C04695390000F9780000DBCB0000E5C600002DE9F047ADF1180D48
:20330C0001F066FB3A4D4FF0030908274FF6FF78002605F13E0A2C4608F044FB20BB009614
:20332C0001A80DF106016A4607F09FF9E0B9BDF80400102814D160789DF8061088420FD1F8
:20334C0000980188884509D14088C00B08D3042005F12002014606F06FFD01E005F068F810
:20336C00009808B108F0DCFD208A41082DD320F0010063792179208253EA010225D073B9A2
:20338C00207A637A8DF8070005F132018DF808300A680DF109031A608988998001E08DF8B2
:2033AC000790A07A8DF80F00E37A8DF810300DF1070009F0BBFA38B1636AA77023B11A68C4
:2033CC0012B1196838468847208A810807D320F0020020825146304602F092FF208AC1088C
:2033EC009AD320F00400208206F0D0F994E7C046E00800202DE9F84F00298346009106DD93
:20340C00024600980021401E42F8041BFBD10098DFF8C880DFF8CC900028C8F800B012DDAB
:20342C002F48009C0768002537F8020B38B1D9F80000AE003158002088474BF80600641EF2
:20344C0005F10105F0D1284F41460120D7F80080C880B8F1000F22DD4FF0000A009801272D
:20346C00002817DDABF104050446002655F8040FB0F1FF3F04D0D9F80010715888472860FB
:20348C000021B0F1FF3F08BF0121361D641E01EA0707EBD137B90AF1010AC245DEDB04A053
:2034AC0008F0FAFB0D4900200860BDE8F88FC0467864632E72756E74696D652E53746172CA
:2034CC007475703A20276D61785061737365732720657863656564656400C0463820002055
:2034EC0050D8000054D800004CD800002DE9F04706467468B56809F0AFFAD4F88810002987
:20350C0063D009F0DFFB2968486820F0020048602968486A20F003004862D4F8A0706869F1
:20352C002969084379680968C1F804052968486920F00100486128684FF00108C0F8208062
:20354C00304607F015FDD4F88800D0F8049009F083FA04F1D8078246387850B119F0704FA5
:20356C0002D1042006F074FE022006F071FE00203870504609F0A6FBD4F88810087C04284D
:20358C0003D003200874D4F888102A696869D4F8A0304746104307FA00F258680068C2622A
:2035AC002868B0F1804F14BF0A480B480F68006800258204A7EB9250401E08603046A26843
:2035CC00C4F888509047BDE8F08709F07BFBBDE8F087C04608050020380400202DE9F043F5
:2035EC000646ADF11C0D09F085FA06F0D1FD4FF000090546CDF8009009F022FA30F0010052
:20360C0002D00098A84202D16FF0040059E070684C4658B1B0F1FF3F05D001A906F0A0FD77
:20362C0030B107464CE04FF0FF3000E02046019008F0C8F80199012701EB000800E00193FD
:20364C006868019900F086FC00282ED003A806F087FAD8B99DF8100002A906F067FA88B9C1
:20366C00B368BDF808009DF81210059A984748B19DF81270B773BDF80800B081059B3361D5
:20368C004F4612E00599684607F028F90198641CB0F1FF3FD4D00028D2D008F093F8B8EBA7
:2036AC00000302D001989842C9D2009905F1080007F096FB24B1686803F022FB641EFAD1FA
:2036CC00384607B0BDE8F083F0B5ADF1340DFFF7F5FB304908682822082340F0020008602F
:2036EC0001A8002109F0F4F92B4E2C490524002301AA079406F1C80006F00CF90021302261
:20370C00082301A809F0A2F90025FF271921244AADF81C5001AB099706F14C00009505F018
:20372C0035FF2822082301A8294609F0D1F91D49079406F1FC0001AA2B4606F0EBF801A867
:20374C0029463022082309F081F90124ADF81C40099706F168001A2101AB134A009505F00B
:20376C0015FF12492A4606F1A400134606F0B2FB0F4809F0D5F886F8A3507571F571357246
:20378C007572B5727561B4714FF6FF70A6F8A0000DB0F0BD0020094020110020E5C1000058
:2037AC0089B30000154400009D7A00000DB10000C14100002DE9FE4F0CAF3D8883460E4691
:2037CC0008469846144601A907F0FEF9012808BF01205ED0BDF80400DFF8BCA042F6021149
:2037EC0000274FF0FF09401A40D048F2FF21401A2BD0401E13D0401E36D1002D32D1B8F1B7
:20380C00020F2DD1207806281DDAF068218801802248F168884231D14FF0020931E00DBB9C
:20382C00B8F1060F1CDA207810280CDCF0682146424601F04BFCF1685046001D88421DD1CD
:20384C004FF001091DE0802718E05DB9B8F1100F06DCF0682146424601F038FCB94610E05C
:20386C000D270BE00B2709E00A2707E00095584643463146224604F073FE0746B9F1FF0FE5
:20388C0006D05046006818B1016809B1484688473846BDE8FE8FC046B4190020B019002073
:2038AC00BFB5384C0746401E3CD0354D401E21D0801E012833D9801E02D0801E25D05BE06B
:2038CC00284608F001FF10B9284609F01FFAE0680A210022054606F0F9F9002228460F21A5
:2038EC0006F0F4F900222846152106F0EFF903F039F841E0284608F0E7FE10B9284609F075
:20390C0005FA002008F014FC36E008F0CBFD04F10C0000680A21012206F0D8F92CE008F01C
:20392C00C1FD29E00F20052105F0A0F84FF441706946FFF733FA9DF800009DF804308DF829
:20394C0008009DF805108DF80E309DF801508DF80F109DF803008DF809509DF802308DF89A
:20396C000D0002AA8DF80A3000208DF80C0008218DF80B0001F092FE27700090BFBDC0462F
:20398C008C0500202005002098B53549446809688068496800688847324A0121916140B1EC
:2039AC00237AFF2B05D0FF214009217253D2042149E0207A00284ED0401E17D0401E02D09B
:2039CC00FD3848D044E05368D4F8B4000370D4F8B400401CC4F8B400D4F8B8707F1EC4F823
:2039EC00B8701CD0012F88BF09212CE0D4F8B0707F1EC4F8B07014D1D4F8B8707FB102206A
:203A0C00D4F8A8102072097C012F4FEA410141F0010142F8041C94BF03210B2114E004210B
:203A2C000FE0D4F8AC0000785060D4F8AC00022F00F10100C4F8AC0005D2D4F8B87017B94D
:203A4C000521002020720220116009F0FCF898BDFF20207298BD04F12C0005F017F998BD2C
:203A6C00AC01001004280040B0B5344C6078410809D320F0010060700A20014604F0F6FFF4
:203A8C0005F06CFA60782E4D810807D320F002002F786070062F01D103F078FE2078FE2852
:203AAC0007D10120E07004F10801082006F0B0FF2078A778B84237D0E178012905D00120B5
:203ACC00214606F0A5FFA778207829787A0803D342083CBF0022A280BA0803D382083CBF83
:203AEC000022E280022903D108F022FBA7782078B90808D3810806D22978062903D003F0D8
:203B0C0045FEA778207810F0030F0DD067B904F11000054608F0D8FD28B9284609F0F6F83D
:203B2C000020E080A0802078E178012903D10020E0702070B0BDA070B0BDC046041D0020B9
:203B4C002005002038B50446084602F06FFE0146182006F087F807F04FFF80B200902C48C1
:203B6C0040F2FF3200232C2104F08CFD08F07CFD01461C2006F076F807F030FF01461420F0
:203B8C0006F070F808F02CFA0146102006F06AF8204602F03DFD01460C2006F063F8204612
:203BAC0008F006FA1B4D400040F020002870204608F00AFA40F010002870204607F042FD9B
:203BCC000146282006F04EF8204608F015FA400040F06000E870204608F01AFAC00040F017
:203BEC00800005F8080C204608F01EFA800040F47C40A5F89300204606F0C8FE0146082081
:203C0C0006F030F84FF48000A5F20911086038BD00A00C4049A10C402DE9F843044608F0F4
:203C2C001BFF81462D48021992F8ED10491ECFB2002F82F8ED704BD12B4D05EB84052E78DF
:203C4C00698836F07F0788461AD1F10911D24FF08054D4F8B801806901464046884704F50F
:203C6C00DC742068406B0146404688470228F8D121E000EB8800D0F80011002088471AE0F0
:203C8C004FF08054D4F8B801006A014640468847D4F8B801806A014640468847D4F8B801EA
:203CAC00006B01464046884701210D4A0D48116001688908FCD306F03F003F2801D0FFF786
:203CCC00ABFF687800F03F003F2801D0FFF7A4FF484608F0F7FFBDE8F883C0464416002032
:203CEC002820086028200840C8CF00002DE9F041064608F0B1FE2D4D8046A91991F8ED002F
:203D0C00421C002881F8ED204AD1294C04EB8604277807F03F003F2801D0FFF7E7FF6078C1
:203D2C0000F03F003F2801D0FFF7E0FF668837F07F001AD1F80911D24FF08054D4F8B80140
:203D4C00406901463046884704F5DC742068406B0146304688470128F8D121E005EB8605AC
:203D6C00D5F80011012088471AE04FF08054D4F8B801C069014630468847D4F8B801406AF3
:203D8C00014630468847D4F8B801C06A0146304688470121074A0848116001688908FCD353
:203DAC00404608F08FFFBDE8F081C04644160020C8CF000028200860282008402DE9F84F21
:203DCC000D46064628687468D6F80880002855D008F042FED4F8881021B108F073FF03202E
:203DEC0028744BE001272F74C4F8885008F06AFF94F8A40038B194F88D202249D4F89C000B
:203E0C00114306F00DFAD5F804A008F025FE04F1D80999F80030834653B91AF0704F02D1B1
:203E2C00042006F02DFA022006F02AFA89F80070584608F047FFD8F80010486840F002006A
:203E4C0048603046294600F051F9D8F80010486940F001004861207830B9616804F16C0574
:203E6C00284600F077F810B13846BDE8F88F3046FFF73CFB2846002100F06CF80020BDE8B3
:203E8C00F88FC04600000680294A2DE9F04180460126284816600768002FFCD0294C2A4F1E
:203EAC00C020443C206007F1080001682348890804D20168090C41F0F00100E072211E4D5D
:203ECC0085F85412002111638768384602F006F840463946FFF736FE1C48B038816D40F266
:203EEC000F226FF31F418A4212D901680068C1F30363C0F3034003B15B1E072805D00628CC
:203F0C000EBF0720801C00F00F0043EA001028703846FEF7ABFE0E4814380068C1680220C0
:203F2C00884740202060064F3E60BDE8F081C046101009409402224302600840AC3F00506E
:203F4C009404604244600C40A83F00506C130050B40100102DE9F0410D460646B5F1FF3F96
:203F6C00ADF1380D09D045B12B496B4605A82A4607F002F905A9022001E0002103200391C6
:203F8C00264F8DF8100038682024EFF31188371884F31188708980BB002D04BF88F3118815
:203FAC00002036D008F000FC064608F0A3FD0290C0F818D005F0DCFF3846694608F07CFD57
:203FCC009DF810000025022802D1039802F066FD88F31188304607F0E3F8EFF3118384F3D5
:203FEC001188039810B108F0B1FE03950298856183F311889DF810000BE07089401E70811A
:20400C00039818B108F0A2FE0020039088F3118801200EB0BDE8F0817DAB00000CD80000D0
:20402C002DE9F04115460446A869A060686A98460E4608B92A4800686062286A002806BF97
:20404C0028480768071C08F013FDEB69A3B9002808BF391C03D03F1841427F1E394002464B
:20406C00E161606AE169434602F074FB2062206AB8B90120BDE8F081002804BF2362391C7B
:20408C000BD01B1841425B1E01EA030020623F1AE869C019E061E0690140E1614FF0FF309C
:2040AC006062A6622869E06268692063A86A6063A88DA087A08F012803D10B49C868401CC6
:2040CC00C8602046414601F00DFE0346404607F0B9FD002814BFD81C0020BDE8F081C0461C
:2040EC0020D8000024D80000C01C0020F8B58C4645688468DCF8007095F88C10B8B288400D
:20410C001FFA80FE2068B0F1804F14BF244B254BDCF80820244832B995F88C108E0081596E
:20412C0005F1A60207E095F88C108E00811951F8081C7244521E99605A6021683A0143F65A
:20414C00F077103A0831174019609A683A439A602368B3F1804F14BF144A154ADCF804C0FA
:20416C00BCF1000F04BF805904F10E0605D0801950F8100C0EEB0C06761E9060166051604A
:20418C009068074397602169D5F8A06060690843716809688862586A40F003005862F8BDD7
:2041AC000005002030040020F0D000001005002040040020042998B54DD1274C04F12400FD
:2041CC0008F0A2FD40B994F8A300400838BFE06804D3D4F8880000E0C068E06041681F4A08
:2041EC0009781160416812680978914206D0876927B120A20CCA6FF0FF01B847022006F09E
:20420C003FF81120FFF772FD0120E071E068011D007C10B16079012804D00E20FFF766FD53
:20422C00E168091D08680E49083007680FB947681FB10020C8610B4F0F600B4A40F2FF7046
:20424C0000271060094C8F6109484C6108F068FB192004F0F9FC98BD20110020D02108401C
:20426C0000100440510007060000046002000040E52F000000000000000000021EF0040FA3
:20428C0014BFEFF3098169468869EFF3118102B400B5DFF89CE0F047284A116801EA0000F4
:2042AC0010605DF804EB1EF0080F03D101BC80F31188704704BC1EF0040F14BFEFF30981A5
:2042CC006946A1F1200114BF81F309888D464A604FF08070C8611A488861184B186808602D
:2042EC0040F201101860704702B401B4EFF3148100291CBF002282F3148802B402B4DFF8E4
:20430C0034E0F04701BC01BC00281CBF022181F3148801BCDFF820E0F04704484FF080516F
:20432C00016001BC80F3118800BF00BF04ED00E0997B000023CC0000CBCC00008C1D002095
:20434C00F54200002DE9F8430646B0680D4600F1080874686868002710B9E868002850D0DD
:20436C002078012814D108F077FBD4F8BC1049B1D4F8C0108D61C4F8C05008F0A3FC012081
:20438C00BDE8F883C4F8BC50C4F8C05008F09AFC022005F075FF04F160004FF0FF318146B9
:2043AC00FFF7D8FDD8F8000004F02CFC3046294601F09CF80546D8F8000004F045FC2078E8
:2043CC0088B9B5F1FF3F08D004F17C004FF0FF31FFF7C0FD207A48B110E0032020720220E7
:2043EC0005F036FF0AE0B5F1FF3F01D0012705E00320207204F12C0004F048FC484602F04D
:20440C007FFC3846BDE8F883F8B508F025FB2A4C0746103CD4F89C0010F4602F2BD0D4F8E1
:20442C009C00400CC5B2680807D2A80803D2E80828BF022502E0012500E000256E1D70B28B
:20444C0003F050FBD4F89C3005F111010120884023EA00013846C4F89C1008F033FC04EB7F
:20446C008500D0F88C704FB1D4F8880013A20CCA3146B84702E0384608F024FCD4F89C00B2
:20448C0020B104F1FC00002107F0EEFE94F8A30080080FD3D4F8987037B1D4F8880009A2F6
:2044AC000CCA6FF00101B84794F8A30000F0FD0084F8A300F8BDC046301100200000000063
:2044CC000000000800000000000000802DE9F0412D4C0546A41C20781F4690460E46ADF1B8
:2044EC00380D012803D0FFF7EFF8012020705EB1B8F1000F6E6007D0C5F8088008F0ACFA92
:20450C00617819B108F0DEFB002038E0491CC9B2617008F0D7FB01241FB9684607F09AFF2D
:20452C006F46386828607868E860387A2874F8686861386900B1A8610021782205F12000C7
:20454C0001F092FC05A800212422082308F0BAFA8DF82C4005F13800002105AA05F0C8FF3A
:20456C0005A800212422082308F094FA05490B9505F17000002205AB05F0ACFC28460EB07B
:20458C00BDE8F08165CC0000201100202DE9FC470AAF3F8882460C4608469946154601A952
:2045AC0006F012FB012808BF01204AD0BDF80400DFF8948042F60211FF26401A2ED048F21B
:2045CC006311401A012827D827BBB9F1010F1FD1BDF804104AF666200027884202D1297859
:2045EC00032913DA2978E2681170BDF80410884205D0E1684046884218D13E4618E0E1687B
:20460C004046401C884211D1012611E080270DE00D270BE00B2709E00A2707E000975046D5
:20462C004B4621462A4603F09BFF0746FF2E07D04046001D006818B1016809B130468847EC
:20464C003846BDE8FC87C046241B0020F8B508F0AFF908F0B9F9044604F00C000C2845D0B9
:20466C00E0081ED206F058FA234E376805460120014607F015F931686943884211D21F4CE9
:20468C008220B0FBF7F0291A204608F061FB204607F05CFE0120FDF7F1F8204607F0A2F831
:2046AC0025E0200922D21648610939BF016821F00101016841F0010102460160D2F89800E9
:2046CC004FF0805440F00300C2F89800D4F8B8018069014620208847D4F8B801094C806BAD
:2046EC002168804701202060206800E030BF08F065F902F0CFF8F8BD00D800005016002044
:20470C008C2108402C200940F8B50D46EEB2290824BF26494D40264BB400195985EA01024A
:20472C000240C2F3006C234A00EA05078143FF323A4000F4E0270A43B7F5E02F01D1510E04
:20474C0015D300F4E0215CEA010710D002F4E027B7F5A02707D0B7F5803704BF22F400328D
:20476C0042F4A02203E022F4803242F4C0221A51114CC10D04D3A4F18001C5F380528A5586
:20478C00000E11D308F068F9290E03D201210022B14002E00121B1400A46503423688B435F
:2047AC001A43226008F08EFAF8BDC046006000A000100840007F077F802002407FB504F06C
:2047CC00EDFA041C46D04FF4802010216A4603F0ACFA041C38D00098204E410F01D086423C
:2047EC0000D200241E4901981F4D814204D829465639814202D226E0000B24D124B31948D9
:20480C0010216A4603F091FA041C1DD00098410F01D0864200D200240198010B13D02946B2
:20482C00814210D384B103F0B5F8104D064610214FF4F4202A4603F078FA28880024B04225
:20484C0008BF012404E000244FF4F42002F03AFC05F03EFC204600907FBDC0460050002002
:20486C0001F0010010100400FFFF0100F02C002070B5294C294D012806D028BB2146002062
:20488C00491C07F0A1FD1FE02146012007F09CFD0878022811D0491C002005F0C9F92868A4
:2048AC000A210022064605F011FA002230460F2105F00CFA06F084FB06E008F0AFF84870DE
:2048CC00491C002005F0B4F921460878012822D1286861780546490834BF002201220A213A
:2048EC0005F0F4F96078800834BF0022012228460F2105F0EBF96078C00802D206F060FBF6
:20490C0004E0284604F034FD04F050FD6078000901D302F05BF870BDD01F00202C0500204C
:20492C002DE9F0410E46294990461C4606AF8C4672680878BB8851783F881278002502EBD6
:20494C00012242F62321521A29D0521E052A18D9921F0CD0263A34D1072F30D8C7F10700C8
:20496C00984298BF83B2674407F1080121E0B84225DBC01B9842D8BF83B22380DCF8040022
:20498C000BE0F06807F0B6FD80B2B84217DBC01B9842D8BF83B22380F06839180AE0082F12
:2049AC000DD8C7F10800984298BF83B207EB0C010F31238040461A4600F088FB03E0072596
:2049CC0001E025800A252846BDE8F081501300202DE9FC4706F040FA284C0025A5704FF693
:2049EC00FF70A08204F0EEFE234F2A462070012039461346009004F1A80003F0A7FC4FF0CD
:204A0C0002082A4604F1CC003946CDF80080134603F09CFC04262A4604F1F0003946009613
:204A2C00134603F093FC04F14809102248462946E67001F019FA04F1580A10225046294632
:204A4C0001F012FA04F120073D602572072065721021A0724A46E572404605F0D3F903206B
:204A6C001021524605F0CEF930463A46014605F0C9F9BDE8FC87C0469DC10000E00800201D
:204A8C0038B504464A78284D087800EB0220ADF800006A88BDF8000090423AD1BDF8000031
:204AAC00891C000107F0B8FC6888AB88401C81B269808B4229D103F029FAE0B12046002109
:204ACC0002F0E0F906F036FC29780843287005F067FC07F071F990B12878410805D3AB6984
:204AEC002146032000229847287810F0060F06D007F0D2FD03E02046012102F0C3F9002491
:204B0C002C7007F09DFA6C8038BD204602F01CFC38BD00206880287007F092FA204603216C
:204B2C0002F0B0F938BDC046241500202DE9F84F804608781C4616460AAF022831D02348CA
:204B4C00DFF88C90D1F804B08569102282464946584606F0D5FC002740B9002D33D08AF82B
:204B6C000140012041463246A8472CE009F110015846102206F0C4FC10B925B30220F1E7A1
:204B8C0009F120015846102206F0BAFC90B9012C05D13078002818BF8AF80A0013D1802768
:204BAC0011E048684278007842F6021500EB0220854201D00A2706E03888324600904046BD
:204BCC0003F0CEFC07463846BDE8F88F2415002088CF0000264838B550380468B4F1FF3F33
:204BEC0008BF002407F00EFC22481749002510380560012008601549086003F037F9144853
:204C0C00006820B1134800682046FFF73DF9124812490560124C0A686FF35B4244EA0200E1
:204C2C00086010490868C0F30130012806D10A680D48104040F400320A6008600B49086840
:204C4C000028FCD138BDC0465C600C400822044380012843000120438C21084048200340EF
:204C6C000000390104000940FFFFFCFC0C0068426C130050940460422DE9FE4F0CAF3D8809
:204C8C0081468B4608469846144601A905F09CFF012808BF01203DD0BDF80400DFF878A0EA
:204CAC0042F602110026FF27401A21D04AF2C031401A0BD0401E19D1B5B9B8F1010F11D153
:204CCC002078DBF80C10022708701BE065B9B8F1080F07D12168656850460E30016001273C
:204CEC0045600FE00D260BE00B2609E00A2607E00095484643465946224603F031FC0646A6
:204D0C00FF2F06D05046006818B1016809B1384688473046BDE8FE8F18190020B0B50146A7
:204D2C008B681C68E26948682262520824D2D0F8A01049680A685D69D2F80415294206D09C
:204D4C001C68616A21F002016162C2F80455D2F8042519690A4230D01A68516A21F00101FD
:204D6C005162D0F8A0205268196912683830C2F8041503F08BFFB0BD1C68626922F00102AD
:204D8C006261D0F88870AFB9626822F0020262601C68626A22F003026262D0F8A0005A6924
:204DAC0040681C6900682243C0F80425084606F0DFF8B0BD0846FEF799FBB0BDF0B5204833
:204DCC000127F84201D003F059FB204D204F214EBD4206D203CD0478A4003459401CA0476B
:204DEC00F6E71D48002800D08047164D164FBD4202D210CDA047FAE7F0BD03251BE04168ED
:204E0C0008300A1C2A400BD11A1C2A40AB4305D0046804300C600431043BF9D1131C05D031
:204E2C00047801300C700131013BF9D1021C2A4001D0A84304300368002BE0D17047C04689
:204E4C00FFFFFFFF00000000000000001CE200004CE2000014E20000098000002DE9FF4149
:204E6C00244D8046681C00780E46082814BF04240024084604F012F8684601F03FFDA4196C
:204E8C000026E178A0786E8000EB01202E7080106946A880204602F029FA18B3204607F0CD
:204EAC00EAFCE861000BE88007F0D6F8A8B1E888A988C4B200EB2120C7B2A74208DB3F1B44
:204ECC007F1C204607F0C2FE641CE4B27F1EF8D14046314602F038FA08E04046022101F0EF
:204EEC00D1FF03E04046694601F034F80090BDE8FF81C04624150020B0B5244C2278E188B5
:204F0C009308084603D3491C401CE18080B2A18852080F4603D3491C7F1CA180BFB2062FFD
:204F2C0011DB06280FDB04F11000054607F0CCFB58B3284607F0ECFE0020A080E080607881
:204F4C0040F001001CE003280BDA38431DD104F11000044607F0B8FBB8B1204607F0D8FE0A
:204F6C00B0BD97B904F11000054607F0ADFB60B1284607F0CDFE0020E080607840F00200AE
:204F8C0060700348006801F0BBFEB0BD041D002028050020FEB5FCF781FF244C002504F12D
:204FAC006C0606F0F1FC58BB009501A80DF106016A4605F043FBD0B9BDF80400102807D105
:204FCC0060789DF80610884202D1009807F020FD009860B106F08CFF09E0206906F09EFECB
:204FEC00071C04D006F06AFD384606F051FF206907F080FC0028F0D0FEF736FD07F048FA48
:20500C00A088C1080FD320F004002778A080022F09D1304607F07AFE2078022803D10F2029
:20502C00012103F023FD03F0B9FFBAE72005002010B50020442101F00FFA002808BF002447
:20504C0040D0214C1F200222214607F022FC002835D021880806000C40EA2120782815D107
:20506C001020208021460220024605F0E7FC30B302202146024607F00CFC00B3218808068E
:20508C00000C40EA2120B0F5805F01D0208016E00020208021460220024605F0CFFC70B130
:2050AC0002202146024607F0F4FB40B121880806000C50EA2120208008BF012400D000247E
:2050CC0007F094FC204610BD54300020002A4AD05FEA000C8B071CD1830722D1102A08D3BC
:2050EC0070B4103A78C978C0103AFBD270BC103238D0042A2CD3082A05D30C2A24BF08C90F
:20510C0008C008C908C008C908C092072AD0920F22E00B780370491C401C521E22D08B07A8
:20512C00F7D1C30714D18307D8D0121F12D308C903801B0C4380001D121FF8D20AE008C993
:20514C0003701B0A43701B0A83701B0AC370001D121FF4D2121D05D00B780370491C401CB9
:20516C00521EF9D1604670472DE9F843224D884606464FF0FF3105F124008146FEF7EAFE85
:20518C0000200CE0FF2909D02A688A4204D905EB8101D1F894700FB1002627E0401CB8F18A
:2051AC00000F03D018F82010FE29EBD10024346074600127B46011E0FF280ED005EB8000B0
:2051CC000B787268C0F8946007FA03F0104370600A680A49304605F005FC641CB8F1000F3A
:2051EC0004D008EB84010878FE28E5D1484601F087FD3046BDE8F883E02B0020007FC7678A
:20520C002DE9F8432020EFF3118780F31188214CA068012107F092FD4FF001094FF00008BE
:20522C0065692168A4F81C906A1A2168A4F81E80461B401A904227D387F3118840464519FE
:20524C00361A4846294600F0FDFEB042F7D92021EFF3118781F31188E18B012903D1404690
:20526C00294600F0EFFEB0F1FF3F06D0A169801B814238BF081C411901E0A069291806F023
:20528C008DFCA4F820902560A4F81C8087F31188BDE8F883901E00201CB50020772101F0F5
:2052AC00DBF8002808BF00243FD0D0206946012207F0EFFA002835D09DF80000582831D107
:2052CC00F5206946012207F0E4FA00282AD09DF8000038BB55208DF8000069460122F4207C
:2052EC0005F0ACFBF0B1F4206946012207F0D1FAC0B19DF80000552814D1B6208DF80000FA
:20530C0069460122E02005F099FB58B1F4206946012207F0BEFA28B19DF80000002808BF2B
:20532C00012400D0002407F061FB20461CBD70472DE9FE4F8046B8F1000F01920C98029154
:20534C009B46009005D0081C03D0101C01D0009810B90220BDE8FE8F1948017800252C46E1
:20536C0029E0A00038F800A04FF6FF7708EB000657451CD0B778D7B10198029A594607F0EA
:20538C00FEF85FEA000912D0780806D3009B504601214A4601F0A8F90543B078800806D338
:2053AC003088009B02214A4601F09EF9054304480178641CE4B2A142D3DC2846BDE8FE8FFE
:2053CC00E0080020F8B50F4601464C688E683846203804F10C0432D0401E2CD0401E27D139
:2053EC0020781578012814BF19491A49FF2D41EA05011BD0D4F8900001F01EFC98B9306823
:20540C00B0F1804F14BF23220B22D4F89000294605F0D2FAD4F8900094F8811001F0C2FF14
:20542C0084F8815012E04FF0FF30F8BDFF25F1E76FF00100F8BD002084F89800F8BD21786B
:20544C000020012908BF012084F898000020F8BD0004C0A000200080FEB50446224816465E
:20546C00089FC069618250F821201C4800681D4690420DD01B480068009000220191184E91
:20548C00029231888F23384606F0EAFB0120FEBD084603F0B7FBA66068696060286AB0F10F
:2054AC00FF3F08BFFF2020740026E660288B00280EBF301C0120E0600146A88C10B141F0FA
:2054CC000200E060204602F08DF90346384606F0B9FB002814BFD81C301CFEBDECD7000076
:2054EC008AD80000D8D700006C1D002080B5406800F10802C0F8A8100868C2F8A400486820
:20550C00C2F8A8008868C2F8AC00C8681A49C2F8B000D2F8A87097B9D2F8A000007C400072
:20552C0040F0010041F8040C022010700B68DB0917D2D2F8B020022A17D30B2216E0D2F866
:20554C00A000007C0127400041F8040CD2F8A4001770431CC2F8A430007848600868C00937
:20556C0002D34FF0FF3080BD022003220A6007F06AFB002080BDC0460428004022482DE943
:20558C00FE4F801E028880465FFA92F1100100F47042801A1FFA80FBB8F80200C5B2411881
:2055AC005FFA81FA0021AA45019124DBAAEB0506761CA8420CBF04240024AA45D8BFA345C9
:2055CC0013DD284621466A4607F0D6FA0427E94619F8011B019804F0B3FE7F1E0190F7D1C8
:2055EC00241DA4B2B4F5805FE7DBB8F802006D1C761EEDB2DDD10198002104F0A1FE002134
:20560C0004F09EFEBDE8FE8F2A1500202DE9984307F022FA1F4CDFF87880814604F1E00083
:20562C00007850B94446A0680146022088470746102003F0B7F82FB320E001F0CDFD00282F
:20564C0020460FD1144909683222B2FBF1F101B9012100F13004204607F07AFB204606F018
:20566C0075FE0FE044460022A16880F8E020022088470746102003F095F81FB1A068014682
:20568C0003208847484607F01DFBBDE89883C0468CD600004416002000D80000F8B50D46F5
:2056AC001F4C20490728164638D8DFE800F0192C2A2826242104284605F074FF071C2DD0BC
:2056CC00616804F11700884202D0606806F0ECFB384631462A46FFF7F9FC67602570F8BD47
:2056EC00082D1BD130680F34206077686760F8BD0C46153408E00C4606E0643404E04F340D
:20570C0002E03A3400E0253420460021152200F0ABFB204631462A46FFF7D8FCF8BDC046CE
:20572C0050130020C9130020F8B5204C820002EBC0002418666825680F1C08BF1C4F3878F2
:20574C0030B97888312818BF322815D1207A98B907F082F90146387838B96B78AA781A433D
:20576C004FF0000318BF012302E0227AAA18537823B1084607F0A6FA0020F8BD18B9012055
:20578C006870A87003E0207A012228184270084607F098FA38782870B079FEF7A7FA204637
:2057AC00394604F0A9F92046F8BDC046BCCE000018D300002DE9F04107467868051DD0F8D4
:2057CC00BC00A8B307F048F91A4E00248046F46004203060022007F036FA2B68D5F8A410B7
:2057EC00384622469847022004F032FD09E081692B6822463846C5F8B8109847022004F0CD
:20580C0027FDD5F8B800D5F8BC108142EFD12046C5F8A4002C71C5F8B800C5F8BC00064B14
:20582C00346038461C6002F0E5FE404607F04AFABDE8F081042800401004054270B51E4DCB
:20584C00AC68064606F084FB4FF47A71001B4843030C05F029FB2969401A48BF404240F6C0
:20586C00B8319B19994210D306280EDAE9688C420BD8286848B1114A091B51438A0C02EB8A
:20588C001141884288BF011C08E00D49486840080ED208687D2100F0FF004143C82905D31C
:2058AC00B1F57A6F88BF4FF47A6103E0C82101E04FF4FA61084670BD4030002040420F0001
:2058CC00AC3F00501FB5204C002834D0012822D0022837D1022002A904F046FA21467E20C2
:2058EC009DF80920C8619DF808404A76052C0C7614BF022004208876887E01F11C048DF8B1
:20590C00080021680DF1090302AA01201960052103F0D4FC16E00120694604F025FA9DF843
:20592C00000021460DF10102144601F11C0388762168196006E021460020203104F014FAC8
:20594C0002F0C0FF00901FBDA01D00202DE9FC4108AF38881D4690460E46002818BF0B20C0
:20596C0033D10846694605F02FF9012804D1002028800120BDE8FC81BDF800004AF60141BD
:20598C000024401A16D0401E0BD0401E1CBF2C800A2419D102202880F068008841460880A8
:2059AC0012E005202880F068026841460A600079087109E005F0ACFC0548083002782A8048
:2059CC00F1684046FFF782FB2046BDE8FC81C046B0190020F8B5001D84B214F0030002D019
:2059EC00241A241DA4B206F072F901461948102C47680160C8BF8768388800221646C30BEF
:205A0C00DD0319D126B984420ADD3A46012617E01388C3189BB29C42138011DC17461846AA
:205A2C009FB1001B80B20428B4BF3C88385344F400443C803F1D08E080F40040002680B247
:205A4C00C71938880028DAD10027084606F052FC3846F8BD64170020B0B50446A768ADF1E4
:205A6C00280D27BB0C20FFF7B5FF071C16D0684600212422082307F00DF8002306976A4678
:205A8C006168ADF810301448059303F027FF386038B906F024FC384604F09CFE6FF0030032
:205AAC0018E0E06878602069B860A7600AE006F00EF90546386805F095FE2069B8602846B1
:205ACC0006F018FC3868616807F042F9386806F03DFC00200AB0B0BD81C90000B0B51446F6
:205AEC000F4606F0B9FF85B219480068007808B906F00EF887B1384605F0A6F840B114B163
:205B0C004FF0FF3020700820FEF786F8002419E038687968BA6803E04FF4807001220146A0
:205B2C0004F066FB0B49012008600B4908684008FCD30A4800684168022088470CB100211A
:205B4C0021700446284607F0BDF82046B0BDC0469CD60000A802504208800240CC01001016
:205B6C00F8B51F4C0546207E012802D9401F1FD023E0012803D106F081FC061C0DD0207EB6
:205B8C00617E00F069FC061C07D0207FA27E294606F07FFE064606F029FF012E0DD0FF2195
:205BAC000020A27E824208DD2954401CC0B2F8E7E169A27E2846FFF789FAA67E241D2846A2
:205BCC003246214605F09CFC002700B1012727B1204629463246FFF779FA3846F8BDC04686
:205BEC00A01D0020F8B50E46044606F0C5FD0546304604F065FF071C03D1284604F09EF9B0
:205C0C0026E0F87F10F0070F1BD113487968884202D079682166786010A090E8060004F1BE
:205C2C005807284687E8060004F088F904F138004FF0FF31FEF78EF904F1680696E80300A5
:205C4C00F8BD284604F07AF9F87F10F0070FFBD102200021F8BDC046697F0000020000006D
:205C6C0000000070B0B517491C481D4A0F68C0691549C2F8080DD2F8083D99420ED06FB163
:205C8C00124B1B6800240F2C2CBF1D1C0D68091D641C05607F1E00F10400F4D10D48D2F89F
:205CAC000C7D0B4D0168202427F47F4000EB01202918C2F80C1D084B82F8224D1868C2F8CA
:205CCC00140DB0BDDCD7000010100000ECD700000000FA05F0D70000E4D700006C1D00206A
:205CEC0000E000E070B50D461B4A1A4904462B4604F017FD2061284605F0A4FF40BB1848F3
:205D0C0001220021A568036822751448A161002D18D4A1688A408069A168E26006F0C0FEF2
:205D2C00206406F041FDEFF311850646202080F31188204606F0A4FA85F31188304605F019
:205D4C002FFA05E0E160C0182146206405F050FF002070BD35BC0000D5950000C01C00203D
:205D6C0014D80000F8B50E4605461446A969EA691F462046FFF7AAF964602FB1EA6920465F
:205D8C003946082302F0C2FDE468D6B9E8686969AA68079B06F0C0FE071C08BF002020D03D
:205DAC0006F0AEFE69683960696849687960696849680F6069684F6006F006FD07F1080600
:205DCC0005E06A6930460021083A00F04DF82868B0F1FF3F18BF3060286908B16168315087
:205DEC003046F8BD1CB5042005F0EAFD022818D0032816D016480068C0F38150032814BF30
:205E0C0041F288324FF47A721248144C016854342046B2FBF1F106F09BFF204606F096FA3E
:205E2C001CBD03200C4C009000214FF040521C23204602F027FC012000214FF400720923A3
:205E4C000090204602F01EFC022004F001FA1CBDB43F005000D8000000A00C4044160020C9
:205E6C00002213460A46194671B510F0030F0BD0002A82BF00F8011BB2F1010210F0030FA2
:205E8C00F6D1002A08BF71BD11F0FF0141EA0121042A18D341EA0141082A0FD30E46102A9A
:205EAC0008D30C460D46B2F10F0312F00F0272C0103BFCD812F0080F18BF42C012F0040F36
:205ECC0018BF40F8041B12F0020F18BF20F8021B12F0010F18BF017071BD70470246184882
:205EEC0008B50068C0F3046006F0B7FC00EB2270401C162805DA10F10A0FB8BF6FF00900C2
:205F0C0000E015200F49104B00F01F0040F4F85008801868800803D20C490020086001E0FF
:205F2C0042F040620A49D00E930E80F0010000F00100086083F0010000F00100886008BDD3
:205F4C00B81200506E6208400000094094042A4300002043FEB51C4D0C462D1FE9680646FB
:205F6C0006F052FB40082CD330460821002205F0E1FC0746019727B32A4602F12000102185
:205F8C00083206F0FCFA08254089ADF80250ADF8000022783A702188019809124170A178D2
:205FAC0081706188231D0912C1701968051D30462960694605F07EFE18B168461B2105F005
:205FCC00C7FC06F03DF8FEBD2815002010B51C4C00202070FFF72CF818B1207840F0010026
:205FEC00207000F0C3FD18B1207840F002002070FFF752F918B1207840F00800207002F0D6
:20600C0025F818B1207840F00400207001F0F8F918B1207840F01000207002F07FFF18B1E6
:20602C00207840F02000207006F0A0FA002808BF207803D0207840F04000207010BDC04687
:20604C006E3000202DE9F04780461A481A4C00682418204606F080FE0E464FF0FF374FF015
:20606C00000A814621E04D46284606F077FE8146A88A012819D1B8F1010F0ED1E86886421A
:20608C000BD12869002808BFA5F814A002D0E9684018E860A969E8698847A88A012804D122
:2060AC00E868801B874288BF071C4C45DBD13846BDE8F087FCD70000901E002038B5054606
:2060CC0001201A4C68712879B0B905F000FE2178002904BF6FF00704051C15D0491EC9B280
:2060EC00217039B906F006F9606804F079FA0020687118E0054613E005F0E9FD0546207800
:20610C00FF2805D16FF00604284606F0F3F80BE0401CC0B20128207002D1606804F077FA4C
:20612C00284606F0E7F80024204638BDC01F002070B50646B079F5680B28A5F108052CDABF
:20614C0030790B2829DA05F0C2FD154CB27991000C3401EBC20161184968E1B106F0CAF820
:20616C0030792870B0796870307AA870B179880000EBC1002018F1684068083004F0AEFBA3
:20618C00B179880000EBC10024186068406800F0B7FD002070BD06F0ADF86FF0020070BDCF
:2061AC00D017002038B519491A4C00204822C1F8F30F94F8E200C1F8FF2F20B3012817D09A
:2061CC00022807D003281ED151F8310C00F05EF80B2016E051F8315C2846FBF74FFF40F2F5
:2061EC00FF50A84202D8801CA842F1D2082008E051F8310C00F036FF054800780028E7D0D8
:20620C00052084F8E400FCF7C9F938BD39400C409AD60000441600202DE9FC411A4C4FF09C
:20622C00050804F11400002604F11C052860102284F8188004F120076676314666610420D8
:20624C00A0763846FFF710FE102130463A4603F035F8A07E8DF8000029680DF101006A4670
:20626C0001600120414603F029F8207E8DF80000607E6A468DF801000220014603F01EF84C
:20628C0005F046F8BDE8FC81A01D002038B51A4CA0F5C060D4F8B810C4F8D4000029B8BFF4
:2062AC0049420028B8BF4042814220DAB4F8BC00124D30214FF47F4208230090284602F032
:2062CC00E1F9B4F8C00004214FF4F80212230090284602F0D7F9B4F8D00020214FF4406273
:2062EC000A230090284602F0CDF9012000E0002084F8D80038BDC0464416002000A00C40D9
:20630C002DE9FF410E460546194C7188E08A81420CDCB188814209DBF088218B884205D165
:20632C003089618B884208BF18271DD0052002F0D5FE7788B388ADF80270F288ADF8043061
:20634C003189ADF806208046ADF80810A08AADF80000684606F0F6FA071C05D1A57304F1C0
:20636C00F000414603F0BEF938460090BDE8FF81E00800202DE9FC4117460E4605464FF027
:20638C00020801F0FFFE18BB04F0E2F900BB05F0FF04C4F58074B44288BF341C8DF8008065
:2063AC008DF80350280C8DF80100280A8DF8020006F08CF86846042103F0AAFF361B6519CE
:2063CC0020B93846214603F0A3FF20B106F074F80020BDE8FC8106F06FF8E719002ED0D1BD
:2063EC000120BDE8FC81FEE71A4898B5D0F8781203680F0F03F0FF03802B28BF002302F043
:20640C001DF94FF0FF3478B1401E07D0401E012802D9801E19D01AE0BFB118E0381C12D009
:20642C00801E14D1143311E03846401E0BD0801E07D0001F03D0401E09D1163306E01524D7
:20644C0005E0142403E00A2401E00A335CB2204698BDC046A010005070B50D461549194CDA
:20646C00134A09680646241F04F11400B2FBF1F1FDF770FD002808BF002017D00E480570F9
:20648C000E4D20682978B1420CD02E7006F05BFB05F0C2FC2878012804BF0948206104F0AE
:2064AC00EFFE2060002100B10121084670BDC04620A1070000D800006D3000206C300020D5
:2064CC0088D80000AC2F002070B5021CADF1380D2ED0184904A86B4604F04EFE2024EFF30D
:2064EC00118504A8039084F3118806F05DF9064606F000FB029003F03BFD039800F0CEFA12
:20650C00684606F0EBFB0298C0F818D085F31188304604F045FEEFF3118384F311880398CC
:20652C0006F014FC0021039183F31188029881610EB070BD91BD0000B0B5ADF1400D06F08A
:20654C0033F9044600213C220823684606F0CCFA114841680691816800680490104818387F
:20656C000068002205900D480891694602F0D2FB071C0DD005F0ABFB0546384601F04EFEF3
:20658C0030B1284605F0B6FE204604F009FE01E001F0D4FA10B0B0BD88CD000045C6000069
:2065AC0070170020F8B5174A174B184C121D22F003019C4621605E1A206825686060676890
:2065CC00A660002001E025F8020BAB42FBD84FF6FC75B3102A4001EB830323F8040CACEBA7
:2065EC000202E82315403B80EC3DA1F8E850E83144F8081CFFF7EEF944F8040C606844F8D0
:20660C00080CF8BD70300020284200207017002038B504461848174D001F02686B68C2F3A8
:20662C000351C2F303405B0813D22B681D0511EB257103D41029A8BF0F2100E000211B04AC
:20664C0010EB237303D4102BA8BF0F2300E00023184640EA011002F47F4102F0FF03222C5E
:20666C0041EA004143EA010024BF02F08042104338BDC046AC3F00507C13005030B5401E32
:20668C004FF00004ADF12C0D0AD0401E04D0401E20D1FBF783FF1DE001F020F8044619E0BC
:2066AC0001A821462422082306F0F4F906940D4DADF8144009490794012201AB05F1780053
:2066CC0003F008FC064A23462C2105F19C00009302F05CFF20460BB030BDC046F16E0000CC
:2066EC00B161000044160020F0B50E4615461C460746ADF11C0D4FF6FF7103AA05F01AF9CE
:20670C000246059212B300200090BDF80C000DF1120329460190FF2002903846A047041C0F
:20672C000FD16889ADF81000700804D3384604A905F0C0FA03E0384604A906F05DF8041C25
:20674C0005D004A81B2105F003F900E01524204607B0F0BD2DE9FF41984607460C46134670
:20676C00404605F06FFA054613B906F0DBF90346002F12BF381C0F4800681A46214643469C
:20678C0006F018FA061C10D11DB9404605F05AFA58B90A48006800900197074D02942988AF
:2067AC0000223423404605F05BFA30460090BDE8FF81C04644D8000090D800002CD80000CB
:2067CC002DE9F041054615F8017B90460E461CE0B8F1000F05F101050BD0FF2C09D80220AF
:2067EC0015F8011B401E41EA0424F9D101E0042C02D315F8011B00E0394630462246FFF7A7
:20680C0033FBA61901E006F8010B15F8010B8742F9D115F8014B002CE9D115F8010B2C78EC
:20682C0000022418D4D1BDE8F08170470146184880B5983000688A0CC0F38367C0F38F20FB
:20684C0022D241F3072100290BD54A420021400805D17F0806BF0127381C4FF6FF70521E1C
:20686C00F5D1002910DD4FF6FF72400040F00100824207D2780040F001070F2F92BF01200C
:20688C000F27101C491EF0D140EA074080BDC046B8120050164880B507683FB315498B684F
:2068AC0003EA5300C00E21D2134A106880081DD2486880081AD21068096810F0050F4FEA25
:2068CC00114101F0F00101F5E0710AD1B9420DD2190F38BF40F00100D90E38BF40F004001A
:2068EC0003E0B94202D920F00500106080BDC04628500940AC3F0050000009401FB50446A8
:20690C0002F04CFA50B3164810300078022804D0032818BF4FF4F02001D14FF4F22010216F
:20692C006A4601F002FA03F0D3FBBDF806006080BDF80400FF2808BF002002A920800968CF
:20694C00201D0160FF219DF80C30E1729DF80E206372BDF80C00A2720012207200901FBDCC
:20696C00681F002000B540F21630ADF1140D6946FCF714FA40F213300DF10201FCF70EFA57
:20698C004FF4467001A9FCF709FA9DF800008DF80600BDF8000000128DF807009DF8020048
:2069AC008DF80800BDF8020000128DF809009DF804008DF80A00BDF8040000128DF80B0064
:2069CC000DF1060004F0BCF905B000BDF8B502F0E5F960B3164E35680024C4F30C000027ED
:2069EC0000B9012748B928460F21012203F06EF9284600220A2103F069F9204600F062FBCB
:206A0C003068054647B10A21012203F05FF9284600220F2103F05AF904F58054E00CDCD08B
:206A2C0028460A21002203F051F903F051FBF8BD2C05002070B50646880F26D302F0E4FB3B
:206A4C00124805F06DFF134DA81C0078012803D006F1380000F054F90D480024046002206C
:206A6C0003F0F6FB1120FDF7D7F8307C10B90E20FDF7D2F82846084A04721178447221B18A
:206A8C001470C830042105F0EFFB70BDC141000000000460201100205C300020B0B5184C11
:206AAC000546208C002701281BD1A08BC8B9A068012106F043F92168421A23686169C91A72
:206ACC0091420ED30127A968AA68AF824118E9606169091A914211D9E968104605F05EF83C
:206AEC00B0BD5FB904F06EFEA78BA968012F0844E8604FF00100A88208BFE083B0BDC04697
:206B0C00901E0020F8B570BB174C606848B3002080F31188202080F3118860686369266902
:206B2C00F825B0FA80F0A5EBC0001B1805E06369B0FA80F0A5EBC0001B189E4211D2184620
:206B4C0005F0B4FF0746184605F0D4FE18B1B969606888436060384600F09CFE60680028D9
:206B6C00E5D100202080F8BD1C1F00201CB500204321FFF771FCFE200222694605F089FE5E
:206B8C0010B3BDF80000BDF8001045F249440006000C40EA21208442ADF8000014D1FF20FC
:206BAC006946022205F075FE70B1BDF80000BDF800100006000C40EA2120B0F5805FADF84D
:206BCC00000008BF012400D0002405F00FFF20461CBDFEE770B544688668D4F8A40004F07F
:206BEC0050FE13480025C56005601248361D05603068FDF711F804F1100006F097F804F10B
:206C0C002C0006F0AFF804F1600006F0A9F8207818B904F17C0006F0A3F804F1C80004F097
:206C2C0021FD05F019FF84F8DC5006F04BF870BD04280040100405422DE9F041071C0E468A
:206C4C0004D0144C2068F5B2A84202D80220BDE8F08104F124004FF0FF318046FDF77AF914
:206C6C0004EB85049434206860B979680120A84027603246084308497860384603F0B2FEA9
:206C8C00002400E00124404600F03AF82046BDE8F081C046E02B0020007FC7672DE9F8436C
:206CAC008146EFF31188202080F311880125114E114CF561114F6560F86A016A142088470D
:206CCC00D9F81000810C14BF000C0420A06138680268232100209047C6F88052206820F4C5
:206CEC00C02040F480302060356088F31188BDE8F883C04600002443002009408401001010
:206D0C00034670B52020EFF3118480F31188144800681D18181805F0EDFDB0B905F044FD8F
:206D2C000646284605F0C2FE054601202874E86808B104F057FDA868214603F02FFF84F370
:206D4C001188304604F02CFA70BD187A40083ABF5889401C0120588184F3118870BDC04684
:206D6C000CD800002DE9F04105462C68287A6E6804EB8000C1632F7A90460823ADF1380D65
:206D8C003022002101A805F061FE7801012100220695A0EB870024187079ADF81C1001AB6B
:206DAC00241D0092064A31790990204602F0EEFB4146284604F052FA0EB0BDE8F081C04611
:206DCC00B98500007FB5466819B98068057D447D01E00D784C78FF2D1DD0FF2C1BD01048D9
:206DEC0040EA05010091FE23029320436946019006F19800FEF7B8F9C6F8A40058B129465E
:206E0C000D2203F0D9FDD6F8A40021460E2203F0D3FD002001E04FF0FF3000907FBDC04661
:206E2C0000200084D0B5044605F064FE01F0F6F9071C08BF6FF002041FD004F048FF0146DC
:206E4C00A2880F480023603030F80C6F5EB902804760A268826023737868206100240846BA
:206E6C0005F048FA09E0964208BF6FF00204F6D05B1C0B2BE8D300F061FE2046D0BDC0466C
:206E8C00701700202DE9FC41154E0D4606F114042168804605F0B8FB093C4008F5721DD34C
:206EAC0040460121002204F045FD07460197AFB1304610212246203005F061FB40890126E1
:206ECC00ADF800006946ADF8026040463D7004F0F1FE18B168461B2104F03AFDBDE8FC8135
:206EEC00241500201648144A144908B5E4300078801E0A2807D8DFE800F0181410061410FF
:206F0C000614100609C005F02CFA11E010688008FCD250688008FCD20AE008688008FCD3D3
:206F2C0006E008688008FCD202E010688008FCD3FBF734FB08BDC04634600C4038600C4038
:206F4C004416002010B505F087FD114C611C097829B10E490C6805F0B5FE204610BD05F09D
:206F6C00B1FE05F045FA0DA20CCA05F029F9A26C002314001B1807A044EB010490E80600B5
:206F8C00C91842EB04021046001C10BD0430044020110020000000127A00000000093D00F7
:206FAC0000000000F8B506AF3F881D461446002F18BF0B2022D148684278007842F6192761
:206FCC00002600EB022087420BD042F60812824218BF0A2611D102202880C86800882080AD
:206FEC000BE002F09BFB0649491C0A788242C4BF021C0A700120288022703046F8BDC04671
:20700C00401A00202DE9FC4103F0FEFE1148144C114F124E056804F1180812E0404604F041
:20702C00EFFEE069A369ADF806006946ADF80230000CADF80400180CADF80000002000F043
:20704C0027F938780628E9D0B6FBF5F0FFF73CFAF7E7C04600D8000020050020400D03005A
:20706C00FC0B0020134910B50A684BF2F5214843040AC2F38140012806D103F015FF02F0EF
:20708C00A5F8604304EB90540C4901F1E500007830B90948006820F07F402418640802E032
:2070AC00002081F8E50006480460210C41600123836010BDB43F00501020094044160020BC
:2070CC003C600C4098B5044620208DF8000004F6FF706FF30B04001B00F6FF70000B1ED00D
:2070EC00074601F04FF8D0B903F032FBB8B9200C8DF801008DF80340200A8DF8020005F0C5
:20710C00E5F96846042103F003F910B105F0D4F998BD05F0D1F904F580547F1EE1D198BDBB
:20712C001FB5684605F020FC3221ADF8021000208DF800008DF804006946FEF7F5FA0E4C8B
:20714C00241D206008B902F03FFA02A805F0D4FA20684FF0FF3105F036FD206805490122F1
:20716C00FFF700FE206801F033F84FF0FF30FFF7ABF9FAE7C5C70000C40E0020B0B5044655
:20718C0005F05EFC30F0010008BF6FF004041ED005F0B0FC054604F09AFD01460D480B2217
:2071AC006C3030F80C7F6FB1A388BB4208D1406800680022854208BF0122A260002403E067
:2071CC00521EEED14FF0FF34084605F093F82046B0BDC0466417002008B5012004F0F0FB03
:2071EC0001281DD00F4834210122002301F036FE002808BF002014D00B48006803F0CCFEEB
:20720C0004F0A6FE0A4A93681168D060C01A074BA1EB91014343180C884228BF011C11609F
:20722C00012008BD00A00C408000001040420F004030002098B5154B1B1D18680004070C43
:20724C0021D003F031FE104991F90720824205DD10F1800FB8BF6FF07F00C8718C88BC422F
:20726C0010D80A68D3F8D40F801A801C1F2888BF1F203F1B4008C7404FF6FF70E719B842A0
:20728C0038BF071C8F8098BD6430002030100940144ADFF854C008B50B46A0B1401E0CD045
:2072AC00401E1ED11846036802F11C010B6040684860CDF800C090680FE01868143210603F
:2072CC005968516008BD1846036802F10C010B6040684860CDF800C0506824320923FEF733
:2072EC0027F808BD601800204381000098B5154C027A437A278802EB0322837AB7F5005F92
:20730C004FEA82020CDC5FB1032B04D0140B07D0B2F5F83F04D8B2F5805F03D0012B01D1A3
:20732C00002098BD0F884FF6FF71B94202D00FB1008808B9012098BD00218742B8BF0121B1
:20734C00084698BD28150020FEB5154C0D462169064605F059F9400821D3304602210022A6
:20736C0004F0E8FA07460197CFB1224602F120001021093205F003F902244089ADF8024018
:20738C00ADF800003D7001992A1230464A70694604F090FC18B168461B2104F0D9FAFEBD25
:2073AC002415002038B50C4620B142680121A1400A4201D1022038BD8A43104B4260002587
:2073CC00A3F1600000EB84012218C1F8945002F140010978FF291ABF406850F8211044F05B
:2073EC0020410548FDF790F920464FF0FF3104F011FB284638BDC046007FC767402C0020DF
:20740C0010B505F03BF8F0B101206821FFF724F8002808BF002419D00D4C207A40B10E48E0
:20742C000C490068B1FBF0F0FFF74EF800202072611D7520012205F02CFA20B16079712875
:20744C0008BF012400D0002405F0D0FA204610BD381D0020A086010000D80000F0B5154CD4
:20746C00241F65682879ADF1340DFCF73FFC05F0F3FA266807463078A0B901A80021302268
:20748C00082305F0E3FA0694A87900230990084A0093697901AB301D02F078F80120307089
:2074AC0004F020F9384605F00DFC20460DB0F0BDB7CB0000B0D6000098B5134C0C342068EB
:2074CC00011D4068406810B180472168091D08680830016809B94768A7B10C4A1C321768FE
:2074EC00002FFCD00023136029B1084680472068001D00680830406800B1804704485038C7
:20750C0004F080F898BDC046201100200010044051000706F8B5074605F09EFA124C064664
:20752C002079E0B1401EC0B22071C0B904F1C800082104F099FE97B1E068703004F052F95B
:20754C00E0680A4DC0683F1A286804F1A405B7FBF0F1284605F0FCFB284604F0F7FE304617
:20756C0005F0B0FBF8BDC0462011002000D80000B0B505F0DDFB002808BF00201FD01048F3
:20758C000468002C0ADD00250020294605F004F90021FEF7A7FB6D1C641EF5D10948006878
:2075AC0058B1094D07460024286B50F824000021FEF798FB641C7F1EF6D14FF0FF30B0BD88
:2075CC0018D8000028D80000C01C002030B52025ADF1540D85F31188124C01E001F078FBD6
:2075EC0060680028FAD06068A369F821B0FA80F0A1EBC0015818606105F0AEFB20610023FE
:20760C002381022005F080F883F3118885F3118804F08EFF216904A8103105F095F815B0CC
:20762C0030BDC046C01C002038B544688568D4F8A00002F0C3F9D4F89C0004F022F92968A7
:20764C00486820F00200486004F11C0005F06EFB04F1380005F086FB287BFCF7DDFA20789D
:20766C0018B904F16C0005F07BFB04F1C40003F0F9FF05F0F1F9002184F8D91005F022FB46
:20768C0038BD704710B503F0FDF8124CE06000B303F0F8F82061002808BFE06817D003F0BF
:2076AC00F1F8606178B1E06803F04CFF206903F049FF606903F046FF074A04F12000102109
:2076CC0001F02AFD10BDE06804F0FAFB206904F0F7FB10BD241500207CCF000038B5134D5B
:2076EC0095F8E100002410B91148007860B105F0B3F995F8E310002906BF012185F8E310A0
:20770C00012405F0DFFA0CB1002038BD022002F0B7FD0E20FCF7EAFA03F01EFE01280EBFC6
:20772C000120002085F8E20038BDC046441600209AD600007FB5866831684568486820F090
:20774C00020048603168486920F00F00486130680321016202A804F0CFFF0B4800680468AF
:20776C00286900906869074B0190297E03EB81010A6A297B306853F821300399A0470090B2
:20778C007FBDC046D8D00000C40100101CB5144C2078062815D040F205300DF10201FBF7E8
:2077AC00FDFA9DF8020000280CBF0120002001210DF101028DF8010040F20530F9F740FFBC
:2077CC00207806280AD101248DF8004004F00CFB40F205306A462146F9F732FF1CBDC04699
:2077EC002005002010B50446B4F91200E168034689080BD3217C202908D30F48406A0D4951
:20780C0040F82340184604F017FD06E0A16804F013FDB4F9120040426082217C184604F056
:20782C0093F9E068400802D3184601F00DFA0020E06010BD894200006C1D002070B505F03A
:20784C004DFA0446A1601069E0605069206190691D46B0F1FF3F08BF052000266061012068
:20786C006169A6838840A061D069094B606261692062586905F014F9A06205F075FA034633
:20788C00284604F0DFF9002814BF981C301C70BD1C1F00202DE9F84307460023124CBB83C2
:2078AC00B86A238025692061E668E760786AD4F80880A060386A7862012004F025FF8146A1
:2078CC0083F31188BA683969F8689047202080F31188484604F018FF2561E660C4F808809D
:2078EC0001202080BDE8F8831C1F002038B505466C68D4F8A810237A002203B90122636847
:20790C009847D4F8BC00D4F8C01081420FD081692846C4F8BC10FDF7E9FDB0F1FF3F0ED13E
