:020000040001F9
:2000000038B50D4604460BF087F907482168016061684160A16881600BF0D3FC0BF0E1FCAC
:2000200028460DF078F838BD2C4500200BF074B900BF00BF0BF0C5BC00BF00BF0BF0D1BC37
:0C00400000BF00BF0DF067B800BF00BF9C
:20004C006E490860704780B5002200920B4601226B4900F0BAF802BD80B50A88172A05DB64
:20006C00002200920B4603226649F2E7022002BD38B50D460446A878012818BF02280DD12F
:20008C00288800281CBF6868002807D002210BF099FD00902B4605225B4931E0022032BD30
:2000AC0038B500F01EF81CBF6868002806D000F036F800902B460722544921E0022032BDA1
:2000CC0038B500F00EF81CBF6868002807D002210BF078FD00902B4609224D4910E0022020
:2000EC0032BD0D46044628880028704738B500F024F808B100F013F800902B460B22454970
:20010C00204600F062F832BD38B500F016F808B100F005F800902B460D223F49F0E70121F2
:20012C000BF050BD38B500F008F808B1FFF7F7FF00902B460F223949E2E70D46044668683F
:20014C00704738B5FFF7CDFF1CBF6868002807D002210BF037FD00902B4611223049CFE7CE
:20016C00022032BD80B5002100910023132270E738B50D460446A86810B105210BF022FD31
:20018C0000902B4617222749BAE780B500210091002319225DE738B5FFF7CFFF10B10321E9
:2001AC000BF010FD00902B461B2209E038B5FFF7C4FF10B103210BF005FD00902B461D223C
:2001CC001949204600F049FA32BDF8B504460698009015461E46204600F03FFA07000AD1D4
:2001EC0006480268100006D0012D04BF3078451CE9B2204690473846F2BD0000F8430020FB
:20020C0093020100CF02010001030100B90301004704010087040100010501003B05010088
:20022C0041050100A90501001D060100F8B505460C46AF892FB3AA68167830060FD50D2F3E
:20024C001FDB0C3FBFB2D01900903B466888012105F093F8002814BF0220012000E0002012
:20026C002070B00900F00100607006F03F00A070781EA08080B208B1A868401CA0600020F6
:20028C00F2BD0120F2BD0A7802704A8842704A88120A8270097918E104290AD101781170FE
:2002AC008378417801EB03215180C0781071002070470420704705E0022B00D1D5E0042076
:2002CC00704700BF0A8802700988090A417002207047022906D10178407801EB002010809B
:2002EC000020704704207047E6E0042B00D1F4E0042070478A7802708878098801280CBFD2
:20030C00042012204843401C80B2704710B50B001CD00378491E012B89B207D14B0801EB8F
:20032C0093739B08B1EB830410D108E0022B0DD1122391FBF3F3122404FB131131B999B2DC
:20034C0021B110F8011B917013800FE1042010BD10B50C46022200F047F8001D611D0BF026
:20036C008BFC2089801D80B210BD70B51E46062E144619DB049D2078617800EB01202880D4
:20038C000222A078E17800EB01206880211D02202871681D0BF070FCB01F288180B200B188
:2003AC00A01DE860002070BD042070BD08888004000C70474B0801EB93739B08B1EB8303AD
:2003CC0003D1890801D011809AE00420704710B50C4600F009F8611D2279001D0BF04CFC74
:2003EC002079001D80B210BD218801702188090A4170618881706188090AC170704710B532
:20040C00029C062B104612D1022121714278017801EB02212180C278817801EB022161800D
:20042C00011D2279601D0BF027FC002010BD142B08BF1021E9D0042010BD7CE010B50B0062
:20044C000BD003785380491E022B89B205DB91FBF3F403FB141101B986E0042010BD31E7F9
:20046C00022B00D101E0042070471078517800EB01200099088000207047088870473CE0FE
:20048C0010B5022B0FDB029C207261721078517800EB01202080981E608080B200B1901C4F
:2004AC006060002010BD042010BDB2E009B9002070470420704700BF0A8802700A88120A1B
:2004CC0042704A8882704988090AC17004207047042B00D101E00420704700981178537802
:2004EC0001EB032101809178D27801EB02214180002070470888704700BF118001B90020F4
:20050C0050600020704788884004000C704703EBD3704008B3EB400007D15908022904DB97
:20052C00009881800260002070470420704708887047E2E700BF4A8809880270514389B28F
:20054C00481C80B2704710B50B000BD003785380491E042B89B205DB91FBF3F403FB141102
:20056C0001B901E0042010BD1480401C5060002010BD14E010B5042B0EDB00F062F8D478EF
:20058C00917801EB04214180191F818089B201B1111D8160002010BD042010BD00BF0A8810
:2005AC0002700A88120A42704A8882704A88120AC2708888001D80B2704710B5042913DB83
:2005CC0003784478091F03EB04231380C4788378918003EB042389B2002914BF001D002037
:2005EC0090605380002010BD042010BD0978017001207047012B04D10099107808700020CA
:20060C0070470420704709B9002070470420704700BF0A8802700A88120A42704888801C39
:20062C0080B2704710B5022B09DB00F00AF8991E418089B201B1911C4160002010BD042039
:20064C0010BD02981178547801EB04210180704709B900207047042070472DE9F04784B094
:20066C0080460C9D0C4691469A4655B9172004F01DFB0126050005D11324204604B0BDE8AD
:20068C00F08700262846012700F8019B14B15146A047471C5FEA09600DD51021404604F0A2
:2006AC00FAFBD8B9BFB2EA193946284604F018FE044668B90C370420ADF800000195ADF88B
:2006CC0008706946404603F0B8FD00280446D4D0002ED2D028460BF0A2FACEE71924F7E7FE
:2006EC0030B5022918BF102985B00446154603D1022B18BF102B01D0002017E00A469A42CD
:20070C0003D129460BF00CFE10E01029694606D1284600F00DF810226946204604E000F058
:20072C0007F81022694628460BF0FAFD05B030BD38B504000D4618BF002D0BD010220FF275
:20074C00A80128460BF098FA2078287360786873012032BD002032BD30B504460D0018BFD1
:20076C00002C85B014D01022214668460BF084FA68460021818110220FF26C010BF0D0FD2F
:20078C00012805D1207B2870607B6870012000E0002005B030BD38B504464FF6FE708442F5
:2007AC000D460BD0172D09DB03F0DDFD2946884204D32046BDE8344004F09BBB012032BD21
:2007CC0080B54FF6FE71884205D004F0A0FB010005D1172002BDBDE8014003F0C4BD02BD10
:2007EC007047002070470000FB349B5F800000800010000000000000282808DA4FF6FF723E
:20080C00914204D0CA4A22F810100020704702207047282803DAC64931F8100070474FF6B6
:20082C00FF70704770B504460D46C24E1C22002130460BF01FFA347775770CF02DFD01000D
:20084C000EBF012100211220317070BD10B5B94CE160A060102200210BF074FD012801D1B7
:20086C00A0680CE010BD10B5B24C6060102200210BF068FD012801D1606800E010BDBDE860
:20088C001040102104F0DCBCAA48406870472DE9FC41A84D0446002695F81E80042C0F4686
:2008AC0024DA2878032818BF102054D101F088FA28B900F047F910B900F046F908B11220D0
:2008CC0049E0012C18BF022C1DD1BFB10622002168460BF0CFF900F040F838B90622FF2138
:2008EC0068460BF0C7F900F038F808B1022032E00622394668460BF0BFF90BE006216846AE
:20090C0004F09EFC06E0032C04D16868694604F053FB0646884FAC77042138780AF0D4FFAA
:20092C00002028849EB9ACB1684600F05BF8064668B9032C0ED11D20FFF76BFF288448B17D
:20094C0038784EF6602204210AF0D6FF02E00EB185F81E803046BDE8F6810622694638467E
:20096C000BF0DEBC70B5044600252000714E05D121B1062206F110000BF07EF93078012849
:20098C000CD10125200004D10220307006F03EFE04E000203070204600F0A8F8284670BD2A
:2009AC0038B50024E0B10578624A290006D14178837801EB0321D182C078107610780228D9
:2009CC000ED10124280006D103201070117ED08A03F0C3FC01E000201070284600F086F86D
:2009EC00204632BD10B5534CA17F81B10146062204F124000BF040F9A07F04F1240100F0FB
:200A0C0008F804F12400BDE810400CF049BC002010BD79B102000DD04A79012808BF42F0E0
:200A2C00C00006D002F03F0203284A7102D142F0400048717047010018BF01210846704747
:200A4C0070B53C4D0446287FFF2815D00A200BF01FF9060010D0D020307074700820B07000
:200A6C000622A87FF07005F12401301D0BF004F9287F31460BF0DBF9E87F01280FD12F4887
:200A8C00006818B18068010018BF8047BDE87040294800784EF6602204210AF02DBF70BD56
:200AAC002448806870472348C068006870472148C1680A68521C0A60007FFF281CBF4FF4CD
:200ACC0080410BF0F7B970471A48807F704738B50446184D05F110000CF0E6FB05F110004A
:200AEC001CB9A97F09B105F1240032BD70B5114D0446287FFF2819D00E200BF0C9F80600B6
:200B0C0014D0D020307074700020B070062205F11001F01C0BF0B0F8E88A70813146287ED3
:200B2C003073287FBDE870400BF081B970BD00006C45002040450020F8450020FC45002074
:200B4C0004F056BA264800E02648006800B101207047010001D0172801DBFF2801D10120D1
:200B6C007047002070472DE9F04D0D4693460024BBF1200F80461F462C7003DB0020BDE8F3
:200B8C00F08D0419E0B25845F8D2E4B23E5D641C002EF3D0E4B231198B45EFDB17F804A0E7
:200BAC005046FFF7D6FF641C0028E7D0701EC2452870E6D1E4B23819E1E70B490A781043AD
:200BCC000870704708490A7832EA0000087006D10648006818B14068010018BF004770479F
:200BEC0000440020FC430020044400200C4400202DE9F04104468846122740464FF6FE717C
:200C0C0088421646DFF8845908D1A86950B30268100027D041462046904720E04FF6FF7117
:200C2C00884212D1A86938B10268100004D0414620469047070005D03146204600F0DAFA72
:200C4C0007000FD12C706E700CE004F0F6F848B10078A04205D1314640460CF029FB0746C6
:200C6C0000E003273846BDE8F08110B5044684B000F072F808B9022029E02088012104F083
:200C8C000AF908B9142022E0208804F015F9042812D1DFF8F80881894FF6FF72914218BF54
:200CAC00112014D12188818161888180A188C180E1880181218941810020029001902089D0
:200CCC000090E388A2886188208806F02DFD04B010BD30B5044685B02088402104F0DBF87D
:200CEC00002836D02088ADF8040000F035F8002500281CBFA07A002807D10021684600F04B
:200D0C00CEF9A07AF0B102251CE091208DF800008DF803503E208DF80100012106208DF863
:200D2C000200A088ADF808006088ADF80600E088ADF80A002089ADF80C008DF80350684646
:200D4C0000F0ADF920880022402104F042F8284600E0122005B030BD2389E288A18860884F
:200D6C0006F0D4BB70B50C46DFF824180978022918BF0129154601D1122070BD0DB9022037
:200D8C0070BD04F05AF8060001D1142070BD1CB1307940F0020030711022294606F11800A2
:200DAC000AF06AFF2869B062002070BDF8B506000C4601D10220F2BD308804F03EF8050045
:200DCC0001D11420F2BDDFF8C8070078022818BF012803D0A87C082802D10CB11220F2BD72
:200DEC00DFF8A877786908B11120F2BDB0200CF0E0F8786108B91320F2BDB02200F0C2FAD9
:200E0C00786931884180A022311D001D0AF034FF796902200870A87C7969328808280CBFDA
:200E2C00012000200B1DDFF86C17097804F014FC06461CB12146284604F0E7FD300018BF91
:200E4C0000F055FA3046F2BD38B504460D4603F0F4FF08B9142032BD8DF8005069462046E4
:200E6C0004F006FD32BD38B50022A0B101230624E4B2051915F8015C303D0A2D0BD203FB35
:200E8C0005220A256B43641EE5B2002DF0D11046BDE8344001E0022032BD30B505460C4658
:200EAC0085B0204603F0C9FF08B9122019E0DFF8E806854228BF022013D210220021684669
:200ECC000AF0D8FE280A8DF801008DF80050280C8DF802002146280E8DF80300684604F027
:200EEC0002FC05B030BDF8B50546DFF8A4060078022818BF01280C461F4601D11220F2BDC1
:200F0C000FB90220F2BD284603F097FF060001D11420F2BDF06A08B10CF04DF81C2138466B
:200F2C000BF0F0F90100F16201D11320F2BDB07C08280AD1069840B1887E009001F1120356
:200F4C000A8A284604F08CFD00E00020317941F004010CB141F002013171F2BD2DE9F0419D
:200F6C000D4603F06AFF04001FD0A56200F007FA0546C0B200B92578A66A94F80580102067
:200F8C000AF086FE070010D0D0203870062200207870A11D0920B87087F80380381D0AF0B8
:200FAC006BFEFE603946E8B21EE0BDE8F0812DE9F04104460D4690461F460E200AF068FE84
:200FCC0006000FD0D020307006220020707041460C20B070B580B01D0AF04EFE377331462C
:200FEC00204601E0BDE8F081BDE8F0410AF01FBFF0B50C0087B050D0A079DFF890650028C5
:20100C0030690CBF0825042508B9DFF890050778042D08D1DFF88805006820B14168080006
:20102C001CBF00208847207D059004F10803608A04903946208A0390E08902900195A088B5
:20104C000090E279E07800F071F8E07880B9172004900122E089039002950020019004F130
:20106C0008000090E379A188384603F065FEE070306908B100F056F9307801000DD0717823
:20108C0000F0B8F848B1E378312B04D0A2883178184600F079F80020307007B0F0BD10B5A5
:2010AC00044684B0A08851B1002102910191A189009163892289E18806F0BEFA1FBD04B03D
:2010CC00BDE810403B2106F0B9BA70B504460026A08803F0B2FE18B10678A08803F05FFE2B
:2010EC00DFF8A8542878010007D0864205D1697800F080F848B100202870300005D0A379E0
:20110C00A288A078314600F03FF8686908B100F0EEF8A08803F0D0FE042802BFA088A98953
:20112C00884204BF4FF6FF70A88170BD2DE9F0410646884617461C4616200AF0A9FD050011
:20114C0020D0D02028706E700520A870EF702CB106222146281D0AF08FFD04E0062200212D
:20116C00281D0AF087FD069868812946079828730898E881099828820A9868820B98287550
:20118C00404631E7BDE8F081F8B504460D4616461F4608200AF07CFD48B1D02101704470DA
:2011AC00062181708680877101462846EDE0F1BD2DE9F04105460E46174698460C200AF096
:2011CC0067FD040014D0304603F037FE08B9DFF8CC030078D021217065700721A170E57055
:2011EC00A680E780A4F80880069961812146FBE6BDE8F08110B50C4603F034FE28B1408876
:20120C002146BDE810400CF053B8122010BD2DE9F84F0746894692461C46484603F00DFE21
:20122C005FEA000B1EBFDFF86453696900295CD051F8A42F182002B134208A6802B1143078
:20124C0004B11C30496801B1173080B20AF020FD06004AD0182200F095F800F090F85FEAF6
:20126C00000808BF9BF80080D020307077700A20B070A6F8049086F806A006F11807696981
:20128C00D1F8A40040B1B7603846D1F8A41000F11C071C220AF0F0FC6969D1F8AC0040B162
:2012AC00F7603846D1F8AC1000F1140714220AF0E3FC3CB13761384600F11C071C222146F1
:2012CC000AF0DAFC6869D0F8A81031B177611722D0F8A81038460AF0CFFC31465FFA88F0E3
:2012EC000AF0A5FDBDE8F14F01E0BDE8F18F10B5A64C6069A8B1D0F8A40008B10BF05BFE09
:20130C006069D0F8A80008B10BF055FE6069D0F8AC0008B10BF04FFE60690BF04CFE002015
:20132C00606110BD10B5994C206940B10BF043FE002020610420BDE81040FFF743BC10BD37
:20134C00F8B504460D46284603F077FD060015D000F015F8070008BF377806200AF098FC49
:20136C0006000BD0062200F00DF8D020307074700E20B070B5803146F8B206E0F1BD262071
:20138C00FFF747BA00210AF075BCBDE8F4400AF04EBD2DE9F84305460E461746984630467F
:2013AC0003F04BFD5FEA00091ED010200AF070FC040019D01022FFF7E5FFFFF7E0FF08B981
:2013CC0099F80000D021217065700F21A170A680277284F80980C0B20899A1720999E172F9
:2013EC000A99E160214631E0BDE8F1832DE9F84304468846914603F020FD070024D01420ED
:20140C000AF046FC05001FD0FFF7B9FF060008BF3E78D0202870062200206870B91D0B20B6
:20142C00A870E81C0AF028FC6C8118F00101C5F8109018BF01212973F0B218F0020118BFF9
:20144C0001216973294601E0BDE8F183BDE8F4430AF0EDBC2DE9F14F90460D4699464046B6
:20146C0003F0EBFC07000A9EDDF82CA0DDF830B00D9C3ED09DF8000000283AD1387940F021
:20148C0010005FEA49714CBF40F0020000F0FD00002E08BFBAF1000F08D1BBF1000F08BFF9
:2014AC00002C03D100F0FB00387122E040F0040038713CB12069B8621022214607F1180074
:2014CC000AF0DAFB3EB135B9F86A08B10BF073FD1C2130460AE0BAF1000F0AD0012D08D196
:2014EC00F86A08B10BF067FD1C2150460AF00AFFF862264D6869002842D086B1D0F8A40015
:20150C0028B91C200BF055FD6969C1F8A4006869D0F8A40018B11C2231460AF0ADFBBBF11D
:20152C00000F11D06869D0F8A80028B917200BF040FD6969C1F8A8006869D0F8A80018B1E1
:20154C00172259460AF098FB8CB16869D0F8AC0028B914200BF02DFD6969C1F8AC00686956
:20156C00D0F8AC0018B1142221460AF085FB9DF8000053464A46414601B0BDE8F04F46E605
:20158C00BDE8F18F0749086070470000BC4500205D450020F845002040420F005C45002019
:2015AC00FC4500200844002070B5DFF80466054630680C4608B1112070BD00F0E7F801D1FF
:2015CC00122070BDDFF8EC05806800281CBF0078002801D1102070BD0C200BF0EAFC306081
:2015EC0040B30120FFF7E9FA306805700021306841700A222146801C0AF03EFB00F0CFF961
:20160C00040002D000F0B4FA15E0DFF8AC050078032810D11D20FFF7FCF8DFF8A01508800E
:20162C0048B1DFF89C0500784EF6602204210AF063F900E01324204670BDF8B50C46DFF8F4
:20164C00841509781546052211421E4627D0012CDFF8601502D18F680FB301E0CF68F7B16F
:20166C00202D02DA2A0002D00EB90220F2BD08701F220021781C0AF0FDFA2A463146781CC7
:20168C000AF0FAFA3D70284624B1791CBDE8F4400BF012BE791CBDE8F4400BF011BE1220BD
:2016AC00F2BD38B5DFF80845216809B9122032BD0978814201D0032032BDDFF804552878FB
:2016CC0002210AF001F9DFF8EC1400204880042128780AF0F9F8DFF8E414002008800320DE
:2016EC00216848700020BDE832400BF0EDBDF8B5044600F04BF801D11220F2BD1CB120787F
:20170C00FFF727FA08B90220F2BD6078801C202823DA207800F0AEF908B11820F2BDDFF8B5
:20172C0094546B680021002202E0B61C71181B685BB15E68767828B9C9B27718BF1C202F0A
:20174C00F3DB0120B61CB218F1E7D0B238B16078D2B28018801C202801DB0B20F2BD0820F9
:20176C000BF027FC06000FD0082200F087F8686830B100E0084601680029FBD1066000E03E
:20178C006E6074600020F2BD1320F2BDDFF83404007805210842704780B500F027F801D126
:2017AC00002002BD00F066F900B1406802BD10B500F01CF801D1002010BDDFF8F83359688C
:2017CC00002201E00A46096869B14C6824788442F8D14C680868002A14BF106058600846A9
:2017EC000BF0E9FB00E00024204610BDDFF8D4130978052211427047DFF8C8030078052117
:20180C00084218BF00F043B91220704770B5DFF8A443A06818B10BF0CEFB0020A060E068E6
:20182C0018B10BF0C8FB0020E0600521DFF89453287808421CD004F1100000F0AEFB2878BD
:20184C0000260521084211D000F077F9A06060B100F013F800F071F9E06010B100F00DF849
:20186C0004E0A0680BF0A7FBA6601326304670BD002000F092FB002070BD202200210AF0AA
:20188C00F9B92DE9F0478288DFF82463DFF82453316842F20607D31B4FF0010805D09B1EE9
:2018AC00012B60D99B1E0FD00BE08068007841B1020003D1012048700BF006FD01006BD0F9
:2018CC0038E04FF0000867E0806807780029F8D04878BD4C012833D100F058F9DFF8E0927E
:2018EC00B0B10120FEF795FF8246BAF1420F0AD399F800004EF66022022109F0FDFFAAF126
:20190C003C00688010E04FF47A7000FB0AFA02E0FEF77FFF8246BAF1000F05D099F800003E
:20192C005246022109F0B3FF316802204870207818B9384600F004F92EE0002020702BE025
:20194C00207848BB03200AF0A3F948B1D02101704770042181700146306800780AF067FA4D
:20196C0000F006F918E080680778287842F208018A420CBF01260026FF280DD004200AF02A
:20198C0087F9010008D0D02008704F7002208870CE7028780AF04BFA4046BDE8F087F0B53D
:2019AC00834F386885B070B3847800F009FA28B10A20FEF72EFF05460B200DE000F0E6F80C
:2019CC0028B10620FEF725FF0546072004E00820FEF71FFF05460920FEF71BFF06467648C5
:2019EC000078FFF728F83968CA7A039203468A7A029228460A1D01922246C9780091314619
:201A0C000BF066FC00E0012005B0F0BD38B5014667486B4D02682878664C01291ED16188A1
:201A2C000B0002D0684B1B7823B112B31078BDE8324036E63C29A8BFA1F13C000CDA022180
:201A4C0009F042FF60884FF47A7101FB00F22878022109F01CFF0020608031BD4AB15949DA
:201A6C000978490705D5022109F02EFF002060807CE031BD4F49496800E0096829B14A68F6
:201A8C0012788242F9D10846704700207047F8B54C48007800240521084201D11220F2BD46
:201AAC00444DA86810B900F048F8A860E86810B900F043F8E860A86800281CBFE96800295F
:201ACC0001D11320F2BDFFF7D8FEE868FFF7D5FE6E6812E09B1C50185918401C1170716853
:201AEC004978491C0170716809784170801C71684A7849680AF0C0F83668AA6896B13CB9B2
:201B0C007068117843785F18BF1C202FE2DB01247368E9685B780A789B1C88189A18401C34
:201B2C000A70DCE71078511C0BF0C6FBE868411C00780BF0C5FB0020F2BD20200BF039BACE
:201B4C0038B51B4D0446286878B103200AF0A0F848B1D02101704470032181700146286871
:201B6C0000780AF064F904B100E031BDBDE8314010B50F4C206840B10BF01DFA00202060A6
:201B8C000120BDE81040FFF71DB810BD80B50948806858B10278431C69460120FEF7E3FF94
:201BAC0020B10078C00701D5012002BD002002BD00440020D84500205E450020604500204B
:201BCC00F84500205D4500205F45002038B504460D4603F032F9A0B1807C042801D01220F2
:201BEC0032BD3748006808B190F899502946684603F052FB334B6A460221204604F0F3FDE1
:201C0C0032BD142032BD80B52F480078400707D52E48FFF7B7FC2E494FF6FF70088001BDCF
:201C2C00BDE802400020FFF7ADBC7CB5012403280D4610D042F21301884204D04FF6FF71E3
:201C4C0088421ED02AE0A8780C2818BF112826D100F027F823E0E878A9881D4E1A2804BF48
:201C6C0033889942F4D06A8900922B89EA88FFF79FFAA8883188884211D14FF6FF703080CB
:201C8C000DE068790024122809D1ADF80040297968886A4602F002FB012400E0002420468D
:201CAC0076BD38B50A4C20884FF6FF75A84205D008490A78084902F004FB258031BD0000DA
:201CCC00D0450020BB6701005D450020F4450020C8450020F8450020C0450020B249487023
:201CEC00704710B5B04C207009F0F6FA2078BDE81040052102F08CBA7CB5AB4D28780C46E1
:201D0C00210419D50AF00FF8060084F4004411D000F058F858B93078A22806BFA348007815
:201D2C006878FF2803D031460AF081F802E0304609F0C3FF204676BDE10709D5A86820B180
:201D4C00416808001CBF0020884784F0010076BDA10709D5686820B1416808001CBF012080
:201D6C00884784F0020076BD610727D5904E31880A001DD0481E308080B2E0B9FEF7E2FE37
:201D8C0048B18C4901200870686820B1416808001CBF01208847FEF777FD694603F00CF9A3
:201DAC006846FEF71FFE1D20FEF733FD308002E0042109F089FD84F0040076BD002076BDC1
:201DCC0003F080B838B502780124912A4FF6FF7102D0A22A76D07BE04278052A49D00E2A57
:201DEC0004D00F2A48D03E2A69D071E082886E4941F20905531B2DD040F6F9755B1B2FD03A
:201E0C00DB1E31D05B1E08D09B1E022B05D9DB1E012B15D9DB1E08D05AE04968002958D087
:201E2C0009680A0055D0884750E06349096800294FD04B6819004CD0014642F20E003CE005
:201E4C008968002945D00B68190042D00146104698473BE08068411C0078FEF783FD35E0CB
:201E6C008068FEF79DFD31E080680078FEF7E8FD2FE0FFF72AF92CE0828842F20D05531BA2
:201E8C0013D09B1F02D09B1F0FD021E04B4B1B888B420AD04A490968D9B10A68110018D054
:201EAC00014642F21300904710E04349096881B14B6819000DD001461046984706E000F097
:201ECC000AF803E00246408800F04BF8044600E00024204632BD70B505460124A87801284D
:201EEC00014611D0022806D0032811D0062815D00A2809D032E02C48806880B34168080032
:201F0C002DD0284688472AE02946FFF771F826E0A8882A4600F025F8044620E00E2009F07F
:201F2C00B7FE06001BD0A8880122402102F051FFD02030703146E87870701120B070A88831
:201F4C00B080E888F0802889308168897081A889B0811648007809F06AFF00E0002420461D
:201F6C0070BD70B50C46154602F0A6FF0126042804D11348006858B1026803E00E480068C0
:201F8C0030B14268100003D02946204690470646304670BD04498860704703494860704795
:201FAC000849086070470000F84500205C450020604500205F450020D4450020C845002098
:201FCC00084400200C440020F8B5144600250E46C24FC34B40B1012815D0042818D0062839
:201FEC001ED0072822D02CE0162928DA1622002107F10C0009F03EFE3246214607F10C0004
:20200C0009F03AFE1EE0022E19D12088388119E0082E14D138462146082209F0BBF911E049
:20202C00012E0CD1DA6903F1280104E0012E06D1DA6B03F14801207800F03DF802E01825E0
:20204C0000E002252846F2BD10B50B460024A34920B1012808D0042809D00DE015220C31F2
:20206C00184609F009FE08E00889188005E01846082209F08FF900E00224204610BD704707
:20208C000020704701460020C90706D50FF2582393481022072101F01FB9704701460020B3
:2020AC00C90704D58E484089002101F040B970478C490860704710B50B7884074CBF43F005
:2020CC00020303F0FD0304064CBF43F0800303F07F0304074CBF43F0080303F0F7038406F1
:2020EC004CBF43F0200303F0DF030B70AA21084203D0107840F00C0003E018B9107800F04B
:20210C00F300107010BD2DE9F0410F461546387802281E464FF000085ED1786801784078B7
:20212C00069C01EB002080B221001CBFB0F5285F0B2056D14FF42851401A08D0401E1AD003
:20214C00401E28D0401E1ED0401E2AD044E0F8680AF0C3F8079A80B2031B9342B8BF021BE6
:20216C0092B21019162803DA3280F86801190EE04FF00D0834E0F8680088022131802870F5
:20218C00000A68702CE0062030800622F968284609F072FD24E001203080F86800782870CB
:2021AC001EE0F868B0B108213180018829700188090A69704188A9704188090AE9708188C3
:2021CC0029718188090A6971C188A971C088000AE87105E0308003E0A6F800804FF0010877
:2021EC004046BDE8F0812DE9FC4B0E46804630780027022891461D466BD170680178407848
:20220C000A9CDFF8E0B001EB002080B24FF42851401A06D0401E29D0401E4CD0401E38D044
:20222C0057E0F0680AF059F880B2A04204D32919162903DB0D274DE007274BE0F3682A46E9
:20224C004946181909F018FD2C19F068A4B2C4F116020021204409F00DFDDBF80000002861
:20226C0038D00268100035D0002121E07CBB022DE0D199F8000099F8011000EB0120F168FA
:20228C000880DBF8000028B30268100022D001210EE0E4B9062DCDD1F0680622494609F00A
:2022AC00EBFCDBF80000A8B10268100012D00321404690470EE054B9012DBBD199F80000DC
:2022CC00010013BF0128F1680870802702E00B2700E001273846BDE8F68B00000846002050
:2022EC002C4600201044002013210100F32101000000000070B5DFF8A85A28780624604317
:20230C000AF057FEDFF89C1A086008B9132070BD0020FF2206E03380401C0023F270B2706F
:20232C003371C0B22B7898420ADA0B6804FB00F61E4400280CBF4FF6FE734FF6FF73EAE71F
:20234C000FF2C14000F062FD0FF68510FDF778FE0FF6C51002F0E1FC002070BD70B50446B7
:20236C00208868B160680378426800F079F948B9606803784268DFF8300A00F073F908B925
:20238C00022070BDA078C01F0A2801D3182070BDDFF8185A2888010004D02188C0F58030A4
:2023AC00884201DA012070BD0C200AF002FE060001D1132070BD002008E06268298880B20B
:2023CC0002EB0012401C5181491C298081B222889142F2D30020306008222146301D09F0BA
:2023EC004BFC686810B96E6004E0084601680029FBD10660002070BD38B502460846DFF886
:20240C00AC194C68002301E02346246894B1A5686D899542F8D12268002B0CBF4A601A60B2
:20242C0018B10822211D09F027FC20460AF0C3FD002032BD012032BDDFF874190870704771
:20244C0010B5044610461422114203D000F013F9012204E04A0608D500F00DF90022014620
:20246C002046BDE8104002F058BDC80701D4022010BD002010BD70B505460E46B0061C4692
:20248C0009D5104600F0F7F801462846BDE87040012202F042BD8820064210D0104600F0E9
:2024AC00EAF8014606F00802284602F036FD010009D0617A41B1217A012904D070BDB00730
:2024CC0001D4032070BD002070BD7CB50446002000900D460223DFF8DC284FF6FF7101202A
:2024EC0000F02CF8060026D0002304221D21204600F0C2FD0190E0B170890199ADF80000CA
:20250C002B460420ADF80200002201200870002001994870FF20019988700199C870694614
:20252C00204600F00AF9040006D0019809F077FB02E0152400E00124204676BD2DE9F04752
:20254C008146DFF8680844688A4690461E4600E02468FCB1002700E07F1CA188B8B2884293
:20256C00F6D2A068BFB200EB07156889484528BF8245F1D33EB12978686833464246FEF7C1
:20258C00AFF80028E8D0089810B1A16849890180284600E00020BDE8F087F0B5DFF80C28B1
:2025AC00546800E02468E4B1A5686E89B042F9DBA788BA199042F5DA4FF0000C01E003F1C5
:2025CC00010C1FFA8CF2BA42ECD21FFA8CF305EB0312B2F80AE08645F1D101B10E8010463D
:2025EC00F0BD0020F0BD2DE9FC4104460027ADF804704FF6FF786089404515461E4608D0B7
:20260C0001AA0092401C2378626880B2FFF796FF07462378626800F023F830B923786268E8
:20262C00DFF8840700F01EF808B160890CE023786268DFF8840700F015F858B11FB1BDF846
:20264C000400A84203D0284600F0D2F803E07889404400E0608906B130803846BDE8F68153
:20266C00DFF858070221FEF73BB880B500F0F2FA00B1008802BD80B500F0ECFA08B1807848
:20268C0002BD102002BD70B5012982B00446154616D0032918D0052925D0072927D00929E4
:2026AC0029D00B292BD00D292DD00F292FD0112931D0132933D0172934D0192936D039E05D
:2026CC002946FDF7C0FC33E001F04DFEADF8000069462046FDF7C0FC06002CD129882046FC
:2026EC0000F076FC27E02946FDF7C2FC20E02946FDF7D6FC1CE02946FDF7E2FC18E029466B
:20270C00FDF7F4FC14E02946FDF7FEFC10E02946FDF708FD0CE02946FDF713FD08E0FDF7E5
:20272C0021FD05E02946FDF723FD01E0FDF72DFD064600E00226304676BD2DE9FC410E4664
:20274C00054617461C4601A900F091FA804638BB380014D00020ADF8000069463088FFF747
:20276C001CFF012FBDF8000018BF0027FFF783FF01463A46284602F0D0FB804680B931466F
:20278C002846FDF713FD804650B9019DFF2C07D0AB1C1E2229460FF2555000F0FBFBEC70EE
:2027AC004046BDE8F6817CB50D460446164601A900F05DFA17281AD0300014D00020ADF84E
:2027CC00000069462888FFF7E8FE012EBDF8000018BF0026FFF74FFF01463246204602F076
:2027EC009CFB010003D129462046FDF7D4FC76BD10B50446FFF739FF01001CBF611E0C18D9
:20280C00A0B210BD2DE9F0430D4689B08146A87800261E28174614D1484600F03CFA060069
:20282C001EBFB078FE28FF2822D0002000900022AB78F078494600F082FB304600F040FA4F
:20284C0016E0122804BF6878012813D0484600F022FA06000ED0327910000BD0100607D488
:20286C00A978484600F0C7FB307940F080003071002069E0DFF838452078FF2812D0A87873
:20288C00811E17290ED200F08AF958B1A87800F0B3F938B1287810B96878012804D1A878E5
:2028AC00122801D006204FE0A87800F078F9844602A80090AB88AA6869782878E047002812
:2028CC00804640D1A87800F097F9024602A9484690478046D8B9AB78042B34D002A8009036
:2028EC0000222078494600F02AFB804658BBA97802A800F097FB08B100203870A87812286D
:20290C0004BF697801291ED0EEB130711BE06878C8B9A8788DF800008DF804806946A878D6
:20292C00042818BF0628BDF80800ADF802004846FDF789FB28B16B4601221621484600F08E
:20294C003DFB4FF00008404609B0BDE8F083002070472DE9FE430D468046288869888142EA
:20296C0001D3010001D101206DE00021ADF8041002914FF6FF7900E0401C002100910023FB
:20298C006988002280B2FFF7D9FD070037D0BDF80400002838D16B464A460521404600F045
:2029AC006BFB040001D111204DE002943878022806D101208DF80600BDF80000860827E034
:2029CC0002208DF806001221BDF8000090FBF1F63878102813D1788904F8010B102200F0ED
:2029EC0034F81034BDF80400401CADF80400B1B2BDF80400884202D278894845BCD1BDF813
:202A0C00040080B90A201EE09DF806000128DFD138780228F3D1788904F8010B022200F016
:202A2C0014F8A41CDEE701A94046FDF721FB48B101AB05221621404600F0C0FA10B102982B
:202A4C0009F0EDF80020BDE8FE837889000A04F8010B2046796809F00FB910B582B04C8860
:202A6C000888844201D3020001D1012016BD00F016F808B90A2016BD002016BD10B582B0B2
:202A8C004C880888844201D3020001D1012016BD00F005F808B90A2016BD002016BD0022A4
:202AAC0000924A1D0B79214648E510B5044682B0084669460088FFF770FD08B9012016BD1B
:202ACC00017ABDF800202046FFF7BAFC16BD70B582B006460D46002401E0641CA4B2A888B4
:202AEC00844229DA286810F8142000EB44006946407802EB002080B2FFF74FFD50B9286885
:202B0C0010F814100170286800EB440149784170012076BD017ABDF800203046FFF790FC3E
:202B2C000100DAD0296811F814200A70296801EB440252784A7076BD002076BD10B50C46B2
:202B4C0082B020886188814200D308B9012016BD23799A48621DFFF785FD08B9102016BD22
:202B6C0000200090237961882088621DFFF7E6FC08B90A2016BD002016BD38B504460D46DA
:202B8C0069462888FFF709FD08B9012032BD017ABDF800202B462046FFF76DFC32BD02285E
:202BAC0014D0042814D0062814D008281AD00A2812D00C2812D00E2812D0102812D0122853
:202BCC0012D0162812D0182812D013E07C4870477C4870477C4870477C4870477C4870476B
:202BEC007C4870477C4870477C4870477C4870477C48704700207047022814D0042814D06D
:202C0C00062814D0082814D00A2818BF0C2812D00E2812D0102812D0122818BF162810D002
:202C2C00182810D012E0704870477048704770487047704870477048704770487047704824
:202C4C007047704870470FF20900704700207047002070475549496800E0096829B18A6867
:202C6C0052898242F9D1081D70470020704710B50C4600F010F860B104B120608078FE28B9
:202C8C0001D1172010BDFF2801D1002010BD162010BD022010BD10B5424A1268002100E0AE
:202CAC00491C3F4C2478CBB2A34207D2C9B206234B43D45A8442F3D1D01810BD002010BDB5
:202CCC0010B50446A01C00F06DF9FF20E07010BD10B50C46FFF7DFFF30B101794A1C944209
:202CEC0004BF01F08001017110BD000010B582B004001EBFA078FF28FE280BD0002000908C
:202D0C001E232188E078172200F019F9FE20A070FF20E07013BD000070B504464FF6FE709B
:202D2C00844282B037D008004FF6FF760AD12046FFF7B1FF78BB3046FFF7ADFF05002AD095
:202D4C00048073BD012906D12046FFF7A4FF050021D02E800BE002291DD10121204602F091
:202D6C009AF8C0B92046FFF796FF050013D0A878FF280ED0FE2807D0002000901E23E878F0
:202D8C001422214600F0DBF82846FFF799FFFF20A8700020287173BD044800887047000020
:202DAC000544002014440020083201009C460020074600204032010010320100043201008F
:202DCC00C5020100F7020100770301006D040100DD0401001B0501000B0401008D04010093
:202DEC0081050100010601005B2901005F290100672A0100892A0100B72A0100DB2A0100FC
:202E0C00492B0100872B0100704770478249086070478149486070478049087070470322E0
:202E2C0090FBF2F080B201F070BA0178B02904BF417800290CD10179122903D1417C012988
:202E4C0006D101E01B2903D14088012101F07ABA704710B5724C607002F048F8401C20705F
:202E6C000421607801F0D4F9BDE81040FFF742BA38B50C46200411D56948407808F053FFA8
:202E8C00050008D02878A02804BF284600F008F8284608F012FF84F4004032BD002032BD93
:202EAC0030B587B0044601208DF8000001A92046FDF7BCF905002AD19DF806105648C90728
:202ECC000AD54368180005D060886A4601A9984705461CE006251AE00368180006D06088A1
:202EEC006A4601A99847050001D110E006259DF8050060B99DF806008DF810008DF81450CF
:202F0C000020ADF8120004A96088FDF79CF89DF8000000281EBFA068002808F080FE45B973
:202F2C009DF80600122806BF9DF8051001291B2803D06088012101F005FA07B030BD2DE94D
:202F4C00F0410446FF2C0D46164698461FD0202008F09EFE070018D0B02038707E707D801D
:202F6C0087F80480069929B1182207F1080008F083FE04E0182207F1080008F07BFE394608
:202F8C00204608F054FF002002E0132000E00220BDE8F08110B54FF47A746243BDE8104097
:202FAC0009F0CFBA10B504001EBF2078FF28FE2803D009F05AFAFF20207010BD80B5009394
:202FCC0013460A46014615480078FFF7B8FF02BD30B583B004460D46FDF7DDFB50B901A881
:202FEC000090ADF804507F230C48007800222146FFF7A5FF37BD00B583B07E238DF8041095
:20300C008DF8052001A900910022014603480078FFF795FF07BD000018440020A4460020BF
:20302C0005440020052923D006291BD0072918BF09291DD00B2918BF0D2919D00E2913D076
:20304C000F291CBF1129122912D0162918BF17290CD01B2918BF1D290AD0522918BFD22940
:20306C0006D007E0C06870470068704780687047406870470020704770B5052914461D46A4
:20308C0016D0062912D0092918BF112910D0122912D0162918BF17290CD01B2918BF1D295A
:2030AC000AD0522918BFD22906D007E0072606E0022604E0052602E0032600E001264FF67F
:2030CC00FF72944203D1FDF77BFB841B02E0D22908BF0C34301980B201F0E8FD38B105B1EC
:2030EC002C807142BDE8704009B208F06BBD70BD80B5FFF797FF18B1BDE8024008F08FBD53
:20310C0001BD00000022022970D10178407801EB002080B24FF4C051401A2CD0401E2DD0E3
:20312C0040F6FF71401A2CD0401E2DD0401E2ED0401E2FD0FD3830D0401E31D0401E32D07F
:20314C00401E33D0401E34D0401E35D0401E36D0401E37D0401E38D0F83839D0401E3AD06D
:20316C00401E3ED0401E39D0401E3DD0401E08BF0FF2C0023AE00FF2780237E00FF27402FA
:20318C0034E00FF2740231E00FF270022EE00FF270022BE00FF26C0228E00FF26C0225E09D
:2031AC000FF2680222E00FF268021FE00FF264021CE00FF2640219E00FF2600216E00FF20F
:2031CC00780213E00FF2740210E00FF274020DE00FF24C020AE00FF24C0207E00FF24C02ED
:2031EC0004E00FF2440201E00FF244021046704700180000011800000028000001280000E1
:20320C00022800000328000000290000012900000229000003290000042900000529000048
:20322C00002A0000012A0000022A0000032A0000042A0000052A0000062900000729000018
:20324C0008290000DFF86C1C0870704738B5DFF8684CDFF8685C20762878C00009F0A9FEFA
:20326C00E061C8B1002108E04FF6FF7220F8312000EBC10300225A60491C2A789142F3DB2D
:20328C00052000F0AFF8207EFFF7D6F8BDE83240DFF82C0C01F041BD31BD38B50C4620049E
:2032AC0018D5DFF8140C007E08F03DFD05000ED02878B02808D1284600F007F920B1297969
:2032CC0005F10800FFF714FF284608F0F6FC84F4004032BD002032BD7CB506001C460DD057
:2032EC00ADF800108DF8022001966846FFF736F805001AD1CCB17689300001D1022514E074
:20330C000C2009F056FE08B913250EE00021016086808460DFF8AC1B0A6812B9086004E0AE
:20332C000A4611680029FBD11060284676BD30B50C46DFF8901B0546086883B0002201E008
:20334C000246006898B18388AB42F9D10368002A0CBF0B60136009F02EFE69462846FFF730
:20336C004BF8010002D10CB1019921603EBD01203EBD70B550BB012926D1DFF83C0BC169A2
:20338C00002300E05B1CDFF8344B2478A34217DA31F833404FF6FF75AC42F3D0002400E0D5
:2033AC00641C467EE5B2B542ECD201EBC305E4B26D680C266643AD5B002DF1D0012070BD33
:2033CC001078BDE870400DE0182070BD022070BD0022002803BFDFF8E00A407E087002223C
:2033EC00104670472DE9F843DFF8CC7A0446002078760C25F869DFF8C46A406805FB04F8B3
:20340C0070B109F0D8FD002006E0F969C0B201EBC00100224A60401C3278C1B29142F4D34B
:20342C00307808FB00F080B209F0C3FD5FEA000928D0307808FB00F20021484608F01AFC56
:20344C0000200FE0516805FB0CF34FF0000E21F803E019440CF1010CC1F808E0A445F1DB93
:20346C00C144401C3278C1B2914208D2F969C0B201EBC0024FF0000CC2F80490EEE77C7633
:20348C00002000E01320BDE8F28301460020C90705D5002310220121DFF82C0C1CE7704782
:2034AC0001460020C90704D5DFF81C0C408900213DE77047DFF80C1A096821B18A88824216
:2034CC00FAD188687047002070472DE9F04186B004460020ADF8100001208DF81200DFF86C
:2034EC00D859286A38B900F03EFF09F062FD0028286200F0E28018220021284608F0BAFB0D
:20350C002079461C02284FF6FF7817D006282CD008282FD00A2833D00C2857D00E2800F0C8
:20352C008B80102800F08D80122800F08F80162800F09380182800F09780BBE000F013FFE1
:20354C00288029466088FCF787FD00282189288804D0814228BF01462980A0E0814228BFCF
:20356C0001466088FFF734FDA4E004A9204600F0AEF87DE004AA0021204600F02CF977E0BE
:20358C0000F0A0F8070052D0608805AB42460B21FFF772FD03006B6024D02079BDF8162077
:2035AC00039000953946BDF8140002900020019000F026FA070004D160882946FCF796FD83
:2035CC0029E0162F686808BF00272BE000F07AF807002CD0608805AB42460D21FFF74CFDD6
:2035EC00686020B92089ADF81000112745E02179BDF8162003910346BDF8141002916189AB
:20360C0001910095394600F0FBF9070006D160882946FCF779FD002841D12AE0162F68681D
:20362C0008BF002708F0FBFA380001D121E001272089ADF810001CE004A9204600F06EF9AC
:20364C0016E004A9204600F0E9F911E00DF1120204A9204600F086FA0AE00DF1120204A954
:20366C00204600F0C0FA03E004A9204600F029FB0746380011D0162F11D0607814280CD0A8
:20368C00207928702F712946BDF8100068806088FCF7D9FC08B1012601E0162F0AD16088B8
:2036AC002B46F2B21621FFF789FC18B1F1B22846FFF71EFD2046FFF7B8FB9DF8120006B0E0
:2036CC00BDE8F08120890DF11601FEF766BF2DE9FA47044686B06088DFF8DC57FDF770F8CB
:2036EC0080460DF1120000F0D4F8002781464FF0FF0AB9F1000F5BD009E0BDF8103043549D
:20370C00BDF81000696892B2000A8854571CBFB2A8F1050087424BDA207903900026A8F182
:20372C00070080B20290019605F11A0000902B6ABDF812206088494600F0CCFB002802BFE8
:20374C006A8B208A904214D1296A606908F0E8FD78B1686858B900F055F90721FFF78CFCE0
:20376C00686020B9069920890880112030E0B9F80A60BDF81220618904AB4846FEF733FF3B
:20378C00002E8146B5D06868C655781C6A6880B231121154411C4A1C6868B9F1000F89B2F1
:2037AC00ABD100F801A092B2686800F802A0571CB8B248B13F04B80C288029466088FCF76B
:2037CC006FFC28B1162003E00699208908800A2008B0BDE8F0872DE9F043044685B0608802
:2037EC0088469146FCF7ECFF851EADB2DFF8C87601E0401C2081A81E398988422FDB5FEAA0
:20380C0008002CD104A800F044F8060027D070892081BDF81020317A6088FEF711FE5FEA63
:20382C0000081CD120793B6ABDF8102003903146A81E80B200F0EBF800F0E2F85FEA000874
:20384C000DD173897A8B396A608800F02AF85FEA000804D120894FF6FF718842C9D1388937
:20386C0001000AD0798890FBF1F0388039466088FCF726FC50B1162008E05FEA08002089A7
:20388C00A9F8000008BF4FF00A08404605B0BDE8F0830090237B6189208904F10D02FEF756
:2038AC004DBE2DE9F8468246894615461E46FCF787FFDFF804460746208990B900F0A3F8E3
:2038CC0009215046FFF7D8FB606008B9112023E0A81C60803A1F208901466B189A4206D27A
:2038EC0003E06088A91C8842F4D0012014E0401C2081606846542089411C2181310A62687D
:20390C001154606823892A464946184408F0B4F92089281820810020BDE8F2862DE9F047AE
:20392C00044686B06088DFF890750D46FCF748FF0026A0F10109A0F1010814E03888798B97
:20394C000346C9188845BCBFA9EB0000788378687A8B396A184408F08FF93888798B081812
:20396C00761C3880B6B2A0898642BCBF3888404534DAA06810F8162000EB460004A94078EE
:20398C0002EB002080B2FEF708FE010009D14FF0010A00F02BF8786808B108F040F9504649
:2039AC00DDE02079BDF8102003901FFA89F000F02EF83B6A00F024F800288246E9D178684A
:2039CC000028BBD100F01EF80F21FFF755FB00287860B3D100F00AF81120E1E760883946D5
:2039EC00FCF7A0FB0028DBD01620D9E7A06810F8161000EB4600407801EB002028807047DA
:203A0C00608867E2608800234FF6FF72704702900020019007F11A00009070472DE9F04708
:203A2C00044686B06088DFF890548946FCF7C8FE059004F10D0204A80090237B61892089C9
:203A4C00FEF77CFD0026B24607464FF0FF0810E0696801F8068080B2696801F80080461C1D
:203A6C0068686A8B296AB6B2801908F005F9688B8619B6B2FFB1BDF81020397A6088FEF7CC
:203A8C00DFFC5FEA000A13D12079BDF81020039039460598801F80B202900020019005F1D1
:203AAC001A0000902B6AFFF7ABFF5FEA000A10D07889A9F80000002E48D0688896FBF0F09F
:203ACC00288029466088FCF73CFB002847D0162045E07EB9FFF796FF1121FFF7CDFA68609E
:203AEC0020B97889A9F80000112038E0688B001D688009E0688B6988021D9142DDD10599F3
:203B0C00891F80198142D8DB69687889885579896A68701C80B2090A1154461CBDF81020E2
:203B2C0061890DF112033846FEF75DFD0746701C002FB6B28CD06A68BDF81210915580B222
:203B4C00BDF812106A68090A115488E75FEA0A002089A9F8000008BF4FF00A0A504606B0C6
:203B6C00BDE8F087FEB504460D462089164602A9FEF713FD07002ED0387A80060BD5BDF846
:203B8C00080000F0A1F903000BD06088122239469847070020D1607C002814BF5220207955
:203BAC0001E00E2718E00190002000906389E2682189608800F08AFA070007D1607C68B992
:203BCC006088FCF7CFFA48B11620FEBD162F03D10027377002E0012720892880607C00B17C
:203BEC0000273846FEBD2DE9F041044682B00D4660889046012101F04EF9002718B91420FF
:203C0C0060700E205BE020896946FEF7C6FC060051D0307A80060BD5BDF8000000F054F927
:203C2C00030013D06088122231469847070043D16688304600F008F928B94FF6FF7000F02B
:203C4C0003F9A0B3068000219B4E02E00E2733E0491C737ECAB29A4229D24268C9B20C2352
:203C6C004B4313441A88002AF2D10C2204F10801184608F001F8002088F800000C2204F186
:203C8C000801304607F0F8FFA289608800231721FFF7F2F9B06060B1A289216907F0ECFFA4
:203CAC0060883146FCF764FA40B1162007E0092702E0112700E00127208928803846BDE874
:203CCC00F6812DE9F043044683B06088894600F0BBF800265FEA00084CD0207A012845D1D5
:203CEC00414604F1080000F051F8A0B1D8F804701820019078880090BB88BA6839886088FF
:203D0C0000F0E4F90646162E02D10020B8602DE060B3388828E000270EE001906888009021
:203D2C00AB88AA68608800F0D1F90646162E18D10020A8607F1CFFB25F48407E874215DA86
:203D4C00D8F804100C227A430A44154629880B000CD07B1C83421DBF908900281620182060
:203D6C00DBE7002EE6D02888A9F80000404600F080F82EB96088FCF708FA20B1162003E0A4
:203D8C00162E08BF00263046BDE8FE832DE9F84F0C460020002700264FF00C0B46490DE05C
:203DAC00984202BFBCF8025093B2AB4224D1BCF80430DF19BFB29A1892B2761C4B7E9E42AD
:203DCC000FDA63680BFB06FC9C44BCF8003043B10028E5D1BCF80470BCF802201846BA1857
:203DEC00EAE7022E2DDB38004FF0000904D007F0FDFE5FEA000801D1002023E0CA461AE018
:203E0C000BFB0AF14518A96859B1AA8808EB090007F032FFA88848441FFA80F9A86807F072
:203E2C00FEFEBAF1000F04D00C220021284607F021FF0AF1010AB2456068E1DBC0F8088057
:203E4C0087800120BDE8F28F10B51B4AD269002100E0491C194C2478CBB2A34207D2C9B286
:203E6C0032F831308342F4D102EBC10010BD002010BD70B5044600250BE0B06808B107F072
:203E8C00CEFE0C220021304607F0F4FE002030806D1C0949497EE8B2884207D26068EDB286
:203EAC000C216943461830880028E6D14FF6FF70208070BDA5460020204400207C44002038
:203ECC00854101004444002080B5FFF7F3FA00B1806802BD2DE9FE4F0D468046287AC00613
:203EEC0093461E464FF0000A0CD55846FFF7ECFF030000F0E4800A22294640469847002851
:203F0C00824649D128780C9F0D9CDDF83890022816D100F018F94FF42051401A012810D9F0
:203F2C00801E3AD0401E14D0FD3876D0401E00F07D80401E6AD0401E6FD0401E00F0918031
:203F4C00A7E0002C2AD1E868017839800278416883E0002C22D1012038800021E8680078BE
:203F6C0030706889401C80B2FEF717FB398860B10278921C51183980418971704189090A6B
:203F8C00B17002784168F01C68E0081D388004220021701C07F06EFE93E0002C62D1E86848
:203FAC000488042038803470200A70700DF102012046FEF7F2FA05001ED0EC68BDF8022079
:203FCC004FF6FF786B464146FEF70DFB40B92B786A688C480221FCF783FB08B9ADF8008028
:203FEC00207802280AD161680222301D07F044FE3888801C388001E0ADF80040BDF8000016
:20400C00B070BDF80000000AF0705AE054BBE8680168404609F01FF902E01CBBE86800882B
:20402C00022139803070000A70704AE0E86808F054F982B2A242B8BF4FF0070A41DB94427E
:20404C0008BF002206D009EB04019142B2BF4A46121B92B23A80E9682144304607F00CFE70
:20406C002FE014B14FF00B0A2BE0E8680721398001783170417871704188B1704188090A56
:20408C00F17001793171C1887171C088000AB07117E05846FFF70EFA00281CBFD0F800C0DB
:2040AC00BCF1000F0BD00F980290CDF8049000943B46324629464046E047824601E04FF03A
:2040CC000E0A5046BDE8FE8FA84600202DE9FE438046894617461E4602A94846FEF75DFAB4
:2040EC0005002CD0BDF80800FFF7E4F900281CBFD0F804C0BCF1000F1FD00A980B9C009010
:20410C00019433463A4629464046E0470646B8B9FE2C15D02878022812D100F014F842F63C
:20412C00021188420CD13878797800EB012082B24946404600F04AF802E00E2600E0012674
:20414C003046BDE8FE8368680178407801EB002080B27047704700207047E0B58DF80820F1
:20416C000223120A8DF80920FE2201920022009202AAFFF7ABFF0EBD7CB50129044605D04C
:20418C00022922D1012100F086FEF0B92046FFF75BFE08B1FFF76DFE01A800904FF6FF75F5
:2041AC000223194A29460120FEF7C8F90BE0F0680168204609F057F8BDF804200023294660
:2041CC003046FEF710FA0600F1D173BDF8B50F4F04463878FF280D46164611D00A2007F089
:2041EC0057FD68B1B12101704480002141700171C580068101463878BDE8F44007F017BE93
:20420C00F1BD0000083201001C320100A54600200A4610B5052A18BF042A03D0062A18BF2C
:20422C00072A08D10C24514B62431A4422F8301D9070002010BD022010BD38B50D460446CC
:20424C002888052818BF042803D0062818BF072801D1686808B9022032BD0121204600F07F
:20426C001AFE08B9142032BD4FF6FE70844207D0204600F04CFE2989884201D21B2032BDCD
:20428C003B48007800282946204603D0BDE8344000F094BABDE8344000F046BA80B5354B32
:2042AC00009313460A4601212CE0E0B5019200230522009202930A462F4B0A2100F0CAF947
:2042CC000EBD70B50D4684B004461646EB88AA886988288803F01AF958B100200290019617
:2042EC00042000902A46254B1221204600F0B2F900E0182004B070BD80B5214B0093134664
:20430C000A46132100F0D8F902BD38B504461D480129017011D11C480088051DADB20120E6
:20432C0008F0DAFF94FBF5F082B2284601B0BDE830400023002108F0D3BFBDE832400020BF
:20434C0008F0CABF03B50F480078012881B003D102AA01A908F0C8FF07BD0B4A001F10803E
:20436C0003480170704708480088704748440020BA460020C9480100B949010047490100BD
:20438C00AD49010007440020A64600207047000010B59D4C207000F099FC302200219B48D3
:2043AC0007F068FC9A4960780978081860700006000D08F0FEFD606088B161780A01002166
:2043CC0007F058FC00206278C1B2914208D26168C0B201EB0011FF224A72401CF3E7607051
:2043EC00207806F07CFFBDE810400FF2292000F094BC30B50C46200489B0834D0CD5287844
:20440C0007F091FC050004D000F02AF8284607F054FC84F4004021E0E0071ED500F097F959
:20442C0030B1A878B0B12878012107F043FD11E0A97808001CBFE878FF280BD08DF8081021
:20444C00652302A901910022002100914FF6FF7100F035FB84F0010000E0002009B030BDC7
:20446C003EB504462078902849D16078132815D10020654A06E0A368C0B233F81030591882
:20448C009170401CA5789178C3B2AB42F3D3002935D01078012107F00DFD37BD6588214644
:2044AC00684600F0E0F90199F9B1BDF80000052804D16946284600F026F818E004281CBF54
:2044CC000628072813D10C2250495043084430F8301D61B180786A46294600F0CEFA30B9AA
:2044EC00BDF8000004280AD005E0012803D1A06808B107F094FB01212846FFF723FF37BD30
:20450C004149C8707047F0B50E4689B0044630890025042844DB716802A800F091F8BDF8C0
:20452C000A20182A63DA3189101D814235D19DF80800C00736D57068071D9DF8090000F01D
:20454C0015FB06002CD035719DF8080001280BD0132821D13078042822D1BDF80A203946A4
:20456C0003A800F01EFA05E0BDF80A20394603A800F0C3F90546304600F017FB03A80190E3
:20458C00002000902A469DF80830307A214600F096FA304600F0E3FA15B1204600F033FB04
:2045AC0009B0F0BD9DF80800122817D17068011D03A800F0D8F90500EED114488189002915
:2045CC00EAD003A9019100229DF809109DF80830807B0091214600F072FADDE79DF8091079
:2045EC00ADF800506A462046FFF758FED4E70120ADF800001720ADF802006A469DF809109B
:20460C002046FFF74BFECBE7B8460020484400207C44002010B504464FF6FE7084420ED027
:20462C00012906D002290AD10121204600F033FC28B92046BDE81040002100F0E5BA10BD08
:20464C000A7802704A7842708A78C97802EB0121418070472DE9FC410D4616461F460A9A11
:20466C000999044601AB00F051FA804608BB0199089808703346DFF818060178491CCAB258
:20468C00002A06BF012101220A460170294601980271009701980279204600F00DF88046D2
:2046AC0020B901981E2100F076FA02E0019800F056FA4046BDE8F6812DE9F041044684B0BB
:2046CC000E4617469846172000F0F0FA050026D00A9A100003D04146281D904700E0002009
:2046EC00010A2E70E9706F70A8700521001DADF80800ADF8001001956946DFF898050078DF
:20470C000028204602D000F059F801E000F00CF80446200004D0284607F081FA00E01324E2
:20472C00204604B0BDE8F08110B50B88DFF868250C2463431A44303A536833B94B685360D6
:20474C00098950811181002010BD162010BD80B5052000F00FF858B9062000F00BF838B9FC
:20476C00042000F007F818B9072000F003F800B1012002BD0C2210B5DFF81C1542431144D1
:20478C00A1F1300484B06168A9B1DFF8082512787AB1ADF80000019169462089ADF80800FB
:2047AC00608900F00BF810B1606807F038FA00206060012000E0002004B010BD70B50D4665
:2047CC0004462889010004D0DFF8D0140988814201D21B2070BD6868042107F0F3F906468F
:2047EC00288930702889000A70702888B0702888000AF0702889051D4FF6FE70844213D1A7
:20480C000C2007F045FA01000CD0902008704C8002200871CD808E60DFF88404007807F0B5
:20482C0006FB18E0132070BD3346AAB20021204608F05EFD010007D002280ED0072810D075
:20484C0012280CD01F280DD1DFF8480401780A001CBF491E0170002070BD142070BD0220E8
:20486C0070BD042070BD38B50446002060600879022821D1CA88042A1EDB8868017843785D
:20488C00C57801EB0321837889B203EB05230D1D95429BB210D1052B18BF042B03D0062B0A
:2048AC0018BF072B08D1218123806FF0030107F089F96060002032BD012032BD0B88037004
:2048CC0002220B881B0A43700B88012B06D14A88827004224988090AC1700CE0022B0AD1B4
:2048EC004A8882704A88120AC2708A88027106228988090A417110467047022A1BDB0A7894
:20490C004B7802EB032202800288012A05D18A78C97802EB012141800BE0022A09D18A78A3
:20492C00CB7802EB032242800A79497902EB0121818000207047012070470A8802700A88BA
:20494C00120A42704A8882704A88120AC2708A8802718A88120A4271CA888271C988090A8A
:20496C00C17108207047082A18D10A784B7802EB0322028011F8022F4B7802EB0322428055
:20498C0011F8022F4B7802EB0322828011F8022F497802EB0121C180002070470120704700
:2049AC0005E0022A00D10EE00120704700BF0A8802700988090A417002207047022A00D155
:2049CC0001E0012070470A78497802EB012101800020704780B54B8800F8013B04224B8833
:2049EC001B0A00F8013B0B8800F8013B0B881B0A00F8013B0B8873B94B88022B04D149685A
:204A0C0007F0C9FC082206E0032B04D10822091D07F032F90C22104602BD10B50446042AC9
:204A2C00084628DB0178437801EB0321618010F8021F437801EB03212180801C21880B000F
:204A4C0013D16188022906D1082A14D1042107F08BFC60600DE0032908BF0C2A0BD10146C8
:204A6C000822201D07F008F903E0012908BF042A01D1002010BD012010BDF8B504460D46D2
:204A8C001646102007F004F9070016D0A02038707D80002078702EB10C223146381D07F060
:204AAC00EBF804E00C220021381D07F0E3F83946204607F0BCF90020F2BD0120F2BD2DE967
:204ACC00F04180460D4616461F46202007F0E0F8040019D0A2202070667065800698207187
:204AEC006771079929B1182204F1080007F0C4F804E0182204F1080007F0BCF821464046BB
:204B0C00BDE8F04107F093B9BDE8F08170B51E0004460D4621D0012100F0BDF9D8B161488F
:204B2C000078002100E0491CC9B2814211DA5E4B1B6803EB01125388002BF4D100201070CA
:204B4C0001F14000508022B1D48015723260002070BD152070BD142070BD012070BD10B5E4
:204B6C0004461022002107F085F823E0002200E0521C4C4909788A420BDA4B49096801EBED
:204B8C0002114B88002BF3D00B798342F0D108467047002070474FF47A724A4300F1090396
:204BAC0001460FF2190007F0CCBC10B50446607A07F05BFCFF20607210BD000010B504004B
:204BCC001CBF6088002807D01721204600F005F82046BDE81040C2E710BD1CB504462078F8
:204BEC0004280FD10020019000900A46E188207A1323FFF764FFE18802B0BDE81040122236
:204C0C0005202EE013BD072170B50446002539BB18E025480068EDB200EB05163078002893
:204C2C001CBF707AFF280CD0F088A04209D13046FFF7BBFF14213046FFF7CFFF3046FFF76B
:204C4C008EFF6D1C17490978E8B28842E1D30425FF222146284600F004F86D1C082DF7DB9E
:204C6C0070BD10B50C240C4B60431844A0F13004608988420AD1606840B1FF2A1CBF017827
:204C8C00914203D106F0CBFF0020606010BD000078440020BA46002048440020A646002040
:204CAC00B8460020B9460020BC46002080B5001D80B208F021FB28B1BDE804406FF00301CC
:204CCC0006F080BF02BD70470020704738B5B94C00220021204604F005FD2078302568431D
:204CEC0008F067F96060B8B100210AE005FB01F202444FF6FF735380491C00231371D36218
:204D0C00C9B222789142F1DB0020002104EB8002401C0C289160F9DB31BD0021A54A02EBE1
:204D2C008102936813B9906000207047491CC9B20C29F3DB132070472DE9F04106460C46A4
:204D4C0017469846204600F078F808B1112024E04FF6FF7000F071F805001DD085F8058057
:204D6C0006220699A81D06F087FF0622002105F10C0006F07FFF6C802F712E700020E862CC
:204D8C0000210898A8740998A8820A98E882204600F0FFF8002000E01520BDE8F08110B5F6
:204DAC0000F04BF8040012D06088012100F0F1F8E06A08B108F0FFF830220021204606F02A
:204DCC0059FF4FF6FF7060800020207110BD022010BD38B50C46154600F02FF858B101793A
:204DEC00002D14BF2143A14301710221408800F0D0F8002032BD152032BD38B50C4600F0E8
:204E0C001CF8050017D028792070062268796070A91DA01C06F030FF062205F10C0104F1B5
:204E2C00080006F029FFA87CA073A88A2082E88A6082002032BD012032BD10B500225D4B33
:204E4C0000E0521C1C78D1B2A14209D25968D2B23024544321444C888442F2D1084610BD16
:204E6C00002010BDF0B5534B5C6800224FF6FF7700E0521C19788A420BDA302101FB02F581
:204E8C0061194E88BE42F4D0655D8542F1D10846F0BD0020F0BD10B50C464FF6FE7188424A
:204EAC0006D0FFF7CAFF00281CBF0079204201D0012010BD002010BD80B5FFF7BEFF00B12E
:204ECC00807C02BD10B5002000213A4A08E05368C9B230244C4323441B7903B1401C491C10
:204EEC001478CBB2A342F2D3C0B210BD31480078704710B50C46FFF7A0FF00281CBFC18A12
:204F0C00A14202D0C482002010BD012010BD80B5FFF793FF00B1C08A02BD70B505460C4676
:204F2C001646FFF78AFF28B94FF6FE70854218D0142070BD0179C06A28B9CA0609D5C906E4
:204F4C0009D40F2070BD01F01202102AF7D1002EF5D0052070BD20B1807EA04201D20C2010
:204F6C0070BD002070BD70B5040011D00026114D0BE068683021714308444FF6FF72418892
:204F8C00914218BFA047761CF6B228788642F0DB70BD70B504460D460026064800EB860033
:204FAC008268100002D0294620469047761C0C2EF3DB70BD7C44002038B504000D4618BFAB
:204FCC00002D01D1022032BD0321684600F038F900F030F82A466946204600F07AF80400BF
:204FEC0004D103226946E81C06F046FE204632BD30B504000D4618BF002D83B001D1022002
:20500C003EBD0322E91C684606F036FE00F012F801AA6946204600F05CF8010009D1032289
:20502C00294601A807F07CF9012801D100203EBD01203EBD9DF8021001F03F0141F0400164
:20504C008DF80210704730B50C46002818BF002C8DB0154600D00DB9022011E001461022DA
:20506C0000F034F81022214604A807F03DF900F05EF80446102208A9284607F035F920462A
:20508C000DB030BD80B52020FBF7C3FB38B1024606480078BDE80840012106F0F8BB01BDC8
:2050AC0002480078012106F00FBC00007944002070B58CB000F020F800F006F8280A8DF854
:2050CC001E008DF81F50ABE010222146684607F00BB970B58CB000F00FF8FFF7F5FF0322BE
:2050EC0029460DF11D0007F0FFF800F020F8044603220DF12D0198E004460D4616463022C6
:20510C000021684606F0B6BD70B58CB0FFF7F4FFFFF7DAFF00F08FF800F009F89DF82F10F6
:20512C009DF82E2001EB022131800CB070BD6846D0E0F0B595B005460C4616461F463022DF
:20514C00002108A806F096FD1022294608A807F0CBF810220021684606F08CFD07223146BE
:20516C00FFF7B4FF072239460DF1070007F0BCF81C9901B101218DF80E101A9901B101216F
:20518C008DF80F101022002104A806F073FD1B99062205A807F0A8F81D9906220DF11A00E4
:2051AC0007F0A2F8102221460CA807F09DF869460CA800F01AF808A800F08CF80446102274
:2051CC0010A90CA806F058FD04A90CA800F00DF808A800F07FF805461E98102210A907F0BB
:2051EC0083F845EA040015B0F0BD10B51022037811F8014B6340521E00F8013BF7D110BDE0
:20520C0070B50C468CB0154601461E461022FFF75DFF0822214604A807F066F800F00BF8C0
:20522C00FFF785FF0446102208A9304607F05CF820460CB070BD0822294606A807F054B861
:20524C0070B504460D4600260BE006F0A3FCF6B2010AA155761CF1B2A94202D2F6B2A055A0
:20526C00761CF0B2A842F0D370BD00688208920000F0030102F004021143C208D20002F0C2
:20528C00080211430209120102F010021143400941EA4010C0B270470268920841EA82028E
:2052AC0022F004038A0802F0010243EA820222F00803CA0802F0010243EAC20222F0F003B7
:2052CC000A0902F0010243EA0212490942EA41110160704700F1200200F1100108F010B8BC
:2052EC002DE9F0470700144614BF002C022088B089463FD009F10405A8B207F05AFE06000B
:20530C0036D0FBF7D0FB80464A463946301D06F0EBFF86F803804FEA1827B7704FEA184982
:20532C0086F801904FEA186A86F800A0FBF7B8FB0146102203A806F0D7FF0820009001AB80
:20534C00AAB2314603A800F085F805000DD184F80080677084F8029084F803A0082201A99F
:20536C00201D06F0C1FFFBF7A2FB00F070F800E01325284608B0BDE8F0872DE9F04F89B05F
:20538C0015001CBF129F002F80460E469A4615D0FFF753FD040008BF142055D03878797847
:2053AC0000EB0120B97800EB0140F97800EB0169A06A484504D310F1010F01D0022043E01D
:2053CC0026B12079800758BF01203DD50822002101A806F04FFC0AF1040B1FFA8BF007F0B6
:2053EC00E8FD060008BF13202ED052462946301D06F07AFF04223946304606F075FF102244
:20540C0004F1180105A806F06FFF0820009001AB1FFA8BF2314605A800F01CF8050010D159
:20542C00082201A903A806F05FFF0822391D03A806F076FF012811BF012549464046FBF7D1
:20544C008DFD00F004F8284609B0BDE8F08F304607F0B1BD2DE9FA4F834685B0924600F07F
:20546C00D6F8814600F0D3F8B9F1000F804608BF132400F0C280B8F1000F08BF132400F07B
:20548C00B98000F0C4F8064600F0C1F805460EB9132434E00DB913242FE01022002106F074
:2054AC00E9FB324629465846FFF718FF040024D130780FF29417000604D44946304600F04A
:2054CC00B7F808E02946304600F0B2F84A463946284600F0A3F899F80000000604D44146AC
:2054EC00484600F0A5F808E02946484600F0A0F842463946284600F091F8FFF7A8FF15B1C7
:20550C00284607F058FD200074D100F080F8054600F07DF806460DB9132468E00EB91324B9
:20552C0062E0514601F10F00C21000EB12700003001403D14FF0000A00220AE0CA0801EB48
:20554C0012721209A1EB0212521E9241D20FA0F1010A4FEA0A10059B80B2184422B1324674
:20556C00494600F05BF818E0CA0801EB12721209A1EB02110022C9B28A42B8BF835C02DBBD
:20558C000CBF802300230DF80230521C102AF3DB32464146684600F041F81022002128462A
:2055AC0006F068FB00270BE00598390189B201446A46284600F032F800F02CF804467F1CEC
:2055CC003FB2574501DA2000EED020000CD16A463146284600F022F800F01CF80446109AE5
:2055EC000698294606F048FB284607F0E4FC0EB1FFF72DFF484607F0DEFCB8F1000F1CBF41
:20560C00404607F0D8FC204607B0BDE8F08F102007F0CFBC2A46694658465FE630B5002330
:20562C00C45CCD5C6C40D4545B1C102BF8DB30BD10B500220F23C45C42EA4402CA54C25CE8
:20564C00D2095B1EF7D510BD000000000000000000000000000000872DE9F047DFF86867D7
:20566C00044600253068884692461F46A94608B1112036E06FB12120FBF7CBF897F89C10CC
:20568C00814206D32220FBF7C4F897F89C10884201D2022025E0702007F08BFC306008B914
:2056AC0013201EE07022002106F0E4FA31684D7030680470306880F802803068A0F806A05C
:2056CC008766C56605711CB100F0D7F90546A946316801204870B9F1000F18BF00F005FB77
:2056EC002846BDE8F08738B5DFF8DC562B68002443B11A79022A18BF032A05D0042A18BFD6
:20570C00062A01D0122032BDDA888A4201D0022032BD0146102203F1080006F0ADFA2868A9
:20572C0010212830FFF78CFD286800F1180200F12801083000F01AF92868417802781AB1D7
:20574C0003290DD1022107E0042902D10221417006E0032904D10521417000F0A4F90446C0
:20576C00204632BDDFF8601688607047DFF8581648607047DFF85026126802B9704780B5CA
:20578C00D288824208BF012904D100F0AEFABDE801402FE301BD1720CCE2000070B586B08B
:2057AC00044600208DF80000A0680578691E0A293BD8DFE801F006060F13171B1F23272BF0
:2057CC002F0001A900F0C1FE122826D106218DF8001022E001A900F02BFF1EE001A900F0EA
:2057EC0043FF1AE001A900F056FF16E001A900F06AFF12E001A900F083FF0EE001A900F0E3
:20580C00A9FF0AE001A900F0B0FF06E001A900F0C3FF02E001A900F0D8FFD8B96088FFF79D
:20582C000CFB052628B9082612E007208DF8000013E0827CDFF89015082A0CBF8968496871
:20584C0031B10B68190003D001AA2946984706468DF800609DF8000020B16088694600F0E4
:20586C0007F803E00B2D18BFFFF70CFC06B070BD38B50C46DFF854352246022100F0B3FF7E
:20588C000546207800F056FA284632BD70B5DFF838450646206800280D463FD0C188B14269
:2058AC003CD14178062930D1017811B3816ED1F89810C26ECB0704D5137BDB0748BF0721CF
:2058CC0013D4C1F34003002B1FBFD368C3F34003002B092109D1C1F3800100291EBFD168FE
:2058EC00C1F38001002902D00B21417007E0A06800E0606818B14068010018BF8047206860
:20590C004078122818D1002005E0112906D1280018BF3225284600F00DFA0DE0280007D1E2
:20592C003046FFF78AFA18B1017941F01001017131462846FBF704FD012070BD10B5DFF8B2
:20594C008844206888B1007800280CBF6068A06818B14068010018BF8047206840781228E9
:20596C0003D1BDE810400020E4E110BD2DE9F34FDFF8546430688DB0904608B9122041E0FA
:20598C00C088FFF75AFA050008BF14203AD009A800F0F9F93068017879B1D0F86CA0FBF7CB
:2059AC0093F8040018BF01240020FBF790F86F7909AE814605F1060B0EE0C66EFBF784F8B9
:2059CC00070018BF01270020FBF781F86C790DF1240A834605F1060907A9504600F05EFDBA
:2059EC0005A9304600F056FDCDF81080CDF80CB00297CDF8049000940E990D9805AB07AA2B
:205A0C00FFF797FB0FB0BDE8F08F70B5DFF8B8530446686886B000281CBF006800280E46D1
:205A2C001CD030788DF8040070788DF8050002A8B178FFF731FCF0786B688DF80C0001AA5E
:205A4C007068049001211B6820469847010005D08DF8000069466088FFF70AFF06B070BD10
:205A6C0038B5D94CA46834B1A5682C0003D0049C0094A84732BD022032BD1FB500F031F8FB
:205A8C0070B1684600F07FF92168C8880978002914BFCF4BCF4B6A46072100F0A4FE00E0EF
:205AAC00012004B010BD1FB500F01BF800F118011022684606F0E0F82068C74B0AE01FB551
:205ACC0000F00FF800F128011022684606F0D4F82068C24BC0886A46112100F084FE04B022
:205AEC0010BDB94C20687047F8B5B74F04463868C06E0025002840F0C480102007F059FA83
:205B0C0039680028C86600F0BA808E6E1022214606F0B2F838680178002940F08880C16E7A
:205B2C00D6F8982011F80C7F02F0010307F00107BB4218BF0023520843EA4202C6F8982012
:205B4C00C2F340030F68C7F34007BB4206BF530803F00103002322F0020242EA4302C6F84D
:205B6C009820C2F380030F68C7F38007BB4206BF930803F00103002322F0040242EA830231
:205B8C00C6F89820C2F3C0030F68C7F3C007BB4206BFD30803F00103002322F0080242EA14
:205BAC00C302C6F89820C2F300230F68C7F30027BB4206BF130A03F00103002322F480726D
:205BCC0042EA0322C6F89820C2F340230F68C7F34027BB4206BF530A03F00103002322F4F3
:205BEC00007242EA4322C6F89820C2F380230F68C7F38027BB4206BF930A03F00103002377
:205C0C0022F4806242EA8322C6F89820C2F3C0230968C1F3C0218B4206BFD10A01F001013B
:205C2C00002122F4006242EAC121C6F89810617800291EBF7178002905211CD16168C1F3CA
:205C4C00800139B996F8951011F0040108BF012111D012D00178002919BF31782278327879
:205C6C0021780529B8BF052A07DA0FF2B41302EB82021A44515C017104E0182502E01325D9
:205C8C0000E011252846F2BD0A46554B15E010B586B00446ADF800101046014608220DF121
:205CAC00020005F0E9FF4F4B6A460B21204600F09AFD06B010BD0A464B4B112100F093BDBB
:205CCC001CB58DF8001004461046014606220DF1010005F0D1FF454B6A460821204600F0C0
:205CEC0082FD13BD0A46424BE7E710B5FFF7F9FEE0B1C06E08B107F05EF92068806D08B1F8
:205D0C0007F059F92068C06D08B107F054F92068006E08B107F04FF92068406E08B107F0A8
:205D2C004AF9206807F047F900202060BDE81040FFF7B6B9244900B5096885B081B14A6EA9
:205D4C0003920A6E0292CA6D01928A6D0092CB78CA880978FBF77EFB05B05DF804EBC4E71E
:205D6C0005B000BD18490968102000291CBFCA6E002A07D0896E29B191F89C00117A814222
:205D8C0038BF0846704770B504460F48006800281CBF856E002D0FD02878207005F195060A
:205DAC0068786070201D3178FFF776FAF0792072D5F89800E06070BD2046BDE87040102221
:205DCC00002105F057BF0000B44400208B660100A1640100A96401002B6601005366010021
:205DEC00C1660100E966010031670100436701009367010010B52620FAF70BFD0446C0B220
:205E0C0068B1022007F0D5F848B110210170002141700146E0B2BDE8104006F008B810BDB9
:205E2C000101020102010102010203030401030101010101030302010300000080B5DFF81D
:205E4C005C05007840074CBFDFF854050020FFF78DFC002002BDF0B589B004460D46164686
:205E6C0010220021684605F005FFDFF83875386850B3C188A14204BF0178002924D14178B6
:205E8C0006290DD100F1480200F1280104AB0830FFF7B6F9C0B9FFF765FF024604A924E03C
:205EAC00806D88B1028A112927D1964209D100F033F8012805D1FFF755FF02463868816D06
:205ECC0013E03220FFF736FF2046FEF7B6FF07001CBFF86A002819D0018A8E4216D100F0AF
:205EEC001BF8012812D1F96A8A7E684605F0C4FE6946204607F008FA0BE09642E4D100F031
:205F0C000BF80128E0D13868816DEDE7204607F0FFF9012009B0F0BD00F1120108222846BE
:205F2C0006F0FEB9F0B5DFF87C640746306885B01546002488B901290ED1281DFFF795F9A0
:205F4C00E9680291297A019100906B782A7879880020FBF71EFA0020DBE0C2887B889A42D8
:205F6C0018BF0820F8D10278012A08BF0720F3D0491E092960D8DFE801F0055F142CC849B9
:205F8C00617F92B22846FFF7AFFD30B9DFF818040078042105F08EFFBAE0182831D10324C3
:205FAC00B6E010222946383005F066FE30684178042908BF03215ED000F1180200F1280121
:205FCC000830FFF7D3FCFFF76EFD00B10824052062E010222946483005F04EFE306800F130
:205FEC0048016A460830FFF7C1FC306800F138011022684606F094F9012805D1FFF75FFD3B
:20600C00002874D1062047E0042481E041780C2912D1C06D20B91C2006F0CBFF3168C86598
:20602C003068C06D40B100F076F8FFF79BFE3168C96D88760D202FE0072469E0C36D002BD9
:20604C00FAD040780D28F7D1288818820822A91C03F1120005F010FE3068816ED1F898107B
:20606C00C1F34022002A1FBFC26ED268C2F34022002A27D00E2130E041780E29DCD1006E0A
:20608C0020B9172006F095FF316808663068006E08B100F040F80F203168487038E041781B
:2060AC000F29C9D1006E0622691C113005F0E4FD31682878096E40F0020008743068816EEB
:2060CC00D1F89810C1F3802100291FBFC16EC968C1F38021002916D01021417018E0406E9B
:2060EC0038B9142006F065FF3168486608B908240EE03068406E30B100F00DF83168496E87
:20610C004FF0FF300861002000E02878FFF712FE204605B0F0BD1022294605F0ADBD10B569
:20612C00FFF7ABFC002842D19E4C2068816E91F89510C90709D5C16E097901F0030101296E
:20614C0003D1C17841F00101C17020680179022904D0032918BF04290AD10121C08800222A
:20616C00FBF744F900F024F804202168487010BD012918BF05291AD10221417020680179B6
:20618C00012905D110220021083005F073FD07E0816E1022891C083005F06EFD00F008F8CE
:2061AC0010212068BDE810402830FFF749B810BD2068C17841F00401C17070472DE9F041E3
:2061CC00784C20680178002940F0E5804778D0F86880C66E062F2FD1D8F89810CA0704D536
:2061EC00327BD20748BF072731D4C1F34002002A1EBFF268C2F34002002A08D00927FAF762
:20620C0043FB01462068C088FFF755FD10E0C1F3800100291EBFF168C1F3800100290BD018
:20622C000B27FAF73DFC01462068C088FFF75AFD072F50D1082090E0F91F0429F8D8DFE8C7
:20624C0001F0062F05380400F2E7EAE7D7E7806D20B91C2006F0ADFE216888652068856DD0
:20626C00002DE5D0FFF77EFDA87610220021284605F000FDA97E080004D01129BCBF2846C8
:20628C00FEF7DEFF05F086FC2882082105F11200FEF7D6FF2068C0882946FFF7F5FCC7E730
:2062AC00816DD1B101F11202098AC088FFF7EFFC13E0FAF709FC01270546012D0CBF002724
:2062CC0000253846FAF703FC02462068C0882946FFF7F6FC14E0082F0CD1D8F89800C0F38D
:2062EC00400000281EBFF068C0F34000002807D0092032E0092F08BF0A202ED00A2F0BD18C
:20630C00D8F89800C0F3800000281FBFF068C0F3800000280B2020D1D8F89800C0F30021C5
:20632C0000291FBFF168C1F3002100290C2014D1C0F3402100291FBFF168C1F34021002930
:20634C000E200AD1C0F3802000281EBFF068C0F38020002814BF10201220216848702068FF
:20636C004178072918BF082904D009291CBF0A290B2910D1C088FEF760FD00281ABF818A51
:20638C0001EB51024FF4FA72BDE8F04106480078022105F07CBABDE8F08100005D45002041
:2063AC00C0460020B44400207944002010B5354C207004F097FF20780621FDF729FFBDE8D6
:2063CC0010403148FEF7A9BC70B50C4620042F4E3DD52C48007805F0A6FC05000ED028785E
:2063EC0092280ED0A0282AD12846FFF7D7F9A86808B105F014FC284605F05FFC84F40040BE
:20640C0070BD68783E281AD1A878052806D0082815D1A979A888FFF739FA0EE0A888FEF74B
:20642C004BFD0428E7D130680028E4D0C3681800E1D0EA89A888A91D98470028DBD1144844
:20644C000078FF28D7D0294605F0F1FCD6E7E00704D5FFF7A0F984F0010070BDA00704D56B
:20646C00FFF76CFA84F0020070BD600708D5306818B18068010018BF804784F0040070BD40
:20648C00002070BD7944002081570100B8440020F94500200A460146012002E00A46014642
:2064AC00022070B50C46150018BF002C01D1022070BD1070D61C20785070751C60789070CB
:2064CC00201DFEF7D2FE3070207A2870E068000A00F001006870E168C1F3402101B102218E
:2064EC0008436870E168C1F3802101B1042108436870E168C1F3C02101B1082108436870F9
:20650C00E168090B40EA01106870207B00F00100A870E168C1F3400101B102210843A870E5
:20652C00E168C1F3800101B104210843A870E168C1F3C00101B108210843A870E168090940
:20654C0040EA0110A870002070BD38B505000C4618BF002C01D1022032BD68782070A878D5
:20656C006070201DE978FEF797FE2879E168207221F48071687900F0010241EA0221420829
:20658C0021F4007102F0010241EA4221820821F4806102F0010241EA8221C20821F478410B
:2065AC0002F0010241EAC221000941EA0031E1604908A87900F0010242EA4101420821F0F8
:2065CC00020102F0010241EA4201820821F0040102F0010241EA8201C20821F0F80102F040
:2065EC00010241EAC201000941EA0010E0602120FAF70FF9217A814205D32220FAF709F975
:20660C00217A884201D2122032BD20780528BCBF6078022801DB182032BD002032BD80B58C
:20662C000B0018BF002801D1022002BD032112E080B50B46002818BF002B01D1022002BD18
:20664C00411C10220BE080B50B0018BF002801D1022002BD042103F8011B102201461846AF
:20666C0005F00AFB002002BD80B50B46002818BF002B01D1022002BD411C1022EFE7002944
:20668C0018BF002801D10220704705220A700078487000207047002818BF002901D1022080
:2066AC007047407808700F2800DA08B9182070470020704780B50B0018BF002801D102201C
:2066CC0002BD0621C7E780B50B46002818BF002B01D1022002BD411C1022C0E780B50B0041
:2066EC0018BF002801D1022002BD072119700822018859700188090A9970811CD81CAFE7E3
:20670C0080B50B46002818BF002B01D1022002BD10F8011F427801EB022119800822811CB9
:20672C00981C9DE780B50B0018BF002801D1022002BD08218FE780B50B0018BF002801D173
:20674C00022002BD09211970062201785970411C981C85E780B50B46002818BF002B01D130
:20676C00022002BD411C102279E780B50B46002818BF002B01D1022002BD41781970062270
:20678C00811C581C6CE780B50B0018BF002801D1022002BD0A215EE780B50B46002818BFA2
:2067AC00002B01D1022002BD411C102257E710B50C0018BF002801D1022010BD0B212170D4
:2067CC00FEF753FD6070002010BD80B50A46002818BF002A01D1022002BD41781046FEF746
:2067EC005BFD002002BD70B5044684B008460621ADF80010ADF8080015461E46FEF756FAD8
:20680C00010001910ED02846B047050004D169462046FDF712FD0546280004D0019805F0CF
:20682C00FEF900E01325FEF72DFC284604B070BD2DE9F04F82460AF1060883B00C46DFF84E
:20684C00140698F800100068542251430844009000F1200514F801BB4E300190BBF1150F67
:20686C000AF1E3070AF166060AF20319DFF8E80500F2AD81DFE81BF016005E001B017E00E4
:20688C00AB01AB01DD00A101ED00F300E000EA00F800AB01AB01AB01AB01AB01AB01AB01BF
:2068AC002201220114F8010BB077022221460AF1860006F031FD014602220AF1880006F033
:2068CC002BFD014602220AF18A0006F025FD014602220AF18C0006F01FFD0146B07F4000C2
:2068EC00B0770222308C40003084708C40007084F08C0001F0840AF1820006F00DFDB08BB8
:20690C00B8F80210401A80B247F6FF71884228DAB08C718C401C49004843F18C884228BF0D
