:2000000028400020857F000001CA011001CA011001CA011001CA011001CA011001CA01102C
:1C00200001CA011001CA011001CA011001CA011001CA011001CA01103FCA011082
:20003C002DE9FC470AAF3F8882460C4608469946154601A909F018FC012808BF01204AD047
:20005C00BDF80400DFF8948042F60211FF26401A2ED048F26311401A012827D827BBB9F15C
:20007C00010F1FD1BDF804104AF666200027884202D12978032913DA2978E2681170BDF836
:20009C000410884205D0E1684046884218D13E4618E0E1684046401C884211D1012611E0A4
:2000BC0080270DE00D270BE00B2709E00A2707E0009750464B4621462A4607F063FD074605
:2000DC00FF2E07D04046001D006818B1016809B1304688473846BDE8FC87C046A020002038
:0400FC000BF013B83A
:200100003C000000000000000000000034010000000000000000000001000000000000006D
:1C01200000000000000000000000000001000000000000000800000000000000BA
:20013C00340000000000000000000000680100000000000000000000010000000000000005
:14015C00010000000000000000000000080000000000000086
:2001700030000000000000000000000098010000040000000000000001000000FFFFFFFFA5
:10019000FF00000001000000080000000000000057
:2001A0002C0000000000000000000000C4010000040000000000000001000000FFFFFFFF4D
:0C01C000FFFFFFFF08000000000000002F
:2001CC0034050000E401000099A1011095A70110A5C2011009B2011045B80110000000000B
:0801EC00000000002F000000DC
:2001F400280000000000000000000000140200000000000000000000FFFFFFFF00000000B1
:080214000800000000000000DA
:20021C00300500003002000069C201106DC101101FC2011095BA011000000000000000008E
:04023C002D00000091
:20024000300500005402000075C20110A9B601109DBF011049B601100000000000000000DE
:040260002E0000006C
:200264002400000000000000000000008002000000000000000000000000000008000000CC
:040284000000000076
:20028800240000000000000000000000A40200000000000000000000000000000800000084
:0402A8000000000052
:2002AC00240000000000000000000000C8020000000000000100000000000000080000003B
:0402CC00000000002E
:2002D000000000007C24002004000000000000000000000020000000700100003000000089
:2002F0001C020000842400200400000000000000000000000C0000003004000018000000AC
:20031000400200008C2400200400000000000000000000002400000048040000180000002F
:20033000000000009424002004000000000000000000000010000000A00100002C000000F4
:20035000CC0100009C24002004000000000000000000000020000000640200002400000032
:20037000FFFFFFFFA4240020040000000000000000000000280000008802000024000000AF
:20039000FFFFFFFFB4240020040000000000000000000000580000003C010000340000008C
:2003B000FFFFFFFFBC240020040000000000000000000000100000006004000018000000A1
:2003D000FFFFFFFFC42400200400000000000000000000001C000000AC0200002400000017
:2003F000FFFFFFFFCC24002004000000000000000000000038000000F40100002800000088
:20041000FFFFFFFFD424002004000000000000000000000054000000000100003C00000023
:1804300018000000000000000000000040040000080000000000000050
:1804480018000000000000000000000058040000080000000000000020
:18046000180000000000000000000000700400000800000000000000F0
:080478000100000020BC00009F
:0404800009F0BCBA09
:040484000100000073
:0404880000000E0062
:04048C0000000F005D
:040490003200000036
:040494000100000063
:04049800002400201C
:04049C00000200005A
:0404A0000000000058
:0404A40001CA011078
:0404A8000000000050
:0404AC00000000004C
:0404B0000800000040
:0404B4000000230021
:0404B800802200207E
:0404BC00010000003B
:0404C00018240020DC
:0404C400080000002C
:0404C8000000000030
:0404CC00000000002C
:0404D0000000000028
:0404D4000000000024
:0404D8000000000020
:0404DC00010000001B
:0404E0005023002085
:0404E400060000000E
:0404E800010000000F
:0404EC00A821002023
:0404F0000000000008
:0404F4000000000004
:0404F80000020000FE
:0404FC0000000000FC
:02050000704742
:020502002900CE
:020504000100F4
:020506002500CE
:020508002D00C4
:02050A002E00C1
:02050C002F00BE
:02050E000100EA
:0105100001E9
:0805140003000000A8BB000079
:08051C000000000000000000D7
:0405240000000100D2
:0405280000000300CC
:04052C0087C401106F
:04053000380500008A
:040534003805000086
:0405380000000000BF
:04053C00900000002B
:040540009000000027
:0405440000000000B3
:040548001824002053
:04054C00C5AC00003A
:040550002000000087
:040554004CBA00009D
:0405580034B90000B2
:04055C000DC30110BA
:040560005B780000C4
:04056400EB7B00002D
:0405680099C801101D
:04056C009BC8011017
:040570000000000087
:040574000FB90000BB
:04057800E0B70000E8
:04057C00F8B70000CC
:04058000C8B70000F8
:0205840008006D
:0205860009006A
:02058800010070
:02058A0000006F
:01058C00016D
:040590000000000067
:040594000000000063
:04059800000000005F
:04059C00000000005B
:0405A000ABB10000FB
:0405A4008189000049
:0405A800959D00001D
:0405AC009592000024
:0405B000638F000055
:0405B400C5920000EC
:0405B80035670000A3
:0405BC00A9AE0000E4
:0405C000916E000038
:0405C40011C8011049
:0405C80021C8011035
:0405CC000800000023
:0405D0002400000003
:0405D400180000000B
:0405D80028000000F7
:0405DC0020000000FB
:0405E0003C000000DB
:0405E4000C00000007
:0405E80034000000DB
:2005EC002DE9FE4FDFF800B54FF0400C0FF2FC4E91E8700741784FF0000707EBC417A7EBDC
:20060C00C40707EB451707EB850707EBC60706EB441606EB840606EBC50605EBC4055EF8E7
:20062C00212010F8021BC2F303031C44C2F305131D44C2F386231E44C2F348431F4407EBAA
:20064C00C417A7EBC40707EB451707EB850707EBC60706EB441606EB840606EBC50605EB59
:20066C00C4055EF821204178C2F303031C44C2F305131D44C2F386231E44C2F348431F44A9
:20068C0007EBC417A7EBC40707EB451707EB850707EBC60706EB441606EB840606EBC50617
:2006AC0005EBC4055EF8212010F8021BC2F303031C44C2F305131D44C2F386231E44C2F3FB
:2006CC0048431F4407EBC417A7EBC40707EB451707EB850707EBC60706EB441606EB8406A5
:2006EC0006EBC50605EBC4055EF821204178C2F303031C44C2F305131D44C2F386231E4420
:20070C00C2F348431F44A7EB0803B846A3EB09029946A2EB0A039246BCF1010CA3F5002330
:20072C004BF8043B7FF467AF06BCA1E8700791E86000B2E8800F17B9A2F11002D0E0EA4887
:20074C004FF0080CBCF1010C036803FB07F34FEAA32305EB030E03FB08F40EFB0AF5A6EB8A
:20076C00A52505EBA42503FB09F40EFB0BF34FEAA424A4EBA32640F804EB036803FB07F305
:20078C004FEAA32305EB030E03FB08F40EFB0AF5A6EBA52505EBA42503FB09F40EFB0BF335
:2007AC004FEAA424A4EBA32640F804EB036803FB07F34FEAA32305EB030E03FB08F40EFB47
:2007CC000AF5A6EBA52505EBA42503FB09F40EFB0BF34FEAA424A4EBA32640F804EB03680D
:2007EC0003FB07F34FEAA32305EB030E03FB08F40EFB0AF5A6EBA52505EBA42503FB09F4E4
:20080C000EFB0BF34FEAA424A4EBA32640F804EB036803FB07F34FEAA32305EB030E03FBE4
:20082C0008F40EFB0AF5A6EBA52505EBA42503FB09F40EFB0BF34FEAA424A4EBA32640F801
:20084C0004EB036803FB07F34FEAA32305EB030E03FB08F40EFB0AF5A6EBA52505EBA42524
:20086C0003FB09F40EFB0BF34FEAA424A4EBA32640F804EB036803FB07F34FEAA32305EB98
:20088C00030E03FB08F40EFB0AF5A6EBA52505EBA42503FB09F40EFB0BF34FEAA424A4EB93
:2008AC00A32640F804EB036803FB07F34FEAA32305EB030E03FB08F40EFB0AF5A6EBA5257C
:2008CC0005EBA42503FB09F40EFB0BF34FEAA424A4EBA32640F804EB7FF434AF60C126E74D
:2008EC00814803462026761E30C82C444FEA640443F8044BF7D191E86000B2E8800F17B9D3
:20090C00A2F11002D0E078484FF0040CBCF1010C036803FB07F34FEAA32305EB030E03FB4C
:20092C0008F40EFB0AF5A6EBA52505EBA42503FB09F40EFB0BF34FEAA424A4EBA32640F800
:20094C0004EB036803FB07F34FEAA32305EB030E03FB08F40EFB0AF5A6EBA52505EBA42523
:20096C0003FB09F40EFB0BF34FEAA424A4EBA32640F804EB036803FB07F34FEAA32305EB97
:20098C00030E03FB08F40EFB0AF5A6EBA52505EBA42503FB09F40EFB0BF34FEAA424A4EB92
:2009AC00A32640F804EB036803FB07F34FEAA32305EB030E03FB08F40EFB0AF5A6EBA5257B
:2009CC0005EBA42503FB09F40EFB0BF34FEAA424A4EBA32640F804EB036803FB07F34FEA34
:2009EC00A32305EB030E03FB08F40EFB0AF5A6EBA52505EBA42503FB09F40EFB0BF34FEAD3
:200A0C00A424A4EBA32640F804EB036803FB07F34FEAA32305EB030E03FB08F40EFB0AF51E
:200A2C00A6EBA52505EBA42503FB09F40EFB0BF34FEAA424A4EBA32640F804EB036803FBAB
:200A4C0007F34FEAA32305EB030E03FB08F40EFB0AF5A6EBA52505EBA42503FB09F40EFB76
:200A6C000BF34FEAA424A4EBA32640F804EB036803FB07F34FEAA32305EB030E03FB08F48F
:200A8C000EFB0AF5A6EBA52505EBA42503FB09F40EFB0BF34FEAA424A4EBA32640F804EBAC
:200AAC007FF434AF60C126E74FF0000080F300880D4802BC08263CC822F3CF0223F3CF0359
:200ACC0024F3CF0425F3CF05761E21F8022B21F8023B21F8024B21F8025BECD1EFF3008009
:200AEC00C0F3C060BDE8F08F683100200000000011040200210C080032100A003118140045
:200B0C00421C160052241C0063281E0041282800522C2A00623430007338320072403C0050
:200B2C0083443E00934C4400A4504600513C46006240480072484E00834C500082545A0033
:200B4C0093585C00A3606200B464640092646E00A3687000B3707600C4747800C37C820078
:200B6C00D4808400E4888A00F58C8C0061547000725872008260780093647A00926C8400E0
:200B8C00A3708600B3788C00C47C8E00A27C9800B3809A00C388A000D48CA200D394AC00A8
:200BAC00E498AE00F4A0B40005A5B600B290B600C394B800D39CBE00E4A0C000E3A8CA008A
:200BCC00F4ACCC0004B5D20015B9D400F3B8DE0004BDE00014C5E60025C9E80024D1F200CA
:200BEC0035D5F40045DDFA0056E1FC007170A8008274AA00927CB000A380B200A288BC00FA
:200C0C00B38CBE00C394C400D498C600B298D000C39CD200D3A4D800E4A8DA00E3B0E40007
:200C2C00F4B4E60004BDEC0015C1EE00C2ACEE00D3B0F000E3B8F600F4BCF800F3C40201E7
:200C4C0004C9040114D10A0125D50C0103D5160114D9180124E11E0135E5200134ED2A011F
:200C6C0045F12C0155F9320166FD3401D2C41801E3C81A01F3D0200104D5220103DD2C018A
:200C8C0014E12E0124E9340135ED360113ED400124F1420134F9480145FD4A01440555014E
:200CAC005509570165115D0176155F0123015F0134056101440D670155116901541973012A
:200CCC00651D750175257B0186297D0164298701752D890185358F019639910195419B016F
:200CEC00A6459D01B64DA301C751A5018190F0009294F200A29CF800B3A0FA00B2A80401FF
:200D0C00C3AC0601D3B40C01E4B80E01C2B81801D3BC1A01E3C42001F4C82201F3D02C013E
:200D2C0004D52E0114DD340125E13601D2CC3601E3D03801F3D83E0104DD400103E54A011C
:200D4C0014E94C0124F1520135F5540113F55E0124F960013401670145056901440D73015B
:200D6C005511750165197B01761D7D01E2E46001F3E8620103F1680114F56A0113FD7401C5
:200D8C002401770134097D01450D7F01230D890134118B0144199101551D930154259D0186
:200DAC0065299F017531A5018635A7013321A7014425A901542DAF016531B1016439BB0169
:200DCC00753DBD018545C3019649C5017449CF01854DD1019555D701A659D901A561E301AE
:200DEC00B665E501C66DEB01D771ED01F200990103059B01130DA1012411A3012319AD01DC
:200E0C00341DAF014425B5015529B7013329C101442DC3015435C9016539CB016441D501E5
:200E2C007545D701854DDD019651DF01433DDF015441E1016449E701754DE9017455F301C8
:200E4C008559F5019561FB01A665FD018465070295690902A5710F02B6751102B57D1B0208
:200E6C00C6811D02D6892302E78D25025355090264590B027461110285651302846D1D026D
:200E8C0095711F02A5792502B67D2702947D3102A5813302B5893902C68D3B02C595450235
:200EAC00D6994702E6A14D02F7A54F02A4914F02B5955102C59D5702D6A15902D5A9630218
:200ECC00E6AD6502F6B56B0207BA6D02E5B97702F6BD790206C67F0217CA810216D28B0259
:200EEC0027D68D0237DE930248E295022DE9FE43B04C0F460646F80B80F03781B80880F0A0
:200F0C00C9806069B90F69D2A07A00284AD138094AD3002501266570A748267209F0C6FF8F
:200F2C00A6492A4604F14C000AF024F9607901281FD1A079E8B9DFF88882266AD4F8149061
:200F4C00D8F8000070B109F0FDFDA0EB09004346000B8619E0611868B6EBC01F28BF25622B
:200F6C0008D2266204F1C8004FF0005109F054FD31E0667104F1380140F60900088094F803
:200F8C00450000F0F00040F0010084F84500658794F8440000F0F00084F84400E563894EB3
:200FAC00316018E0380914D2B80BC0F0FB8004F128000AF0EAF8061C08D0706830B17568FE
:200FCC00F068B6F91C1082A20CCAA84727F40057E8E00020A07227F00807E3E0D8B10420E7
:200FEC0009F0E8F9B8B109F0ADFDA0616169814226BF401A401E401A000BF060F06840F691
:20100C00C41100F58D708142F06003D340F2EE22824200D9F1600025D6F818C06561BCF1A6
:20102C00000F0FD094F8450010F00F0F0AD1708C40F60901814205D167A20CCA30466FF45F
:20104C008071E047604904F14C002A460AF092F8A07950B10220ADF80000684609F05AF8B4
:20106C00A571BDF80800A4F8A000012060702079A846401C2071192084F8078009F08EFE2F
:20108C00756925B156A20CCA30464146A84727F0005787E004F1300948460AF076F8061CBB
:2010AC005AD007F09EFC4FF00008B269C6F818807068B8B1F07F42F00202002300F00700B1
:2010CC00401E07D0401E03D0801E06D146A002E047A000E048A090E80C007568F068B6F94A
:2010EC001C10A8470AF078F90546B4F93600401C6FF31F30E086206B1F30017801F07F01F9
:20110C000170484609F0E0FB28460AF061F9F068B0F99410B4F9362091421DD12178012902
:20112C001AD090F8965095B9056885B1E1680968B1F1FF3F10D0254909687030B5FBF1F1CF
:20114C000AF042F9F06870300AF03AF904E080F89680404605F068FE48460AF016F827F029
:20116C00020708B147F002071CE00AF035F9014604F12C000AF009F80646B56908460AF028
:20118C0027F9A8080CD25EB1B069A843B061706830B12A46F068B6F91C1075680023A84726
:2011AC0027F4804727B104F1C800394609F034FCBDE8FE83E81700209D6500004D9F0000D1
:2011CC00B0350020001004400934000014BC0000000000002000000000000000000000027B
:2011EC0000000000000000040000000000000010000000000000004000000000000000206F
:20120C002DE9FE430646DFF8DC82DFF8DC92B2780024101C00F03581801E00F00D81401E0B
:20122C00012840F2E180801E00F0A880401E7BD0401E59D0083800F04681801E40F0468174
:20124C004546B08895F83E70ADF80000052F45D001208DF80A0005F1CC0009F09AFF95F805
:20126C003E0001281BD0042819D0032806D0022804D0F28831897089B38907E0B5F840209F
:20128C00B5F84210B5F84400B5F84630ADF80220ADF80410ADF80600ADF8083020E0B5F87A
:2012AC004000F1888842D8BF081CADF802003189B5F842008842D8BF081CADF8040071896C
:2012CC00B5F844008842D8BF081CADF80600B5F84630B0898342D8BF031CDDE78DF80A4077
:2012EC00684609F0FBFDF1E0454605F1F00009F050FF7078002840F0E980F088E882308975
:20130C0028837089688305F1CC0009F037FD002840F0DC80AB6A002B00F0D8801B68E88A12
:20132C00298B6A8B9847D1E0B08808F054FD45462146062205F1380004F022FCEC822C8370
:20134C006C83B079687305F1CC0009F022FF05F1F00009F01EFF01244FF6FF706F79A882CB
:20136C004FB9B079082814BF04200520A870204609F016FBAAE00320A870A7E0707858BB15
:20138C00311D0A68454605F138000260898881800627AF707089A882F089E882308A28839D
:2013AC00708A6883F0784446287394F83E00012818BF02280AD11F2006F0A6FF4FF47A71D8
:2013CC00024604F1CC00514307F080FAF0787289311D07F0D3F97BE0707831286FD14D4610
:2013EC0004202870204623E07778002F67D14546698AA878032A13D02A796F7921B9012A28
:20140C0014BF6C712C7106E0174304D005F1A80007F05CFAA878072814BF0420062007E021
:20142C00062807D02879002808BF0324DAD00220A8704DE00724D5E77078751C00283ED13C
:20144C004246F7789078D1799FB9022816D0072814D0062802D1517901290FD103280DD0DF
:20146C0002F1A80009F08AFC40B9012009F098FA04E08732204606F085F828702878F0B94A
:20148C0024E07078D8B945460220102105F1480207F0B0FC0320102105F1580207F0AAFCC1
:2014AC00F61C05F12C00B7883168878005F1680201600120A979A87006F064F840B1082086
:2014CC004D46287004E0B08809F0FCFC012C06D14546686A18B1016809B1A8788847BDE8E7
:2014EC00FE83C046A80F0020AA0F00202DE9F04FB34C20690668002118220823ADF1540DD9
:20150C0007A809F07BFD04F14405284607A908F087F94FF0010B4FF0000A04F138010D916B
:20152C0004F10C00056004F158010E9104F128010F9100F1CC0110918C301190201D1290F3
:20154C00E01C1390E06851460F224FF0FF3302F0BBFA0546280980F01281A80815D384F825
:20156C0000A0C4F814A084F801A0B77B2FB930694000402838BF402004E030694008102883
:20158C0038BF1020606225F00205E80806D3032084F82C0032680F99206990476808D1D3F0
:2015AC00206A01A904F07EFE0028CBD0676A002F40F0C4802778F7B1206907F008FFE06135
:2015CC00A8B9B17B00290CBF40221022B08AA378051FAA4203DB5B1CD8B2A0700BE0002982
:2015EC0014BF10214021401A001F606203E084F800A0C4F814A0B26801981199109BFEF7D3
:20160C00EFFF84F801B094F800906078012840F0AF80B9F1010F00F0AB80B37BE06967690B
:20162C00A5690830F3B9B18A6A00C2F14003C91B091F8B4204DB84F800B08846D94602E05E
:20164C006A00C2F1400810990068891838184246001D03F009FD08EB070008EBD87705EB4D
:20166C00670535E0B4F904302FB994F903100268517001684B80B18A2B46102203EBD37303
:20168C00A2EB6302CB1B1B1F9A4206DBC91B84F800B0091F4FEA410801E0C5F1200812994B
:2016AC0000910068139B10990FFA88F23F183F1D01EB4501384604F09DFA94F80090A76931
:2016CC006069414601EBD17108EB070500EB61006061202D32BFA56184F801A0C4F818A09F
:2016EC00B9F1000F91D02069E16901AA05F0C2FF206907F06CFEE061D0B9B27B002A0CBFBA
:20170C0040231023B18AA069A5780F1F1B1ABB4203DB6D1CE8B2A07007E0002A14BF10223F
:20172C004022891A4018001F606284F801A01FE084F800A0C4F814A0D14666E7B07B002800
:20174C000CBF40211021A278B94205D200280CBF403F103F67620BE0521CD0B2A070B57B8F
:20176C00002D06BF7F1C78087800A061C4F824A002980690206A06A909F002FA10E70A20D8
:20178C0002F036FC0BE0A06809F016FE0546F269B18AA8689047F269142128469047A06874
:2017AC0009F006FE0028EED00D9809F0FDFD0E9809F0F6FD20690F2105F0C0FBC2E6C046F9
:2017CC0020050020F8B5A0F2013517460E46022D40F20C818649874C874A884B2D1F0F2DD6
:2017EC0004D9143D4AD0AD1E1CD011E0DFE815F0BA00B500EB00DB00AE00A700FE009F00FA
:20180C00980010001000900086007A006F006200282880F2EB80022E40F0E880398807F0F6
:20182C002FF9F8BD012E40F0E1800A469078012800F0DC80D1783878D07081B9002800F0A7
:20184C00D5801078012800F0A080042800F09D80062800F09A80052800F09780F8BD38785C
:20186C00002840F0C3801078032800F09980072800F09680052800F09380F8BD012E40F08C
:20188C00B5803878012840F0B180254605F1F00009F074FA002840F0A98004F13E01002040
:2018AC0004F044FB002840F0A18004F1CC0009F070FCF8BD022E40F0998038880A28C0F278
:2018CC009580B0F5486F00F39180114614E0022E40F08C803888B0F5FA7F80F28780114622
:2018EC000880F8BD022E40F08180388806287DDBB0F5486F7ADC1946891CF1E7022E75D1F4
:20190C003888062872DBB0F5486F6FDC1946E7E7012E6BD13878062868DA1146891F0CE036
:20192C00012E63D13878042860DA093105E0012E5CD13878082859DA08310870F8BD012EFF
:20194C0054D13878042851DAC91DF6E7012E4DD1387804284ADC891DEFE7022E46D13888BA
:20196C001031BDE7012E41D10A46D07801283DD091783878907061B9002837D010780128B4
:20198C0003D0042818BF052830D1012009F008F8F8BD387850BB1078022818BF052825D101
:2019AC0009F09CF9F8BD254600211F2205F18704204604F0E5F839463246204603F054FBB4
:2019CC000020EE710EE0254600211F2205F16804204604F0D5F839463246204603F044FBA9
:2019EC000120AE713146224605F0CCFDF8BDC046AA0F0020A80F0020EC0F0020E80F002061
:201A0C002DE9F04F0128ADF1140D40F0F280DFF81492D9F8DC00012840F0E9800220C9F80C
:201A2C00DC0009F0B9FC0290012006F0D5F920B101210646C9F8DC10D5E009F0A9FC0390C7
:201A4C006E484FF00008C0F80080012008F0B2FC012818BFCDF8008004D1404605F01CFCD1
:201A6C000120009066486E4CC0F800801934D4F8FF0F112009F07AFA00280CBF464601269E
:201A8C00102009F073FA08B146F002060F2009F06DFA08B146F004060B2009F067FA30B1BF
:201AAC00584800685849006B0246088890470A2009F05CFA0028404618BF01204FF0805B1E
:201ACC000BF5DC7528B128685049006B0246088890474F480127076028688069014646F071
:201AEC00200088474B48076009F03AFA00F001010191400815D2484809F098F98246BAF184
:201B0C00040FF8D0BAF1010F06D1DBF8D801406802464148032190474049086820F0030020
:201B2C000860404600F080F82868D4F8FF1F806B8047019801280ED0BAF1010F06D1DBF812
:201B4C00D801406802463448394690473349086840F0030008602A480760286840690146FE
:201B6C00304688470B2009F001FA28B128682649C06A0246088890470A2009F0F7F928B158
:201B8C0028682249C06A024608889047204807600322C9F8DC201F4BC3F800802868406BD4
:201BAC000146304688470128F8D1042006F014F9124807601A48D4F8FF1F01688909FCD39D
:201BCC000098012802D1384605F066FB09F0C2F9082006F001F906460398C9F8DC7009F0D8
:201BEC00D3FB05F00DF8029809F0CAFB02E0042600E00126304605B0BDE8F08F0C400940C2
:201C0C0000022243B80100105EB700005AB7000028200860800104430040034024220840D9
:201C2C0014100940EC1B00202DE9F84FDFF8E8B10746ABF13500DFF8D4910068800880F07D
:201C4C00D68007F061FF064677480830D0F8008000254FEA28725FEA985002F101020AD245
:201C6C00C6F13E0016F10A0F4FEAE000D8BF08208242B8BF021C624BD3F87C01C0F3046006
:201C8C0009F0CDF804461868C0F3044009F0C7F812198246162A05DA12F10A0FB8BF6FF0FD
:201CAC00090200E01522574B574802F01F0141F4F8511980006810F0030F18BF0125C0084D
:201CCC0028BF45F002050FB145F00405494691F90700301A052804DA8879A84208BF8888A0
:201CEC0065D0DFF82CE10F2EA6F10F0C25DB0CEB0610A0F1F00C4FEA2C27072F88BF0727FF
:201D0C003C46062C88BF06245EF82400042303EB84037446E3581B1A03F0FF04E80824BF89
:201D2C00C3F307200444A80824BFC3F307400444680828BF04EB136401E0002427465EF815
:201D4C0027E0E8080EF0FF0324BFCEF307200344A80824BFCEF307400344680828BF03EB47
:201D6C001E63A4B2ACEB0727BAEB020004FB07F404F1800403EB1423D8BF0120342208F076
:201D8C00FF0742437A43B2FBF3F04FF6FF72824238BF101C802E80B2888005DA16F1800F65
:201DAC00B8BF6FF07F0600E07F26CE718D71194A12681F280A604FF0000208D340F2FF110E
:201DCC00814206D24008521C8142FBD301E01F208880124F0F38000942EAC00247EA02001B
:201DEC00CBF8FB0F0026CBF8FF6FBDE8F88F0D4F0B4E494608203760891D0870BDE8F88F3A
:201E0C003C1100506E62084024220840B43500209C130050082009403500094000E7A48071
:201E2C0030100940FDFDA400AC3F00502DE9F0411C4615468C4208BF854282BF002300224E
:201E4C00E5E0002C08BF002D0AD100290EBF00286FF000006FF0000100F0E1F8BDE8F081FA
:201E6C005FF000085FF0000E002C08BF8D429CBF2C1C0025070C47EA01470E0CB44208BFB5
:201E8C00BD429EBF5FEA044444EA15445FEA0545070A47EA01670E0AB44208BFBD429EBF54
:201EAC005FEA042444EA15645FEA0525470847EAC1774E08B44208BFBD4200F2938087082D
:201ECC0047EA81778E08B44208BFBD427CD8C70847EA4177CE08B44208BFBD4266D807098F
:201EEC0047EA01770E09B44208BFBD4250D8470947EAC1674E09B44208BFBD423AD88709D4
:201F0C0047EA81678E09B44208BFBD4224D8C70947EA4167CE09B44208BFBD420DD8E60145
:201F2C0046EA5566EF01B14208BFB84201D3C01BB14158EB08085EEB0E0EA60146EA9566DB
:201F4C004FEA8517B14208BFB84201D3C01BB14158EB08084EEB0E0E660146EAD5666F0161
:201F6C00B14208BFB84201D3C01BB14158EB08084EEB0E0E260146EA15762F01B14208BF8C
:201F8C00B84201D3C01BB14158EB08085EEB0E0EE60046EA5576EF00B14208BFB84201D38A
:201FAC00C01BB14158EB08084EEB0E0EA60046EA9576AF00B14208BFB84201D3C01BB141BB
:201FCC0058EB08084EEB0E0E660046EAD5766F00B14208BFB84201D3C01BB14158EB080855
:201FEC005EEB0E0EA14208BFA84201D3401BA14158EB08085EEB0E0EA34208BFAA423EBF7E
:20200C002D0A45EA0465240A89D3734642461E4617460B46024631463846BDE8F0817047FE
:20202C002DE9F843814608F08FFF002100B901216B4E30680028FCD06C4D01242D1DEF6A34
:20204C00346009B108F086FFDFF89881C7F3072008F1BC01086008F077FF002100B921460B
:20206C0030680028FCD02F68346009B108F072FFC7F38440C8F8C00008F066FF01460020B8
:20208C0001B92046014630680028FCD0ED69346009B108F05FFFC5F38120C8F8D000B9F5B0
:2020AC00C061C8F8B81000F0968098F8D80068B9C8F8D410D8F8C000C8F8C800D8F8BC7024
:2020CC00C8F8C470D8F8D060C8F8CC60D8F8D410D8F8BC60002954BF02206FF0010045462B
:2020EC0005F1C8031A6801EB41014018411000EB917002EBA0021A60D5F8C810C5F8C4603F
:20210C0000291CDD1E293DDDD5F8CC0030B93429B4BF15391E21C5F8C81025E02A29BABFEB
:20212C00D5F8C8000B381E20C5F8C800D5F8C4003F28B4BF401C3F20C5F8C4001FE0D5F885
:20214C00CC00032812D011F10B0FC6BFD5F8C8000B30201CC5F8C800D5F8C4000028CCBF24
:20216C00401E0020C5F8C400032009E011F1150FC6BFD5F8C8001530201CC5F8C8000020E2
:20218C00C5F8CC00B5F8C400174E30214FF47F4208230090304605F08FFD009404214FF4D1
:2021AC0000321123304605F087FDB5F8C80004214FF4F80212230090304605F07DFDB5F890
:2021CC00CC0020214FF440620A230090304605F073FDBDE8F883002088F8D800BDE8F883B1
:2021EC0000800C40EC1B002000A00C4000A00C402DE9F043ADF11C0D05F024F8684C04F13E
:20220C00280004F1900103F015F8DFF89891E060494608F079FF07F03BFC08F075FC08F036
:20222C00A7FB04264FF47A7200235F49206104F16C00009605F016FC1F20012106F020FCDA
:20224C000620ADF8120001258DF8146000278DF818506423ADF816708046ADF80E7006AA17
:20226C00ADF80C302946ADF8108040F20530FFF7A9FA40F2063002210DF11602FFF7A2FA9A
:20228C0004F14E024FF442701B21FFF79BFA04F1400240F207300E21FFF794FA4FF44470E7
:2022AC0005AA2946FFF78EFA40F2113002210DF11202FFF787FA40F21230022104AAFFF71C
:2022CC0081FA40F2133002210DF10E02FFF77AFA4FF44570022103AAFFF774FA08F004FE41
:2022EC004046A02106F0CCFB0720A02106F0C8FB0820A02106F0C4FB0920A02106F0C0FBF4
:20230C0002978DF807508DF8067003208DF80450314602AA8DF805004FF4816006F096FBED
:20232C004FF4806029460DF1070206F08FFB40F2024029460DF1060206F088FB40F20340A1
:20234C0029460DF1050206F081FB40F20640294601AA06F07BFB08F0C8FEFDF7C9FE08F01C
:20236C00B5FB05F059FB03F0BDFCA0707F2814BF0A200F20052105F0BBFD07F08DFC07F07F
:20238C0009FF05F0E1FC08F043F907F065F808F084FEE068494608F0B7FE07B0BDE8F08302
:2023AC00E80B0020C1A100001DA900002DE9F04F8346DBF80400DBF800500E46ADF13C0D83
:2023CC00001D0D9009F008F895F89810012903D108F0FEFF0020BBE0012185F8981008F01C
:2023EC00F7FF3078287070686860F068E8613069286270696862B069A862F069E862306A34
:20240C002863002404714FF0FF37EF6010232B82698A40F6E332114302EA010068824FF43C
:20242C00D077AF82AC75EC7529232B76032068763022AA76EC76297EAF7E091137F07F0739
:20244C0008BF02206B6AEA69504341430E91B3FBF1F7032F11D3E96AB80000EBC70081427D
:20246C000BD80D98807801F02DFE584601F092FE58B90D98807801F0BBFD08F0ADFF85F81D
:20248C00984008F0A5FFA34661E00E98DFF8C88018B940460C30046023E008F11C0921464E
:2024AC00484608F069FFC8F80C90214608F11009484608F061FFA246C8F80890A146A86A2E
:2024CC000E9A2B6A09EB000102FB0A308860D8F8080008F04DFF09F10C090AF1010A7F1ED1
:2024EC00EDD101A821463022082308F03DFF0D99CDF818B048780094184A0990097801ABA2
:20250C0005F1340008F02CFF01A821462422082308F022FF0120214601AA8DF81C0005F1FE
:20252C006C0008F015FF287878B901A821462422082308F011FF8DF81C4005F1500021462F
:20254C0001AA08F005FF064800E0B068A86058460FB0BDE8F08FC04640220020594B0000CD
:20256C00BFB000002DE9F04FADF1840D00F02EFE05F07EFB0026012804D108F009F902288A
:20258C0008BF012658490868C0F38150012806D151F80C0C0127010E07FA01F0064353483E
:2025AC00007807F0D9FA524D2C46286038B1FF2204F1400107467F1E01F8012BFBD14D4983
:2025CC0009684FF0000901F0FF02FE2A1BD0DFF824C101F0FF074A460123FF2F0CD0B842C6
:2025EC007FD903FA07F73E427BD101F0FF0147EA0909611881F840205CF8041F521C01F054
:20260C00FF07FE2FE9D1092001F05CFD3948002124220823606001A808F09EFE4FF00108F6
:20262C0004F1240001AA8DF81C80414608F090FE236843B3002794354FF0040BBA4608FADB
:20264C0007F0064219D119EA000F04BF07F0FF0141F4C04105D0E019264990F8400051F8F5
:20266C002010254802F012F9F8B24FF0FF3107F0CBFE2368C5F800A001E0C5F800B07F1C0A
:20268C002D1D9F42DBD30AA800213022082308F06BFE0025FF2010210AAB1290174A0095E2
:2026AC0004F1080008F05CFE16A828220823294608F04AFE04F1600016AA1C9510491D950C
:2026CC002B4608F03DFE0F4951F80D0C20F4F85040F4005041F80D0C4746C1F8FF7F0A4E42
:2026EC00376021B0BDE8F08FB43F0050CA3500205830002008B60000007FC76731A40000F8
:20270C00B97E00000D300940080009402DE9F843674C04F1240008F038FD15460E46009016
:20272C0008F05AFE05F001078146B6F1FF3F0CD1A06A20B9B4F93600401C06B202E0A06AF1
:20274C00B0F91C60002084F8A300304607F026F80326002800F09B80A16ADFF840818142BC
:20276C0069D0009FB8422ED03FB100990A68904209D0096800290091F7D1832E41D0484694
:20278C0008F026FE3DE004F1A40007F053FD00980168AA0802D20A680260084600220260E7
:2027AC000091009818B9484608F012FE28E0C17F41F00401C177684608F086F801464046D6
:2027CC0006F0B0FAEDE704F1A40007F033FDA8083ABF606A006800206062484608F0F8FD81
:2027EC000099C87F40F00400C877684608F06CF80146404606F096FA009808B1A808EFD25B
:20280C008326E07988B9207A012843D0244808F04DFB022104F1C80008F0FEF86078012818
:20282C0038D0204808F042FB34E004F1C800022108F0F2F82EE0A90803D3616A00910026FA
:20284C006662C27F0121B9401143C17708F0A0FD0446002F14BF1448144807F05BFC484647
:20286C0008F0B6FDA80801D3009820B9204608F08BFD83260EE0C17F41F00401C1776846D3
:20288C0008F022F80146404606F04CFAECE7484608F09EFD3046BDE8F883C0461818002031
:2028AC00F90E0000CD4400000100020401000104E81700202DE9FC415E4C574D574EDFF8AB
:2028CC0060815A4F94F8E410481E0B2861D8DFE800F07B2C4306234306234306766404298A
:2028EC0007D001220A2945F8212C14BF0220032004E02021012045F8211C024684F8E20097
:20290C00002045F8390C0827C5F8FF7FC5F8F37F45F8392CBDE8FC81052914BF092006205C
:20292C00002584F8E400356070E094F8E1700120383D002FC5F81B0004BF0620002102D0CB
:20294C000021F160032084F8E400032045F8010C31603068800859D294F8E400012503286C
:20296C000DD00021404660220523009105F0A4F994F8E400062814BF0A200720D1E702205E
:20298C000090002160220523404605F095F90420C7E708F0D1FCBDE8FC8122490026224813
:2029AC000E60012505600E2001F022FB022006F0C3FB84F8E45084F8E360BDE8FC8100204F
:2029CC0038600C2578601FE01948006800680146202088472C3D41F61D560F2000214FF41E
:2029EC00C072072345F8010C4046C5F803600225009505F061F9404600214FF4C07207232E
:202A0C0005F0E2FB0120386084F8E45004F1780008F0D6FCBDE8FC8139400C4038600C406D
:202A2C0000A00C402C500C4004800C4034600C40A0010010EC1B00202DE9F84F9A46934638
:202A4C000E46814608F0C8FC514C0090B4F93610B4F934000AAF401A40F6F871014008296E
:202A6C0080F28780B4F93400401C6FF31F30A086B4F9348007F0BEFB054609F1700007F000
:202A8C00D9FBAE6085F81EB0C5F804A0A5F81C80C5F80C9097E80C0041A003C8002605F1B7
:202AAC0010071040194087E8030004F12400EE770768002F50D1294606F034F9002851D0C0
:202ACC00A9F89480E87F40F08000E87789F89660607A40B1607830B10120A0726672277919
:202AEC00A671781C2071009808F072FCA06A00284BD1607860BBE079012846D008F06CFC57
:202B0C000646207A00BBA86804F0D2FF224B2149E2681B68086040B9304608F059FC04F176
:202B2C00C800042107F078FF2FE00968D26804F1A400891AB1FBF3F108F046FC04F1A400D5
:202B4C0008F03EFC30461EE0144901200870F9E7192008F023F918E004F12400294606F02A
:202B6C00E1F848B9B4F9340000F6FF706FF31F30A0866FF0010805E0A9F89480E87F40F0B9
:202B8C008000E877009808F023FC4046BDE8F88FE8170020B035002014BC0000AC350020F4
:202BAC00F1EFFF9F20000000B0B5456884684F48297BADF1180D012916D0217E627E4C4B49
:202BCC002F7E0143009143EA02010191494937F0010718BF081CA27E1043029095F88D00CA
:202BEC000322FF2811D00DE0677E217E3843A37E019041F00041009143F000403E4902906F
:202C0C0095F88D00014304220391FE204DF82200694605F1900002F00DFBC5F89C0000285B
:202C2C0008BF00205FD0287B344951F8200001282BD02068B0F1804F14BF22220A22217EEB
:202C4C00D5F89C0006F03CFD2068B0F1804F14BF21220922617ED5F89C0006F031FD2068A3
:202C6C00B0F1804F14BF24220C22A17ED5F89C0006F026FD95F88D10FF2933D02068B0F172
:202C8C00804F14BF23220B2228E02068B0F1804F14BF21220922217ED5F89C0006F010FDC8
:202CAC002068B0F1804F14BF22220A22617ED5F89C0006F005FD2068B0F1804F14BF24227C
:202CCC000C22A17ED5F89C0006F0FAFC2068B0F1804F14BF23220B2295F88D10D5F89C0076
:202CEC0006F0EEFC012006B0B0BDC046000480A0004000800004C0A0002000804CB80000B2
:202D0C002DE9F04305466E68AC680F46ADF1340D08F062FB96F8D910241D012903D108F0F2
:202D2C0057FB002084E04FF0010986F8D99008F04FFB4FF00008C6F888803869306178691F
:202D4C007061387E3076387B307338783070786886F8A480706078694146092828BF494633
:202D6C0086F88C10207A01F0ADF9284604F03EF9E07D86F88D002846FFF716FF50B9207ADF
:202D8C0001F036F908F028FB86F8D98008F020FB45464CE001A841463022082308F0E4FAC8
:202DAC0006956078CDF80080234A0990217801AB06F11C0008F0D4FA01A841462822082386
:202DCC0008F0C2FA05951D49606801AA4346079006F1380008F0B4FA307878B901A84146C2
:202DEC002422082308F0B8FA8DF81C9006F16C00414601AA08F0ACFA114800E0B868B060DF
:202E0C0003F0B6FFC6F8A000307B012808D1D6F89C000C4908F078F9D6F89C0000B18560CB
:202E2C00094A06F1C40004212B4606F0BDFE28460DB0BDE8F083C046FD4D00009B7400008F
:202E4C00CFB0000031850000E5AF00002DE9F041424C474D8046C8F38140401E02D0401E64
:202E6C002AD025E0284620300168880C20D24FF4804020603A48D0F802204B0AC1F3033768
:202E8C0003F0800322F08F02134347EA0302C0F80220D0F801300E1266F30303C0F8013046
:202EAC00026801F0E70722F0E70247EA020102E04FF00041204601602A4E06F10800006886
:202ECC00C0F3C0070FB94020A0624FF40070206407F034FF40F0300084F8C800C8F38150B1
:202EEC0038B3401E03D0401E1ED002211DE0012007F060FA07460420394604F067FD042060
:202F0C0007F058FA8742FAD1366826F07F4006F0CBF815480068036807214FF06022300E45
:202F2C0098474FF4806020600321042004F04EFD06E00420012104F049FD0C4806F0B4F820
:202F4C00284600680B4947F6180700F03F0084F8CB0F094E0F803068BDE8F08140A00C409A
:202F6C000A600840A83F0050B4010010BD3786006C13005070B00C402C2009402DE9F04700
:202F8C00474C04F11000D0F80080D8F80060ADF1280D08F021FA96F87010012903D108F02B
:202FAC0017FA002077E0012786F8707008F010FA3A4DA86930602B7F337195F8240030732B
:202FCC0095F82500707395F82600B073A86A30614FF0000986F8249004F128023262286B17
:202FEC00696BB061AB8DF1612069B38206F0EFF9E061002804BF391C404625D0DFF8A8A09F
:20300C000AF10C008CC869468CC18CC88CC10DC881E80D0004F57277049704F174030693DF
:20302C0004F1300208921F480290404605F016FC002808BF032106D0206A6946FFF7B6F976
:20304C00206228B90B21206903F078FFC84621E00A2001F037F804F138074946384608F050
:20306C008BF9A76030795746002804BF286AB06009D004F5B470B06007F130016C2204F530
:20308C00B47001F0F1FF307B052803DA37F81000B168086040460AB0BDE8F087081E002008
:2030AC00200500208DA800006CB500002DE9F04F0C464549CA7AADF12C0D84460592487BF5
:2030CC0009900D7900958A7A488B4B8A0E7B91F805A091F802800492B1F846E008904A7A01
:2030EC00088B0392CD7807900A7AC88A02920F6A0690CA79888A01928A79E146A9F54079DE
:20310C00B9F11D0F10D8DFE809F05B5553514F4D4B494643413F3C3A380F34312E2B2923D1
:20312C00201E1C0F19181716BCF1280F49DA604605F0EAF821E0099EB246D046CDF8148029
:20314C001DE00898079007980690DDF818E005E03831086820608888A08032E070460AE00D
:20316C00B1F8440009E0B1F8420004E0B1F8400001E091F83E00034612E0208021E0059894
:20318C0004900498039001E03231E2E7039802900298009006E0019A87310DE068310BE052
:2031AC001846EAE7009D0BE02C31D2E7276008E0583100E048311022204601F055FF00E028
:2031CC0025700BB0BDE8F08FA80F00202DE9F041444C94F8E700ADF1280D00286FD1394F8B
:2031EC00387B01250021242284F8E7507E6884F8E6000823C4F80C6101A808F099F80026DC
:20320C0004F10C00069601ABADF814602E490796324608F089F82D4904F1300001AB32467C
:20322C0008F082F82A4904F1540001AB324608F07BF8B868014628468847DFF89C802548C1
:20324C007B7B0078D8F80410C1F381571BB1032F03D184F8E150032F16D0022F14D0012FA8
:20326C0026D103201D4C009031464FF040521C23204604F021FD009531464FF40072092343
:20328C00204604F019FD13E0022005F06DFF032F0CBF4FF47A7142F2107111480068543413
:2032AC00B1FBF0F1204608F08FF8204608F088F8D8F80000C00802D2304605F055FF0AB0CD
:2032CC00BDE8F08130BB0000CB640000C1550000095B0000CA350020B03F005000A00C40EE
:2032EC0014BC0000EC1B00202DE9F0430746880FADF1140D75D303F069FD3F4D00261C353B
:20330C002E60394845F81C0C384807F0CFFD3848BC68B14640F60A0200F13801468790F88E
:20332C0044300A808046C0F83C9003F0F00380F8443090F845306680241D03F0F00343F02A
:20334C00010380F8453000E01C1D236813B118888242F9D12160607A00F0F000607208F1D4
:20336C00240007F012FF80680088D21F82421DD0521C82421AD007F120000388B3B197F851
:20338C002C2097F82D30C7F8249002F0F00287F82C2003F0F00242F0010287F82D20C8F821
:2033AC003C00487B7E8400F0F0004873694606F0C1FE684607F0BAFC28680028FCD02E6094
:2033CC00012006F0F7FF012808D0607A00F0F00040F001006072074807F068FDB86845F80E
:2033EC001C0C05B0BDE8F08301010E04F90E0000E8170020F972000000100440F8B507F02F
:20340C00DFF9404E3E4F0446A00823D3B96A09B33D4600200B698A69A86204EA030010438E
:20342C0040F0020006F1080288610B6910689843106001F1100090E80C0030681A1C904306
:20344C00306005F1300005F06DFC022105F1C80007F0E2FAB86AA10815D200F110020CCA0D
:20346C00002122400B40002B08BF002A0BD0016985690C40F8622C434FF48041846107F12D
:20348C00C80007F0C9FAB86A002837D107F12404204607F07AFE051C30D0F868E9688842BB
:2034AC0026D1A86804F004FB17490860E0B906F1080128690A6810430860326805F1100344
:2034CC0093E80300081C1043306000233361A86846F80C0C06F1100000680028FAD0204677
:2034EC0007F0F2F9BD62F8BD086803F09DFCF8BD07F1C8004FF4805107F08EFAF8BDC0464B
:20350C00E81700200C100440B03500202DE9F04104466768A5680E46ADF1380D07F05CFF25
:20352C0097F8DC102D1D012903D107F051FF00205EE04FF0010887F8DC8007F049FFF1685C
:20354C00204603F083F90028F1D13078387070687860307A002130220823F86001A807F060
:20356C0003FF0694287A00260990234A0096696801AB07F1100007F0F3FE01A828220823B4
:20358C00314607F0E1FE05941C49E86801AA3346079007F12C0007F0D3FE01A824220823C3
:2035AC00314607F0D9FE8DF81C8007F16000414601AA07F0CDFE387838B907F17C003146C1
:2035CC0001AA07F0C5FE0E487860C7F8BC603E72C7F8C060286800F075FD204604F024FB77
:2035EC00084A07F1C8000421234606F0DDFA20460EB0BDE8F081C046BD3B0000A971000000
:20360C00B7B0000099AD0000B0B53C4C6078410807D320F0010060700A20014604F068FC5F
:20362C006078374D810807D320F002002F786070062F01D103F006FD2078FE2807D1012082
:20364C00E07004F10801082006F066F82078A778B84249D0E178012905D00120214606F0F4
:20366C005BF8A778207829787A0803D342083CBF0022A280BA0803D382083CBF0022E28011
:20368C00022903D107F050F9A7782078B90808D3810806D22978062903D003F0D3FCA778A7
:2036AC002078790808D2410804D3012006F0CCFAA7782078790806D3410804D2002006F0C8
:2036CC00C3FAA778207810F0030F0DD067B904F11000054607F052FB28B9284607F057FD2D
:2036EC000020E080A0802078E178012903D10020E0702070B0BDA070B0BDC046EC22002011
:20370C00E80B00202DE9F047ADF1180D01F070F93A4D4FF0030908274FF6FF78002605F147
:20372C003E0A2C4606F02AFE20BB009601A80DF106016A4605F01DFEE0B9BDF8040010283C
:20374C0014D160789DF8061088420FD100980188884509D14088C00B08D3042005F12002D9
:20376C00014605F047FB01E004F0C8F9009808B106F0EAFF208A41082DD320F00100637919
:20378C002179208253EA010225D073B9207A637A8DF8070005F132018DF808300A680DF127
:2037AC0009031A608988998001E08DF80790A07A8DF80F00E37A8DF810300DF1070007F084
:2037CC007BFB38B1636AA77023B11A6812B1196838468847208A810807D320F002002082F2
:2037EC005146304602F0A2FB208AC1089AD320F00400208206F06AFE94E7C046A80F0020D5
:20380C002DE9F04706467468B56807F0E5FDD4F88810002963D007F0DBFD2968486820F051
:20382C00020048602968486A20F003004862D4F8A07068692969084379680968C1F8040534
:20384C002968486920F00100486128684FF00108C0F82080304606F0CFF9D4F88800D0F8E0
:20386C00049007F0B9FD04F1D8078246387850B119F0704F02D1042005F05EFC022005F089
:20388C005BFC00203870504607F0A2FDD4F88810087C042803D003200874D4F888102A6954
:2038AC006869D4F8A0304746104307FA00F258680068C2622868B0F1804F14BF0A480B48F8
:2038CC000F68006800258204A7EB9250401E08603046A268C4F888509047BDE8F08707F01A
:2038EC0077FDBDE8F087C04608050020380400202DE9F0430646ADF11C0D07F011FD05F047
:20390C00A3FB4FF000090546CDF8009007F06AFB30F0010002D00098A84202D16FF004000E
:20392C0059E070684C4658B1B0F1FF3F05D001A905F072FB30B107464CE04FF0FF3000E067
:20394C002046019007F0E8FC0199012701EB000800E001936868019907F0DAFC00282ED002
:20396C0003A805F0F5F8D8B99DF8100002A905F0D5F888B9B368BDF808009DF81210059A9C
:20398C00984748B19DF81270B773BDF80800B081059B33614F4612E00599684605F0F6FD25
:2039AC000198641CB0F1FF3FD4D00028D2D007F0B3FCB8EB000302D001989842C9D20099D0
:2039CC0005F1080006F03CF824B1686807F09CFC641EFAD1384607B0BDE8F083F0B5ADF1A2
:2039EC00340DFFF7F3FB304908682822082340F00200086001A8002107F0A6FC2B4E2C494D
:203A0C000524002301AA079406F1C80007F098FC00213022082301A807F0A6FC0025FF2793
:203A2C001921244AADF81C5001AB099706F14C00009507F095FC2822082301A8294607F091
:203A4C0083FC1D49079406F1FC0001AA2B4607F077FC01A829463022082307F085FC01242F
:203A6C00ADF81C40099706F168001A2101AB134A009507F075FC12492A4606F1A40013463A
:203A8C0007F052FC0F4807F011FA86F8A3507571F57135727572B5727561B4714FF6FF705B
:203AAC00A6F8A0000DB0F0BD00200940E8170020F5A900004D9F0000594600004D730000E1
:203ACC00459D0000CD4400002DE9F0471C46904689460646B4F1FF3FADF1480D09D044B1A3
:203AEC0031496B4608A8224607F00AFC08A9022001E00021032003918DF810002B4FCDF81A
:203B0C0018903868CDF81C80371807F009FC2025EFF3118A029085F31188424649463046B3
:203B2C0006F098FB031C33D1002C04BF8AF31188002036D007F030FC064602986946C0F832
:203B4C0018D0384607F014FC029807F0D5FB9DF810000024022802D1039807F0C9FB8AF3F2
:203B6C001188304607F00CFCEFF3118385F31188039810B107F0B8FB03940298846183F312
:203B8C0011889DF81000002814BF059B231C07E0039818B107F0A8FB002003908AF3118853
:203BAC00184612B0BDE8F087599800001CBC000098B535494468096880684968006888473C
:203BCC00324A0121916140B1237AFF2B05D0FF214009217253D2042149E0207A00284ED06D
:203BEC00401E17D0401E02D0FD3848D044E05368D4F8B4000370D4F8B400401CC4F8B400D9
:203C0C00D4F8B8707F1EC4F8B8701CD0012F88BF09212CE0D4F8B0707F1EC4F8B07014D140
:203C2C00D4F8B8707FB10220D4F8A8102072097C012F4FEA410141F0010142F8041C94BF0C
:203C4C0003210B2114E004210FE0D4F8AC0000785060D4F8AC00022F00F10100C4F8AC005D
:203C6C0005D2D4F8B87017B90521002020720220116007F046FA98BDFF20207298BD04F1AB
:203C8C002C0007F02DFB98BDAC01001004280040BFB5364C0746401E39D0334D401E1FD0D8
:203CAC00801E012830D9801E02D0801E23D058E0284607F063F810B9284607F068FAE06857
:203CCC000A210022054604F0F9FF002228460F2104F0F4FF00221521284604F0EFFF40E0E5
:203CEC00284607F04BF810B9284607F050FA002006F01AFE35E007F05DF904F10C0000689F
:203D0C000A2101220546E7E707F054F929E00F20052104F0EDF84FF441706946FFF7C6F95D
:203D2C009DF800009DF804308DF808009DF805108DF80E309DF801508DF80F109DF80300FD
:203D4C008DF809509DF802308DF80D0002AA8DF80A3000208DF80C0008218DF80B0001F05A
:203D6C0071FC27700090BFBD540C0020E80B00202DE9F84302F0030001F0030444EA001414
:203D8C0003F0030044EA00242D484FEA122808F0FF0E4E08A0F1400004604FEA112404F0F5
:203DAC00FF05A146856009F0FF074FEA1325C0F80CE005F0FF0CC0F810C04FF00000044602
:203DCC000AD289080ED319F0FF0F0BD0790828BF641C7F08FAD105E027B1790828BF401CDC
:203DEC007F08FAD1510877460AD291080ED318F0FF0F0BD0790828BF641C7F08FAD105E0E9
:203E0C0027B1790828BF401C7F08FAD1590867460AD299080ED315F0FF0F0BD0790828BFE6
:203E2C00641C7F08FAD105E027B1790828BF401C7F08FAD10349096808714C71BDE8F883BE
:203E4C0048100240BC35002038B50446084602F037FB0146182004F0FDFE06F0C7FA80B2AB
:203E6C0000902C4840F2FF3200232C2103F024FF06F06CFF01461C2004F0ECFE06F0A8FAEF
:203E8C000146142004F0E6FE06F0BEFC0146102004F0E0FE204602F0CFF901460C2004F043
:203EAC00D9FE204606F098FC1B4D400040F020002870204606F09CFC40F01000287020466D
:203ECC0006F048F90146282004F0C4FE204606F0A7FC400040F06000E870204606F0ACFC2F
:203EEC00C00040F0800005F8080C204606F0B0FC800040F47C40A5F89300204605F0CAFB6D
:203F0C000146082004F0A6FE4FF48000A5F20911086038BD00A00C4049A10C40F8B50446A4
:203F2C002568676807F058FA1C356A69121D117831B107F04DFA6969032008710020F8BD91
:203F4C000126167007F044FA05F0F2FD204601F0D9F823480660234C266038680022314668
:203F6C0005F082FB204C2068E16828B921B1A06807F022FA2060E16863682BB921B1A06866
:203F8C0007F01AFA60602068002814BF816800214FF6FF7000902B883868002206F0FCF919
:203FAC00386805F04BFBE068104D68B1616838688A68314606F0D0FDE06828B105F13C0074
:203FCC00016841F0210101603F20A8642E601C2006F0B4FA1C2007F07FF93046F8BDC04603
:203FEC00001A04432820086040220020341002402DE9F843044607F0EFF981462D480219CB
:20400C0092F8ED10491ECFB2002F82F8ED704BD12B4D05EB84052E78698836F07F07884601
:20402C001AD1F10911D24FF08054D4F8B801806901464046884704F5DC742068406B0146CC
:20404C00404688470228F8D121E000EB8800D0F80011002088471AE04FF08054D4F8B8013E
:20406C00006A014640468847D4F8B801806A014640468847D4F8B801006B01464046884797
:20408C0001210D4A0D48116001688908FCD306F03F003F2801D0FFF7ABFF687800F03F00F0
:2040AC003F2801D0FFF7A4FF484607F091F9BDE8F883C046EC1B0020282008602820084087
:2040CC0030B700002DE9F041064607F085F92D4D8046A91991F8ED00421C002881F8ED2061
:2040EC004AD1294C04EB8604277807F03F003F2801D0FFF7E7FF607800F03F003F2801D083
:20410C00FFF7E0FF668837F07F001AD1F80911D24FF08054D4F8B80140690146304688478E
:20412C0004F5DC742068406B0146304688470128F8D121E005EB8605D5F80011012088472F
:20414C001AE04FF08054D4F8B801C069014630468847D4F8B801406A014630468847D4F885
:20416C00B801C06A0146304688470121074A0848116001688908FCD3404607F029F9BDE883
:20418C00F081C046EC1B002030B70000282008602820084070B504684068A17DADF1180D34
:2041AC00C51DC90838BF002204D3C079012240F4C0400090207EC10805D3A97841F4C0419A
:2041CC004DF82210521C01090DEB820204D3697841F4C04142F8041B00F00300012805D030
:2041EC00022808D1E87840F4C04002E0E87840F0004042F8040BFE201060694604F1880067
:20420C0001F018F8C4F89400002808BF002025D0A17DC90803D32978292205F051FA04F157
:20422C0018063078C10806D3D4F89400A978272205F046FA3078010906D3D4F8940069783F
:20424C00282205F03DFA307810F0030F05D0D4F89400E978252205F033FA012006B070BD1F
:20426C002DE9F84F0D46064628687468D6F80880002855D007F0B0F8D4F8881021B107F05B
:20428C00A7F8032028744BE001272F74C4F8885007F09EF894F8A40038B194F88D202249E0
:2042AC00D4F89C00114304F02FFFD5F804A007F093F804F1D80999F80030834653B91AF0AB
:2042CC00704F02D1042004F04FFF022004F04CFF89F80070584607F07BF8D8F800104868F0
:2042EC0040F0020048603046294600F085F8D8F80010486940F001004861207830B96168D1
:20430C0004F16C05284607F003F810B13846BDE8F88F3046FFF774FA2846002106F0F8FF0A
:20432C000020BDE8F88FC04600000680294A2DE9F04180460126284816600768002FFCD0A2
:20434C00294C2A4FC020443C206007F1080001682348890804D20168090C41F0F00100E0C8
:20436C0072211E4D85F85412002111638768384601F07CFC40463946FFF766FD1C48B0383B
:20438C00816D40F20F226FF31F418A4212D901680068C1F30363C0F3034003B15B1E07280A
:2043AC0005D006280EBF0720801C00F00F0043EA001028703846FEF749FD0E4814380068C7
:2043CC00C1680220884740202060064F3E60BDE8F081C046101009409402224302600840BA
:2043EC00AC3F00509404604244600C40A83F00506C130050B4010010F8B58C464568846869
:20440C00DCF8007095F88C10B8B288401FFA80FE2068B0F1804F14BF244B254BDCF80820B4
:20442C00244832B995F88C108E00815905F1A60207E095F88C108E00811951F8081C72448F
:20444C00521E99605A6021683A0143F6F077103A0831174019609A683A439A602368B3F1CE
:20446C00804F14BF144A154ADCF804C0BCF1000F04BF805904F10E0605D0801950F8100C06
:20448C000EEB0C06761E9060166051609068074397602169D5F8A06060690843716809686C
:2044AC008862586A40F003005862F8BD000500203004002064B80000100500204004002074
:2044CC00042998B54DD1274C04F1240006F05DFE40B994F8A300400838BFE06804D3D4F809
:2044EC00880000E0C068E06041681F4A09781160416812680978914206D0876927B120A205
:20450C000CCA6FF0FF01B847022004F02DFE1120FFF7D8FD0120E071E068011D007C10B109
:20452C006079012804D00E20FFF7CCFDE168091D08680E49083007680FB947681FB1002068
:20454C00C8610B4F0F600B4A40F2FF7000271060094C8F6109484C6106F0A8FC192006F0C4
:20456C00BBFE98BDE8170020D021084000100440510007060000046002000040F53200004A
:20458C0000000000000000022DE9F8430646B0680D4600F1080874686868002710B9E86818
:2045AC00002850D02078012814D106F015FFD4F8BC1049B1D4F8C0108D61C4F8C05006F019
:2045CC0007FF0120BDE8F883C4F8BC50C4F8C05006F0FEFE022004F0C7FD04F160004FF094
:2045EC00FF31814606F094FED8F8000006F070FE3046294600F096FF0546D8F8000006F081
:20460C006BFE207888B9B5F1FF3F08D004F17C004FF0FF3106F07CFE207A48B110E003209A
:20462C002072022004F088FD0AE0B5F1FF3F01D0012705E00320207204F12C0006F050FE7B
:20464C00484606F061FE3846BDE8F883F8B506F0C3FE2A4C0746103CD4F89C0010F4602F5F
:20466C002BD0D4F89C00400CC5B2680807D2A80803D2E80828BF022502E0012500E000252F
:20468C006E1D70B202F086FED4F89C3005F111010120884023EA00013846C4F89C1006F078
:2046AC0097FE04EB8500D0F88C704FB1D4F8880013A20CCA3146B84702E0384606F088FEF0
:2046CC00D4F89C0020B104F1FC00002106F0A4F994F8A30080080FD3D4F8987037B1D4F8CF
:2046EC00880009A20CCA6FF00101B84794F8A30000F0FD0084F8A300F8BDC046F817002020
:20470C00000000000000000800000000000000802DE9F0412D4C0546A41C20781F46904667
:20472C000E46ADF1380D012803D0FFF757F9012020705EB1B8F1000F6E6007D0C5F8088092
:20474C0006F04AFE617819B106F042FE002038E0491CC9B2617006F03BFE01241FB9684673
:20476C0006F02CFA6F46386828607868E860387A2874F8686861386900B1A861002178227F
:20478C0005F1200001F0FCF905A800212422082306F0E2FD8DF82C4005F13800002105AA0E
:2047AC0006F0D6FD05A800212422082306F0C0FD05490B9505F17000002205AB06F0B4FD65
:2047CC0028460EB0BDE8F0811BB10000E8170020F8B506F0B9FB06F0C3FB044604F00C004B
:2047EC000C2845D0E0081ED205F004F8234E376805460120014605F05BFD3168694388427C
:20480C0011D21F4C8220B0FBF7F0291A204606F0DBFD204606F0D4FD0120FDF7F1F8204602
:20482C0005F008FD25E0200922D21648610939BF016821F00101016841F0010102460160CF
:20484C00D2F898004FF0805440F00300C2F89800D4F8B8018069014620208847D4F8B80109
:20486C00094C806B2168804701202060206800E030BF06F06FFB01F057FEF8BD14BC000079
:20488C00F81B00208C2108402C200940F8B50D46EEB2290824BF26494D40264BB400195908
:2048AC0085EA01020240C2F3006C234A00EA05078143FF323A4000F4E0270A43B7F5E02F42
:2048CC0001D1510E15D300F4E0215CEA010710D002F4E027B7F5A02707D0B7F5803704BF23
:2048EC0022F4003242F4A02203E022F4803242F4C0221A51114CC10D04D3A4F18001C5F36E
:20490C0080528A55000E11D306F066FD290E03D201210022B14002E00121B1400A46503485
:20492C0023688B431A43226006F052FDF8BDC046006000A000100840007F077F80200240F4
:20494C002DE9F0410E46294990461C4606AF8C4672680878BB8851783F881278002502EBB6
:20496C00012242F62321521A29D0521E052A18D9921F0CD0263A34D1072F30D8C7F10700A8
:20498C00984298BF83B2674407F1080121E0B84225DBC01B9842D8BF83B22380DCF8040002
:2049AC000BE0F06806F03CF980B2B84217DBC01B9842D8BF83B22380F06839180AE0082F71
:2049CC000DD8C7F10800984298BF83B207EB0C010F31238040461A4600F046FB03E00725B8
:2049EC0001E025800A252846BDE8F081181A00202DE9FC4705F060F8284C0025A5704FF687
:204A0C00FF70A08203F07EFF234F2A462070012039461346009004F1A80003F023F84FF0A4
:204A2C0002082A4604F1CC003946CDF80080134603F018F804262A4604F1F000394600967B
:204A4C00134603F00FF804F14809102248462946E67001F095F804F1580A10225046294620
:204A6C0001F08EF804F120073D602572072065721021A0724A46E572404604F0A1F9032004
:204A8C001021524604F09CF930463A46014604F097F9BDE8FC87C046ADA90000A80F00209C
:204AAC00F8B5264E244F264996F90040B7F9005031F91410401B03B2002B4FEAE10258BF5C
:204ACC00002002D55B4208201BB2994205DC5B1A8A1840F004001BB212B24910994205DC94
:204AEC005B1A8A1840F002001BB212B24910994203DC891840F001000AB2010907D247F60F
:204B0C00FF718B1AAB42A4BF2A4411B206E0A2F50041A942DABFAD1A29B20A490A4A3980AF
:204B2C001156641864B2002C03D4582CC8BF582400E000243470F8BDC6350020C935002050
:204B4C00B8B400000080FFFF8EBA00002DE9F843274F80467D68D8F80060D8F80490386871
:204B6C000540A809FD602AD3224CE068216806F0ABFB326B606800232060101D017863608D
:204B8C0007291AD008291AD0A06806F011FC60B9A06806F095FB6060D9F800108268084649
:204BAC00012105F0D9FF052000E00620316B0871B268316B4046904701E0082101706808BC
:204BCC0013D3386820F001003860316B0879082807D000BF04200871B26840469047BDE8FE
:204BEC00F88306F16C0006F08FFBBDE8F883C0467010024040220020FEB5FDF7F9FA284CD3
:204C0C00002504F16C0605F0ABFB002833D101950DF10200694601AA04F094FBD0B9BDF884
:204C2C000200102807D160789DF80010884202D1019806F0B9F9019860B105F06DFD09E009
:204C4C00206905F0BDFC071C04D005F023FC384605F032FD206906F0ABFB0028F0D0FEF762
:204C6C00D3FC2078062806D104F0AEFD0A2701F085FB7F1EFBD1A088C108C4D320F0040076
:204C8C002778A080022FBED1304606F080FA20780228B8D10F20012103F02AF9B3E7C04651
:204CAC00E80B002070B5274C274D012806D028BB21460020491C05F031FF1FE0214601204F
:204CCC0005F02CFF0878022811D0491C002003F0A7FF28680A210022064603F0EFFF0022D3
:204CEC0030460F2103F0EAFF04F0C2FF06E006F067F94870491C002003F092FF214608788D
:204D0C0001281DD1286861780546490834BF002201220A2103F0D2FF6078800834BF0022CF
:204D2C00012228460F2103F0C9FF6078C00802D204F09EFF70BD284603F030FC03F04CFCF1
:204D4C0070BDC04674240020F40B0020264838B550380468B4F1FF3F08BF002405F006FF26
:204D6C0022481749002510380560012008601549086002F057FC1448006820B1134800689F
:204D8C002046FFF7D3FA124812490560124C0A686FF35B4244EA0200086010490868C0F3E1
:204DAC000130012806D10A680D48104040F400320A6008600B4908680028FCD138BDC046B3
:204DCC005C600C400822044380012843000120438C210840482003400000390104000940D7
:204DEC00FFFFFCFC0C0068426C13005094046042B0B501468B681C68E269486822625208F6
:204E0C0024D2D0F8A01049680A685D69D2F80415294206D01C68616A21F002016162C2F82B
:204E2C000455D2F8042519690A4230D01A68516A21F001015162D0F8A0205268196912680B
:204E4C003830C2F8041506F04BFAB0BD1C68626922F001026261D0F88870AFB9626822F038
:204E6C00020262601C68626A22F003026262D0F8A0005A6940681C6900682243C0F804252F
:204E8C00084604F0B9FEB0BD0846FEF7B9FCB0BDF0B520480127F84201D002F055FE204D49
:204EAC00204F214EBD4206D203CD0478A4003459401CA047F6E71D48002800D08047164D0D
:204ECC00164FBD4202D210CDA047FAE7F0BD03251BE0416808300A1C2A400BD11A1C2A402C
:204EEC00AB4305D0046804300C600431043BF9D1131C05D0047801300C700131013BF9D134
:204F0C00021C2A4001D0A84304300368002BE0D17047C046FFFFFFFF00000000000000000D
:204F2C0064C40000E4C400005CC4000059C50110B0B5244C2278E1889308084603D3491C4A
:204F4C00401CE18080B2A18852080F4603D3491C7F1CA180BFB2062F11DB06280FDB04F1E8
:204F6C001000054605F00AFF58B3284606F011F90020A080E080607840F001001CE0032883
:204F8C000BDA38431DD104F11000044605F0F6FEB8B1204606F0FDF8B0BD97B904F1100003
:204FAC00054605F0EBFE60B1284606F0F2F80020E080607840F0020060700348006806F05A
:204FCC00A3F9B0BDEC220020F00B002010B50020442101F055F8002808BF002440D0214C5B
:204FEC001F200222214605F02FFF002835D021880806000C40EA2120782815D11020208007
:20500C0021460220024604F09DFB30B302202146024605F019FF00B321880806000C40EAC6
:20502C002120B0F5805F01D0208016E00020208021460220024604F085FB70B10220214689
:20504C00024605F001FF40B121880806000C50EA2120208008BF012400D0002405F092FFD2
:20506C00204610BDA4350020002A4AD05FEA000C8B071CD1830722D1102A08D370B4103AE0
:20508C0078C978C0103AFBD270BC103238D0042A2CD3082A05D30C2A24BF08C908C008C944
:2050AC0008C008C908C092072AD0920F22E00B780370491C401C521E22D08B07F7D1C30710
:2050CC0014D18307D8D0121F12D308C903801B0C4380001D121FF8D20AE008C903701B0AEE
:2050EC0043701B0A83701B0AC370001D121FF4D2121D05D00B780370491C401C521EF9D178
:20510C006046704770B5244C056846680020703C6060D5F81A10EA7E306804F0EBFF1A4BB0
:20512C003068298BEA8AFEF723FE688AC0F30111020928BF41F0040101F007012160A98A01
:20514C002B8A821189110E4600F0010100F0060040EAC100E968002906DD082904DC0B4A77
:20516C0012681269904702E0314603F085FFA88A0749084DC0F34010086001262E60206F01
:20518C0020F03F00206770BDFC00FFFFB8010010C820084028200860701002402DE9F04154
:2051AC000668446806F018F9804696F8240040BB737BF06E2178002203B1012203F07EFD03
:2051CC001A4900251020401E41F8045BFBD1184C0BE0A06806F0F0F80746F269B18AB86811
:2051EC009047F269142138469047A06806F0E0F80028EED0A570E570206AA580FEF78EFE91
:20520C0020B9404606F0E4F8BDE8F081022003F0ABFF012086F82400404606F0D9F8E06824
:20522C00022100F065FFBDE8F081C046B8050020200500202DE9F843224D884606464FF094
:20524C00FF3105F12400814606F062F800200CE0FF2909D02A688A4204D905EB8101D1F85E
:20526C0094700FB1002627E0401CB8F1000F03D018F82010FE29EBD1002434607460012773
:20528C00B46011E0FF280ED005EB80000B787268C0F8946007FA03F0104370600A680A49A3
:2052AC00304604F023FA641CB8F1000F04D008EB84010878FE28E5D1484606F025F8304664
:2052CC00BDE8F88358300020007FC7672DE9F8432020EFF3118780F31188214CA06801219F
:2052EC0005F0EAFF4FF001094FF0000865692168A4F81C906A1A2168A4F81E80461B401A93
:20530C00904227D387F3118840464519361A4846294605F0CDFFB042F7D92021EFF3118733
:20532C0081F31188E18B012903D14046294605F0BFFFB0F1FF3F06D0A169801B814238BF2E
:20534C00081C411901E0A069291805F0ADFFA4F820902560A4F81C8087F31188BDE8F883BB
:20536C00780100201CB50020772100F089FE002808BF00243FD0D0206946012205F064FD4E
:20538C00002835D09DF80000582831D1F5206946012205F059FD00282AD09DF8000038BBE1
:2053AC0055208DF8000069460122F42004F0CAF9F0B1F4206946012205F046FDC0B19DF885
:2053CC000000552814D1B6208DF8000069460122E02004F0B7F958B1F4206946012205F0AA
:2053EC0033FD28B19DF80000002808BF012400D0002405F0C7FD20461CBD70472DE9FE4FE9
:20540C008046B8F1000F01920C9802919B46009005D0081C03D0101C01D0009810B902207B
:20542C00BDE8FE8F1948017800252C4629E0A00038F800A04FF6FF7708EB000657451CD008
:20544C00B778D7B10198029A594605F01AFC5FEA000912D0780806D3009B504601214A463A
:20546C0000F0C2FF0543B078800806D33088009B02214A4600F0B8FF054304480178641C64
:20548C00E4B2A142D3DC2846BDE8FE8FA80F0020F8B50F4601464C688E683846203804F1A3
:2054AC000C0432D0401E2CD0401E27D120781578012814BF19491A49FF2D41EA05011BD0F0
:2054CC00D4F8900001F0FEF898B93068B0F1804F14BF23220B22D4F89000294604F0F0F838
:2054EC00D4F8900094F8811001F0E6FB84F8815012E04FF0FF30F8BDFF25F1E76FF0010097
:20550C00F8BD002084F89800F8BD21780020012908BF012084F898000020F8BD0004C0A0C9
:20552C000020008080B5406800F10802C0F8A8100868C2F8A4004868C2F8A8008868C2F8ED
:20554C00AC00C8681A49C2F8B000D2F8A87097B9D2F8A000007C400040F0010041F8040CC4
:20556C00022010700B68DB0917D2D2F8B020022A17D30B2216E0D2F8A000007C012740001C
:20558C0041F8040CD2F8A4001770431CC2F8A430007848600868C00902D34FF0FF3080BDFB
:2055AC00022003220A6005F0ACFD002080BDC046042800402DE9984305F00EFF1F4CDFF88C
:2055CC007880814604F1E000007850B94446A0680146022088470746102002F0FDFB2FB397
:2055EC0020E001F0DFFA002820460FD1144909683222B2FBF1F101B9012100F1300420464F
:20560C0005F0E2FE204605F0DBFE0FE044460022A16880F8E020022088470746102002F0F9
:20562C00DBFB1FB1A068014603208847484605F0CFFEBDE89883C04630BB0000EC1B00204F
:20564C0014BC0000F8B50D461F4C20490728164638D8DFE800F0192C2A28262421042846D4
:20566C0004F018FD071C2DD0616804F11700884202D0606805F038F8384631462A46FFF73C
:20568C00F3FC67602570F8BD082D1BD130680F34206077686760F8BD0C46153408E00C4652
:2056AC0006E0643404E04F3402E03A3400E0253420460021152200F063FA204631462A4618
:2056CC00FFF7D2FCF8BDC046181A0020911A0020F8B5204C820002EBC00024186668256843
:2056EC000F1C08BF1C4F387830B97888312818BF322815D1207A98B905F06EFE01463878F5
:20570C0038B96B78AA781A434FF0000318BF012302E0227AAA18537823B1084605F058FE75
:20572C000020F8BD18B901206870A87003E0207A012228184270084605F04AFE3878287041
:20574C00B079FEF7BFFC2046394603F0CDF92046F8BDC04670B6000074B900002DE9F0410B
:20576C0007467868051DD0F8BC00A8B305F034FE1A4E00248046F46004203060022005F057
:20578C00C0FC2B68D5F8A410384622469847022003F0D2FC09E081692B6822463846C5F87C
:2057AC00B8109847022003F0C7FCD5F8B800D5F8BC108142EFD12046C5F8A4002C71C5F89C
:2057CC00B800C5F8BC00064B346038461C6002F02BFA404605F0FCFDBDE8F08104280040A0
:2057EC001004054270B51E4DAC68064604F0C4FF4FF47A71001B4843030C04F085F92969B4
:20580C00401A48BF404240F6B8319B19994210D306280EDAE9688C420BD8286848B1114A0C
:20582C00091B51438A0C02EB1141884288BF011C08E00D49486840080ED208687D2100F08D
:20584C00FF004143C82905D3B1F57A6F88BF4FF47A6103E0C82101E04FF4FA61084670BD36
:20586C009035002040420F00AC3F0050F8B5001D84B214F0030002D0241A241DA4B204F0C9
:20588C0078FE01461948102C47680160C8BF8768388800221646C30BDD0319D126B98442A1
:2058AC000ADD3A46012617E01388C3189BB29C42138011DC174618469FB1001B80B20428B2
:2058CC00B4BF3C88385344F400443C803F1D08E080F40040002680B2C71938880028DAD1FF
:2058EC000027084605F0C6F83846F8BD0C1D0020B0B50446A768ADF1280D27BB0C20FFF763
:20590C00B5FF071C16D0684600212422082305F00FFD002306976A466168ADF81030144803
:20592C00059305F0BDFC386038B905F098F8384603F0D4FD6FF0030018E0E06878602069C2
:20594C00B860A7600AE004F014FE0546386804F071FC2069B860284605F08CF838686168EF
:20596C0005F032FD386805F02BFD00200AB0B0BD19AF000070B5066805F02EFD316B091DB6
:20598C000A780546072A18BF32F0080004D1284605F01EFD002070BD164C042A0FD00720C6
:2059AC000870206840F001002060284605F010FD06F16C0049F6404105F0AAFCA8B1284635
:2059CC0005F006FD002544F86C5C20683F2320F03F0020601C20E36004F0B0FD1C2005F090
:2059EC0077FC04F0A5F8012001E009250020316B0D7170BD70100240B0B514460F4605F035
:205A0C00EBFC85B219480068007808B904F07AFD87B1384603F070FF40B114B14FF0FF30B3
:205A2C0020700820FEF7E4FA002419E038687968BA6803E04FF480700122014603F04CFB55
:205A4C000B49012008600B4908684008FCD30A4800684168022088470CB100212170044675
:205A6C00284605F0B5FC2046B0BDC04640BB0000A802504208800240CC010010F8B50E464E
:205A8C00044605F085FC0546304603F087FE071C03D1284605F078FC26E0F87F10F0070FA0
:205AAC001BD113487968884202D079682166786010A090E8060004F15807284687E8060071
:205ACC0005F062FC04F138004FF0FF3105F020FC04F1680696E80300F8BD284605F054FC6E
:205AEC00F87F10F0070FFBD102200021F8BDC0462177000002000000000000701CB5042044
:205B0C0004F058FC022818D0032816D016480068C0F38150032814BF41F288324FF47A72AA
:205B2C001248144C016854342046B2FBF1F105F04BFC204605F044FC1CBD03200C4C0090FE
:205B4C0000214FF040521C23204602F0B5F8012000214FF4007209230090204602F0ACF854
:205B6C00022003F0E9FA1CBDB43F005014BC000000A00C40EC1B0020002213460A461946F8
:205B8C0071B510F0030F0BD0002A82BF00F8011BB2F1010210F0030FF6D1002A08BF71BDC9
:205BAC0011F0FF0141EA0121042A18D341EA0141082A0FD30E46102A08D30C460D46B2F140
:205BCC000F0312F00F0272C0103BFCD812F0080F18BF42C012F0040F18BF40F8041B12F00C
:205BEC00020F18BF20F8021B12F0010F18BF017071BDFEE72DE9F84FDFF868A00A9E0C46D9
:205C0C001D46B6F90010DFF86090AAF8001095F90030804604EB4200002A89F800301ADD56
:205C2C00001BC01C8710009734F9020BFEF738FF834634F9020BFEF733FF4BEA001B7F1EB6
:205C4C005FFA8BF008F8010BEED1BAF9001099F90030009800E000203180C0B22B70BDE819
:205C6C00F88FC046C6350020C93500200246184808B50068C0F3046005F0D1F800EB227033
:205C8C00401C162805DA10F10A0FB8BF6FF0090000E015200F49104B00F01F0040F4F85033
:205CAC0008801868800803D20C490020086001E042F040620A49D00E930E80F0010000F0AE
:205CCC000100086083F0010000F00100886008BDB81200506E6208400000094094042A43BD
:205CEC000000204310B51C4C00202070FFF76EF918B1207840F00100207000F07DFC18B1A7
:205D0C00207840F002002070FFF72CFB18B1207840F00800207001F025FD18B1207840F033
:205D2C000400207000F0F6FF18B1207840F01000207002F089FA18B1207840F020002070F7
:205D4C0004F096FF002808BF207803D0207840F04000207010BDC046C835002038B5054694
:205D6C0001201A4C68712879B0B904F002FC2178002904BF6FF00704051C15D0491EC9B2E4
:205D8C00217039B904F076FE606803F0ADFA0020687118E0054613E004F0EBFB05462078BE
:205DAC00FF2805D16FF00604284604F063FE0BE0401CC0B20128207002D1606803F0ABFA09
:205DCC00284604F057FE0024204638BD6424002070B50646B079F5680B28A5F108052CDA06
:205DEC0030790B2829DA04F0C4FB154CB27991000C3401EBC20161184968E1B104F03AFE11
:205E0C0030792870B0796870307AA870B179880000EBC1002018F1684068083003F0B6FBFF
:205E2C00B179880000EBC10024186068406805F06BFA002070BD04F01DFE6FF0020070BD08
:205E4C00781D002038B519491A4C00204822C1F8F30F94F8E200C1F8FF2F20B3012817D04F
:205E6C00022807D003281ED151F8310C00F024F80B2016E051F8315C2846FCF7D1F840F216
:205E8C00FF50A84202D8801CA842F1D2082008E051F8310C00F0FAFD054800780028E7D079
:205EAC00052084F8E400FCF705FD38BD39400C403EBB0000EC1B002038B51A4CA0F5C0607A
:205ECC00D4F8B810C4F8D4000029B8BF49420028B8BF4042814220DAB4F8BC00124D302171
:205EEC004FF47F4208230090284601F0E5FEB4F8C00004214FF4F80212230090284601F0A3
:205F0C00DBFEB4F8D00020214FF440620A230090284601F0D1FE012000E0002084F8D8009A
:205F2C0038BDC046EC1B002000A00C402DE9FF410E460546194C7188E08A81420CDCB188A6
:205F4C00814209DBF088218B884205D13089618B884208BF18271DD0052002F0D5F9778884
:205F6C00B388ADF80270F288ADF804303189ADF806208046ADF80810A08AADF800006846EB
:205F8C0004F0A6FF071C05D1A57304F1F000414602F09CFC38460090BDE8FF81A80F00204B
:205FAC001A4898B5D0F8781203680F0F03F0FF03802B28BF002301F05BFE4FF0FF3478B1BC
:205FCC00401E07D0401E012802D9801E19D01AE0BFB118E0381C12D0801E14D1143311E044
:205FEC003846401E0BD0801E07D0001F03D0401E09D1163306E0152405E0142403E00A24A9
:20600C0001E00A335CB2204698BDC046A010005070B505684468D5F8940004F03AF9164863
:20602C000026066005F1340005F0BAF9A41D2078FDF7DEFF05F16C0005F02EF9287818B9DD
:20604C0005F1500005F028F903F072FD0B4C283CE06838B104F11C0005F0A6F904F11000E0
:20606C0005F0A2F92660666005F0B6F985F8986005F0AEF970BDC046041002406822002050
:20608C0070B50D461549194C134A09680646241F04F11400B2FBF1F105F03AF9002808BFAD
:2060AC00002017D00E4805700E4D20682978B1420CD02E7004F0BFFF04F0CEFA28780128DA
:2060CC0004BF0948206103F0E1FE2060002100B10121084670BDC04620A1070014BC0000C0
:2060EC00C5350020C435002034BC000024350020034670B52020EFF3118580F31188186846
:20610C0001431648006819601C18181805F050F908BB05F041F90646204605F0B9F80446BA
:20612C00A169E269184604F095F86061606960B1204605F0A9F801202074E06808B104F0DE
:20614C0079F8A068294605F09BF885F31188304605F016F970BD85F3118870BD1CBC0000F5
:20616C00B0B5ADF1400D05F017F9044600213C220823684605F080F811484168069181682D
:20618C0000680490104818380068002205900D480891694605F06CF8071C0DD004F0E9F964
:2061AC000546384601F0C6FB30B1284604F062FC204605F0E5F801E001F018F910B0B0BD6F
:2061CC00ECB3000029AD0000181D0020F8B5174A174B184C121D22F003019C4621605E1AF5
:2061EC002068256860606768A660002001E025F8020BAB42FBD84FF6FC75B3102A4001EB2F
:20620C00830323F8040CACEB0202E82315403B80EC3DA1F8E850E83144F8081CFFF726FB81
:20622C0044F8040C606844F8080CF8BDCB35002028400020181D002038B504461848174D41
:20624C00001F02686B68C2F30351C2F303405B0813D22B681D0511EB257103D41029A8BFCF
:20626C000F2100E000211B0410EB237303D4102BA8BF0F2300E00023184640EA011002F4F4
:20628C007F4102F0FF03222C41EA004143EA010024BF02F08042104338BDC046AC3F005036
:2062AC007C130050FEB50C46064631680878002501F1300760B901F15000496805F028F81A
:2062CC0030B93046FFF756FB3868007920721BE06560684604F0B4F90C4E0C36306898B1D5
:2062EC0005F066F880B9306804F0EAFF816821603968097960606E46217296E80300012556
:20630C0004F10C0686E803002846FEBD4022002030B5401E4FF00004ADF12C0D0AD0401EB9
:20632C0004D0401E20D1FCF7C5FA1DE000F032FE044619E001A821462422082304F0F8FFB0
:20634C0006940D4DADF8144009490794012201AB05F1780004F0E8FF064A23462C2105F143
:20636C009C00009304F0FCFF20460BB030BDC04679690000515E0000EC1B0020F8B5002555
:20638C00ADF8005005F028F8144F3988ADF800103D8005F01DF8124E01203070BDF8000071
:2063AC00800913D30F4C2078062804D1307868B100F01CFA0AE005F00FF8398841F00801C4
:2063CC00398005F005F8A06804F09EFFBDF80000400902D301F0F2FF3570F8BD0A1E002016
:2063EC00F9240020E80B0020F0B50E4615461C460746ADF11C0D4FF6FF7103AA03F086FF9D
:20640C000246059212B300200090BDF80C000DF1120329460190FF2002903846A047041C12
:20642C000FD16889ADF81000700804D3384604A904F092F803E0384604A904F0BFFC041CF5
:20644C0005D004A81B2103F06FFF00E01524204607B0F0BD2DE9F041054615F8017B90463E
:20646C000E461CE0B8F1000F05F101050BD0FF2C09D8022015F8011B401E41EA0424F9D15F
:20648C0001E0042C02D315F8011B00E0394630462246FFF775FBA61901E006F8010B15F887
:2064AC00010B8742F9D115F8014B002CE9D115F8010B2C7800022418D4D1BDE8F081704785
:2064CC000146184880B5983000688A0CC0F38367C0F38F2022D241F3072100290BD54A422A
:2064EC000021400805D17F0806BF0127381C4FF6FF70521EF5D1002910DD4FF6FF72400093
:20650C0040F00100824207D2780040F001070F2F92BF01200F27101C491EF0D140EA074046
:20652C0080BDC046B8120050164880B507683FB315498B6803EA5300C00E21D2134A1068D7
:20654C0080081DD2486880081AD21068096810F0050F4FEA114101F0F00101F5E0710AD108
:20656C00B9420DD2190F38BF40F00100D90E38BF40F0040003E0B94202D920F00500106095
:20658C0080BDC04628500940AC3F00500000094070B50646880F26D301F06AFF124804F0BE
:2065AC0085FC134DA81C0078012803D006F1380004F0AAFE0D4800240460022002F0BCFD41
:2065CC001120FDF715FD307C10B90E20FDF710FD2846084A04721178447221B11470C83011
:2065EC00042104F019FA70BDCD44000000000460E8170020AC3500201CB500204321FFF756
:20660C003FFDFE200222694604F01EFC10B3BDF80000BDF8001045F249440006000C40EAF6
:20662C0021208442ADF8000014D1FF206946022204F00AFC70B1BDF80000BDF80010000630
:20664C00000C40EA2120B0F5805FADF8000008BF012400D0002404F095FC20461CBDFEE705
:20666C0070B544688668D4F8A40003F012FE13480025C56005601248361D05603068FDF734
:20668C00B7FC04F1100004F08BFE04F12C0004F0EBFD04F1600004F0FFFD207818B904F119
:2066AC007C0004F0F9FD04F1C80003F063FD04F093FE84F8DC5004F08BFE70BD0428004015
:2066CC00100405422DE9F041071C0E4604D0144C2068F5B2A84202D80220BDE8F08104F141
:2066EC0024004FF0FF31804604F012FE04EB85049434206860B979680120A8402760324667
:20670C00084308497860384602F0F0FF002400E00124404604F0F8FD2046BDE8F081C04680
:20672C0058300020007FC7672DE9F8438146EFF31188202080F311880125114E114CF561E1
:20674C00114F6560F86A016A14208847D9F81000810C14BF000C0420A06138680268232178
