:20000000F83F00205D6B000001CA011001CA011001CA011001CA011001CA011001CA011099
:1C00200001CA011001CA011001CA011001CA011001CA011001CA01103FCA011082
:20003C002DE9FE4F0CAF3D8881460E4608469846144601A908F0CCF9012808BF01204CD08C
:20005C00BDF80400DFF898A042F6021100274FF0FF0B401A2DD048F27F11401A31D0401E27
:20007C0012D0401E23D105BBB8F1010F1BD1207840B1F1680870F16855468D4221D14FF07D
:20009C00020B21E080271CE07DB9B8F1020F0AD1F06821880180F1685546681C884210D123
:2000BC004FF0010B10E00D270BE00B2709E00A2707E00095484643463146224606F074FBA7
:2000DC000746BBF1FF0F07D05046001D006818B1016809B1584688473846BDE8FE8FC046FC
:0400FC00B418002014
:200100003C000000000000000000000034010000000000000000000001000000000000006D
:1C01200000000000000000000000000001000000000000000800000000000000BA
:20013C00340000000000000000000000680100000000000000000000010000000000000005
:14015C00010000000000000000000000080000000000000086
:2001700030000000000000000000000098010000040000000000000001000000FFFFFFFFA5
:10019000FF00000001000000080000000000000057
:2001A0002C0000000000000000000000C4010000040000000000000001000000FFFFFFFF4D
:0C01C000FFFFFFFF08000000000000002F
:2001CC0034050000E401000099A1011095A70110A5C2011009B2011045B80110000000000B
:0801EC00000000002F000000DC
:2001F400280000000000000000000000140200000000000000000000FFFFFFFF00000000B1
:080214000800000000000000DA
:20021C00300500003002000069C201106DC101101FC2011095BA011000000000000000008E
:04023C002D00000091
:20024000300500005402000075C20110A9B601109DBF011049B601100000000000000000DE
:040260002E0000006C
:200264002400000000000000000000008002000000000000000000000000000008000000CC
:040284000000000076
:20028800240000000000000000000000A40200000000000000000000000000000800000084
:0402A8000000000052
:2002AC00240000000000000000000000C8020000000000000100000000000000080000003B
:0402CC00000000002E
:2002D000000000009C1D002004000000000000000000000020000000700100003000000070
:2002F0001C020000A41D00200400000000000000000000000C000000300400001800000093
:2003100040020000AC1D002004000000000000000000000024000000480400001800000016
:2003300000000000B41D002004000000000000000000000010000000A00100002C000000DB
:20035000CC010000BC1D002004000000000000000000000020000000640200002400000019
:20037000FFFFFFFFC41D002004000000000000000000000028000000880200002400000096
:20039000FFFFFFFFCC1D0020040000000000000000000000580000003C010000340000007B
:2003B000FFFFFFFFD41D002004000000000000000000000010000000600400001800000090
:2003D000FFFFFFFFDC1D00200400000000000000000000001C000000AC0200002400000006
:2003F000FFFFFFFFE41D002004000000000000000000000038000000F40100002800000077
:20041000FFFFFFFFEC1D002004000000000000000000000054000000000100003C00000012
:1804300018000000000000000000000040040000080000000000000050
:1804480018000000000000000000000058040000080000000000000020
:18046000180000000000000000000000700400000800000000000000F0
:080478000100000004A50000D2
:0404800009F0C7BBFD
:040484000100000073
:0404880000000E0062
:04048C0000000F005D
:040490003200000036
:040494000100000063
:04049800201D002003
:04049C00000200005A
:0404A0000000000058
:0404A40001CA011078
:0404A8000000000050
:0404AC00000000004C
:0404B0000800000040
:0404B4000000230021
:0404B800A01B002065
:0404BC00010000003B
:0404C000381D0020C3
:0404C400080000002C
:0404C8000000000030
:0404CC00000000002C
:0404D0000000000028
:0404D4000000000024
:0404D8000000000020
:0404DC00010000001B
:0404E000701C00206C
:0404E400060000000E
:0404E800010000000F
:0404EC00C41A00200E
:0404F0000000000008
:0404F4000000000004
:0404F80000020000FE
:0404FC0000000000FC
:02050000704742
:020502002900CE
:020504000100F4
:020506002500CE
:020508002D00C4
:02050A002E00C1
:02050C002F00BE
:02050E000100EA
:0105100001E9
:0805140003000000A0A4000098
:08051C000000000000000000D7
:0405240000000100D2
:0405280000000300CC
:04052C0087C401106F
:04053000380500008A
:040534003805000086
:0405380000000000BF
:04053C00900000002B
:040540009000000027
:0405440000000000B3
:04054800381D00203A
:04054C00E79700002D
:040550002000000087
:0405540060A30000A0
:0405580080A200007D
:04055C000DC30110BA
:04056000076A000026
:04056400AF6C000078
:0405680099C801101D
:04056C009BC8011017
:040570000000000087
:040574005BA2000086
:040578002CA10000B2
:04057C0044A1000096
:0405800014A10000C2
:0205840008006D
:0205860009006A
:02058800010070
:02058A0000006F
:01058C00016D
:040590000000000067
:040594000000000063
:04059800000000005F
:04059C00000000005B
:0405A0009D9C00001E
:0405A40031750000AD
:0405A800D5880000F2
:0405AC00D97E0000F4
:0405B000477B000085
:0405B400097F0000BB
:0405B80045540000A6
:0405BC00D9990000C9
:0405C000FD5B0000DF
:0405C40011C8011049
:0405C80021C8011035
:0405CC000800000023
:0405D0002400000003
:0405D400180000000B
:0405D80028000000F7
:0405DC0020000000FB
:0405E0003C000000DB
:0405E4000C00000007
:0405E80034000000DB
:2005EC002DE9FE43B04C0F460646F80B80F03781B80880F0C9806069B90F69D2A07A002849
:20060C004AD138094AD3002501266570A748267209F0E4F9A6492A4604F14C0009F023FB20
:20062C00607901281FD1A079E8B9DFF88882266AD4F81490D8F8000070B109F027F8A0EB8D
:20064C0009004346000B8619E0611868B6EBC01F28BF256208D2266204F1C8004FF00051F4
:20066C0008F07EFF31E0667104F1380140F60900088094F8450000F0F00040F0010084F8BE
:20068C004500658794F8440000F0F00084F84400E563894E316018E0380914D2B80BC0F06B
:2006AC00FB8004F1280009F0E9FA061C08D0706830B17568F068B6F91C1082A20CCAA8470E
:2006CC0027F40057E8E00020A07227F00807E3E0D8B1042008F020FCB8B108F0D7FFA061C0
:2006EC006169814226BF401A401E401A000BF060F06840F6C41100F58D708142F06003D3D1
:20070C0040F2EE22824200D9F1600025D6F818C06561BCF1000F0FD094F8450010F00F0F82
:20072C000AD1708C40F60901814205D167A20CCA30466FF48071E047604904F14C002A46D3
:20074C0009F091FAA07950B10220ADF80000684608F082FAA571BDF80800A4F8A0000120D6
:20076C0060702079A846401C2071192084F8078009F0ACF8756925B156A20CCA30464146D1
:20078C00A84727F0005787E004F13009484609F075FA061C5AD006F0FCFE4FF00008B269C7
:2007AC00C6F818807068B8B1F07F42F00202002300F00700401E07D0401E03D0801E06D1FC
:2007CC0046A002E047A000E048A090E80C007568F068B6F91C10A84709F04CFB0546B4F9DB
:2007EC003600401C6FF31F30E086206B1F30017801F07F010170484608F0F2FD284609F033
:20080C0035FBF068B0F99410B4F9362091421DD1217801291AD090F8965095B9056885B127
:20082C00E1680968B1F1FF3F10D0254909687030B5FBF1F109F016FBF068703009F00EFB1D
:20084C0004E080F89680404605F076F9484609F015FA27F0020708B147F002071CE009F08C
:20086C0009FB014604F12C0009F008FA0646B569084609F0FBFAA8080CD25EB1B069A843BE
:20088C00B061706830B12A46F068B6F91C1075680023A84727F4804727B104F1C8003946FA
:2008AC0008F05EFEBDE8FE8320110020AD520000B18A0000C02C0020001004403D25000065
:2008CC00FCA400000000000020000000000000000000000200000000000000040000000046
:2008EC0000000010000000000000004000000000000000202DE9FE430646DFF8DC82DFF8CD
:20090C00DC92B2780024101C00F03581801E00F00D81401E012840F2E180801E00F0A88051
:20092C00401E7BD0401E59D0083800F04681801E40F046814546B08895F83E70ADF800004C
:20094C00052F45D001208DF80A0005F1CC0009F099F995F83E0001281BD0042819D0032826
:20096C0006D0022804D0F28831897089B38907E0B5F84020B5F84210B5F84400B5F8463027
:20098C00ADF80220ADF80410ADF80600ADF8083020E0B5F84000F1888842D8BF081CADF8B3
:2009AC0002003189B5F842008842D8BF081CADF804007189B5F844008842D8BF081CADF83D
:2009CC000600B5F84630B0898342D8BF031CDDE78DF80A40684609F019F8F1E0454605F191
:2009EC00F00009F04FF97078002840F0E980F088E882308928837089688305F1CC0008F02D
:200A0C0055FF002840F0DC80AB6A002B00F0D8801B68E88A298B6A8B9847D1E0B08807F0DD
:200A2C007AFF45462146062205F1380003F0DAFFEC822C836C83B079687305F1CC0009F052
:200A4C0021F905F1F00009F01DF901244FF6FF706F79A8824FB9B079082814BF0420052013
:200A6C00A870204608F040FDAAE00320A870A7E0707858BB311D0A68454605F13800026095
:200A8C00898881800627AF707089A882F089E882308A2883708A6883F0784446287394F883
:200AAC003E00012818BF02280AD11F2006F03AFA4FF47A71024604F1CC00514306F0FAFCC7
:200ACC00F0787289311D06F085FC7BE0707831286FD14D4604202870204623E07778002F30
:200AEC0067D14546698AA878032A13D02A796F7921B9012A14BF6C712C7106E0174304D013
:200B0C0005F1A80006F0D6FCA878072814BF0420062007E0062807D02879002808BF032454
:200B2C00DAD00220A8704DE00724D5E77078751C00283ED14246F7789078D1799FB9022836
:200B4C0016D0072814D0062802D1517901290FD103280DD002F1A80008F0A8FE40B9012060
:200B6C0008F0C2FC04E08732204605F06BFB28702878F0B924E07078D8B945460220102119
:200B8C0005F1480206F00EFF0320102105F1580206F008FFF61C05F12C00B7883168878052
:200BAC0005F1680201600120A979A87005F04AFB40B108204D46287004E0B08808F01AFF62
:200BCC00012C06D14546686A18B1016809B1A8788847BDE8FE83C046E0080020E20800208F
:200BEC00F8B5A0F2013517460E46022D40F20C818649874C874A884B2D1F0F2D04D9143DD9
:200C0C004AD0AD1E1CD011E0DFE815F0BA00B500EB00DB00AE00A700FE009F00980010006B
:200C2C001000900086007A006F006200282880F2EB80022E40F0E880398806F0DFFCF8BDFB
:200C4C00012E40F0E1800A469078012800F0DC80D1783878D07081B9002800F0D580107893
:200C6C00012800F0A080042800F09D80062800F09A80052800F09780F8BD3878002840F0CD
:200C8C00C3801078032800F09980072800F09680052800F09380F8BD012E40F0B5803878EB
:200CAC00012840F0B180254605F1F00008F0FEFD002840F0A98004F13E01002004F02CF86D
:200CCC00002840F0A18004F1CC0008F0DBFFF8BD022E40F0998038880A28C0F29580B0F570
:200CEC00486F00F39180114614E0022E40F08C803888B0F5FA7F80F2878011460880F8BD8B
:200D0C00022E40F08180388806287DDBB0F5486F7ADC1946891CF1E7022E75D1388806282E
:200D2C0072DBB0F5486F6FDC1946E7E7012E6BD13878062868DA1146891F0CE0012E63D1AD
:200D4C003878042860DA093105E0012E5CD13878082859DA08310870F8BD012E54D1387879
:200D6C00042851DAC91DF6E7012E4DD1387804284ADC891DEFE7022E46D138881031BDE796
:200D8C00012E41D10A46D07801283DD091783878907061B9002837D01078012803D0042886
:200DAC0018BF052830D1012008F09EFBF8BD387850BB1078022818BF052825D108F01EFD41
:200DCC00F8BD254600211F2205F18704204603F009FE39463246204603F0C6F80020EE7117
:200DEC000EE0254600211F2205F16804204603F0F9FD39463246204603F0B6F80120AE713D
:200E0C003146224605F01EFAF8BDC046E2080020E008002024090020200900202DE9F04F22
:200E2C000128ADF1140D40F0F280DFF81492D9F8DC00012840F0E9800220C9F8DC0009F078
:200E4C0009F80290012005F091FD20B101210646C9F8DC10D5E008F0F9FF03906E484FF036
:200E6C000008C0F80080012008F056F8012818BFCDF8008004D1404605F098F801200090E9
:200E8C0066486E4CC0F800801934D4F8FF0F112008F0F8FD00280CBF46460126102008F093
:200EAC00F1FD08B146F002060F2008F0EBFD08B146F004060B2008F0E5FD30B1584800684B
:200ECC005849006B0246088890470A2008F0DAFD0028404618BF01204FF0805B0BF5DC7541
:200EEC0028B128685049006B0246088890474F480127076028688069014646F020008847BF
:200F0C004B48076008F0B8FD00F001010191400815D2484808F022FD8246BAF1040FF8D076
:200F2C00BAF1010F06D1DBF8D801406802464148032190474049086820F0030008604046F9
:200F4C0000F080F82868D4F8FF1F806B8047019801280ED0BAF1010F06D1DBF8D80140686B
:200F6C0002463448394690473349086840F0030008602A4807602868406901463046884726
:200F8C000B2008F07FFD28B128682649C06A0246088890470A2008F075FD28B1286822498D
:200FAC00C06A024608889047204807600322C9F8DC201F4BC3F800802868406B01463046FE
:200FCC0088470128F8D1042005F0D0FC124807601A48D4F8FF1F01688909FCD300980128C7
:200FEC0002D1384604F0E2FF08F040FD082005F0BDFC06460398C9F8DC7008F023FF04F0B2
:20100C0087FC029808F01AFF02E0042600E00126304605B0BDE8F08F0C4009400002224338
:20102C00B8010010AAA00000A6A00000282008608001044300400340242208401410094055
:20104C00241500202DE9F84FDFF8E8B10746ABF13500DFF8D4910068800880F0D68007F057
:20106C0007FB064677480830D0F8008000254FEA28725FEA985002F101020AD2C6F13E00E7
:20108C0016F10A0F4FEAE000D8BF08208242B8BF021C624BD3F87C01C0F3046008F057FC9C
:2010AC0004461868C0F3044008F051FC12198246162A05DA12F10A0FB8BF6FF0090200E02F
:2010CC001522574B574802F01F0141F4F8511980006810F0030F18BF0125C00828BF45F008
:2010EC0002050FB145F00405494691F90700301A052804DA8879A84208BF888865D0DFF89C
:20110C002CE10F2EA6F10F0C25DB0CEB0610A0F1F00C4FEA2C27072F88BF07273C46062C42
:20112C0088BF06245EF82400042303EB84037446E3581B1A03F0FF04E80824BFC3F307204C
:20114C000444A80824BFC3F307400444680828BF04EB136401E0002427465EF827E0E808E7
:20116C000EF0FF0324BFCEF307200344A80824BFCEF307400344680828BF03EB1E63A4B253
:20118C00ACEB0727BAEB020004FB07F404F1800403EB1423D8BF0120342208F0FF074243AE
:2011AC007A43B2FBF3F04FF6FF72824238BF101C802E80B2888005DA16F1800FB8BF6FF006
:2011CC007F0600E07F26CE718D71194A12681F280A604FF0000208D340F2FF11814206D235
:2011EC004008521C8142FBD301E01F208880124F0F38000942EAC00247EA0200CBF8FB0FD5
:20120C000026CBF8FF6FBDE8F88F0D4F0B4E494608203760891D0870BDE8F88F3C11005055
:20122C006E62084024220840C42C00209C130050082009403500094000E7A480301009406A
:20124C00FDFDA400AC3F00502DE9F0411C4615468C4208BF854282BF00230022E5E0002CD2
:20126C0008BF002D0AD100290EBF00286FF000006FF0000100F0E1F8BDE8F0815FF0000880
:20128C005FF0000E002C08BF8D429CBF2C1C0025070C47EA01470E0CB44208BFBD429EBF9C
:2012AC005FEA044444EA15445FEA0545070A47EA01670E0AB44208BFBD429EBF5FEA04242B
:2012CC0044EA15645FEA0525470847EAC1774E08B44208BFBD4200F29380870847EA817761
:2012EC008E08B44208BFBD427CD8C70847EA4177CE08B44208BFBD4266D8070947EA0177FB
:20130C000E09B44208BFBD4250D8470947EAC1674E09B44208BFBD423AD8870947EA81674F
:20132C008E09B44208BFBD4224D8C70947EA4167CE09B44208BFBD420DD8E60146EA55665F
:20134C00EF01B14208BFB84201D3C01BB14158EB08085EEB0E0EA60146EA95664FEA8517DD
:20136C00B14208BFB84201D3C01BB14158EB08084EEB0E0E660146EAD5666F01B14208BF68
:20138C00B84201D3C01BB14158EB08084EEB0E0E260146EA15762F01B14208BFB84201D364
:2013AC00C01BB14158EB08085EEB0E0EE60046EA5576EF00B14208BFB84201D3C01BB14177
:2013CC0058EB08084EEB0E0EA60046EA9576AF00B14208BFB84201D3C01BB14158EB080821
:2013EC004EEB0E0E660046EAD5766F00B14208BFB84201D3C01BB14158EB08085EEB0E0E2F
:20140C00A14208BFA84201D3401BA14158EB08085EEB0E0EA34208BFAA423EBF2D0A45EA68
:20142C000465240A89D3734642461E4617460B46024631463846BDE8F08170472DE9F843FF
:20144C00814608F00DFB002100B901216B4E30680028FCD06C4D01242D1DEF6A346009B1A9
:20146C0008F004FBDFF89881C7F3072008F1BC01086008F0F5FA002100B921463068002892
:20148C00FCD02F68346009B108F0F0FAC7F38440C8F8C00008F0E4FA0146002001B9204652
:2014AC00014630680028FCD0ED69346009B108F0DDFAC5F38120C8F8D000B9F5C061C8F862
:2014CC00B81000F0968098F8D80068B9C8F8D410D8F8C000C8F8C800D8F8BC70C8F8C470FD
:2014EC00D8F8D060C8F8CC60D8F8D410D8F8BC60002954BF02206FF00100454605F1C8034A
:20150C001A6801EB41014018411000EB917002EBA0021A60D5F8C810C5F8C46000291CDDC9
:20152C001E293DDDD5F8CC0030B93429B4BF15391E21C5F8C81025E02A29BABFD5F8C80064
:20154C000B381E20C5F8C800D5F8C4003F28B4BF401C3F20C5F8C4001FE0D5F8CC0003280F
:20156C0012D011F10B0FC6BFD5F8C8000B30201CC5F8C800D5F8C4000028CCBF401E002089
:20158C00C5F8C400032009E011F1150FC6BFD5F8C8001530201CC5F8C8000020C5F8CC00C3
:2015AC00B5F8C400174E30214FF47F4208230090304605F093F9009404214FF400321123E0
:2015CC00304605F08BF9B5F8C80004214FF4F80212230090304605F081F9B5F8CC002021D5
:2015EC004FF440620A230090304605F077F9BDE8F883002088F8D800BDE8F88300800C40DE
:20160C002415002000A00C4000A00C402DE9F043ADF11C0D04F04CFC684C04F1280004F17B
:20162C00900102F0EFFCDFF89891E060494608F0E1FA06F0CDFF08F00BF807F03DFF042674
:20164C004FF47A7200235F49206104F16C00009605F01AF81F20012105F0D0FF0620ADF815
:20166C00120001258DF8146000278DF818506423ADF816708046ADF80E7006AAADF80C30ED
:20168C002946ADF8108040F20530FFF7A9FA40F2063002210DF11602FFF7A2FA04F14E0222
:2016AC004FF442701B21FFF79BFA04F1400240F207300E21FFF794FA4FF4447005AA2946FA
:2016CC00FFF78EFA40F2113002210DF11202FFF787FA40F21230022104AAFFF781FA40F279
:2016EC00133002210DF10E02FFF77AFA4FF44570022103AAFFF774FA07F0A0FF4046A021F7
:20170C0005F07CFF0720A02105F078FF0820A02105F074FF0920A02105F070FF02978DF83C
:20172C0007508DF8067003208DF80450314602AA8DF805004FF4816005F046FF4FF4806021
:20174C0029460DF1070205F03FFF40F2024029460DF1060205F038FF40F2034029460DF1DD
:20176C00050205F031FF40F20640294601AA05F02BFF08F030FAFEF77DFE07F04BFF04F0B9
:20178C005DFF03F0A5F9A0707F2814BF0A200F20052105F099F903F071FF07F01DF807F05A
:2017AC009BFA07F065FB06F063FC08F0F0F9E068494608F01FFA07B0BDE8F08320050020FF
:2017CC00258D0000359400002DE9F04FADF1840D00F096FD05F05EF80026012804D107F015
:2017EC007BFD022808BF012658490868C0F38150012806D151F80C0C0127010E07FA01F02E
:20180C0006435348007806F047FF524D2C46286038B1FF2204F1400107467F1E01F8012B3C
:20182C00FBD14D4909684FF0000901F0FF02FE2A1BD0DFF824C101F0FF074A460123FF2FE7
:20184C000CD0B8427FD903FA07F73E427BD101F0FF0147EA0909611881F840205CF8041F8A
:20186C00521C01F0FF07FE2FE9D1092001F054FC3948002124220823606001A808F0DAFA5E
:20188C004FF0010804F1240001AA8DF81C80414608F0CCFA236843B3002794354FF0040B0B
:2018AC00BA4608FA07F0064219D119EA000F04BF07F0FF0141F4C04105D0E019264990F82A
:2018CC00400051F82010254802F062F8F8B24FF0FF3107F04BFB2368C5F800A001E0C5F8AE
:2018EC0000B07F1C2D1D9F42DBD30AA800213022082308F097FA0025FF2010210AAB129013
:20190C00174A009504F1080008F088FA16A828220823294608F07EFA04F1600016AA1C9576
:20192C0010491D952B4608F071FA0F4951F80D0C20F4F85040F4005041F80D0C4746C1F88A
:20194C00FF7F0A4E376021B0BDE8F08FB43F0050D52C002078290020549F0000007FC76754
:20196C00958F00004D6A00000D300940080009402DE9F843674C04F1240008F07FF91546C1
:20198C000E46009008F076FA05F001078146B6F1FF3F0CD1A06A20B9B4F93600401C06B28F
:2019AC0002E0A06AB0F91C60002084F8A300304606F0EAFC0326002800F09B80A16ADFF83B
:2019CC004081814269D0009FB8422ED03FB100990A68904209D0096800290091F7D1832E5D
:2019EC0041D0484608F042FA3DE004F1A40007F0E3F900980168AA0802D20A6802600846D6
:201A0C00002202600091009818B9484608F02EFA28E0C17F41F00401C177684607F0E0FC57
:201A2C000146404605F03CFFEDE704F1A40007F0C3F9A8083ABF606A006800206062484632
:201A4C0008F014FA0099C87F40F00400C877684607F0C6FC0146404605F022FF009808B186
:201A6C00A808EFD28326E07988B9207A012843D0244807F0B3FF022104F1C80007F070FD77
:201A8C006078012838D0204807F0A8FF34E004F1C800022107F064FD2EE0A90803D3616A7F
:201AAC00009100266662C27F0121B9401143C17708F0CCF90446002F14BF1448144807F0FB
:201ACC00CBF8484608F0D2F9A80801D3009820B9204608F0B7F983260EE0C17F41F00401D6
:201AEC00C177684607F07CFC0146404605F0D8FEECE7484608F0BAF93046BDE8F883C04645
:201B0C0050110020ED050000553400000100020401000104201100202DE9FC415E4C574DBE
:201B2C00574EDFF860815A4F94F8E410481E0B2861D8DFE800F07B2C4306234306234306C2
:201B4C007664042907D001220A2945F8212C14BF0220032004E02021012045F8211C02469B
:201B6C0084F8E200002045F8390C0827C5F8FF7FC5F8F37F45F8392CBDE8FC81052914BFFB
:201B8C0009200620002584F8E400356070E094F8E1700120383D002FC5F81B0004BF06201D
:201BAC00002102D00021F160032084F8E400032045F8010C31603068800859D294F8E40078
:201BCC00012503280DD00021404660220523009104F084FE94F8E400062814BF0A200720B1
:201BEC00D1E702200090002160220523404604F075FE0420C7E708F005F9BDE8FC81224962
:201C0C00002622480E60012505600E2001F0B0F9022006F083F884F8E45084F8E360BDE8C0
:201C2C00FC81002038600C2578601FE01948006800680146202088472C3D41F61D560F2092
:201C4C0000214FF4C072072345F8010C4046C5F803600225009504F041FE404600214FF4EF
:201C6C00C072072305F09EF80120386084F8E45004F1780008F0F2F8BDE8FC8139400C40D2
:201C8C0038600C4000A00C402C500C4004800C4034600C40A0010010241500202DE9F84F89
:201CAC009A4693460E46814608F0E4F8514C0090B4F93610B4F934000AAF401A40F6F871BD
:201CCC000140082980F28780B4F93400401C6FF31F30A086B4F9348007F03EF8054609F126
:201CEC00700007F069F8AE6085F81EB0C5F804A0A5F81C80C5F80C9097E80C0041A003C88D
:201D0C00002605F110071040194087E8030004F12400EE770768002F50D1294605F0C0FD0B
:201D2C00002851D0A9F89480E87F40F08000E87789F89660607A40B1607830B10120A072F5
:201D4C0066722779A671781C2071009808F08EF8A06A00284BD1607860BBE079012846D0D4
:201D6C0008F088F80646207A00BBA86804F0B2FC224B2149E2681B68086040B9304608F019
:201D8C0075F804F1C800042107F0EAFB2FE00968D26804F1A400891AB1FBF3F108F062F834
:201DAC0004F1A40008F05AF830461EE0144901200870F9E7192007F089FD18E004F1240023
:201DCC00294605F06DFD48B9B4F9340000F6FF706FF31F30A0866FF0010805E0A9F8948009
:201DEC00E87F40F08000E877009808F03FF84046BDE8F88F20110020C02C0020FCA40000EB
:201E0C00BC2C0020F1EFFF9F20000000B0B5456884684F48297BADF1180D012916D0217E65
:201E2C00627E4C4B2F7E0143009143EA02010191494937F0010718BF081CA27E104302901A
:201E4C0095F88D000322FF2811D00DE0677E217E3843A37E019041F00041009143F000401B
:201E6C003E49029095F88D00014304220391FE204DF82200694605F1900002F0C3F8C5F801
:201E8C009C00002808BF00205FD0287B344951F8200001282BD02068B0F1804F14BF2222A0
:201EAC000A22217ED5F89C0006F0D4F92068B0F1804F14BF21220922617ED5F89C0006F0A8
:201ECC00C9F92068B0F1804F14BF24220C22A17ED5F89C0006F0BEF995F88D10FF2933D06B
:201EEC002068B0F1804F14BF23220B2228E02068B0F1804F14BF21220922217ED5F89C0050
:201F0C0006F0A8F92068B0F1804F14BF22220A22617ED5F89C0006F09DF92068B0F1804F17
:201F2C0014BF24220C22A17ED5F89C0006F092F92068B0F1804F14BF23220B2295F88D10DE
:201F4C00D5F89C0006F086F9012006B0B0BDC046000480A0004000800004C0A00020008065
:201F6C0098A100002DE9F04305466E68AC680F46ADF1340D07F07EFF96F8D910241D012914
:201F8C0003D107F073FF002084E04FF0010986F8D99007F06BFF4FF00008C6F88880386935
:201FAC00306178697061387E3076387B307338783070786886F8A4807060786941460928E5
:201FCC0028BF494686F88C10207A01F0A5F8284603F0C2FEE07D86F88D002846FFF716FF3B
:201FEC0050B9207A00F0C4FF07F044FF86F8D98007F03CFF45464CE001A8414630220823D8
:20200C0007F010FF06956078CDF80080234A0990217801AB06F11C0007F000FF01A8414672
:20202C002822082307F0F6FE05951D49606801AA4346079006F1380007F0E8FE307878B9BC
:20204C0001A841462422082307F0F4FE8DF81C9006F16C00414601AA07F0E8FE114800E00E
:20206C00B868B06003F00CFDC6F8A000307B012808D1D6F89C000C4907F0BCFDD6F89C0044
:20208C0000B18560094A06F1C40004212B4606F02BFB28460DB0BDE8F083C046FD3C00005C
:2020AC00AF610000BB9B000011710000E59A00002DE9F041424C474D8046C8F38140401EA4
:2020CC0002D0401E2AD025E0284620300168880C20D24FF4804020603A48D0F802204B0AD4
:2020EC00C1F3033703F0800322F08F02134347EA0302C0F80220D0F801300E1266F30303EF
:20210C00C0F80130026801F0E70722F0E70247EA020102E04FF00041204601602A4E06F1BA
:20212C0008000068C0F3C0070FB94020A0624FF40070206407F09AFB40F0300084F8C80018
:20214C00C8F3815038B3401E03D0401E1ED002211DE0012006F0E0FE07460420394604F086
:20216C0047FA042006F0D8FE8742FAD1366826F07F4005F08BFD15480068036807214FF007
:20218C006022300E98474FF4806020600321042004F02EFA06E00420012104F029FA0C48F6
:2021AC0005F074FD284600680B4947F6180700F03F0084F8CB0F094E0F803068BDE8F0810E
:2021CC0040A00C400A600840A83F0050B4010010BD3786006C13005070B00C402C200940CF
:2021EC002DE9F04F0C464549CA7AADF12C0D84460592487B09900D7900958A7A488B4B8AFF
:20220C000E7B91F805A091F802800492B1F846E008904A7A088B0392CD7807900A7AC88A55
:20222C0002920F6A0690CA79888A01928A79E146A9F54079B9F11D0F10D8DFE809F05B5558
:20224C0053514F4D4B494643413F3C3A380F34312E2B2923201E1C0F19181716BCF1280F23
:20226C0049DA604604F05EFE21E0099EB246D046CDF814801DE00898079007980690DDF8EC
:20228C0018E005E03831086820608888A08032E070460AE0B1F8440009E0B1F8420004E075
:2022AC00B1F8400001E091F83E00034612E0208021E0059804900498039001E03231E2E738
:2022CC00039802900298009006E0019A87310DE068310BE01846EAE7009D0BE02C31D2E724
:2022EC00276008E0583100E048311022204601F03BFE00E025700BB0BDE8F08FE008002063
:20230C002DE9F041444C94F8E700ADF1280D00286FD1394F387B01250021242284F8E750B1
:20232C007E6884F8E6000823C4F80C6101A807F065FD002604F10C00069601ABADF814606B
:20234C002E490796324607F055FD2D4904F1300001AB324607F04EFD2A4904F1540001AB33
:20236C00324607F047FDB868014628468847DFF89C8025487B7B0078D8F80410C1F38157BC
:20238C001BB1032F03D184F8E150032F16D0022F14D0012F26D103201D4C009031464FF08C
:2023AC0040521C23204604F099FA009531464FF400720923204604F091FA13E0022005F077
:2023CC00C5FC032F0CBF4FF47A7142F21071114800685434B1FBF0F1204607F043FD204677
:2023EC0007F03CFDD8F80000C00802D2304605F0ADFC0AB0BDE8F08134A40000DB5100004D
:20240C00294400006D490000D52C0020B03F005000A00C40FCA40000241500202DE9F043FF
:20242C000746880FADF1140D75D303F057FB3F4D00261C352E60394845F81C0C384807F072
:20244C00CDFA3848BC68B14640F60A0200F13801468790F844300A808046C0F83C9003F012
:20246C00F00380F8443090F845306680241D03F0F00343F0010380F8453000E01C1D23689F
:20248C0013B118888242F9D12160607A00F0F000607208F1240007F0F1FB80680088D21FD0
:2024AC0082421DD0521C82421AD007F120000388B3B197F82C2097F82D30C7F8249002F010
:2024CC00F00287F82C2003F0F00242F0010287F82D20C8F83C00487B7E8400F0F0004873F1
:2024EC00694606F0C9FB684607F0B8F928680028FCD02E60012006F00FFD012808D0607A01
:20250C0000F0F00040F001006072074807F066FAB86845F81C0C05B0BDE8F08301010E04C0
:20252C00ED050000201100200D60000000100440F8B506F0E9FE404E3E4F0446A00823D3FE
:20254C00B96A09B33D4600200B698A69A86204EA0300104340F0020006F1080288610B69A8
:20256C0010689843106001F1100090E80C0030681A1C9043306005F1300005F091F902210D
:20258C0005F1C80006F0ECFFB86AA10815D200F110020CCA002122400B40002B08BF002A1B
:2025AC000BD0016985690C40F8622C434FF48041846107F1C80006F0D3FFB86A002837D104
:2025CC0007F12404204607F059FB051C30D0F868E968884226D1A86804F07CF8174908604B
:2025EC00E0B906F1080128690A6810430860326805F1100393E80300081C1043306000232D
:20260C003361A86846F80C0C06F1100000680028FAD0204606F0E4FEBD62F8BD086803F0DE
:20262C008BFAF8BD07F1C8004FF4805106F098FFF8BDC046201100200C100440C02C00207B
:20264C002DE9F04104466768A5680E46ADF1380D07F010FC97F8DC102D1D012903D107F00D
:20266C0005FC00205EE04FF0010887F8DC8007F0FDFBF168204602F041FF0028F1D130785A
:20268C00387070687860307A002130220823F86001A807F0C7FB0694287A00260990234A6C
:2026AC000096696801AB07F1100007F0B7FB01A828220823314607F0ADFB05941C49E868C8
:2026CC0001AA3346079007F12C0007F09FFB01A824220823314607F0ADFB8DF81C8007F135
:2026EC006000414601AA07F0A1FB387838B907F17C00314601AA07F099FB0E487860C7F8FA
:20270C00BC603E72C7F8C060286800F005FD204604F09CF8084A07F1C8000421234605F0FD
:20272C00E3FF20460EB0BDE8F081C046092C0000695E0000AB9B0000C9980000B0B53C4CDB
:20274C006078410807D320F0010060700A20014604F0BAF96078374D810807D320F00200A8
:20276C002F786070062F01D103F022FB2078FE2807D10120E07004F10801082005F096FD0A
:20278C002078A778B84249D0E178012905D00120214605F08BFDA778207829787A0803D356
:2027AC0042083CBF0022A280BA0803D382083CBF0022E280022903D106F04EFEA7782078EB
:2027CC00B90808D3810806D22978062903D003F0EFFAA7782078790808D2410804D301201E
:2027EC0005F0D2FFA7782078790806D3410804D2002005F0C9FFA778207810F0030F0DD054
:20280C0067B904F11000054607F050F828B9284607F036FA0020E080A0802078E1780129CC
:20282C0003D10020E0702070B0BDA070B0BDC0460C1C0020200500202DE9F047ADF1180D2B
:20284C0001F058F93A4D4FF0030908274FF6FF78002605F13E0A2C4606F050FB20BB0096E5
:20286C0001A80DF106016A4605F0A5FBE0B9BDF80400102814D160789DF8061088420FD1BD
:20288C0000980188884509D14088C00B08D3042005F12002014605F085F801E003F040FFEE
:2028AC00009808B106F0E8FC208A41082DD320F0010063792179208253EA010225D073B964
:2028CC00207A637A8DF8070005F132018DF808300A680DF109031A608988998001E08DF87D
:2028EC000790A07A8DF80F00E37A8DF810300DF1070007F079F838B1636AA77023B11A68D5
:20290C0012B1196838468847208A810807D320F0020020825146304602F0FEF9208AC108F0
:20292C009AD320F00400208206F082FB94E7C046E00800202DE9F04706467468B56807F0E3
:20294C0099FAD4F88810002963D007F08FFA2968486820F0020048602968486A20F0030047
:20296C004862D4F8A07068692969084379680968C1F804052968486920F001004861286877
:20298C004FF00108C0F82080304605F0D5FED4F88800D0F8049007F06DFA04F1D8078246A3
:2029AC00387850B119F0704F02D1042005F0B6F9022005F0B3F900203870504607F056FA8F
:2029CC00D4F88810087C042803D003200874D4F888102A696869D4F8A0304746104307FA20
:2029EC0000F258680068C2622868B0F1804F14BF0A480B480F68006800258204A7EB925017
:202A0C00401E08603046A268C4F888509047BDE8F08707F02BFABDE8F087C0460805002072
:202A2C00380400202DE9F0430646ADF11C0D07F0DDF905F0FBF84FF000090546CDF8009035
:202A4C0007F050F830F0010002D00098A84202D16FF0040059E070684C4658B1B0F1FF3FF5
:202A6C0005D001A905F0CAF830B107464CE04FF0FF3000E02046019007F0B4F9019901270F
:202A8C0001EB000800E001936868019907F0A6F900282ED003A804F019FED8B99DF81000B0
:202AAC0002A904F0F9FD88B9B368BDF808009DF81210059A984748B19DF81270B773BDF838
:202ACC000800B081059B33614F4612E00599684605F052FB0198641CB0F1FF3FD4D00028A4
:202AEC00D2D007F07FF9B8EB000302D001989842C9D2009905F1080005F042FD24B16868C3
:202B0C0007F068F9641EFAD1384607B0BDE8F083F0B5ADF1340DFFF7F3FB3049086828221C
:202B2C00082340F00200086001A8002107F072F92B4E2C490524002301AA079406F1C80059
:202B4C0007F064F900213022082301A807F06AF90025FF271921244AADF81C5001AB099724
:202B6C0006F14C00009507F059F92822082301A8294607F04FF91D49079406F1FC0001AABD
:202B8C002B4607F043F901A829463022082307F049F90124ADF81C40099706F168001A2157
:202BAC0001AB134A009507F039F912492A4606F1A400134607F01EF90F4806F00FFF86F89C
:202BCC00A3507571F57135727572B5727561B4714FF6FF70A6F8A0000DB0F0BD0020094035
:202BEC00201100203D950000B18A0000E135000061600000858800005534000098B5354933
:202C0C00446809688068496800688847324A0121916140B1237AFF2B05D0FF2140092172A2
:202C2C0053D2042149E0207A00284ED0401E17D0401E02D0FD3848D044E05368D4F8B40014
:202C4C000370D4F8B400401CC4F8B400D4F8B8707F1EC4F8B8701CD0012F88BF09212CE09B
:202C6C00D4F8B0707F1EC4F8B07014D1D4F8B8707FB10220D4F8A8102072097C012F4FEAB4
:202C8C00410141F0010142F8041C94BF03210B2114E004210FE0D4F8AC0000785060D4F842
:202CAC00AC00022F00F10100C4F8AC0005D2D4F8B87017B90521002020720220116006F0D5
:202CCC0096FF98BDFF20207298BD04F12C0007F07DF898BDAC010010042800403648F8B5C2
:202CEC001138057806F00EFD00284FD00120682102F084F8002859D02D4C0920611D01220E
:202D0C0008700F466B2005F0E7FA00283ED007206071394601226C2005F0DEFA002835D023
:202D2C0001261D2039466671324605F0D5FA00282CD04020607139463246382005F0CCFA32
:202D4C0020B3C020607139463246692005F0C4FAE0B165711F203946324605F0BDFAA8B10E
:202D6C0006206071394632461E2005F0B5FA68B129206071394632466B2005F0ADFA28B14D
:202D8C00211D1C20324605F0A7FA10B906F086FEF8BD3A203946324606F0EEFD06F07EFE03
:202DAC00002060700349606904F0A0FFF8BDC046D81B002007000680221B0020BFB5364CC1
:202DCC000746401E39D0334D401E1FD0801E012830D9801E02D0801E23D058E0284606F0F9
:202DEC0065FD10B9284606F04BFFE0680A210022054604F021FD002228460F2104F01CFD2F
:202E0C0000221521284604F017FD40E0284606F04DFD10B9284606F033FF002006F01CFB7E
:202E2C0035E006F03BFD04F10C0000680A2101220546E7E706F032FD29E00F20052103F0FD
:202E4C0043FE4FF441706946FFF7CAF99DF800009DF804308DF808009DF805108DF80E3071
:202E6C009DF801508DF80F109DF803008DF809509DF802308DF80D0002AA8DF80A30002062
:202E8C008DF80C0008218DF80B0001F00FFB27700090BFBD8C0500202005002038B5044611
:202EAC00084602F095F90146182004F091FC06F04FF880B200902C4840F2FF3200232C21F2
:202ECC0003F00CFD06F0DAFC01461C2004F080FC06F030F80146142004F07AFC06F038FA00
:202EEC000146102004F074FC204602F063F801460C2004F06DFC204606F012FA1B4D400058
:202F0C0040F020002870204606F016FA40F010002870204605F0C0FE0146282004F058FC89
:202F2C00204606F021FA400040F06000E870204606F026FAC00040F0800005F8080C204683
:202F4C0006F02AFA800040F47C40A5F89300204605F06AF90146082004F03AFC4FF4800091
:202F6C00A5F20911086038BD00A00C4049A10C402DE9F843044606F07DFF81462D480219B1
:202F8C0092F8ED10491ECFB2002F82F8ED704BD12B4D05EB84052E78698836F07F07884692
:202FAC001AD1F10911D24FF08054D4F8B801806901464046884704F5DC742068406B01465D
:202FCC00404688470228F8D121E000EB8800D0F80011002088471AE04FF08054D4F8B801CF
:202FEC00006A014640468847D4F8B801806A014640468847D4F8B801006B01464046884728
:20300C0001210D4A0D48116001688908FCD306F03F003F2801D0FFF7ABFF687800F03F0080
:20302C003F2801D0FFF7A4FF484606F01FFFBDE8F883C04624150020282008602820084052
:20304C007CA000002DE9FC41304F387800285BD02F4C002520898DF8005010F07F0F00F0D7
:20306C007F0850D004F098F92A4E22783378A0700BB9022A20D12179C30911D240081AD3EC
:20308C00684602F03FFFE378E088002B08BF227811D0E570227842F2107191FBF0F009E01D
:2030AC00491CC8B20228207105D1E08842F21071B1FBF0F0E0603570E66856B9012A22D08C
:2030CC0025710120207001F0D1FEE0B1FFF706FE19E0022A08D002202070257101F0C6FE58
:2030EC0010B1404604F0F6FB2089000A02D3E068401EE0609DF8000028B104F11402284643
:20310C000E2102F0D1FD3D70BDE8FC81D22C0020101B0020D32C00202DE9F041064606F0D4
:20312C00A9FE2D4D8046A91991F8ED00421C002881F8ED204AD1294C04EB8604277807F0B9
:20314C003F003F2801D0FFF7E7FF607800F03F003F2801D0FFF7E0FF668837F07F001AD17D
:20316C00F80911D24FF08054D4F8B801406901463046884704F5DC742068406B0146304659
:20318C0088470128F8D121E005EB8605D5F80011012088471AE04FF08054D4F8B801C0695D
:2031AC00014630468847D4F8B801406A014630468847D4F8B801C06A01463046884701215F
:2031CC00074A0848116001688908FCD3404606F04DFEBDE8F081C046241500207CA00000B0
:2031EC0028200860282008402DE9F84F0D46064628687468D6F80880002855D006F03AFE4A
:20320C00D4F8881021B106F031FE032028744BE001272F74C4F8885006F028FE94F8A400B2
:20322C0038B194F88D202249D4F89C00114304F05DFDD5F804A006F01DFE04F1D80999F802
:20324C000030834653B91AF0704F02D1042004F07DFD022004F07AFD89F80070584606F01D
:20326C0005FED8F80010486840F0020048603046294600F085F8D8F80010486940F00100C1
:20328C004861207830B9616804F16C05284606F0A5FD10B13846BDE8F88F3046FFF74AFBA7
:2032AC002846002106F09AFD0020BDE8F88FC04600000680294A2DE9F041804601262848F7
:2032CC0016600768002FFCD0294C2A4FC020443C206007F1080001682348890804D2016890
:2032EC00090C41F0F00100E072211E4D85F85412002111638768384601F0AEFB4046394629
:20330C00FFF7CCFD1C48B038816D40F20F226FF31F418A4212D901680068C1F30363C0F32E
:20332C00034003B15B1E072805D006280EBF0720801C00F00F0043EA001028703846FEF708
:20334C00B7FE0E4814380068C1680220884740202060064F3E60BDE8F081C0461010094030
:20336C009402224302600840AC3F00509404604244600C40A83F00506C130050B40100106C
:20338C00F8B58C4645688468DCF8007095F88C10B8B288401FFA80FE2068B0F1804F14BF08
:2033AC00244B254BDCF80820244832B995F88C108E00815905F1A60207E095F88C108E0002
:2033CC00811951F8081C7244521E99605A6021683A0143F6F077103A0831174019609A6848
:2033EC003A439A602368B3F1804F14BF144A154ADCF804C0BCF1000F04BF805904F10E06C3
:20340C0005D0801950F8100C0EEB0C06761E9060166051609068074397602169D5F8A06088
:20342C0060690843716809688862586A40F003005862F8BD0005002030040020B0A100000A
:20344C001005002040040020042998B54DD1274C04F1240006F012FC40B994F8A30040082F
:20346C0038BFE06804D3D4F8880000E0C068E06041681F4A09781160416812680978914213
:20348C0006D0876927B120A20CCA6FF0FF01B847022004F05BFC1120FFF73EFE0120E0714A
:2034AC00E068011D007C10B16079012804D00E20FFF732FEE168091D08680E490830076856
:2034CC000FB947681FB10020C8610B4F0F600B4A40F2FF7000271060094C8F6109484C61B7
:2034EC0006F07CFA192006F06DFC98BD20110020D0210840001004405100070600000460C7
:20350C00020000402924000000000000000000022DE9F8430646B0680D4600F10808746829
:20352C006868002710B9E868002850D02078012814D106F09FFCD4F8BC1049B1D4F8C010C2
:20354C008D61C4F8C05006F091FC0120BDE8F883C4F8BC50C4F8C05006F088FC022004F0BD
:20356C00F5FB04F160004FF0FF31814606F036FCD8F8000006F022FC3046294600F006FFDE
:20358C000546D8F8000006F01DFC207888B9B5F1FF3F08D004F17C004FF0FF3106F01EFC70
:2035AC00207A48B110E003202072022004F0B6FB0AE0B5F1FF3F01D0012705E0032020729F
:2035CC0004F12C0006F002FC484606F003FC3846BDE8F883F8B506F04DFC2A4C0746103CAE
:2035EC00D4F89C0010F4602F2BD0D4F89C00400CC5B2680807D2A80803D2E80828BF0225D2
:20360C0002E0012500E000256E1D70B202F04CFDD4F89C3005F111010120884023EA000112
:20362C003846C4F89C1006F021FC04EB8500D0F88C704FB1D4F8880013A20CCA3146B847F8
:20364C0002E0384606F012FCD4F89C0020B104F1FC00002105F084FF94F8A30080080FD39E
:20366C00D4F8987037B1D4F8880009A20CCA6FF00101B84794F8A30000F0FD0084F8A30012
:20368C00F8BDC04630110020000000000000000800000000000000802DE9F0412D4C05466F
:2036AC00A41C20781F4690460E46ADF1380D012803D0FFF72DFA012020705EB1B8F1000FA3
:2036CC006E6007D0C5F8088006F0D4FB617819B106F0CCFB002038E0491CC9B2617006F0F0
:2036EC00C5FB01241FB9684605F0F8FF6F46386828607868E860387A2874F868686138694A
:20370C0000B1A8610021782205F1200001F06AF905A800212422082306F08CFB8DF82C4011
:20372C0005F13800002105AA06F080FB05A800212422082306F062FB05490B9505F1700028
:20374C00002205AB06F056FB28460EB0BDE8F081079C0000201100202DE9FC470AAF3F8835
:20376C0082460C4608469946154601A904F038FE012808BF01204AD0BDF80400DFF89480F8
:20378C0042F60211FF26401A2ED048F26311401A012827D827BBB9F1010F1FD1BDF80410D0
:2037AC004AF666200027884202D12978032913DA2978E2681170BDF80410884205D0E1689C
:2037CC004046884218D13E4618E0E1684046401C884211D1012611E080270DE00D270BE086
:2037EC000B2709E00A2707E0009750464B4621462A4602F0E1FF0746FF2E07D04046001D2F
:20380C00006818B1016809B1304688473846BDE8FC87C046BC190020F8B506F021F906F0AF
:20382C002BF9044604F00C000C2845D0E0081ED204F0C0FD234E376805460120014605F084
:20384C00E9FA31686943884211D21F4C8220B0FBF7F0291A204606F005FB204606F0FEFAF5
:20386C000120FDF7DBFA204605F0A6FA25E0200922D21648610939BF016821F00101016890
:20388C0041F0010102460160D2F898004FF0805440F00300C2F89800D4F8B8018069014691
:2038AC0020208847D4F8B801094C806B2168804701202060206800E030BF06F0D7F801F02A
:2038CC00BBFCF8BDFCA40000301500208C2108402C2009401CB52C4C401E02D0401E44D0F6
:2038EC001CBD06F0EDF8400931D32089FF2831D00120694604F0B2F9BDF8000010F07F0F38
:20390C0018D0BDF800002081022001F0E7FE05F0F9FEA8B11D48006841F28831B1FBF0F0DB
:20392C0006F048FA03F02AFCBDF8001041EA0020208105E0BDF800002081002001F0CEFE61
:20394C0004F108020120022102F0AEF907E0FF20083420800120FF21022205F00DFA00201C
:20396C000E22014605F008FA1CBD02200DF1020104F074F99DF802102046C1809DF802107B
:20398C00243002F0E9FA1CBD101B0020FCA40000F8B50D46EEB2290824BF26494D40264B0D
:2039AC00B400195985EA01020240C2F3006C234A00EA05078143FF323A4000F4E0270A43E6
:2039CC00B7F5E02F01D1510E15D300F4E0215CEA010710D002F4E027B7F5A02707D0B7F5F1
:2039EC00803704BF22F4003242F4A02203E022F4803242F4C0221A51114CC10D04D3A4F13C
:203A0C008001C5F380528A55000E11D306F032FA290E03D201210022B14002E00121B14066
:203A2C000A46503423688B431A43226006F01EFAF8BDC046006000A000100840007F077F48
:203A4C00802002402DE9F0410E46294990461C4606AF8C4672680878BB8851783F881278F5
:203A6C00002502EB012242F62321521A29D0521E052A18D9921F0CD0263A34D1072F30D864
:203A8C00C7F10700984298BF83B2674407F1080121E0B84225DBC01B9842D8BF83B223802A
:203AAC00DCF804000BE0F06805F05EFE80B2B84217DBC01B9842D8BF83B22380F0683918A3
:203ACC000AE0082F0DD8C7F10800984298BF83B207EB0C010F31238040461A4600F044FAB8
:203AEC0003E0072501E025800A252846BDE8F081501300202DE9FC4704F07EFD284C00258E
:203B0C00A5704FF6FF70A08203F0F0FC234F2A462070012039461346009004F1A80002F045
:203B2C00B3FD4FF002082A4604F1CC003946CDF80080134602F0A8FD04262A4604F1F0001C
:203B4C0039460096134602F09FFD04F14809102248462946E67000F045FF04F1580A1022D5
:203B6C005046294600F03EFF04F120073D602572072065721021A0724A46E572404603F016
:203B8C00F7FE03201021524603F0F2FE30463A46014603F0EDFEBDE8FC87C046F594000083
:203BAC00E008002070B5274C274D012806D028BB21460020491C05F055FD1FE02146012049
:203BCC0005F050FD0878022811D0491C002003F0E5FD28680A210022064603F02DFE002249
:203BEC0030460F2103F028FE04F0E2FD06E005F067FF4870491C002003F0D0FD2146087802
:203C0C0001281DD1286861780546490834BF002201220A2103F010FE6078800834BF0022A3
:203C2C00012228460F2103F007FE6078C00802D204F0BEFD70BD284603F0BEFA03F0DAFA8F
:203C4C0070BDC046941D00202C050020264838B550380468B4F1FF3F08BF002405F020FDD4
:203C6C0022481749002510380560012008601549086002F037FB1448006820B113480068D1
:203C8C002046FFF717FB124812490560124C0A686FF35B4244EA0200086010490868C0F3AD
:203CAC000130012806D10A680D48104040F400320A6008600B4908680028FCD138BDC046C4
:203CCC005C600C400822044380012843000120438C210840482003400000390104000940E8
:203CEC00FFFFFCFC0C0068426C13005094046042B0B501468B681C68E26948682262520807
:203D0C0024D2D0F8A01049680A685D69D2F80415294206D01C68616A21F002016162C2F83C
:203D2C000455D2F8042519690A4230D01A68516A21F001015162D0F8A0205268196912681C
:203D4C003830C2F8041506F041F8B0BD1C68626922F001026261D0F88870AFB9626822F055
:203D6C00020262601C68626A22F003026262D0F8A0005A6940681C6900682243C0F8042540
:203D8C00084604F0D9FCB0BD0846FEF7D3FDB0BDF0B520480127F84201D002F0E7FC204D91
:203DAC00204F214EBD4206D203CD0478A4003459401CA047F6E71D48002800D08047164D1E
:203DCC00164FBD4202D210CDA047FAE7F0BD03251BE0416808300A1C2A400BD11A1C2A403D
:203DEC00AB4305D0046804300C600431043BF9D1131C05D0047801300C700131013BF9D145
:203E0C00021C2A4001D0A84304300368002BE0D17047C046FFFFFFFF00000000000000001E
:203E2C0054AD0000D4AD00004CAD000059C50110B0B5244C2278E1889308084603D3491CD0
:203E4C00401CE18080B2A18852080F4603D3491C7F1CA180BFB2062F11DB06280FDB04F1F9
:203E6C001000054605F022FD58B3284605F00AFF0020A080E080607840F001001CE0032880
:203E8C000BDA38431DD104F11000044605F00EFDB8B1204605F0F6FEB0BD97B904F11000FF
:203EAC00054605F003FD60B1284605F0EBFE0020E080607840F0020060700348006805F057
:203ECC0089FFB0BD0C1C00202805002010B50020442100F093FF002808BF002440D0214CF0
:203EEC001F200222214605F047FD002835D021880806000C40EA2120782815D11020208002
:203F0C0021460220024604F0E7F930B302202146024605F031FD00B321880806000C40EA79
:203F2C002120B0F5805F01D0208016E00020208021460220024604F0CFF970B10220214652
:203F4C00024605F019FD40B121880806000C50EA2120208008BF012400D0002405F09EFDC3
:203F6C00204610BDB42C0020002A4AD05FEA000C8B071CD1830722D1102A08D370B4103AEA
:203F8C0078C978C0103AFBD270BC103238D0042A2CD3082A05D30C2A24BF08C908C008C955
:203FAC0008C008C908C092072AD0920F22E00B780370491C401C521E22D08B07F7D1C30721
:203FCC0014D18307D8D0121F12D308C903801B0C4380001D121FF8D20AE008C903701B0AFF
:203FEC0043701B0A83701B0AC370001D121FF4D2121D05D00B780370491C401C521EF9D189
:20400C00604670472DE9F843224D884606464FF0FF3105F12400814605F0E0FE00200CE02E
:20402C00FF2909D02A688A4204D905EB8101D1F894700FB1002627E0401CB8F1000F03D025
:20404C0018F82010FE29EBD10024346074600127B46011E0FF280ED005EB80000B787268A6
:20406C00C0F8946007FA03F0104370600A680A49304604F005F9641CB8F1000F04D008EB45
:20408C0084010878FE28E5D1484605F0A3FE3046BDE8F88378290020007FC767FEB5FDF764
:2040AC00B5FA234C002504F16C0604F019FF58BB009501A80DF106016A4603F065FFD0B958
:2040CC00BDF80400102807D160789DF80610884202D1009805F0EEFC009860B105F0B4F82A
:2040EC0009E0206905F010F8071C04D004F084FF384605F079F8206905F058FE0028F0D037
:20410C00FEF71CFBFEF79EFFA088C108CDD320F004002778A080022FC7D1304605F0B0FDB0
:20412C0020780228C1D10F20012102F0CDFCBCE7200500202DE9F8432020EFF3118780F3AD
:20414C001188214CA068012105F02CFE4FF001094FF0000865692168A4F81C906A1A2168C8
:20416C00A4F81E80461B401A904227D387F3118840464519361A4846294605F00FFEB0423A
:20418C00F7D92021EFF3118781F31188E18B012903D14046294605F001FEB0F1FF3F06D073
:2041AC00A169801B814238BF081C411901E0A069291805F0EFFDA4F820902560A4F81C8001
:2041CC0087F31188BDE8F883780100201CB50020772100F013FE002808BF00243FD0D0206B
:2041EC006946012205F0C8FB002835D09DF80000582831D1F5206946012205F0BDFB002829
:20420C002AD09DF8000038BB55208DF8000069460122F42004F060F8F0B1F420694601225D
:20422C0005F0AAFBC0B19DF80000552814D1B6208DF8000069460122E02004F04DF858B101
:20424C00F4206946012205F097FB28B19DF80000002808BF012400D0002405F01FFC2046F9
:20426C001CBD70472DE9FE4F8046B8F1000F01920C9802919B46009005D0081C03D0101C8E
:20428C0001D0009810B90220BDE8FE8F1948017800252C4629E0A00038F800A04FF6FF77E7
:2042AC0008EB000657451CD0B778D7B10198029A594605F080FA5FEA000912D0780806D3EA
:2042CC00009B504601214A4600F0E0FE0543B078800806D33088009B02214A4600F0D6FE86
:2042EC00054304480178641CE4B2A142D3DC2846BDE8FE8FE0080020F8B50F4601464C6858
:20430C008E683846203804F10C0432D0401E2CD0401E27D120781578012814BF19491A4928
:20432C00FF2D41EA05011BD0D4F8900001F052F898B93068B0F1804F14BF23220B22D4F828
:20434C009000294603F086FFD4F8900094F8811001F03AFB84F8815012E04FF0FF30F8BDD9
:20436C00FF25F1E76FF00100F8BD002084F89800F8BD21780020012908BF012084F8980058
:20438C000020F8BD0004C0A00020008080B5406800F10802C0F8A8100868C2F8A400486872
:2043AC00C2F8A8008868C2F8AC00C8681A49C2F8B000D2F8A87097B9D2F8A000007C4000E4
:2043CC0040F0010041F8040C022010700B68DB0917D2D2F8B020022A17D30B2216E0D2F8D8
:2043EC00A000007C0127400041F8040CD2F8A4001770431CC2F8A430007848600868C009A9
:20440C0002D34FF0FF3080BD022003220A6005F0EEFB002080BDC046042800402DE99843C1
:20442C0005F028FD1F4CDFF87880814604F1E000007850B94446A0680146022088470746E8
:20444C00102002F093FA2FB320E001F033FA002820460FD1144909683222B2FBF1F101B9C8
:20446C00012100F13004204605F0FCFC204605F0F5FC0FE044460022A16880F8E02002200C
:20448C0088470746102002F071FA1FB1A068014603208847484605F0E9FCBDE89883C04628
:2044AC0034A4000024150020FCA40000F8B50D461F4C20490728164638D8DFE800F0192CB4
:2044CC002A2826242104284604F096FB071C2DD0616804F11700884202D0606804F09CFE35
:2044EC00384631462A46FFF73FFD67602570F8BD082D1BD130680F34206077686760F8BD31
:20450C000C46153408E00C4606E0643404E04F3402E03A3400E0253420460021152200F09E
:20452C0061FA204631462A46FFF71EFDF8BDC04650130020C9130020F8B5204C820002EBF4
:20454C00C0002418666825680F1C08BF1C4F387830B97888312818BF322815D1207A98B9A7
:20456C0005F088FC0146387838B96B78AA781A434FF0000318BF012302E0227AAA18537824
:20458C0023B1084605F072FC0020F8BD18B901206870A87003E0207A0122281842700846F3
:2045AC0005F064FC38782870B079FEF7B5FD2046394603F057F82046F8BDC046BC9F0000DF
:2045CC00C0A200002DE9F04107467868051DD0F8BC00A8B305F04EFC1A4E00248046F46013
:2045EC0004203060022005F002FB2B68D5F8A410384622469847022003F090FB09E081699B
:20460C002B6822463846C5F8B8109847022003F085FBD5F8B800D5F8BC108142EFD1204615
:20462C00C5F8A4002C71C5F8B800C5F8BC00064B346038461C6002F009F9404605F016FC22
:20464C00BDE8F081042800401004054270B51E4DAC68064604F034FE4FF47A71001B484387
:20466C00030C04F005F82969401A48BF404240F6B8319B19994210D306280EDAE9688C42F3
:20468C000BD8286848B1114A091B51438A0C02EB1141884288BF011C08E00D494868400856
:2046AC000ED208687D2100F0FF004143C82905D3B1F57A6F88BF4FF47A6103E0C82101E023
:2046CC004FF4FA61084670BDA02C002040420F00AC3F0050F8B5001D84B214F0030002D024
:2046EC00241A241DA4B204F0E8FC01461948102C47680160C8BF8768388800221646C30B8B
:20470C00DD0319D126B984420ADD3A46012617E01388C3189BB29C42138011DC17461846BD
:20472C009FB1001B80B20428B4BF3C88385344F400443C803F1D08E080F40040002680B25A
:20474C00C71938880028DAD10027084604F036FF3846F8BD44160020B0B50446A768ADF133
:20476C00280D27BB0C20FFF7B5FF071C16D0684600212422082305F041FB002306976A4656
:20478C006168ADF810301448059305F0FFFA386038B904F008FF384603F096FC6FF0030094
:2047AC0018E0E06878602069B860A7600AE004F084FC0546386804F0FFFA2069B8602846E8
:2047CC0004F0FCFE3868616805F04CFB386805F045FB00200AB0B0BD319A0000B0B5144694
:2047EC000F4605F047FB85B219480068007808B904F03AFC87B1384603F032FE40B114B12F
:20480C004FF0FF3020700820FEF7B2FB002419E038687968BA6803E04FF480700122014684
:20482C0003F04CFA0B49012008600B4908684008FCD30A4800684168022088470CB1002149
:20484C0021700446284605F011FB2046B0BDC04644A40000A802504208800240CC0100105E
:20486C00F8B50E46044605F0F1FA0546304603F08BFD071C03D1284605F0E4FA26E0F87F10
:20488C0010F0070F1BD113487968884202D079682166786010A090E8060004F15807284602
:2048AC0087E8060005F0CEFA04F138004FF0FF3105F094FA04F1680696E80300F8BD284694
:2048CC0005F0C0FAF87F10F0070FFBD102200021F8BDC04691630000020000000000007060
:2048EC0070B504F00FFF002832D002F097F988B301200C2100F082FA60B3174C0F20611DC1
:20490C00012208700E460A2003F0E6FC1348006842F21071B1FBF0F005F04CFA1020032209
:20492C0004F1100105F028F806F10B0550B128786B78AA788030608103F18000A08102F18A
:20494C008000E08101220B203146627103F0C4FC05F0A4F870BDC046D81B0020FCA40000A8
:20496C001CB5042004F0D8FA022818D0032816D016480068C0F38150032814BF41F2883218
:20498C004FF47A721248144C016854342046B2FBF1F105F067FA204605F060FA1CBD032035
:2049AC000C4C009000214FF040521C23204601F095FF012000214FF40072092300902046CE
:2049CC0001F08CFF022003F0A9F91CBDB43F0050FCA4000000A00C4024150020002213461C
:2049EC000A46194671B510F0030F0BD0002A82BF00F8011BB2F1010210F0030FF6D1002AC1
:204A0C0008BF71BD11F0FF0141EA0121042A18D341EA0141082A0FD30E46102A08D30C46F2
:204A2C000D46B2F10F0312F00F0272C0103BFCD812F0080F18BF42C012F0040F18BF40F8E8
:204A4C00041B12F0020F18BF20F8021B12F0010F18BF017071BDFEE70246184808B50068D2
:204A6C00C0F3046004F073FF00EB2270401C162805DA10F10A0FB8BF6FF0090000E01520A9
:204A8C000F49104B00F01F0040F4F85008801868800803D20C490020086001E042F04062D5
:204AAC000A49D00E930E80F0010000F00100086083F0010000F00100886008BDB812005022
:204ACC006E6208400000094094042A430000204310B51C4C00202070FFF7F8F918B12078DC
:204AEC0040F00100207000F00FFC18B1207840F002002070FFF76AFB18B1207840F00800D7
:204B0C00207001F067FC18B1207840F00400207000F088FF18B1207840F01000207002F0E6
:204B2C0081F918B1207840F02000207004F03AFE002808BF207803D0207840F04000207090
:204B4C0010BDC046D42C002038B5054601201A4C68712879B0B904F0B0FA2178002904BF91
:204B6C006FF00704051C15D0491EC9B2217039B904F024FD606803F0D9F90020687118E0C1
:204B8C00054613E004F099FA05462078FF2805D16FF00604284604F011FD0BE0401CC0B2D2
:204BAC000128207002D1606803F0D7F9284604F005FD0024204638BD841D002070B50646BD
:204BCC00B079F5680B28A5F108052CDA30790B2829DA04F072FA154CB27991000C3401EBDF
:204BEC00C20161184968E1B104F0E8FC30792870B0796870307AA870B179880000EBC100F0
:204C0C002018F1684068083003F0B6FAB179880000EBC10024186068406805F0DBF8002082
:204C2C0070BD04F0CBFC6FF0020070BDB016002038B519491A4C00204822C1F8F30F94F886
:204C4C00E200C1F8FF2F20B3012817D0022807D003281ED151F8310C00F024F80B2016E0CE
:204C6C0051F8315C2846FCF7E9FB40F2FF50A84202D8801CA842F1D2082008E051F8310CE9
:204C8C0000F08CFD054800780028E7D0052084F8E400FCF741FF38BD39400C4042A4000093
:204CAC002415002038B51A4CA0F5C060D4F8B810C4F8D4000029B8BF49420028B8BF404217
:204CCC00814220DAB4F8BC00124D30214FF47F4208230090284601F001FEB4F8C000042145
:204CEC004FF4F80212230090284601F0F7FDB4F8D00020214FF440620A230090284601F095
:204D0C00EDFD012000E0002084F8D80038BDC0462415002000A00C402DE9FF410E460546F3
:204D2C00194C7188E08A81420CDCB188814209DBF088218B884205D13089618B884208BF1A
:204D4C0018271DD0052002F0EDF87788B388ADF80270F288ADF804303189ADF80620804630
:204D6C00ADF80810A08AADF80000684604F048FE071C05D1A57304F1F000414602F09AFBAF
:204D8C0038460090BDE8FF81E00800201A4898B5D0F8781203680F0F03F0FF03802B28BFBB
:204DAC00002301F077FD4FF0FF3478B1401E07D0401E012802D9801E19D01AE0BFB118E044
:204DCC00381C12D0801E14D1143311E03846401E0BD0801E07D0001F03D0401E09D1163337
:204DEC0006E0152405E0142403E00A2401E00A335CB2204698BDC046A010005070B50D46F5
:204E0C001549194C134A09680646241F04F11400B2FBF1F104F0E2FF002808BF002017D003
:204E2C000E4805700E4D20682978B1420CD02E7004F07BFE04F0A8F92878012804BF0948CB
:204E4C00206103F0C3FD2060002100B10121084670BDC04620A10700FCA40000D12C002098
:204E6C00D02C00201AA50000342C0020B0B51A4C1649606902F03AFFFF20E0700025657044
:204E8C006821A5700120FFF7B9FF002808BF2F1C1AD080206071611D01226B2003F01CFACF
:204EAC0004F0FCFD0B480A490068B1FBF0F004F081FF00F0B7FD071C05D001F0E3FDFFF788
:204ECC000FFD01F0EFFF25703846B0BD07000080A0860100FCA40000D81B0020B0B5ADF1F7
:204EEC00400D04F0B7FF044600213C220823684604F048FF11484168069181680068049054
:204F0C00104818380068002205900D480891694604F034FF071C0DD004F0CFF80546384676
:204F2C0001F01AFB30B1284604F048FB204604F085FF01E001F0E4F810B0B0BD889E0000FA
:204F4C005998000050160020F8B5174A174B184C121D22F003019C4621605E1A20682568C5
:204F6C0060606768A660002001E025F8020BAB42FBD84FF6FC75B3102A4001EB830323F835
:204F8C00040CACEB0202E82315403B80EC3DA1F8E850E83144F8081CFFF79CFB44F8040CF3
:204FAC00606844F8080CF8BDD62C0020F83F00205016002038B504461848174D001F026895
:204FCC006B68C2F30351C2F303405B0813D22B681D0511EB257103D41029A8BF0F2100E0DB
:204FEC0000211B0410EB237303D4102BA8BF0F2300E00023184640EA011002F47F4102F0E5
:20500C00FF03222C41EA004143EA010024BF02F08042104338BDC046AC3F00507C1300509B
:20502C0030B5401E4FF00004ADF12C0D0AD0401E04D0401E20D1FCF76FFD1DE000F060FE02
:20504C00044619E001A821462422082304F0D6FE06940D4DADF8144009490794012201AB0F
:20506C0005F1780004F0C6FE064A23462C2105F19C00009304F0D2FE20460BB030BDC046FB
:20508C00C95500003D4C000024150020F0B50E4615461C460746ADF11C0D4FF6FF7103AAD8
:2050AC0003F0F4FE0246059212B300200090BDF80C000DF1120329460190FF2002903846A8
:2050CC00A047041C0FD16889ADF81000700804D3384604A903F0E4FF03E0384604A904F0E5
:2050EC0005FC041C05D004A81B2103F0DDFE00E01524204607B0F0BDF8B506AF38881D4690
:20510C0014460E46002818BF0B202AD10846694603F066F9012803D1002028800120F8BDC6
:20512C00BDF800004AF681210027401A12D0401E0AD0401E1CBF2F800A2711D1012028806D
:20514C00F068007820700BE002202880F0680088208005E00E222A80F1682046FEF704FF38
:20516C003846F8BD2DE9F041054615F8017B90460E461CE0B8F1000F05F101050BD0FF2CF5
:20518C0009D8022015F8011B401E41EA0424F9D101E0042C02D315F8011B00E03946304678
:2051AC002246FFF71FFCA61901E006F8010B15F8010B8742F9D115F8014B002CE9D115F8C8
:2051CC00010B2C7800022418D4D1BDE8F08170470146184880B5983000688A0CC0F3836724
:2051EC00C0F38F2022D241F3072100290BD54A420021400805D17F0806BF0127381C4FF610
:20520C00FF70521EF5D1002910DD4FF6FF72400040F00100824207D2780040F001070F2F15
:20522C0092BF01200F27101C491EF0D140EA074080BDC046B8120050164880B507683FB3A4
:20524C0015498B6803EA5300C00E21D2134A106880081DD2486880081AD21068096810F097
:20526C00050F4FEA114101F0F00101F5E0710AD1B9420DD2190F38BF40F00100D90E38BF77
:20528C0040F0040003E0B94202D920F00500106080BDC04628500940AC3F00500000094008
:2052AC0070B50646880F26D301F0D2FE124804F095FB134DA81C0078012803D006F138007B
:2052CC0004F088FD0D4800240460022002F026FD1120FDF74DFE307C10B90E20FDF748FEE8
:2052EC002846084A04721178447221B11470C830042104F035F970BD55340000000004607E
:20530C0020110020BC2C00201CB500204321FFF775FDFE200222694604F02EFB10B3BDF8E5
:20532C000000BDF8001045F249440006000C40EA21208442ADF8000014D1FF206946022219
:20534C0004F01AFB70B1BDF80000BDF800100006000C40EA2120B0F5805FADF8000008BF30
:20536C00012400D0002404F099FB20461CBDFEE770B544688668D4F8A40003F03CFD1348A6
:20538C000025C56005601248361D05603068FDF7EFFD04F1100004F0EDFC04F12C0004F0D1
:2053AC00E5FC04F1600004F0DDFC207818B904F17C0004F0D7FC04F1C80003F07DFC04F020
:2053CC0059FD84F8DC5004F051FD70BD04280040100405422DE9F041071C0E4604D0144C9B
:2053EC002068F5B2A84202D80220BDE8F08104F124004FF0FF31804604F0F0FC04EB8504D0
:20540C009434206860B979680120A84027603246084308497860384602F032FF002400E015
:20542C000124404604F0D6FC2046BDE8F081C04678290020007FC7672DE9F8438146EFF305
:20544C001188202080F311880125114E114CF561114F6560F86A016A14208847D9F810004D
:20546C00810C14BF000C0420A06138680268232100209047C6F88052206820F4C02040F40A
:20548C0080302060356088F31188BDE8F883C0460000244300200940840100102DE9F04155
:2054AC0005462C68287A6E6804EB8000C1632F7A90460823ADF1380D3022002101A804F059
:2054CC00B1FC7801012100220695A0EB870024187079ADF81C1001AB241D0092064A31793A
:2054EC000990204604F09AFC4146284603F038FA0EB0BDE8F081C046116800007FB54668C8
:20550C0019B98068057D447D01E00D784C78FF2D1DD0FF2C1BD0104840EA05010091FE23EF
:20552C00029320436946019006F19800FEF76AFDC6F8A40058B129460D2202F08BFED6F8EA
:20554C00A40021460E2202F085FE002001E04FF0FF3000907FBDC04600200084D0B50446DB
:20556C0004F044FC00F0F8FF071C08BF6FF002041FD003F0A2FD0146A2880F4800236030B9
:20558C0030F80C6F5EB902804760A26882602373786820610024084604F010F809E096420A
:2055AC0008BF6FF00204F6D05B1C0B2BE8D300F0A7FD2046D0BDC046501600201648144AB6
:2055CC00144908B5E4300078801E0A2807D8DFE800F01814100614100614100609C004F060
:2055EC0011FC11E010688008FCD250688008FCD20AE008688008FCD306E008688008FCD268
:20560C0002E010688008FCD3FCF786FA08BDC04634600C4038600C402415002010B504F0B9
:20562C0029FC114C611C097829B10E490C6804F01DFC204610BD04F019FC04F027F80DA22E
:20564C000CCA03F069FFA26C002314001B1807A044EB010490E80600C91842EB04021046D2
:20566C00001C10BD0430044020110020000000127A00000000093D00000000007CB502F077
:20568C00E3FF03F011FE124C002525810526E680257025710F48057002F034FE18B102F08A
:2056AC0047FE04F039F802203146012203F064FB0F208DF8040001A804F0B0F80095064985
:2056CC00E38804F124004FF47A7200F0DDFF7CBD101B0020D22C00201D94000038B5154D9D
:2056EC00041C09D10020287002F0F4F803F0B6F905F1240004F0C6FA022C1AD12C460220F1
:20570C0042F210710A252070E0886570B1FBF0F0E0600020A070E0700749087002F02EFB9D
:20572C00208900F0FF0002F0D5F804F1240004F0A7FA38BD101B0020D32C00202DE9FC41A6
:20574C0002F032FF1248114D124F134E046805F1180812E0404603F00BFDE869AB69ADF8A1
:20576C0006006946ADF80230000CADF80400180CADF80000002000F0F9F838780628E9D07B
:20578C00B6FBF4F004F016FBF7E7C046FC0B0020FCA4000020050020400D0300134910B502
:2057AC000A684BF2F5214843040AC2F38140012806D102F05DFF01F02DFC604304EB90542B
:2057CC000C4901F1E500007830B90948006820F07F402418640802E0002081F8E500064852
:2057EC000460210C41600123836010BDB43F005010200940241500203C600C401FB5684618
:20580C0004F00AF93221ADF8021000208DF800008DF804006946FEF78FFE0E4C241D206001
:20582C0008B904F09BFA02A804F094FA20684FF0FF3104F0B0F9206805490122FFF72EFE37
:20584C00206800F063FE4FF0FF3004F0B3FAFAE7E9980000C40E0020B0B5044604F042F922
:20586C0030F0010008BF6FF004041ED004F0BEFA054603F022FC01460D480B226C3030F84A
:20588C000C7F6FB1A388BB4208D1406800680022854208BF0122A260002403E0521EEED135
:2058AC004FF0FF34084603F089FE2046B0BDC0464416002008B5012003F02EFB01281DD03F
:2058CC000F4834210122002301F06CFA002808BF002014D00B48006802F042FF03F0F0FCB3
:2058EC000A4A93681168D060C01A074BA1EB91014343180C884228BF011C1160012008BD8B
:20590C0000A00C408000001040420F00A02C002098B5154B1B1D18680004070C21D002F023
:20592C00A7FE104991F90720824205DD10F1800FB8BF6FF07F00C8718C88BC4210D80A687C
:20594C00D3F8D40F801A801C1F2888BF1F203F1B4008C7404FF6FF70E719B84238BF071C19
:20596C008F8098BDC42C002030100940144ADFF854C008B50B46A0B1401E0CD0401E1ED1EF
:20598C001846036802F11C010B6040684860CDF800C090680FE01868143210605968516053
:2059AC0008BD1846036802F10C010B6040684860CDF800C0506824320923FEF753FC08BDCA
:2059CC00001800207D64000038B50C4620B142680121A1400A4201D1022038BD8A43104B88
:2059EC0042600025A3F1600000EB84012218C1F8945002F140010978FF291ABF406850F8F3
:205A0C00211044F020410548FDF7C2FF20464FF0FF3103F0ABFA284638BDC046007FC7672F
:205A2C00D829002010B503F06DFEF0B101206821FFF7E4F9002808BF002419D00D4C207A09
:205A4C0040B10E480C490068B1FBF0F004F0B2F900202072611D7520012203F08DFF20B1D3
:205A6C006079712808BF012400D0002404F016F8204610BDD81B0020A0860100FCA40000B9
:205A8C00F0B5154C241F65682879ADF1340DFDF743FB04F0EFF9266807463078A0B901A8D1
:205AAC0000213022082304F0BDF90694A87900230990084A0093697901AB301D04F0AEF9C0
:205ACC000120307003F038F9384604F0CFF920460DB0F0BD919B000058A4000098B5134CF7
:205AEC000C342068011D4068406810B180472168091D08680830016809B94768A7B10C4AFD
:205B0C001C321768002FFCD00023136029B1084680472068001D00680830406800B18047C7
:205B2C000448503803F098F898BDC046201100200010044051000706F8B5074604F09AF923
:205B4C00124C06462079E0B1401EC0B22071C0B904F1C800082103F003FD97B1E068703082
:205B6C0003F02AF9E0680A4DC0683F1A286804F1A405B7FBF0F1284604F074F9284604F0F1
:205B8C006DF9304604F072F9F8BDC04620110020FCA4000038B503F0B5FD18B3012068210B
:205BAC00FFF72CF900B3114C0920611D012208700D466B2002F090FBA0B13F206071294621
:205BCC0001226C2002F088FB0021617050B1211D1C20012202F080FB20B13A2029460122DB
:205BEC0003F0CAFE03F05AFF38BDC046D81B00201549096821280ADC212819D00C380FD031
:205C0C000D380FD0001F0FD0C01E0FD01AE0253810D0001F10D0401E10D0401E10D011E0F6
:205C2C00086870474868704788687047C8687047086970474869704788697047C86970471C
:205C4C00086A704700207047F001002038B544688568D4F8A00001F081FCD4F89C0003F06C
:205C6C00CAF82968486820F00200486004F11C0004F080F804F1380004F078F8287BFDF7B6
:205C8C0077F9207818B904F16C0004F06BF804F1C40003F011F804F0EDF8002184F8D91053
:205CAC0004F0E4F838BD704738B5134C0B4611461A4670B1401E06D0401E1BD1012A04BF7B
:205CCC000878207038BD022A14D10888641C208038BD0E2A0ED104F10C050E222846FEF74D
:205CEC0043F906480090A06804F11C0208232946FEF7B8FA38BDC046B418002005510000E5
:205D0C0038B5134D95F8E100002410B91148007860B104F0AFF895F8E310002906BF0121C2
:205D2C0085F8E310012404F0A1F80CB1002038BD022002F00BF80E20FDF7EEF902F0A0FEB3
:205D4C0001280EBF0120002085F8E20038BDC0462415002042A400007FB5866831684568FF
:205D6C00486820F0020048603168486920F00F00486130680321016202A803F0EBFF0B48A2
:205D8C0000680468286900906869074B0190297E03EB81010A6A297B306853F8213003994F
:205DAC00A04700907FBDC04698A10000C40100101CB5144C2078062815D040F205300DF1CF
:205DCC000201FCF70DFA9DF8020000280CBF0120002001210DF101028DF8010040F20530DF
:205DEC00FAF7FEFE207806280AD101248DF8004003F0B2F940F205306A462146FAF7F0FE24
:205E0C001CBDC04620050020F8B5054604F022F8104C0646A41E20780A280DDB04F02AF81A
:205E2C00618841F02001618004F020F80A48006803F0D0FF002703E0401C0127C0B2207022
:205E4C00304603F0FBFF1FB1284602F0C5FEF8BD0020F8BD421700202805002038B5054658
:205E6C006C68D4F8A810237A002203B9012263689847D4F8BC00D4F8C01081420FD08169C6
:205E8C002846C4F8BC10FEF781FAB0F1FF3F0ED10320207204F12C0003F098FF38BD00205D
:205EAC00C4F8A800C4F8BC00022001F037FF38BD30B5002124220823ADF1240D684603F0D5
:205ECC00B9FF0D4C012529466A468DF8185004F1140003F0ABFF01F099FA03F055F9257370
:205EEC0002F074FD05492060FF20087004490020087009B030BDC046302C0020D12C0020A4
:205F0C00D02C00209EB50124047003F0FBFB10B903F0C4FD9EBD20466821FEF76FFFB8B1F1
:205F2C000C493B200622891C0C4603F025FD0746684603F01DF903F0B1FD4FB103F098FA47
:205F4C0000982081019FA781000CE080380C60819EBDC046221B00202DE9F0410C46804686
:205F6C0003F098FE002700B1012717B1404602F023FF0D4D28684FF47A76B6FBF0F080B24A
:205F8C0004FB00F1404603F06DFF2868B6FBF0F080B204FB00F1404603F07EFE17B140469A
:205FAC0003F05CFFBDE8F081FCA40000012838B51ED1012002F0B0FF01281BD003F098F972
:205FCC000D4D0E480122322305F1E00100680A70B3FBF0F404B914463035284602F0ECFE7C
:205FEC002846214603F03EFF284603F037FF01E001F008FC002038BD24150020FCA4000015
:20600C00084610B500F0005100F00400084317D0012002F081FF0E4C01280CD00949096845
:20602C006C3432222046B2FBF1F103F01BFF204603F014FF10BD044803F0D0FC034804606B
:20604C0010BDC046FCA40000ED050000001004405811002038B51248104C0168114D0C403C
:20606C00E1430160A10908D34068800905D328464FF40051C83003F073FA14F4602F0BD035
:20608C00284600F19C010A6804F46024FC3014430C60002103F064FA38BDC04620000E0080
:2060AC00081004402011002098B5044603F0E2FE8446104890F8A310C90803D390F8A2107F
:2060CC00A14213D0B0F8A0300B4F012202FA04F11943A0F8A010391D0B6804F10C07BA4099
:2060EC0093430B600F680FB900210170604603F0BDFE98BD201100200810044000BF7047B6
:20610C0008B5FFF7FBFFFEE738B50D4C0546A06820B10C48B0F1FF3F00D080470A480068F3
:20612C008047606810B1014628468847206800B18047064800688047FFF7E2FF38BDC04630
:20614C00601D0020FFFFFFFF8C1D0020901D0020DCB5044603F04AFE01F068FD064603F059
:20616C00C1FC30F0010014BF002E6FF0040017D0606858B1B0F1FF3F05D0694601F03EFD8A
:20618C0030B107460BE04FF0FF3000E0002000907068009903F022FE002700B901273846D2
:2061AC00DCBD2DE9F0478046D8F80450D5F8880000240474D5F88860D6F8049003F05AFEB0
:2061CC0005F1D8078246387848B119F0704F02D1042001F0A3FD022001F0A0FD3C7050462B
:2061EC0003F044FEAA68C5F88840404631469047BDE8F087F8B5114C6678E578182002F068
:20620C00CBFC071C19D00421002203F0B7FA304602F0EEFB38727D720020B87204F148063D
:20622C00FE6004F158033B6104F120027A6102F0C3FC034A394601F073F8F8BDE008002080
:20624C00319C00002DE9F04104461148401C90F8008016460D46102002F09EFC071C12D0A7
:20626C000421072203F08AFA404602F0C1FB38727C72BD72FE6002F09FFC044A394601F0A9
:20628C004FF8BDE8F0810420BDE8F0815B9C0000E0080020F8B5044603F0A8FD00F05CF988
:2062AC00071C19D002F009FF84460D480021603030F80C6F6EB94FF6F87202804760002535
:2062CC00856021717868A060604603F077F92846F8BD491C0B29EBD3FFF712FFF8BDC04616
:2062EC00501600200F4908680028FCD1104A131D0D49186820F0030001430C480068C00814
:20630C000CD2106810F0030F0AD041F003001860106800F003000328FAD101E041F001010E
:20632C00196070470C00684204000020B03F005000400340F8B516460C4603F09BFD024657
:20634C000F484178832554B1641E02D0641E10D00DE08179012904D0B0F8A01005E0876AAB
:20636C000FB9802506E0806A818B318002E0032500E03170104603F079FD2846F8BDC046A4
:20638C00201100202DE998430446276E9946904607B1B8470020022100EA090001EA08013A
:2063AC00002808BF00290BD104F1580090E8060008EA010109EA0200002808BF002907D03A
:2063CC0004F1680080E8000304F1380003F002FDBDE898831CB500204521FEF70FFD00288A
:2063EC0008BF00241BD07E206946022203F0C4FA90B1BDF8000044F6541181420CD17F20C5
:20640C006946022203F0B8FA30B1BDF80000B0F5987F08BF012400D0002403F03FFB204633
:20642C001CBDF8B506AF38881C4616460D46002818BF0B201BD10846694601F0D1FF012847
:20644C0008BF012013D0BDF800204AF665210020914207D0BDF80020491C91421CBF208078
:20646C000A2004D101212180E96809783170F8BDF8B506AF38881D4614460E46002818BFF4
:20648C000B201BD10846694601F0AAFF012803D1002028800120F8BDBDF800104BF68132EE
:2064AC000020891A022984BF28800A2006D808212980F1680A68226049686160F8BD7047F2
:2064CC0011481CB500788DF8010003F039F902F0E7FF03F02BF903F033F90DF10100012134
:2064EC0001F094FC6846012101F078FC044603F01DF9002C18BF6FF0010004D19DF80000BA
:20650C004008E8D200201CBDACA4000038B50546104968682B7A02681801A0EB43000B5A68
:20652C00D16840F2011018400843D0602C6803F0A1FC297A64184434217839B90121217007
:20654C0003F094FC022001F001FC38BD03F08EFC38BDC046A4A200002DE9F843804602F0E0
:20656C00ACFD0F4C08250026814654F80C7F5FB93046C4F800800146A6600A4603F0E6FBDF
:20658C00606018B9FFF7BCFD474501D1264601E06D1EEAD1484603F011F83046BDE8F8839E
:2065AC0050160020B0B5054603F020FC044603F099FA30F0010008BF6FF0040414D002F095
:2065CC007CFD0A4A002132F80C7F4FB153681B689C4204BF2971002404D0491C0B29F2D33D
:2065EC006FF0040402F0EAFF2046B0BDB01600207CB5114D04460E46600807D3B0B20021A2
:20660C00009001220B46284600F068F9A00807D3B0B20090002102220123284600F05EF919
:20662C00E00807D3B0B2009000210C220223284600F054F97CBDC04600A00C4010B5114C2E
:20664C0001201121621DFDF731FF022005212246FDF72CFF052022460146FDF727FF032058
:20666C00132104F12802FDF721FF042022460146FDF71CFF0620122104F11602FDF716FF56
:20668C0010BDC0465CA10000F0B50E4615461C460746ADF1240D002124220823684603F019
:2066AC00ADFB0E9806900A4800684FF47A716B46B1FBF0F082B2002031465443ADF81000AE
:2066CC00A8B205944243384603F094FB09B0F0BDFCA4000038B50546287B00F00F0002282C
:2066EC0018D10D4C2078012814D0FEF797FFA9686FF070458908A1EB900085420ADDB0F1FB
:20670C00704FBCBF05490844E168C96801F57A71814200DB002038BD20110020F6FFFF1F27
:20672C0010B50178A23902D02E391AD010BD4179132918D100890C4C01280AD12046F038F2
:20674C00817B022905D1F03003F09CFA02F004FD10BD052000F0E6FB0146204600F0AAFE8C
