:20000000F83F0020596D000001CA011001CA011001CA011001CA011001CA011001CA01109B
:1C00200001CA011001CA011001CA011001CA011001CA011001CA01103FCA011082
:20003C002DE9FE4F0CAF3C8881460D4608469846164601A908F01AFA012808BF01204CD03D
:20005C00BDF80400DFF898A042F6021100274FF0FF0B401A2DD048F26F11401A31D0401E37
:20007C0013D0401E23D104BBB8F1010F1BD1307848B1E9680870E9685646701C884220D12D
:20009C004FF0020B20E080271BE074B9B8F1010F09D13078E9680870E96856468E4210D187
:2000BC004FF0010B10E00D270BE00B2709E00A2707E00094484643462946324606F070FCA3
:2000DC000746BBF1FF0F07D05046001D006818B1016809B1584688473846BDE8FE8FC046FC
:0400FC009C1700202D
:200100003C000000000000000000000034010000000000000000000001000000000000006D
:1C01200000000000000000000000000001000000000000000800000000000000BA
:20013C00340000000000000000000000680100000000000000000000010000000000000005
:14015C00010000000000000000000000080000000000000086
:2001700030000000000000000000000098010000040000000000000001000000FFFFFFFFA5
:10019000FF00000001000000080000000000000057
:2001A0002C0000000000000000000000C4010000040000000000000001000000FFFFFFFF4D
:0C01C000FFFFFFFF08000000000000002F
:2001CC0034050000E401000099A1011095A70110A5C2011009B2011045B80110000000000B
:0801EC000000000030000000DB
:2001F400280000000000000000000000140200000000000000000000FFFFFFFF00000000B1
:080214000800000000000000DA
:20021C00300500003002000069C201106DC101101FC2011095BA011000000000000000008E
:04023C002E00000090
:20024000300500005402000075C20110A9B601109DBF011049B601100000000000000000DE
:040260002F0000006B
:200264002400000000000000000000008002000000000000000000000000000008000000CC
:040284000000000076
:20028800240000000000000000000000A40200000000000000000000000000000800000084
:0402A8000000000052
:2002AC00240000000000000000000000C8020000000000000100000000000000080000003B
:0402CC00000000002E
:2002D00000000000681C0020040000000000000000000000200000007001000030000000A5
:2002F0001C020000701C00200400000000000000000000000C0000003004000018000000C8
:2003100040020000781C00200400000000000000000000002400000048040000180000004B
:2003300000000000801C002004000000000000000000000010000000A00100002C00000010
:20035000CC010000881C00200400000000000000000000002000000064020000240000004E
:20037000FFFFFFFF901C0020040000000000000000000000280000008802000024000000CB
:20039000FFFFFFFF981C0020040000000000000000000000580000003C01000034000000B0
:2003B000FFFFFFFFA01C0020040000000000000000000000100000006004000018000000C5
:2003D000FFFFFFFFA81C00200400000000000000000000001C000000AC020000240000003B
:2003F000FFFFFFFFB01C002004000000000000000000000038000000F401000028000000AC
:20041000FFFFFFFFB81C002004000000000000000000000054000000000100003C00000047
:1804300018000000000000000000000040040000080000000000000050
:1804480018000000000000000000000058040000080000000000000020
:18046000180000000000000000000000700400000800000000000000F0
:08047800010000006CA500006A
:0404800009F016BCAD
:040484000100000073
:0404880000000E0062
:04048C0000000F005D
:040490003200000036
:040494000100000063
:04049800EC1B002039
:04049C00000200005A
:0404A0000000000058
:0404A40001CA011078
:0404A8000000000050
:0404AC00000000004C
:0404B0000800000040
:0404B4000000230021
:0404B800401A0020C6
:0404BC00010000003B
:0404C000041C0020F8
:0404C400080000002C
:0404C8000000000030
:0404CC00000000002C
:0404D0000000000028
:0404D4000000000024
:0404D8000000000020
:0404DC00010000001B
:0404E000101B0020CD
:0404E400060000000E
:0404E800010000000F
:0404EC00A81900202B
:0404F0000000000008
:0404F4000000000004
:0404F80000020000FE
:0404FC0000000000FC
:02050000704742
:020502002A00CD
:020504000100F4
:020506002600CD
:020508002E00C3
:02050A002F00C0
:02050C003000BD
:02050E000100EA
:0105100001E9
:080514000300000010A5000027
:08051C000000000000000000D7
:0405240000000100D2
:0405280000000300CC
:04052C0087C401106F
:04053000380500008A
:040534003805000086
:0405380000000000BF
:04053C00900000002B
:040540009000000027
:0405440000000000B3
:04054800041C00206F
:04054C007D98000096
:040550002000000087
:0405540010A40000EF
:0405580030A30000CC
:04055C000DC30110BA
:04056000676E0000C2
:04056400A77000007C
:0405680099C801101D
:04056C009BC8011017
:040570000000000087
:040574000BA30000D5
:04057800DCA1000002
:04057C00F4A10000E6
:04058000C4A1000012
:0205840008006D
:0205860009006A
:02058800010070
:02058A0000006F
:01058C00016D
:040590000000000067
:040594000000000063
:04059800000000005F
:04059C00000000005B
:0405A000359D000085
:0405A4002D760000B0
:0405A800498900007D
:0405AC00457F000087
:0405B000437C000088
:0405B400757F00004F
:0405B800A95700003F
:0405BC00619A000040
:0405C0004D5E00008C
:0405C4003D8E000068
:0405C800C19B0000D3
:0405CC000800000023
:0405D0002400000003
:0405D400180000000B
:0405D80028000000F7
:0405DC0020000000FB
:0405E0003C000000DB
:0405E4000C00000007
:0405E80034000000DB
:2005EC002DE9FE43B04C0F460646F80B80F03781B80880F0C9806069B90F69D2A07A002849
:20060C004AD138094AD3002501266570A748267209F028FAA6492A4604F14C0009F06FFB8F
:20062C00607901281FD1A079E8B9DFF88882266AD4F81490D8F8000070B109F073F8A0EB41
:20064C0009004346000B8619E0611868B6EBC01F28BF256208D2266204F1C8004FF00051F4
:20066C0008F0C8FF31E0667104F1380140F60900088094F8450000F0F00040F0010084F874
:20068C004500658794F8440000F0F00084F84400E563894E316018E0380914D2B80BC0F06B
:2006AC00FB8004F1280009F035FB061C08D0706830B17568F068B6F91C1082A20CCAA847C1
:2006CC0027F40057E8E00020A07227F00807E3E0D8B1042008F06AFCB8B109F023F8A06130
:2006EC006169814226BF401A401E401A000BF060F06840F6C41100F58D708142F06003D3D1
:20070C0040F2EE22824200D9F1600025D6F818C06561BCF1000F0FD094F8450010F00F0F82
:20072C000AD1708C40F60901814205D167A20CCA30466FF48071E047604904F14C002A46D3
:20074C0009F0DDFAA07950B10220ADF80000684608F0CEFAA571BDF80800A4F8A00001203E
:20076C0060702079A846401C2071192084F8078009F0F0F8756925B156A20CCA304641468D
:20078C00A84727F0005787E004F13009484609F0C1FA061C5AD006F07AFF4FF00008B269FC
:2007AC00C6F818807068B8B1F07F42F00202002300F00700401E07D0401E03D0801E06D1FC
:2007CC0046A002E047A000E048A090E80C007568F068B6F91C10A84709F0A4FB0546B4F983
:2007EC003600401C6FF31F30E086206B1F30017801F07F010170484608F03CFE284609F0E8
:20080C008DFBF068B0F99410B4F9362091421DD1217801291AD090F8965095B9056885B1CF
:20082C00E1680968B1F1FF3F10D0254909687030B5FBF1F109F06EFBF068703009F066FB6D
:20084C0004E080F89680404605F0CCFA484609F061FA27F0020708B147F002071CE009F0E9
:20086C0061FB014604F12C0009F054FA0646B569084609F053FBA8080CD25EB1B069A843C1
:20088C00B061706830B12A46F068B6F91C1075680023A84727F4804727B104F1C8003946FA
:2008AC0008F0A8FEBDE8FE83580E0020A9550000498B0000A02C002000100440892800001F
:2008CC0064A5000000000000200000000000000000000002000000000000000400000000DD
:2008EC0000000010000000000000004000000000000000202DE9FE430646DFF8DC82DFF8CD
:20090C00DC92B2780024101C00F03581801E00F00D81401E012840F2E180801E00F0A88051
:20092C00401E7BD0401E59D0083800F04681801E40F046814546B08895F83E70ADF800004C
:20094C00052F45D001208DF80A0005F1CC0009F0E5F995F83E0001281BD0042819D00328DA
:20096C0006D0022804D0F28831897089B38907E0B5F84020B5F84210B5F84400B5F8463027
:20098C00ADF80220ADF80410ADF80600ADF8083020E0B5F84000F1888842D8BF081CADF8B3
:2009AC0002003189B5F842008842D8BF081CADF804007189B5F844008842D8BF081CADF83D
:2009CC000600B5F84630B0898342D8BF031CDDE78DF80A40684609F05DF8F1E0454605F14D
:2009EC00F00009F09BF97078002840F0E980F088E882308928837089688305F1CC0008F0E1
:200A0C0099FF002840F0DC80AB6A002B00F0D8801B68E88A298B6A8B9847D1E0B08807F099
:200A2C00C7FF45462146062205F1380004F05CF9EC822C836C83B079687305F1CC0009F088
:200A4C006DF905F1F00009F069F901244FF6FF706F79A8824FB9B079082814BF042005207B
:200A6C00A870204608F072FDAAE00320A870A7E0707858BB311D0A68454605F13800026063
:200A8C00898881800627AF707089A882F089E882308A2883708A6883F0784446287394F883
:200AAC003E00012818BF02280AD11F2006F0F6FA4FF47A71024604F1CC00514306F05CFDA8
:200ACC00F0787289311D06F0E7FC7BE0707831286FD14D4604202870204623E07778002FCE
:200AEC0067D14546698AA878032A13D02A796F7921B9012A14BF6C712C7106E0174304D013
:200B0C0005F1A80006F038FDA878072814BF0420062007E0062807D02879002808BF0324F1
:200B2C00DAD00220A8704DE00724D5E77078751C00283ED14246F7789078D1799FB9022836
:200B4C0016D0072814D0062802D1517901290FD103280DD002F1A80008F0ECFE40B901201C
:200B6C0008F0F4FC04E08732204605F069FC28702878F0B924E07078D8B9454602201021E8
:200B8C0005F1480206F08CFF0320102105F1580206F086FFF61C05F12C00B7883168878056
:200BAC0005F1680201600120A979A87005F048FC40B108204D46287004E0B08808F05EFF1F
:200BCC00012C06D14546686A18B1016809B1A8788847BDE8FE83C046E0080020E20800208F
:200BEC00F8B5A0F2013517460E46022D40F20C818649874C874A884B2D1F0F2D04D9143DD9
:200C0C004AD0AD1E1CD011E0DFE815F0BA00B500EB00DB00AE00A700FE009F00980010006B
:200C2C001000900086007A006F006200282880F2EB80022E40F0E880398806F05DFDF8BD7C
:200C4C00012E40F0E1800A469078012800F0DC80D1783878D07081B9002800F0D580107893
:200C6C00012800F0A080042800F09D80062800F09A80052800F09780F8BD3878002840F0CD
:200C8C00C3801078032800F09980072800F09680052800F09380F8BD012E40F0B5803878EB
:200CAC00012840F0B180254605F1F00008F042FE002840F0A98004F13E01002004F0AEF9A5
:200CCC00002840F0A18004F1CC0009F027F8F8BD022E40F0998038880A28C0F29580B0F52A
:200CEC00486F00F39180114614E0022E40F08C803888B0F5FA7F80F2878011460880F8BD8B
:200D0C00022E40F08180388806287DDBB0F5486F7ADC1946891CF1E7022E75D1388806282E
:200D2C0072DBB0F5486F6FDC1946E7E7012E6BD13878062868DA1146891F0CE0012E63D1AD
:200D4C003878042860DA093105E0012E5CD13878082859DA08310870F8BD012E54D1387879
:200D6C00042851DAC91DF6E7012E4DD1387804284ADC891DEFE7022E46D138881031BDE796
:200D8C00012E41D10A46D07801283DD091783878907061B9002837D01078012803D0042886
:200DAC0018BF052830D1012008F0D0FBF8BD387850BB1078022818BF052825D108F06AFDC3
:200DCC00F8BD254600211F2205F18704204603F08BFF39463246204603F0F6F90020EE7163
:200DEC000EE0254600211F2205F16804204603F07BFF39463246204603F0E6F90120AE7188
:200E0C003146224605F01CFBF8BDC046E2080020E008002024090020200900202DE9F04F23
:200E2C000128ADF1140D40F0F280DFF81492D9F8DC00012840F0E9800220C9F8DC0009F078
:200E4C0061F80290012005F0B1FE20B101210646C9F8DC10D5E009F051F803906E484FF06B
:200E6C000008C0F80080012008F0A0F8012818BFCDF8008004D1404605F096F901200090A0
:200E8C0066486E4CC0F800801934D4F8FF0F112008F042FE00280CBF46460126102008F048
:200EAC003BFE08B146F002060F2008F035FE08B146F004060B2008F02FFE30B1584800686A
:200ECC005849006B0246088890470A2008F024FE0028404618BF01204FF0805B0BF5DC75F6
:200EEC0028B128685049006B0246088890474F480127076028688069014646F020008847BF
:200F0C004B48076008F002FE00F001010191400815D2484808F066FD8246BAF1040FF8D0E7
:200F2C00BAF1010F06D1DBF8D801406802464148032190474049086820F0030008604046F9
:200F4C0000F08EF92868D4F8FF1F806B8047019801280ED0BAF1010F06D1DBF8D80140685C
:200F6C0002463448394690473349086840F0030008602A4807602868406901463046884726
:200F8C000B2008F0C9FD28B128682649C06A0246088890470A2008F0BFFD28B128682249F9
:200FAC00C06A024608889047204807600322C9F8DC201F4BC3F800802868406B01463046FE
:200FCC0088470128F8D1042005F0F0FD124807601A48D4F8FF1F01688909FCD300980128A6
:200FEC0002D1384605F0E0F808F08AFD082005F0DDFD06460398C9F8DC7008F07BFF04F0F7
:20100C000BFE029808F072FF02E0042600E00126304605B0BDE8F08F0C400940000222435A
:20102C00B80100105AA1000056A100002820086080010443004003402422084014100940F3
:20104C00F01300202DE9F041834E07463068144688468047814D211269704046A8702C7061
:20106C00010A3846E97008F0C1FB431C3A462946F02004F0C7FA0021284604F0DCFA70688A
:20108C006E782D78804705EB062528B2002848BF041C2046BDE8F08170B56F4E054630686D
:2010AC0080476E4C002228121346607021462570F12004F0A7FA0021204604F0BCFA65786E
:2010CC0070682478804704EB052420B270BDF8B5614C0546206817460E4680473846294620
:2010EC00B0F5807F88BF4FF480705C4D2970030AEB700022A8700F126F7013462946F22008
:20110C0004F080FA3146284604F095FA60686E782C78804704EB062420B2F8BDF8B54E4CED
:20112C000546206816460F46804733463A46B3F5807F88BF4FF48073484E281270703570E6
:20114C001F0AB3703146F770F32004F05BFA0021304604F070FA606875783478804704EBF1
:20116C00052420B2F8BD2DE9F0413B4E8046306817460C468047394D404600222870001237
:20118C00AC701346AF71294668702012E87020142871201668713812E871F42004F032FA2A
:2011AC000021284604F047FA7068AF782C78EE786D78804704EB074000EB066000EB052013
:2011CC00BDE8F08170B5244D064628688047304608F00CFB214C431C3246F520214604F08B
:2011EC0011FA0021204604F026FA686865782478804704EB052420B270BD70B5164E044643
:20120C0030680D46ADF1680D80476846214608F026FB204608F0EAFA431C294603EB0D00C4
:20122C0008F01DFB284608F0E1FA0C4CC0186A46401C21460346F72004F0E4F900212046F6
:20124C0004F0F9F9657870682478804704EB052420B21AB070BDC046581C0020A42C002019
:20126C002DE9F84FDFF8E8B10746ABF13500DFF8D4910068800880F0D68007F00BFA06463D
:20128C0077480830D0F8008000254FEA28725FEA985002F101020AD2C6F13E0016F10A0FF3
:2012AC004FEAE000D8BF08208242B8BF021C624BD3F87C01C0F3046008F08DFB044618689B
:2012CC00C0F3044008F087FB12198246162A05DA12F10A0FB8BF6FF0090200E01522574BC9
:2012EC00574802F01F0141F4F8511980006810F0030F18BF0125C00828BF45F002050FB1F8
:20130C0045F00405494691F90700301A052804DA8879A84208BF888865D0DFF82CE10F2EF6
:20132C00A6F10F0C25DB0CEB0610A0F1F00C4FEA2C27072F88BF07273C46062C88BF0624F9
:20134C005EF82400042303EB84037446E3581B1A03F0FF04E80824BFC3F307200444A808A3
:20136C0024BFC3F307400444680828BF04EB136401E0002427465EF827E0E8080EF0FF03BD
:20138C0024BFCEF307200344A80824BFCEF307400344680828BF03EB1E63A4B2ACEB07276C
:2013AC00BAEB020004FB07F404F1800403EB1423D8BF0120342208F0FF0742437A43B2FBE7
:2013CC00F3F04FF6FF72824238BF101C802E80B2888005DA16F1800FB8BF6FF07F0600E0E9
:2013EC007F26CE718D71194A12681F280A604FF0000208D340F2FF11814206D24008521CC2
:20140C008142FBD301E01F208880124F0F38000942EAC00247EA0200CBF8FB0F0026CBF87F
:20142C00FF6FBDE8F88F0D4F0B4E494608203760891D0870BDE8F88F3C1100506E62084004
:20144C0024220840AC2C00209C130050082009403500094000E7A48030100940FDFDA400DA
:20146C00AC3F00502DE9F0411C4615468C4208BF854282BF00230022E5E0002C08BF002D5A
:20148C000AD100290EBF00286FF000006FF0000100F0E1F8BDE8F0815FF000085FF0000EF5
:2014AC00002C08BF8D429CBF2C1C0025070C47EA01470E0CB44208BFBD429EBF5FEA044446
:2014CC0044EA15445FEA0545070A47EA01670E0AB44208BFBD429EBF5FEA042444EA1564F3
:2014EC005FEA0525470847EAC1774E08B44208BFBD4200F29380870847EA81778E08B4425A
:20150C0008BFBD427CD8C70847EA4177CE08B44208BFBD4266D8070947EA01770E09B44257
:20152C0008BFBD4250D8470947EAC1674E09B44208BFBD423AD8870947EA81678E09B442AD
:20154C0008BFBD4224D8C70947EA4167CE09B44208BFBD420DD8E60146EA5566EF01B142E7
:20156C0008BFB84201D3C01BB14158EB08085EEB0E0EA60146EA95664FEA8517B14208BFE4
:20158C00B84201D3C01BB14158EB08084EEB0E0E660146EAD5666F01B14208BFB84201D332
:2015AC00C01BB14158EB08084EEB0E0E260146EA15762F01B14208BFB84201D3C01BB14143
:2015CC0058EB08085EEB0E0EE60046EA5576EF00B14208BFB84201D3C01BB14158EB0808CF
:2015EC004EEB0E0EA60046EA9576AF00B14208BFB84201D3C01BB14158EB08084EEB0E0EFD
:20160C00660046EAD5766F00B14208BFB84201D3C01BB14158EB08085EEB0E0EA14208BFB7
:20162C00A84201D3401BA14158EB08085EEB0E0EA34208BFAA423EBF2D0A45EA0465240A59
:20164C0089D3734642461E4617460B46024631463846BDE8F08170472DE9F843814608F0B5
:20166C0049FA002100B901216B4E30680028FCD06C4D01242D1DEF6A346009B108F040FAD9
:20168C00DFF89881C7F3072008F1BC01086008F031FA002100B9214630680028FCD02F68C8
:2016AC00346009B108F02CFAC7F38440C8F8C00008F020FA0146002001B92046014630683C
:2016CC000028FCD0ED69346009B108F019FAC5F38120C8F8D000B9F5C061C8F8B81000F02B
:2016EC00968098F8D80068B9C8F8D410D8F8C000C8F8C800D8F8BC70C8F8C470D8F8D06093
:20170C00C8F8CC60D8F8D410D8F8BC60002954BF02206FF00100454605F1C8031A6801EBB9
:20172C0041014018411000EB917002EBA0021A60D5F8C810C5F8C46000291CDD1E293DDDB4
:20174C00D5F8CC0030B93429B4BF15391E21C5F8C81025E02A29BABFD5F8C8000B381E2022
:20176C00C5F8C800D5F8C4003F28B4BF401C3F20C5F8C4001FE0D5F8CC00032812D011F18A
:20178C000B0FC6BFD5F8C8000B30201CC5F8C800D5F8C4000028CCBF401E0020C5F8C400CA
:2017AC00032009E011F1150FC6BFD5F8C8001530201CC5F8C8000020C5F8CC00B5F8C400B1
:2017CC00174E30214FF47F4208230090304605F081F9009404214FF400321123304605F0D6
:2017EC0079F9B5F8C80004214FF4F80212230090304605F06FF9B5F8CC0020214FF440625D
:20180C000A230090304605F065F9BDE8F883002088F8D800BDE8F88300800C40F01300208F
:20182C0000A00C4000A00C402DE9F043ADF11C0D04F066FC684C04F1280004F1900102F015
:20184C0011FDDFF89891E060494608F01FFA06F0E5FE07F049FF07F0A1FF04264FF47A7286
:20186C0000235F49206104F16C00009604F0E2FF1F20012105F040FF0620ADF812000125AC
:20188C008DF8146000278DF818506423ADF816708046ADF80E7006AAADF80C302946ADF8EF
:2018AC00108040F20530FFF79BF940F2063002210DF11602FFF794F904F14E024FF442703D
:2018CC001B21FFF78DF904F1400240F207300E21FFF786F94FF4447005AA2946FFF780F97C
:2018EC0040F2113002210DF11202FFF779F940F21230022104AAFFF773F940F2133002218D
:20190C000DF10E02FFF76CF94FF44570022103AAFFF766F908F0C4F84046A02105F0ECFE5B
:20192C000720A02105F0E8FE0820A02105F0E4FE0920A02105F0E0FE02978DF807508DF861
:20194C00067003208DF80450314602AA8DF805004FF4816005F0B6FE4FF4806029460DF1FF
:20196C00070205F0AFFE40F2024029460DF1060205F0A8FE40F2034029460DF1050205F04E
:20198C00A1FE40F20640294601AA05F09BFE08F06EF9FEF76FFD07F093FE04F025FF03F029
:2019AC0019FAA0707F2814BF0A200F20052105F089F905F0B3F806F049FF07F0D9F907F0EA
:2019CC00A1FA06F0CFFB08F032F9E068494608F05DF907B0BDE8F08320050020B78E0000FF
:2019EC00B19400002DE9F04FADF1840D00F02EFE05F04CF80026012804D107F0ABFC0228D1
:201A0C0008BF012658490868C0F38150012806D151F80C0C0127010E07FA01F006435348C9
:201A2C00007806F073FE524D2C46286038B1FF2204F1400107467F1E01F8012BFBD14D4971
:201A4C0009684FF0000901F0FF02FE2A1BD0DFF824C101F0FF074A460123FF2F0CD0B84251
:201A6C007FD903FA07F73E427BD101F0FF0147EA0909611881F840205CF8041F521C01F0DF
:201A8C00FF07FE2FE9D1092001F012FC3948002124220823606001A808F024FA4FF001084B
:201AAC0004F1240001AA8DF81C80414608F016FA236843B3002794354FF0040BBA4608FAE5
:201ACC0007F0064219D119EA000F04BF07F0FF0141F4C04105D0E019264990F8400051F881
:201AEC002010254802F02AF8F8B24FF0FF3107F087FA2368C5F800A001E0C5F800B07F1CC7
:201B0C002D1D9F42DBD30AA800213022082308F0E1F90025FF2010210AAB1290174A0095FC
:201B2C0004F1080008F0D2F916A828220823294608F0C8F904F1600016AA1C9510491D95AD
:201B4C002B4608F0BBF90F4951F80D0C20F4F85040F4005041F80D0C4746C1F8FF7F0A4E54
:201B6C00376021B0BDE8F08FB43F0050BB2C00205829002004A00000007FC76729900000D8
:201B8C008D6C00000D300940080009402DE9F843674C04F1240008F0BDF815460E46009060
:201BAC0008F0C0F905F001078146B6F1FF3F0CD1A06A20B9B4F93600401C06B202E0A06A1C
:201BCC00B0F91C60002084F8A300304606F02AFC0326002800F09B80A16ADFF84081814241
:201BEC0069D0009FB8422ED03FB100990A68904209D0096800290091F7D1832E41D0484620
:201C0C0008F08CF93DE004F1A40007F001F900980168AA0802D20A68026008460022026067
:201C2C000091009818B9484608F078F928E0C17F41F00401C177684607F01CFC0146404667
:201C4C0005F0ACFEEDE704F1A40007F0E1F8A8083ABF606A006800206062484608F05EF902
:201C6C000099C87F40F00400C877684607F002FC0146404605F092FE009808B1A808EFD24E
:201C8C008326E07988B9207A012843D0244807F0E9FE022104F1C80007F0ACFC6078012855
:201CAC0038D0204807F0DEFE34E004F1C800022107F0A0FC2EE0A90803D3616A0091002637
:201CCC006662C27F0121B9401143C17708F016F90446002F14BF1448144807F009F84846B7
:201CEC0008F01CF9A80801D3009820B9204608F001F983260EE0C17F41F00401C17768468B
:201D0C0007F0B8FB0146404605F048FEECE7484608F004F93046BDE8F883C046880E00205D
:201D2C00ED050000BD3600000100020401000104580E00202DE9FC415E4C574D574EDFF802
:201D4C0060815A4F94F8E410481E0B2861D8DFE800F07B2C43062343062343067664042915
:201D6C0007D001220A2945F8212C14BF0220032004E02021012045F8211C024684F8E20022
:201D8C00002045F8390C0827C5F8FF7FC5F8F37F45F8392CBDE8FC81052914BF09200620E8
:201DAC00002584F8E400356070E094F8E1700120383D002FC5F81B0004BF0620002102D057
:201DCC000021F160032084F8E400032045F8010C31603068800859D294F8E40001250328F8
:201DEC000DD00021404660220523009104F072FE94F8E400062814BF0A200720D1E7022018
:201E0C000090002160220523404604F063FE0420C7E708F04FF8BDE8FC8122490026224852
:201E2C000E60012505600E2001F0D8F9022005F0DBFF84F8E45084F8E360BDE8FC8100200B
:201E4C0038600C2578601FE01948006800680146202088472C3D41F61D560F2000214FF4A9
:201E6C00C072072345F8010C4046C5F803600225009504F02FFE404600214FF4C0720723E7
:201E8C0005F06CF80120386084F8E45004F1780008F03CF8BDE8FC8139400C4038600C4010
:201EAC0000A00C402C500C4004800C4034600C40A0010010F01300202DE9F84F9A469346C8
:201ECC000E46814608F02EF8514C0090B4F93610B4F934000AAF401A40F6F8710140082998
:201EEC0080F28780B4F93400401C6FF31F30A086B4F9348006F06CFF054609F1700006F0DC
:201F0C0087FFAE6085F81EB0C5F804A0A5F81C80C5F80C9097E80C0041A003C8002605F190
:201F2C0010071040194087E8030004F12400EE770768002F50D1294605F030FD002851D04C
:201F4C00A9F89480E87F40F08000E87789F89660607A40B1607830B10120A07266722779A4
:201F6C00A671781C2071009807F0D8FFA06A00284BD1607860BBE079012846D007F0D2FF12
:201F8C000646207A00BBA86804F07AFC224B2149E2681B68086040B9304607F0BFFF04F1F5
:201FAC00C800042107F026FB2FE00968D26804F1A400891AB1FBF3F107F0ACFF04F1A4004F
:201FCC0007F0A4FF30461EE0144901200870F9E7192007F0BFFC18E004F12400294605F0B1
:201FEC00DDFC48B9B4F9340000F6FF706FF31F30A0866FF0010805E0A9F89480E87F40F045
:20200C008000E877009807F089FF4046BDE8F88F580E0020A02C002064A500009C2C0020A9
:20202C00F1EFFF9F20000000B0B5456884684F48297BADF1180D012916D0217E627E4C4BD4
:20204C002F7E0143009143EA02010191494937F0010718BF081CA27E1043029095F88D0055
:20206C000322FF2811D00DE0677E217E3843A37E019041F00041009143F000403E490290FA
:20208C0095F88D00014304220391FE204DF82200694605F1900002F0E5F8C5F89C00002812
:2020AC0008BF00205FD0287B344951F8200001282BD02068B0F1804F14BF22220A22217E77
:2020CC00D5F89C0006F040F92068B0F1804F14BF21220922617ED5F89C0006F035F920682F
:2020EC00B0F1804F14BF24220C22A17ED5F89C0006F02AF995F88D10FF2933D02068B0F1FE
:20210C00804F14BF23220B2228E02068B0F1804F14BF21220922217ED5F89C0006F014F953
:20212C002068B0F1804F14BF22220A22617ED5F89C0006F009F92068B0F1804F14BF242207
:20214C000C22A17ED5F89C0006F0FEF82068B0F1804F14BF23220B2295F88D10D5F89C0001
:20216C0006F0F2F8012006B0B0BDC046000480A0004000800004C0A00020008048A2000057
:20218C002DE9F04305466E68AC680F46ADF1340D07F0C8FE96F8D910241D012903D107F017
:2021AC00BDFE002084E04FF0010986F8D99007F0B5FE4FF00008C6F88880386930617869DA
:2021CC007061387E3076387B307338783070786886F8A480706078694146092828BF4946BF
:2021EC0086F88C10207A01F063F8284603F0DCFEE07D86F88D002846FFF716FF50B9207A14
:20220C0000F0ECFF07F08EFE86F8D98007F086FE45464CE001A841463022082307F05AFE4F
:20222C0006956078CDF80080234A0990217801AB06F11C0007F04AFE01A841462822082398
:20224C0007F040FE05951D49606801AA4346079006F1380007F032FE307878B901A841464B
:20226C002422082307F03EFE8DF81C9006F16C00414601AA07F032FE114800E0B868B06058
:20228C0003F054FDC6F8A000307B012808D1D6F89C000C4907F0FAFCD6F89C0000B1856037
:2022AC00094A06F1C40004212B4606F057FA28460DB0BDE8F083C0465D3F0000AB63000034
:2022CC005B9C000089720000799B00002DE9F041424C474D8046C8F38140401E02D0401EB3
:2022EC002AD025E0284620300168880C20D24FF4804020603A48D0F802204B0AC1F30337F4
:20230C0003F0800322F08F02134347EA0302C0F80220D0F801300E1266F30303C0F80130D1
:20232C00026801F0E70722F0E70247EA020102E04FF00041204601602A4E06F10800006811
:20234C00C0F3C0070FB94020A0624FF40070206407F0D0FA40F0300084F8C800C8F38150A5
:20236C0038B3401E03D0401E1ED002211DE0012006F01CFE07460420394604F00FFA042087
:20238C0006F014FE8742FAD1366826F07F4005F0E3FC15480068036807214FF06022300EF7
:2023AC0098474FF4806020600321042004F0F6F906E00420012104F0F1F90C4805F0CCFC49
:2023CC00284600680B4947F6180700F03F0084F8CB0F094E0F803068BDE8F08140A00C4026
:2023EC000A600840A83F0050B4010010BD3786006C13005070B00C402C200940002810B5EC
:20240C000BD40A2809DA464BC40018591B1920B1186884695868A04710BD4FF0FF3010BDD5
:20242C0070B5061C0BD40A2E09DA3E4D286880473B4CF1006058641820B9686880474FF012
:20244C00FF3070BD206800690146606888470646B6F1FF3F07D0216800234FF6FE704A890B
:20246C0023601040488168688047304670BD70B50646307868B12C4D50242846314607F07F
:20248C0095F8002808BF281C04D0283C2835282CF3D2002070BDBFB5044625683A21284661
:2024AC0007F0F7F8071C13D07B1B082BC8BF0823684629461A4605F03EFE002003F80D00D3
:2024CC006846FFF7D4FF00281CBF7F1C276001D1154828380090BFBD38B5124C0090206856
:2024EC0080476846FFF7D7FF006A014600988847054660688047284638BD002810B50BD46E
:20250C000A2809DA064BC40018591B1920B11868C4695868A04710BD4FF0FF3010BDC046AD
:20252C0014160020581C00208C1600202DE9F04F0C464549CA7AADF12C0D84460592487B7B
:20254C0009900D7900958A7A488B4B8A0E7B91F805A091F802800492B1F846E008904A7A8C
:20256C00088B0392CD7807900A7AC88A02920F6A0690CA79888A01928A79E146A9F5407969
:20258C00B9F11D0F10D8DFE809F05B5553514F4D4B494643413F3C3A380F34312E2B29235D
:2025AC00201E1C0F19181716BCF1280F49DA604604F074FD21E0099EB246D046CDF8148027
:2025CC001DE00898079007980690DDF818E005E03831086820608888A08032E070460AE099
:2025EC00B1F8440009E0B1F8420004E0B1F8400001E091F83E00034612E0208021E0059820
:20260C0004900498039001E03231E2E7039802900298009006E0019A87310DE068310BE0DD
:20262C001846EAE7009D0BE02C31D2E7276008E0583100E048311022204601F0C5FD00E045
:20264C0025700BB0BDE8F08FE00800202DE9F041444C94F8E700ADF1280D00286FD1394FE5
:20266C00387B01250021242284F8E7507E6884F8E6000823C4F80C6101A807F017FC0026E6
:20268C0004F10C00069601ABADF814602E490796324607F007FC2D4904F1300001AB324687
:2026AC0007F000FC2A4904F1540001AB324607F0F9FBB868014628468847DFF89C8025484C
:2026CC007B7B0078D8F80410C1F381571BB1032F03D184F8E150032F16D0022F14D0012F34
:2026EC0026D103201D4C009031464FF040521C23204604F0EFF9009531464FF40072092305
:20270C00204604F0E7F913E0022005F085FB032F0CBF4FF47A7142F21071114800685434C0
:20272C00B1FBF0F1204607F0F5FB204607F0EEFBD8F80000C00802D2304605F06DFB0AB074
:20274C00BDE8F081A4A400006F540000AD470000714C0000BB2C0020B03F005000A00C4069
:20276C0064A50000F01300202DE9F0430746880FADF1140D75D303F007FB3F4D00261C35F5
:20278C002E60394845F81C0C384807F06BF93848BC68B14640F60A0200F13801468790F882
:2027AC0044300A808046C0F83C9003F0F00380F8443090F845306680241D03F0F00343F0B6
:2027CC00010380F8453000E01C1D236813B118888242F9D12160607A00F0F000607208F160
:2027EC00240007F097FA80680088D21F82421DD0521C82421AD007F120000388B3B197F85D
:20280C002C2097F82D30C7F8249002F0F00287F82C2003F0F00242F0010287F82D20C8F8AC
:20282C003C00487B7E8400F0F0004873694606F06FFA684607F056F828680028FCD02E60DD
:20284C00012006F0B3FB012808D0607A00F0F00040F001006072074807F004F9B86845F849
:20286C001C0C05B0BDE8F08301010E04ED050000580E00200962000000100440F8B506F069
:20288C0081FD404E3E4F0446A00823D3B96A09B33D4600200B698A69A86204EA0300104374
:2028AC0040F0020006F1080288610B6910689843106001F1100090E80C0030681A1C904392
:2028CC00306005F1300005F069F8022105F1C80006F090FEB86AA10815D200F110020CCAF0
:2028EC00002122400B40002B08BF002A0BD0016985690C40F8622C434FF48041846107F1B9
:20290C00C80006F077FEB86A002837D107F12404204607F0FFF9051C30D0F868E968884215
:20292C0026D1A86803F0ACFF17490860E0B906F1080128690A6810430860326805F1100324
:20294C0093E80300081C1043306000233361A86846F80C0C06F1100000680028FAD0204602
:20296C0006F088FDBD62F8BD086803F03BFAF8BD07F1C8004FF4805106F03CFEF8BDC046F0
:20298C00580E00200C100440A02C00202DE9F04104466768A5680E46ADF1380D07F0C2FA02
:2029AC0097F8DC102D1D012903D107F0B7FA00205EE04FF0010887F8DC8007F0AFFAF16826
:2029CC00204602F0AFFF0028F1D13078387070687860307A002130220823F86001A807F0BB
:2029EC0079FA0694287A00260990234A0096696801AB07F1100007F069FA01A8282208235D
:202A0C00314607F05FFA05941C49E86801AA3346079007F12C0007F051FA01A8242208235A
:202A2C00314607F05FFA8DF81C8007F16000414601AA07F053FA387838B907F17C00314648
:202A4C0001AA07F04BFA0E487860C7F8BC603E72C7F8C060286800F02BFC204603F0F2FFFA
:202A6C00084A07F1C8000421234605F077FE20460EB0BDE8F081C046552F0000B960000063
:202A8C004B9C000051990000B0B53C4C6078410807D320F0010060700A20014604F012F920
:202AAC006078374D810807D320F002002F786070062F01D103F0A4FA2078FE2807D1012073
:202ACC00E07004F10801082005F06AFC2078A778B84249D0E178012905D00120214605F07A
:202AEC005FFCA778207829787A0803D342083CBF0022A280BA0803D382083CBF0022E28095
:202B0C00022903D106F0E6FCA7782078B90808D3810806D22978062903D003F071FAA778FE
:202B2C002078790808D2410804D3012005F066FEA7782078790806D3410804D2002005F0B7
:202B4C005DFEA778207810F0030F0DD067B904F11000054606F0EEFE28B9284607F0DCF8FC
:202B6C000020E080A0802078E178012903D10020E0702070B0BDA070B0BDC046AC1A0020E4
:202B8C00200500202DE9F047ADF1180D01F0E2F83A4D4FF0030908274FF6FF78002605F130
:202BAC003E0A2C4606F0F4F920BB009601A80DF106016A4605F035FAE0B9BDF804001028EF
:202BCC0014D160789DF8061088420FD100980188884509D14088C00B08D3042005F1200265
:202BEC00014604F05DFF01E003F070FE009808B106F08CFB208A41082DD320F00100637942
:202C0C002179208253EA010225D073B9207A637A8DF8070005F132018DF808300A680DF1B2
:202C2C0009031A608988998001E08DF80790A07A8DF80F00E37A8DF810300DF1070006F010
:202C4C0017FF38B1636AA77023B11A6812B1196838468847208A810807D320F002002082DD
:202C6C005146304602F0DAF9208AC1089AD320F00400208206F026FA94E7C046E008002041
:202C8C002DE9F04706467468B56807F04BF9D4F88810002963D007F041F92968486820F019
:202CAC00020048602968486A20F003004862D4F8A07068692969084379680968C1F80405C0
:202CCC002968486920F00100486128684FF00108C0F82080304605F069FDD4F88800D0F8CF
:202CEC00049007F01FF904F1D8078246387850B119F0704F02D1042005F076F8022005F09F
:202D0C0073F800203870504607F008F9D4F88810087C042803D003200874D4F888102A6969
:202D2C006869D4F8A0304746104307FA00F258680068C2622868B0F1804F14BF0A480B4883
:202D4C000F68006800258204A7EB9250401E08603046A268C4F888509047BDE8F08707F0A5
:202D6C00DDF8BDE8F087C04608050020380400202DE9F0430646ADF11C0D07F08FF804F0F9
:202D8C00D3FF4FF000090546CDF8009006F0F4FE30F0010002D00098A84202D16FF00400DA
:202DAC0059E070684C4658B1B0F1FF3F05D001A904F0A2FF30B107464CE04FF0FF3000E0C0
:202DCC002046019007F066F80199012701EB000800E001936868019907F058F800282ED09A
:202DEC0003A804F0F1FCD8B99DF8100002A904F0D1FC88B9B368BDF808009DF81210059A2A
:202E0C00984748B19DF81270B773BDF80800B081059B33614F4612E00599684605F026FA83
:202E2C000198641CB0F1FF3FD4D00028D2D007F031F8B8EB000302D001989842C9D20099E1
:202E4C0005F1080005F0D6FB24B1686807F01AF8641EFAD1384607B0BDE8F083F0B5ADF117
:202E6C00340DFFF7F3FB304908682822082340F00200086001A8002107F024F82B4E2C495E
:202E8C000524002301AA079406F1C80007F016F800213022082301A807F01CF80025FF2733
:202EAC001921244AADF81C5001AB099706F14C00009507F00BF82822082301A8294607F0AB
:202ECC0001F81D49079406F1FC0001AA2B4606F0F5FF01A829463022082306F0FBFF012449
:202EEC00ADF81C40099706F168001A2101AB134A009506F0EBFF12492A4606F1A40013464E
:202F0C0006F0D0FF0F4806F0ADFD86F8A3507571F57135727572B5727561B4714FF6FF70C8
:202F2C00A6F8A0000DB0F0BD00200940580E0020D1950000498B0000493800005D62000074
:202F4C00F9880000BD36000098B53549446809688068496800688847324A0121916140B1B8
:202F6C00237AFF2B05D0FF214009217253D2042149E0207A00284ED0401E17D0401E02D0E5
:202F8C00FD3848D044E05368D4F8B4000370D4F8B400401CC4F8B400D4F8B8707F1EC4F86D
:202FAC00B8701CD0012F88BF09212CE0D4F8B0707F1EC4F8B07014D1D4F8B8707FB10220B4
:202FCC00D4F8A8102072097C012F4FEA410141F0010142F8041C94BF03210B2114E0042156
:202FEC000FE0D4F8AC0000785060D4F8AC00022F00F10100C4F8AC0005D2D4F8B87017B998
:20300C000521002020720220116006F03CFE98BDFF20207298BD04F12C0006F02FFF98BD14
:20302C00AC01001004280040BFB5364C0746401E39D0334D401E1FD0801E012830D9801E76
:20304C0002D0801E23D058E0284606F073FC10B9284606F061FEE0680A210022054604F096
:20306C0069FC002228460F2104F064FC00221521284604F05FFC40E0284606F05BFC10B912
:20308C00284606F049FE002006F024FA35E006F049FC04F10C0000680A2101220546E7E725
:2030AC0006F040FC29E00F20052103F00BFE4FF441706946FFF73AFA9DF800009DF804304D
:2030CC008DF808009DF805108DF80E309DF801508DF80F109DF803008DF809509DF8023023
:2030EC008DF80D0002AA8DF80A3000208DF80C0008218DF80B0001F09BFB27700090BFBD33
:20310C008C0500202005002038B50446084602F0A9F90146182004F0D9FB05F063FF80B2C4
:20312C0000902C4840F2FF3200232C2103F0D2FC06F0E8FB01461C2004F0C8FB05F044FFA0
:20314C000146142004F0C2FB06F040F90146102004F0BCFB204602F077F801460C2004F0B8
:20316C00B5FB204606F01AF91B4D400040F020002870204606F01EF940F0100028702046E3
:20318C0005F0D6FD0146282004F0A0FB204606F029F9400040F06000E870204606F02EF914
:2031AC00C00040F0800005F8080C204606F032F9800040F47C40A5F89300204605F0AEF85A
:2031CC000146082004F082FB4FF48000A5F20911086038BD00A00C4049A10C402DE9F843BF
:2031EC00044606F09FFE81462D48021992F8ED10491ECFB2002F82F8ED704BD12B4D05EB96
:20320C0084052E78698836F07F0788461AD1F10911D24FF08054D4F8B801806901464046F2
:20322C00884704F5DC742068406B0146404688470228F8D121E000EB8800D0F8001100203B
:20324C0088471AE04FF08054D4F8B801006A014640468847D4F8B801806A014640468847F0
:20326C00D4F8B801006B01464046884701210D4A0D48116001688908FCD306F03F003F2812
:20328C0001D0FFF7ABFF687800F03F003F2801D0FFF7A4FF484606F041FEBDE8F883C046E8
:2032AC00F013002028200860282008402CA100002DE9F041064606F035FE2D4D8046A91914
:2032CC0091F8ED00421C002881F8ED204AD1294C04EB8604277807F03F003F2801D0FFF754
:2032EC00E7FF607800F03F003F2801D0FFF7E0FF668837F07F001AD1F80911D24FF0805452
:20330C00D4F8B801406901463046884704F5DC742068406B0146304688470128F8D121E0EC
:20332C0005EB8605D5F80011012088471AE04FF08054D4F8B801C069014630468847D4F825
:20334C00B801406A014630468847D4F8B801C06A0146304688470121074A0848116001689A
:20336C008908FCD3404606F0D9FDBDE8F081C046F01300202CA10000282008602820084043
:20338C002DE9F041314D044628681F4690460E4680472068B0F1FF3F03D0B8F1040F02D064
:2033AC000FB9686830E0636873B16069010903D3581E06F0BFF8606900216160A160E160B1
:2033CC0020F00800216100E06069B8F1000F08BF4FF0010820F00700012F48EA000060619D
:2033EC0008BF0026B7F5807F88BF4FF48077AEB97F1C384604F071FE064668684EB96169D8
:20340C00666041F48061616180474FF0FF30BDE8F081616941F00801616100E06868761CAF
:20342C0066602661BF19A6607F1EE7608047286880470549034A6868116080470020BDE8EB
:20344C00F081C0462C1C0020157B0000581C00202DE9F84F0D46064628687468D6F808809F
:20346C00002855D006F05EFDD4F8881021B106F055FD032028744BE001272F74C4F88850DB
:20348C0006F04CFD94F8A40038B194F88D202249D4F89C00114304F08FFCD5F804A006F082
:2034AC0041FD04F1D80999F80030834653B91AF0704F02D1042004F0AFFC022004F0ACFC39
:2034CC0089F80070584606F029FDD8F80010486840F0020048603046294600F085F8D8F8A9
:2034EC000010486940F001004861207830B9616804F16C05284606F0C9FC10B13846BDE868
:20350C00F88F3046FFF7BCFB2846002106F0BEFC0020BDE8F88FC04600000680294A2DE955
:20352C00F04180460126284816600768002FFCD0294C2A4FC020443C206007F108000168DA
:20354C002348890804D20168090C41F0F00100E072211E4D85F8541200211163876838462A
:20356C0001F0FCFB40463946FFF7CEFD1C48B038816D40F20F226FF31F418A4212D9016812
:20358C000068C1F30363C0F3034003B15B1E072805D006280EBF0720801C00F00F0043EA8C
:2035AC00001028703846FEF791FE0E4814380068C1680220884740202060064F3E60BDE8B9
:2035CC00F081C046101009409402224302600840AC3F00509404604244600C40A83F0050BE
:2035EC006C130050B4010010F8B58C4645688468DCF8007095F88C10B8B288401FFA80FEDD
:20360C002068B0F1804F14BF244B254BDCF80820244832B995F88C108E00815905F1A60272
:20362C0007E095F88C108E00811951F8081C7244521E99605A6021683A0143F6F077103A52
:20364C000831174019609A683A439A602368B3F1804F14BF144A154ADCF804C0BCF1000FFA
:20366C0004BF805904F10E0605D0801950F8100C0EEB0C06761E90601660516090680743CF
:20368C0097602169D5F8A06060690843716809688862586A40F003005862F8BD00050020FF
:2036AC003004002060A200001005002040040020042998B54DD1274C04F1240006F02AFBD0
:2036CC0040B994F8A300400838BFE06804D3D4F8880000E0C068E06041681F4A09781160B8
:2036EC00416812680978914206D0876927B120A20CCA6FF0FF01B847022004F08DFB1120E4
:20370C00FFF7D6FD0120E071E068011D007C10B16079012804D00E20FFF7CAFDE168091D8F
:20372C0008680E49083007680FB947681FB10020C8610B4F0F600B4A40F2FF700027106029
:20374C00094C8F6109484C6106F08CF9192006F091FB98BD580E0020D0210840001004407C
:20376C005100070600000460020000407527000000000000000000022DE9F8430646B068E6
:20378C000D4600F1080874686868002710B9E868002850D02078012814D106F0C3FBD4F86F
:2037AC00BC1049B1D4F8C0108D61C4F8C05006F0B5FB0120BDE8F883C4F8BC50C4F8C05066
:2037CC0006F0ACFB022004F027FB04F160004FF0FF31814606F05AFBD8F8000006F046FB2B
:2037EC003046294600F04CFF0546D8F8000006F041FB207888B9B5F1FF3F08D004F17C004A
:20380C004FF0FF3106F042FB207A48B110E003202072022004F0E8FA0AE0B5F1FF3F01D02B
:20382C00012705E00320207204F12C0006F026FB484606F027FB3846BDE8F883F8B506F09B
:20384C0071FB2A4C0746103CD4F89C0010F4602F2BD0D4F89C00400CC5B2680807D2A808C7
:20386C0003D2E80828BF022502E0012500E000256E1D70B202F016FDD4F89C3005F111010A
:20388C000120884023EA00013846C4F89C1006F045FB04EB8500D0F88C704FB1D4F888007D
:2038AC0013A20CCA3146B84702E0384606F036FBD4F89C0020B104F1FC00002105F09AFE9C
:2038CC0094F8A30080080FD3D4F8987037B1D4F8880009A20CCA6FF00101B84794F8A30023
:2038EC0000F0FD0084F8A300F8BDC046680E002000000000000000080000000000000080D7
:20390C002DE9F0412D4C0546A41C20781F4690460E46ADF1380D012803D0FFF79FFA01201A
:20392C0020705EB1B8F1000F6E6007D0C5F8088006F0F8FA617819B106F0F0FA002038E097
:20394C00491CC9B2617006F0E9FA01241FB9684605F010FF6F46386828607868E860387A6B
:20396C002874F8686861386900B1A8610021782205F1200001F0B8F905A800212422082369
:20398C0006F0B0FA8DF82C4005F13800002105AA06F0A4FA05A800212422082306F086FA43
:2039AC0005490B9505F17000002205AB06F07AFA28460EB0BDE8F081A59C0000580E002062
:2039CC002DE9FC470AAF3F8882460C4608469946154601A904F052FD012808BF01204AD048
:2039EC00BDF80400DFF8948042F60211FF26401A2ED048F26311401A012827D827BBB9F193
:203A0C00010F1FD1BDF804104AF666200027884202D12978032913DA2978E2681170BDF86C
:203A2C000410884205D0E1684046884218D13E4618E0E1684046401C884211D1012611E0DA
:203A4C0080270DE00D270BE00B2709E00A2707E0009750464B4621462A4602F0A9FF0746F8
:203A6C00FF2E07D04046001D006818B1016809B1304688473846BDE8FC87C046A018002076
:203A8C00F8B506F037F806F041F8044604F00C000C2845D0E0081ED204F0DAFC234E3768D4
:203AAC0005460120014605F0F1F931686943884211D21F4C8220B0FBF7F0291A204606F038
:203ACC0029FA204606F022FA0120FDF7A7F9204605F09EF925E0200922D21648610939BFB6
:203AEC00016821F00101016841F0010102460160D2F898004FF0805440F00300C2F89800FF
:203B0C00D4F8B8018069014620208847D4F8B801094C806B2168804701202060206800E0B7
:203B2C0030BF05F0EDFF01F0D1FCF8BD64A50000FC1300208C2108402C200940F8B50D4674
:203B4C00EEB2290824BF26494D40264BB400195985EA01020240C2F3006C234A00EA0507DA
:203B6C008143FF323A4000F4E0270A43B7F5E02F01D1510E15D300F4E0215CEA010710D08B
:203B8C0002F4E027B7F5A02707D0B7F5803704BF22F4003242F4A02203E022F4803242F48B
:203BAC00C0221A51114CC10D04D3A4F18001C5F380528A55000E11D306F0B4F9290E03D28A
:203BCC0001210022B14002E00121B1400A46503423688B431A43226006F0A0F9F8BDC04659
:203BEC00006000A000100840007F077F8020024038B504462568B5F1FF3F12D06369002004
:203C0C00990909D3616839B1A268914204D0521A2846FEF7F3FB6369002805D543F4806311
:203C2C0063614FF0FF3038BD60682061A060D80924BF23F030036361002038BD2DE9F843D4
:203C4C00164C07462068F7B9804715480168002500291DDD80462E4608F18C0757F8180F60
:203C6C00B0F1FF3F0BD0206880473846FFF7C0FF814660688047D8F8001049EA0505761CF7
:203C8C008E42EBDB04E080473846FFF7B1FF0546606880472846BDE8F883C046581C0020B1
:203CAC005C1200202DE9F0410E46294990461C4606AF8C4672680878BB8851783F881278E7
:203CCC00002502EB012242F62321521A29D0521E052A18D9921F0CD0263A34D1072F30D802
:203CEC00C7F10700984298BF83B2674407F1080121E0B84225DBC01B9842D8BF83B22380C8
:203D0C00DCF804000BE0F06805F070FD80B2B84217DBC01B9842D8BF83B22380F06839182F
:203D2C000AE0082F0DD8C7F10800984298BF83B207EB0C010F31238040461A4600F044FA55
:203D4C0003E0072501E025800A252846BDE8F081881000202DE9FC4704F074FC284C002501
:203D6C00A5704FF6FF70A08203F022FC234F2A462070012039461346009004F1A80002F0B1
:203D8C0059FD4FF002082A4604F1CC003946CDF80080134602F04EFD04262A4604F1F0006E
:203DAC0039460096134602F045FD04F14809102248462946E67000F097FF04F1580A10227B
:203DCC005046294600F090FF04F120073D602572072065721021A0724A46E572404603F062
:203DEC0045FE03201021524603F040FE30463A46014603F03BFEBDE8FC87C04659950000D2
:203E0C00E008002070B5274C274D012806D028BB21460020491C05F071FC1FE021460120CB
:203E2C0005F06CFC0878022811D0491C002003F033FD28680A210022064603F07BFD002230
:203E4C0030460F2103F076FD04F0ECFC06E005F081FE4870491C002003F01EFD21460878E2
:203E6C0001281DD1286861780546490834BF002201220A2103F05EFD6078800834BF0022F4
:203E8C00012228460F2103F055FD6078C00802D204F0C8FC70BD284603F02CFA03F048FAFB
:203EAC0070BDC046601C00202C050020264838B550380468B4F1FF3F08BF002405F03CFC8C
:203ECC0022481749002510380560012008601549086002F005FB1448006820B113480068A1
:203EEC002046FFF71BFB124812490560124C0A686FF35B4244EA0200086010490868C0F347
:203F0C000130012806D10A680D48104040F400320A6008600B4908680028FCD138BDC04661
:203F2C005C600C400822044380012843000120438C21084048200340000039010400094085
:203F4C00FFFFFCFC0C0068426C13005094046042B0B501468B681C68E269486822625208A4
:203F6C0024D2D0F8A01049680A685D69D2F80415294206D01C68616A21F002016162C2F8DA
:203F8C000455D2F8042519690A4230D01A68516A21F001015162D0F8A020526819691268BA
:203FAC003830C2F8041505F069FFB0BD1C68626922F001026261D0F88870AFB9626822F0C5
:203FCC00020262601C68626A22F003026262D0F8A0005A6940681C6900682243C0F80425DE
:203FEC00084604F0E3FBB0BD0846FEF749FEB0BDF0B520480127F84201D002F08DFC204D09
:20400C00204F214EBD4206D203CD0478A4003459401CA047F6E71D48002800D08047164DBB
:20402C00164FBD4202D210CDA047FAE7F0BD03251BE0416808300A1C2A400BD11A1C2A40DA
:20404C00AB4305D0046804300C600431043BF9D1131C05D0047801300C700131013BF9D1E2
:20406C00021C2A4001D0A84304300368002BE0D17047C046FFFFFFFF0000000000000000BC
:20408C007CAD0000FCAD000074AD000059C50110B0B5244C2278E1889308084603D3491CF6
:2040AC00401CE18080B2A18852080F4603D3491C7F1CA180BFB2062F11DB06280FDB04F197
:2040CC001000054605F036FC58B3284605F026FE0020A080E080607840F001001CE00328F0
:2040EC000BDA38431DD104F11000044605F022FCB8B1204605F012FEB0BD97B904F110006E
:20410C00054605F017FC60B1284605F007FE0020E080607840F0020060700348006805F0C5
:20412C00B1FEB0BDAC1A00202805002010B50020442100F0E5FF002808BF002440D0214C76
:20414C001F200222214605F05BFC002835D021880806000C40EA2120782815D1102020808C
:20416C0021460220024604F031F930B302202146024605F045FC00B321880806000C40EABA
:20418C002120B0F5805F01D0208016E00020208021460220024604F019F970B102202146A6
:2041AC00024605F02DFC40B121880806000C50EA2120208008BF012400D0002405F0B8FC35
:2041CC00204610BD942C0020002A4AD05FEA000C8B071CD1830722D1102A08D370B4103AA8
:2041EC0078C978C0103AFBD270BC103238D0042A2CD3082A05D30C2A24BF08C908C008C9F3
:20420C0008C008C908C092072AD0920F22E00B780370491C401C521E22D08B07F7D1C307BE
:20422C0014D18307D8D0121F12D308C903801B0C4380001D121FF8D20AE008C903701B0A9C
:20424C0043701B0A83701B0AC370001D121FF4D2121D05D00B780370491C401C521EF9D126
:20426C00604670472DE9F843224D884606464FF0FF3105F12400814605F008FE00200CE0A4
:20428C00FF2909D02A688A4204D905EB8101D1F894700FB1002627E0401CB8F1000F03D0C3
:2042AC0018F82010FE29EBD10024346074600127B46011E0FF280ED005EB80000B78726844
:2042CC00C0F8946007FA03F0104370600A680A49304604F04FF8641CB8F1000F04D008EB9A
:2042EC0084010878FE28E5D1484605F0CBFD3046BDE8F88358290020007FC767FEB5FDF7FB
:20430C0093FA234C002504F16C0604F033FE58BB009501A80DF106016A4603F06BFED0B9F9
:20432C00BDF80400102807D160789DF80610884202D1009805F008FC009860B104F0CEFF8D
:20434C0009E0206904F02AFF071C04D004F09EFE384604F093FF206905F084FD0028F0D050
:20436C00FEF792FB04F0C6FBA088C108CDD320F004002778A080022FC7D1304605F0CCFC9A
:20438C0020780228C1D10F20012102F09BFCBCE7200500202DE9F8432020EFF3118780F37D
:2043AC001188214CA068012105F058FD4FF001094FF0000865692168A4F81C906A1A21683B
:2043CC00A4F81E80461B401A904227D387F3118840464519361A4846294605F03BFDB042AD
:2043EC00F7D92021EFF3118781F31188E18B012903D14046294605F02DFDB0F1FF3F06D0E6
:20440C00A169801B814238BF081C411901E0A069291805F01BFDA4F820902560A4F81C8072
:20442C0087F31188BDE8F883780100201CB50020772100F065FE002808BF00243FD0D020B6
:20444C006946012205F0DCFA002835D09DF80000582831D1F5206946012205F0D1FA0028A0
:20446C002AD09DF8000038BB55208DF8000069460122F42003F0AAFFF0B1F42069460122AB
:20448C0005F0BEFAC0B19DF80000552814D1B6208DF8000069460122E02003F097FF58B13C
:2044AC00F4206946012205F0ABFA28B19DF80000002808BF012400D0002405F039FB20466B
:2044CC001CBD70472DE9FE4F8046B8F1000F01920C9802919B46009005D0081C03D0101C2C
:2044EC0001D0009810B90220BDE8FE8F1948017800252C4629E0A00038F800A04FF6FF7785
:20450C0008EB000657451CD0B778D7B10198029A594605F092F95FEA000912D0780806D376
:20452C00009B504601214A4600F0FAFE0543B078800806D33088009B02214A4600F0F0FEEF
:20454C00054304480178641CE4B2A142D3DC2846BDE8FE8FE0080020F8B50F4601464C68F5
:20456C008E683846203804F10C0432D0401E2CD0401E27D120781578012814BF19491A49C6
:20458C00FF2D41EA05011BD0D4F8900001F0D4F898B93068B0F1804F14BF23220B22D4F844
:2045AC009000294603F0D0FED4F8900094F8811001F060FB84F8815012E04FF0FF30F8BD08
:2045CC00FF25F1E76FF00100F8BD002084F89800F8BD21780020012908BF012084F89800F6
:2045EC000020F8BD0004C0A000200080F8B5224D064628680C468047204601F001F910B9AB
:20460C006868804732E0606900F00700042819D0A068E168814204D82046FFF7E9FAF8B930
:20462C00A068411CA160F7B207706069800805D30A2E03D12046FFF7DBFA88B968688047AA
:20464C003846F8BD20688DF8006069460122FDF7D5FEB0F1FF3F03D068688047F0B2F8BD75
:20466C006069696840F48060606188474FF0FF30F8BD0249FFF7BABF581C00201813002034
:20468C0080B5406800F10802C0F8A8100868C2F8A4004868C2F8A8008868C2F8AC00C86860
:2046AC001A49C2F8B000D2F8A87097B9D2F8A000007C400040F0010041F8040C02201070AD
:2046CC000B68DB0917D2D2F8B020022A17D30B2216E0D2F8A000007C0127400041F8040C24
:2046EC00D2F8A4001770431CC2F8A430007848600868C00902D34FF0FF3080BD02200322AC
:20470C000A6005F0C0FA002080BDC0460428004038B5224D401E02D0401E30D038BD05F0D1
:20472C0019FAC00823D32C78FF2C22D00120694603F0D8FF9DF8000068B9A4B105F1080038
:20474C0005F0ECFA002003F0B1FC00200A22014604F008FF07E034B9012003F0A7FC05F1A3
:20476C00080005F0D9FA9DF80000287038BDFF2028700120FF21024604F0F4FE38BD0220FE
:20478C00694603F0AFFF9DF80010284641809DF80010083001F0DEFC38BDC046A01B00206B
:2047AC002DE9984305F0BEFB1F4CDFF87880814604F1E000007850B94446A06801460220FC
:2047CC0088470746102002F0F1F92FB320E001F0F5F9002820460FD1144909683222B2FBA7
:2047EC00F1F101B9012100F13004204605F092FB204605F08BFB0FE044460022A16880F8E5
:20480C00E020022088470746102002F0CFF91FB1A068014603208847484605F07FFBBDE8B1
:20482C009883C046A4A40000F013002064A50000F8B50D461F4C20490728164638D8DFE8A1
:20484C0000F0192C2A2826242104284604F020FA071C2DD0616804F11700884202D0606881
:20486C0004F024FD384631462A46FFF7ADFC67602570F8BD082D1BD130680F3420607768A7
:20488C006760F8BD0C46153408E00C4606E0643404E04F3402E03A3400E0253420460021C6
:2048AC00152200F021FA204631462A46FFF78CFCF8BDC0468810002001110020F8B5204C21
:2048CC00820002EBC0002418666825680F1C08BF1C4F387830B97888312818BF322815D1A0
:2048EC00207A98B905F01EFB0146387838B96B78AA781A434FF0000318BF012302E0227AAE
:20490C00AA18537823B1084605F008FB0020F8BD18B901206870A87003E0207A012228184D
:20492C004270084605F0FAFA38782870B079FEF7BFFC2046394602F013FF2046F8BDC04657
:20494C006CA0000070A300002DE9F04107467868051DD0F8BC00A8B305F0E4FA1A4E002458
:20496C008046F46004203060022005F08CF92B68D5F8A410384622469847022003F034FAA5
:20498C0009E081692B6822463846C5F8B8109847022003F029FAD5F8B800D5F8BC10814242
:2049AC00EFD12046C5F8A4002C71C5F8B800C5F8BC00064B346038461C6002F043F8404647
:2049CC0005F0ACFABDE8F081042800401004054270B51E4DAC68064604F0B0FC4FF47A7195
:2049EC00001B4843030C03F055FE2969401A48BF404240F6B8319B19994210D306280EDA94
:204A0C00E9688C420BD8286848B1114A091B51438A0C02EB1141884288BF011C08E00D49AB
:204A2C00486840080ED208687D2100F0FF004143C82905D3B1F57A6F88BF4FF47A6103E071
:204A4C00C82101E04FF4FA61084670BD802C002040420F00AC3F0050F8B5001D84B214F0CB
:204A6C00030002D0241A241DA4B204F070FB01461948102C47680160C8BF876838880022D5
:204A8C001646C30BDD0319D126B984420ADD3A46012617E01388C3189BB29C42138011DCCB
:204AAC00174618469FB1001B80B20428B4BF3C88385344F400443C803F1D08E080F4004074
:204ACC00002680B2C71938880028DAD10027084604F0BEFD3846F8BD10150020B0B50446B4
:204AEC00A768ADF1280D27BB0C20FFF7B5FF071C16D0684600212422082305F0D7F90023DF
:204B0C0006976A466168ADF810301448059305F099F9386038B904F090FD384603F04EFB4F
:204B2C006FF0030018E0E06878602069B860A7600AE004F00CFB0546386804F069F9206998
:204B4C00B860284604F084FD3868616805F0E2F9386805F0DBF900200AB0B0BDC59A000006
:204B6C00B0B514460F4605F0DDF985B219480068007808B904F0C2FA87B1384603F0BEFCFE
:204B8C0040B114B14FF0FF3020700820FEF726FB002419E038687968BA6803E04FF4807041
:204BAC000122014603F0F0F80B49012008600B4908684008FCD30A48006841680220884798
:204BCC000CB1002121700446284605F0A7F92046B0BDC046B4A40000A802504208800240D6
:204BEC00CC010010F8B50E46044605F087F90546304603F017FC071C03D1284605F07AF978
:204C0C0026E0F87F10F0070F1BD113487968884202D079682166786010A090E8060004F1CE
:204C2C005807284687E8060005F064F904F138004FF0FF3105F02AF904F1680696E803003C
:204C4C00F8BD284605F056F9F87F10F0070FFBD102200021F8BDC0468D6500000200000096
:204C6C00000000701CB5042004F0A0F9022818D0032816D016480068C0F38150032814BFCB
:204C8C0041F288324FF47A721248144C016854342046B2FBF1F105F03DF9204605F036F997
:204CAC001CBD03200C4C009000214FF040521C23204601F00FFF012000214FF4007209234B
:204CCC000090204601F006FF022003F08DF81CBDB43F005064A5000000A00C40F01300200E
:204CEC00002213460A46194671B510F0030F0BD0002A82BF00F8011BB2F1010210F0030F34
:204D0C00F6D1002A08BF71BD11F0FF0141EA0121042A18D341EA0141082A0FD30E46102A2B
:204D2C0008D30C460D46B2F10F0312F00F0272C0103BFCD812F0080F18BF42C012F0040FC7
:204D4C0018BF40F8041B12F0020F18BF20F8021B12F0010F18BF017071BDFEE702461848E5
:204D6C0008B50068C0F3046004F035FE00EB2270401C162805DA10F10A0FB8BF6FF00900D5
:204D8C0000E015200F49104B00F01F0040F4F85008801868800803D20C490020086001E091
:204DAC0042F040620A49D00E930E80F0010000F00100086083F0010000F00100886008BD65
:204DCC00B81200506E6208400000094094042A430000204310B51C4C00202070FFF7A6F972
:204DEC0018B1207840F00100207000F03FFC18B1207840F002002070FFF718FB18B12078CD
:204E0C0040F00800207001F0E3FB18B1207840F00400207000F05CFF18B1207840F01000DE
:204E2C00207002F0DBF818B1207840F02000207004F0FAFC002808BF207803D0207840F0C4
:204E4C004000207010BDC046BA2C002038B5054601201A4C68712879B0B904F078F92178FD
:204E6C00002904BF6FF00704051C15D0491EC9B2217039B904F0ECFB606803F08DF800202A
:204E8C00687118E0054613E004F061F905462078FF2805D16FF00604284604F0D9FB0BE03F
:204EAC00401CC0B20128207002D1606803F08BF8284604F0CDFB0024204638BD501C002019
:204ECC0070B50646B079F5680B28A5F108052CDA30790B2829DA04F03AF9154CB2799100D0
:204EEC000C3401EBC20161184968E1B104F0B0FB30792870B0796870307AA870B1798800A6
:204F0C0000EBC1002018F1684068083003F0AEF9B179880000EBC10024186068406804F0D0
:204F2C00B1FF002070BD04F093FB6FF0020070BD7C15002038B519491A4C00204822C1F8AF
:204F4C00F30F94F8E200C1F8FF2F20B3012817D0022807D003281ED151F8310C00F024F85E
:204F6C000B2016E051F8315C2846FCF775FB40F2FF50A84202D8801CA842F1D2082008E0BF
:204F8C0051F8310C00F08EFD054800780028E7D0052084F8E400FCF7CDFE38BD39400C4063
:204FAC00B2A40000F013002038B51A4CA0F5C060D4F8B810C4F8D4000029B8BF49420028ED
:204FCC00B8BF4042814220DAB4F8BC00124D30214FF47F4208230090284601F07BFDB4F8B5
:204FEC00C00004214FF4F80212230090284601F071FDB4F8D00020214FF440620A23009092
:20500C00284601F067FD012000E0002084F8D80038BDC046F013002000A00C402DE9FF41EC
:20502C000E460546194C7188E08A81420CDCB188814209DBF088218B884205D13089618B09
:20504C00884208BF18271DD0052002F027F87788B388ADF80270F288ADF804303189ADF84E
:20506C0006208046ADF80810A08AADF80000684604F00AFD071C05D1A57304F1F000414686
:20508C0002F07AFA38460090BDE8FF81E00800201A4898B5D0F8781203680F0F03F0FF03E4
:2050AC00802B28BF002301F0F1FC4FF0FF3478B1401E07D0401E012802D9801E19D01AE09E
:2050CC00BFB118E0381C12D0801E14D1143311E03846401E0BD0801E07D0001F03D0401EEF
:2050EC0009D1163306E0152405E0142403E00A2401E00A335CB2204698BDC046A010005047
:20510C0070B50D461549194C134A09680646241F04F11400B2FBF1F104F0B8FE002808BFBA
:20512C00002017D00E4805700E4D20682978B1420CD02E7004F049FD04F070F82878012841
:20514C0004BF0948206103F08DFC2060002100B10121084670BDC04620A1070064A500006C
:20516C00B92C0020B82C002082A50000142C0020B0B5ADF1400D04F0C5FE044600213C22C3
:20518C000823684604F05AFE114841680691816800680490104818380068002205900D4844
:2051AC000891694604F046FE071C0DD003F0CFFF0546384601F0A6FA30B1284604F048FAC3
:2051CC00204604F093FE01E001F098F810B0B0BD389F0000E19800001C150020F8B5174A9A
:2051EC00174B184C121D22F003019C4621605E1A2068256860606768A660002001E025F8F5
:20520C00020BAB42FBD84FF6FC75B3102A4001EB830323F8040CACEB0202E82315403B807F
:20522C00EC3DA1F8E850E83144F8081CFFF714FC44F8040C606844F8080CF8BDBC2C0020C8
:20524C00F83F00201C15002038B504461848174D001F02686B68C2F30351C2F303405B08DF
:20526C0013D22B681D0511EB257103D41029A8BF0F2100E000211B0410EB237303D4102B8C
:20528C00A8BF0F2300E00023184640EA011002F47F4102F0FF03222C41EA004143EA01003B
:2052AC0024BF02F08042104338BDC046AC3F00507C13005030B5401E4FF00004ADF12C0D86
:2052CC000AD0401E04D0401E20D1FCF733FD1DE000F03EFE044619E001A821462422082357
:2052EC0004F0E4FD06940D4DADF8144009490794012201AB05F1780004F0D4FD064A234638
:20530C002C2105F19C00009304F0E0FD20460BB030BDC046F1590000414F0000F01300202D
:20532C00F0B50E4615461C460746ADF11C0D4FF6FF7103AA03F0F4FD0246059212B300208D
:20534C000090BDF80C000DF1120329460190FF2002903846A047041C0FD16889ADF8100021
:20536C00700804D3384604A903F0E4FE03E0384604A904F0FFFA041C05D004A81B2103F007
:20538C00DDFD00E01524204607B0F0BDF8B5044625686769B5F1FF3F07F4805702D0FEF773
:2053AC0027FC10B14FF0FF30F8BD6069000907D36068401E04F0BEF8606920F008006061BC
:2053CC0000206060A060E0602068FDF729F806464FF0FF3020604FB1054C206880470548DD
:2053EC0000EB0510FDF778F8606880473046F8BD581C0020601200202DE9F041054615F8BE
:20540C00017B90460E461CE0B8F1000F05F101050BD0FF2C09D8022015F8011B401E41EA6F
:20542C000424F9D101E0042C02D315F8011B00E0394630462246FFF757FCA61901E006F83B
:20544C00010B15F8010B8742F9D115F8014B002CE9D115F8010B2C7800022418D4D1BDE804
:20546C00F08170470146184880B5983000688A0CC0F38367C0F38F2022D241F307210029DE
:20548C000BD54A420021400805D17F0806BF0127381C4FF6FF70521EF5D1002910DD4FF648
:2054AC00FF72400040F00100824207D2780040F001070F2F92BF01200F27101C491EF0D177
:2054CC0040EA074080BDC046B8120050164880B507683FB315498B6803EA5300C00E21D2AC
:2054EC00134A106880081DD2486880081AD21068096810F0050F4FEA114101F0F00101F5D0
:20550C00E0710AD1B9420DD2190F38BF40F00100D90E38BF40F0040003E0B94202D920F04E
:20552C000500106080BDC04628500940AC3F00500000094090B5044645210020ADF1140D8E
:20554C00FFF7DEFD40B301206946022204F058FA00B3BDF800006FF30E00B0F5004F19D18B
:20556C0000206946022204F04BFA074602A803F049FE7FB1029FBDF80000039BBDF80010D9
:20558C0027810002A38040EA21202080380CE080180C608004F0CCFA05B090BD70B5064652
:2055AC00880F26D301F010FE124804F05BFA134DA81C0078012803D006F1380004F062FC94
:2055CC000D4800240460022002F00EFC1120FDF705FE307C10B90E20FDF700FE2846084A47
:2055EC0004721178447221B11470C830042104F001F870BDBD36000000000460580E002080
:20560C009C2C0020D0B51E4603461748082706600446037111F8013B7F1E637104F1010402
:20562C00F8D136B112F8011B761E417300F10100F8D100BFD0BD84460B48E0B50D46082705
:20564C00014606680A797F1E01F101010CF8012BF8D13DB136B1017B761E00F1010005F8A8
:20566C00011BF8D1E0BDC046182700201CB500204321FFF745FDFE200222694604F0C0F90C
:20568C0010B3BDF80000BDF8001045F249440006000C40EA21208442ADF8000014D1FF2011
:2056AC006946022204F0ACF970B1BDF80000BDF800100006000C40EA2120B0F5805FADF831
:2056CC00000008BF012400D0002404F031FA20461CBDFEE770B544688668D4F8A40003F079
:2056EC00C6FB13480025C56005601248361D05603068FDF773FD04F1100004F097FB04F145
:20570C002C0004F08FFB04F1600004F087FB207818B904F17C0004F081FB04F1C80003F00E
:20572C0017FB04F0FFFB84F8DC5004F0F7FB70BD04280040100405422DE9F041071C0E461D
:20574C0004D0144C2068F5B2A84202D80220BDE8F08104F124004FF0FF31804604F096FB0B
:20576C0004EB85049434206860B979680120A84027603246084308497860384602F0FAFD78
:20578C00002400E00124404604F07CFB2046BDE8F081C04658290020007FC7672DE9F843C2
:2057AC008146EFF31188202080F311880125114E114CF561114F6560F86A016A1420884722
:2057CC00D9F81000810C14BF000C0420A06138680268232100209047C6F88052206820F4DA
:2057EC00C02040F480302060356088F31188BDE8F883C04600002443002009408401001025
:20580C0098B504462068B0F1FF3F05D06269500904D342F480626261002098BD100A05D36C
:20582C0020460021022201F09DF8626990094FF0000104D2D00924BF42F02002626167680F
:20584C004FB9D00807D202F0070220464FF48073FDF796FD0146E2680020226101B9012056
:20586C0098BDF8B506AF38881D4614460E46002818BF0B2025D10846694602F0FFFD012860
:20588C0003D1002028800120F8BDBDF800704AF6712100207F1A0BD07F1E012F84BF288047
:2058AC000A200ED801212980F16809782170F8BD0A212980F1680A6822604F6867600B89AE
:2058CC002381F8BD2DE9F04105462C68287A6E6804EB8000C1632F7A90460823ADF1380DA5
:2058EC003022002101A804F0F5FA7801012100220695A0EB870024187079ADF81C1001AB91
:20590C00241D0092064A31790990204604F0DEFA4146284603F070F80EB0BDE8F081C046B9
:20592C00096A00007FB5466819B98068057D447D01E00D784C78FF2D1DD0FF2C1BD0104858
:20594C0040EA05010091FE23029320436946019006F19800FEF786FCC6F8A40058B1294641
:20596C000D2202F0F1FCD6F8A40021460E2202F0EBFC002001E04FF0FF3000907FBDC046EA
:20598C0000200084D0B5044604F088FA00F0BAFE071C08BF6FF002041FD003F0D8FB01461F
:2059AC00A2880F480023603030F80C6F5EB902804760A2688260237378682061002408466F
:2059CC0003F046FE09E0964208BF6FF00204F6D05B1C0B2BE8D300F091FC2046D0BDC046F3
:2059EC001C1500201648144A144908B5E4300078801E0A2807D8DFE800F01814100614101C
:205A0C000614100609C004F055FA11E010688008FCD250688008FCD20AE008688008FCD3C0
:205A2C0006E008688008FCD202E010688008FCD3FCF780F908BDC04634600C4038600C4002
:205A4C00F013002010B504F06DFA114C611C097829B10E490C6804F061FA204610BD04F081
:205A6C005DFA03F05FFE0DA20CCA03F093FDA26C002314001B1807A044EB010490E806009A
:205A8C00C91842EB04021046001C10BD04300440580E0020000000127A00000000093D00D7
:205AAC0000000000134910B50A684BF2F5214843040AC2F38140012806D102F0EBFD01F01A
:205ACC0065FB604304EB90540C4901F1E500007830B90948006820F07F402418640802E045
:205AEC00002081F8E50006480460210C41600123836010BDB43F005010200940F0130020E9
:205B0C003C600C401FB5684603F0D0FF3221ADF8021000208DF800008DF804006946FEF771
:205B2C00CDFE0E4C241D206008B904F073F902A804F06CF920684FF0FF3104F07CF8206868
:205B4C0005490122FFF7BEFE206800F0B5FD4FF0FF3004F057F9FAE771990000FC0B002028
:205B6C00B0B5044604F008F830F0010008BF6FF004041ED004F092F9054603F0E8FA014653
:205B8C000D480B226C3030F80C7F6FB1A388BB4208D1406800680022854208BF0122A26022
:205BAC00002403E0521EEED14FF0FF34084603F04FFD2046B0BDC0461015002008B50120A8
:205BCC0003F0F4F901281DD00F4834210122002301F0C4F9002808BF002014D00B48006875
:205BEC0002F0F8FD03F0AAFB0A4A93681168D060C01A074BA1EB91014343180C884228BF7D
:205C0C00011C1160012008BD00A00C408000001040420F00802C002098B5154B1B1D1868C6
:205C2C000004070C21D002F035FD104991F90720824205DD10F1800FB8BF6FF07F00C8715E
:205C4C008C88BC4210D80A68D3F8D40F801A801C1F2888BF1F203F1B4008C7404FF6FF70BE
:205C6C00E719B84238BF071C8F8098BDAC2C00203010094038B50C4620B142680121A14062
:205C8C000A4201D1022038BD8A43104B42600025A3F1600000EB84012218C1F8945002F1A6
:205CAC0040010978FF291ABF406850F8211044F020410548FDF742FF20464FF0FF3103F015
:205CCC009FF9284638BDC046007FC767B829002010B503F059FDF0B101206821FFF710FAB0
:205CEC00002808BF002419D00D4C207A40B10E480C490068B1FBF0F004F084F800202072F7
:205D0C00611D7520012203F07BFE20B16079712808BF012400D0002403F00AFF204610BD83
:205D2C00781A0020A086010064A50000F0B5154C241F65682879ADF1340DFDF7B9FA04F044
:205D4C00F1F8266807463078A0B901A800213022082304F0BFF80694A87900230990084AB7
:205D6C000093697901AB301D04F0B0F80120307003F01EF8384604F0D1F820460DB0F0BD38
:205D8C00319C0000C8A4000098B5134C0C342068011D4068406810B180472168091D086835
:205DAC000830016809B94768A7B10C4A1C321768002FFCD00023136029B108468047206842
:205DCC00001D00680830406800B180470448503802F08EFF98BDC046580E00200010044052
:205DEC0051000706F8B5074604F09CF8124C06462079E0B1401EC0B22071C0B904F1C8004C
:205E0C00082103F0F7FB97B1E068703003F000F8E0680A4DC0683F1A286804F1A405B7FB4D
:205E2C00F0F1284604F076F8284604F06FF8304604F074F8F8BDC046580E002064A50000BC
:205E4C001549096822280ADC222819D00C380FD00E380FD0001F0FD0C01E0FD01AE02638A9
:205E6C0010D0001F10D0401E10D0401E10D011E0086870474868704788687047C8687047AE
:205E8C00086970474869704788697047C8697047086A704700207047F001002038B544682C
:205EAC008568D4F8A00001F0D7FBD4F89C0002F0DEFF2968486820F00200486004F11C0077
:205ECC0003F0B4FF04F1380003F0ACFF287BFDF785F9207818B904F16C0003F09FFF04F1E0
:205EEC00C40002F035FF04F01DF8002184F8D91004F014F838BD70478C4601461046124AA6
:205F0C0008B571B1491E08D0491E1CD1BCF1010F19D1521C0078107008BDBCF1010F12D191
:205F2C00F8E7BCF10A0F0ED1036802F10C010B6043684B6003890B8104480090906808238E
:205F4C001832FEF7BFFA08BD9C1700206F58000038B5134D95F8E100002410B91148007865
:205F6C0060B103F0DFFF95F8E310002906BF012185F8E310012403F0D1FF0CB1002038BD79
:205F8C00022001F049FF0E20FDF792F902F0C4FD01280EBF0120002085F8E20038BDC046A9
:205FAC00F0130020B2A400007FB5866831684568486820F0020048603168486920F00F0021
:205FCC00486130680321016202A803F01FFF0B4800680468286900906869074B0190297E8F
:205FEC0003EB81010A6A297B306853F821300399A04700907FBDC04648A20000C4010010C5
:20600C001CB5144C2078062815D040F205300DF10201FCF78BFA9DF8020000280CBF01200D
:20602C00002001210DF101028DF8010040F20530FAF7D6FD207806280AD101248DF80040D5
:20604C0003F0D4F840F205306A462146FAF7C8FD1CBDC04620050020F8B5054603F052FFE1
:20606C00104C0646A41E20780A280DDB03F05AFF618841F02001618003F050FF0A48006894
:20608C0003F000FF002703E0401C0127C0B22070304603F02BFF1FB1284602F0E9FDF8BD14
:2060AC000020F8BDDE1600202805002038B505466C68D4F8A810237A002203B901226368A5
:2060CC009847D4F8BC00D4F8C01081420FD081692846C4F8BC10FEF7D3FAB0F1FF3F0ED1AF
:2060EC000320207204F12C0003F0C8FE38BD0020C4F8A800C4F8BC00022001F075FE38BD99
:20610C0030B5002124220823ADF1240D684603F0E9FE0D4C012529466A468DF8185004F125
:20612C00140003F0DBFE01F0D3F903F077F8257302F098FC05492060FF2008700449002064
:20614C00087009B030BDC046102C0020B92C0020B82C00202DE9F0410C46804603F0E6FD75
:20616C00002700B1012717B1404602F051FE0D4D28684FF47A76B6FBF0F080B204FB00F1B4
:20618C00404603F0C7FE2868B6FBF0F080B204FB00F1404603F0CCFD17B1404603F0B6FE3B
:2061AC00BDE8F08164A50000012838B51ED1012002F0FCFE01281BD003F0D8F80D4D0E481B
:2061CC000122322305F1E00100680A70B3FBF0F404B914463035284602F01AFE2846214627
:2061EC0003F098FE284603F091FE01E001F088FB002038BDF013002064A50000084610B571
:20620C0000F0005100F00400084317D0012002F0CDFE0E4C01280CD0094909686C34322217
:20622C002046B2FBF1F103F075FE204603F06EFE10BD044803F016FC0348046010BDC04692
:20624C0064A50000ED05000000100440900E002038B51248104C0168114D0C40E1430160EA
:20626C00A10908D34068800905D328464FF40051C83003F0BFF914F4602F0BD0284600F10E
:20628C009C010A6804F46024FC3014430C60002103F0B0F938BDC04620000E000810044036
:2062AC00580E002098B5044603F03CFE8446104890F8A310C90803D390F8A210A14213D084
:2062CC00B0F8A0300B4F012202FA04F11943A0F8A010391D0B6804F10C07BA4093430B601C
:2062EC000F680FB900210170604603F017FE98BD580E00200810044000BF704708B5FFF7B3
:20630C00FBFFFEE738B50D4C0546A06820B10C48B0F1FF3F00D080470A4800688047606815
:20632C0010B1014628468847206800B18047064800688047FFF7E2FF38BDC0462C1C002055
:20634C00FFFFFFFF581C00205C1C0020DCB5044603F0A4FD01F0E8FC064603F00DFC30F05D
:20636C00010014BF002E6FF0040017D0606858B1B0F1FF3F05D0694601F0BEFC30B10746B8
:20638C000BE04FF0FF3000E0002000907068009903F07CFD002700B901273846DCBD2DE9F6
:2063AC00F0478046D8F80450D5F8880000240474D5F88860D6F8049003F0B4FD05F1D8072F
:2063CC008246387848B119F0704F02D1042001F00BFD022001F008FD3C70504603F09EFDA0
:2063EC00AA68C5F88840404631469047BDE8F087F8B5114C6678E578182002F019FC071C63
:20640C0019D00421002203F0FBF9304602F03CFB38727D720020B87204F14806FE6004F141
:20642C0058033B6104F120027A6102F011FC034A394600F0F5FFF8BDE0080020C99C000096
:20644C002DE9F04104461148401C90F8008016460D46102002F0ECFB071C12D004210722D7
:20646C0003F0CEF9404602F00FFB38727C72BD72FE6002F0EDFB044A394600F0D1FFBDE8A3
:20648C00F0810420BDE8F081F39C0000E0080020F8B5044603F002FD00F034F9071C19D09C
:2064AC0002F055FE84460D480021603030F80C6F6EB94FF6F872028047600025856021717D
:2064CC007868A060604603F0C3F82846F8BD491C0B29EBD3FFF712FFF8BDC0461C150020EF
:2064EC000F4908680028FCD1104A131D0D49186820F0030001430C480068C0080CD2106842
:20650C0010F0030F0AD041F003001860106800F003000328FAD101E041F001011960704732
:20652C000C00684204000020B03F005000400340F8B516460C4603F0F5FC02460F4841781C
:20654C00832554B1641E02D0641E10D00DE08179012904D0B0F8A01005E0876A0FB980254C
:20656C0006E0806A818B318002E0032500E03170104603F0D3FC2846F8BDC046580E002030
:20658C002DE998430446276E9946904607B1B8470020022100EA090001EA0801002808BF9A
:2065AC0000290BD104F1580090E8060008EA010109EA0200002808BF002907D004F16800CA
:2065CC0080E8000304F1380003F05CFCBDE898831CB500204521FEF793FD002808BF00241D
:2065EC001BD07E206946022203F00AFA90B1BDF8000044F6541181420CD17F206946022295
:20660C0003F0FEF930B1BDF80000B0F5987F08BF012400D0002403F08BFA20461CBDF8B5EE
:20662C0006AF38881C4616460D46002818BF0B201BD10846694601F021FF012808BF012093
:20664C0013D0BDF800204AF665210020914207D0BDF80020491C91421CBF20800A2004D15F
:20666C0001212180E96809783170F8BD11481CB500788DF8010003F0A5F802F043FF03F044
:20668C0097F803F09FF80DF10100012101F00CFC6846012101F0F0FB044603F089F8002C25
:2066AC0018BF6FF0010004D19DF800004008E8D200201CBD1CA5000038B505461049686810
:2066CC002B7A02681801A0EB43000B5AD16840F2011018400843D0602C6803F023FC297ABB
:2066EC0064184434217839B90121217003F016FC022001F091FB38BD03F010FC38BDC046C9
:20670C0054A300002DE9F843804602F020FD0F4C08250026814654F80C7F5FB93046C4F8BA
:20672C0000800146A6600A4603F068FB606018B9FFF7E4FD474501D1264601E06D1EEAD181
:20674C00484602F085FF3046BDE8F8831C150020B0B5054603F0A2FB044603F00DFA30F09E
