:20000000F83F00202969000001CA011001CA011001CA011001CA011001CA011001CA0110CF
:1C00200001CA011001CA011001CA011001CA011001CA011001CA01103FCA011082
:20003C002DE9FE4F0CAF3C8881460D4608469846164601A908F05CF8012808BF01204CD0FD
:20005C00BDF80400DFF898A042F6021100274FF0FF0B401A2DD048F26F11401A31D0401E37
:20007C0013D0401E23D104BBB8F1010F1BD1307848B1E9680870E9685646701C884220D12D
:20009C004FF0020B20E080271BE074B9B8F1010F09D13078E9680870E96856468E4210D187
:2000BC004FF0010B10E00D270BE00B2709E00A2707E00094484643462946324606F036FADF
:2000DC000746BBF1FF0F07D05046001D006818B1016809B1584688473846BDE8FE8FC046FC
:0400FC00D4150020F7
:200100003C000000000000000000000034010000000000000000000001000000000000006D
:1C01200000000000000000000000000001000000000000000800000000000000BA
:20013C00340000000000000000000000680100000000000000000000010000000000000005
:14015C00010000000000000000000000080000000000000086
:2001700030000000000000000000000098010000040000000000000001000000FFFFFFFFA5
:10019000FF00000001000000080000000000000057
:2001A0002C0000000000000000000000C4010000040000000000000001000000FFFFFFFF4D
:0C01C000FFFFFFFF08000000000000002F
:2001CC0034050000E401000099A1011095A70110A5C2011009B2011045B80110000000000B
:0801EC00000000002F000000DC
:2001F400280000000000000000000000140200000000000000000000FFFFFFFF00000000B1
:080214000800000000000000DA
:20021C00300500003002000069C201106DC101101FC2011095BA011000000000000000008E
:04023C002D00000091
:20024000300500005402000075C20110A9B601109DBF011049B601100000000000000000DE
:040260002E0000006C
:200264002400000000000000000000008002000000000000000000000000000008000000CC
:040284000000000076
:20028800240000000000000000000000A40200000000000000000000000000000800000084
:0402A8000000000052
:2002AC00240000000000000000000000C8020000000000000100000000000000080000003B
:0402CC00000000002E
:2002D00000000000E81A002004000000000000000000000020000000700100003000000027
:2002F0001C020000F01A00200400000000000000000000000C00000030040000180000004A
:2003100040020000F81A0020040000000000000000000000240000004804000018000000CD
:2003300000000000001B002004000000000000000000000010000000A00100002C00000091
:20035000CC010000081B0020040000000000000000000000200000006402000024000000CF
:20037000FFFFFFFF101B00200400000000000000000000002800000088020000240000004C
:20039000FFFFFFFF181B0020040000000000000000000000580000003C0100003400000031
:2003B000FFFFFFFF201B002004000000000000000000000010000000600400001800000046
:2003D000FFFFFFFF281B00200400000000000000000000001C000000AC02000024000000BC
:2003F000FFFFFFFF301B002004000000000000000000000038000000F4010000280000002D
:20041000FFFFFFFF381B002004000000000000000000000054000000000100003C000000C8
:1804300018000000000000000000000040040000080000000000000050
:1804480018000000000000000000000058040000080000000000000020
:18046000180000000000000000000000700400000800000000000000F0
:0804780001000000E8A10000F2
:0404800009F03CBA89
:040484000100000073
:0404880000000E0062
:04048C0000000F005D
:040490003200000036
:040494000100000063
:040498006C1A0020BA
:04049C00000200005A
:0404A0000000000058
:0404A40001CA011078
:0404A8000000000050
:0404AC00000000004C
:0404B0000800000040
:0404B4000000230021
:0404B800C018002048
:0404BC00010000003B
:0404C000841A00207A
:0404C400080000002C
:0404C8000000000030
:0404CC00000000002C
:0404D0000000000028
:0404D4000000000024
:0404D8000000000020
:0404DC00010000001B
:0404E000901900204F
:0404E400060000000E
:0404E800010000000F
:0404EC00E0170020F5
:0404F0000000000008
:0404F4000000000004
:0404F80000020000FE
:0404FC0000000000FC
:02050000704742
:020502002900CE
:020504000100F4
:020506002500CE
:020508002D00C4
:02050A002E00C1
:02050C002F00BE
:02050E000100EA
:0105100001E9
:080514000300000084A10000B7
:08051C000000000000000000D7
:0405240000000100D2
:0405280000000300CC
:04052C0087C401106F
:04053000380500008A
:040534003805000086
:0405380000000000BF
:04053C00900000002B
:040540009000000027
:0405440000000000B3
:04054800841A0020F1
:04054C00CF94000048
:040550002000000087
:0405540044A00000BF
:04055800649F00009C
:04055C000DC30110BA
:04056000D36700005D
:040564007B6A0000AE
:0405680099C801101D
:04056C009BC8011017
:040570000000000087
:040574003F9F0000A5
:04057800109E0000D1
:04057C00289E0000B5
:04058000F89D0000E2
:0205840008006D
:0205860009006A
:02058800010070
:02058A0000006F
:01058C00016D
:040590000000000067
:040594000000000063
:04059800000000005F
:04059C00000000005B
:0405A000819900003D
:0405A4008172000060
:0405A800CD850000FD
:0405AC00F97B0000D7
:0405B0009778000038
:0405B400297C00009E
:0405B800CD52000020
:0405BC00B1960000F4
:0405C000CD59000011
:0405C40011C8011049
:0405C80021C8011035
:0405CC000800000023
:0405D0002400000003
:0405D400180000000B
:0405D80028000000F7
:0405DC0020000000FB
:0405E0003C000000DB
:0405E4000C00000007
:0405E80034000000DB
:2005EC002DE9FE43B04C0F460646F80B80F03781B80880F0C9806069B90F69D2A07A002849
:20060C004AD138094AD3002501266570A748267209F050F8A6492A4604F14C0009F095F945
:20062C00607901281FD1A079E8B9DFF88882266AD4F81490D8F8000070B108F0A5FEA0EB0A
:20064C0009004346000B8619E0611868B6EBC01F28BF256208D2266204F1C8004FF00051F4
:20066C0008F006FE31E0667104F1380140F60900088094F8450000F0F00040F0010084F837
:20068C004500658794F8440000F0F00084F84400E563894E316018E0380914D2B80BC0F06B
:2006AC00FB8004F1280009F05BF9061C08D0706830B17568F068B6F91C1082A20CCAA8479D
:2006CC0027F40057E8E00020A07227F00807E3E0D8B1042008F0C0FAB8B108F055FEA061A5
:2006EC006169814226BF401A401E401A000BF060F06840F6C41100F58D708142F06003D3D1
:20070C0040F2EE22824200D9F1600025D6F818C06561BCF1000F0FD094F8450010F00F0F82
:20072C000AD1708C40F60901814205D167A20CCA30466FF48071E047604904F14C002A46D3
:20074C0009F003F9A07950B10220ADF80000684608F022F9A571BDF80800A4F8A0000120C6
:20076C0060702079A846401C2071192084F8078008F018FF756925B156A20CCA304641465F
:20078C00A84727F0005787E004F13009484609F0E7F8061C5AD006F0A4FD4FF00008B269B0
:2007AC00C6F818807068B8B1F07F42F00202002300F00700401E07D0401E03D0801E06D1FC
:2007CC0046A002E047A000E048A090E80C007568F068B6F91C10A84709F0BEF90546B4F96B
:2007EC003600401C6FF31F30E086206B1F30017801F07F010170484608F092FC284609F094
:20080C00A7F9F068B0F99410B4F9362091421DD1217801291AD090F8965095B9056885B1B7
:20082C00E1680968B1F1FF3F10D0254909687030B5FBF1F109F088F9F068703009F080F93D
:20084C0004E080F89680404605F05EF8484609F087F827F0020708B147F002071CE009F035
:20086C007BF9014604F12C0009F07AF80646B569084609F06DF9A8080CD25EB1B069A8436D
:20088C00B061706830B12A46F068B6F91C1075680023A84727F4804727B104F1C8003946FA
:2008AC0008F0E6FCBDE8FE83580E002035510000F1870000082A0020001004403D250000A0
:2008CC00E0A100000000000020000000000000000000000200000000000000040000000065
:2008EC0000000010000000000000004000000000000000202DE9FE430646DFF8DC82DFF8CD
:20090C00DC92B2780024101C00F03581801E00F00D81401E012840F2E180801E00F0A88051
:20092C00401E7BD0401E59D0083800F04681801E40F046814546B08895F83E70ADF800004C
:20094C00052F45D001208DF80A0005F1CC0009F00BF895F83E0001281BD0042819D00328B5
:20096C0006D0022804D0F28831897089B38907E0B5F84020B5F84210B5F84400B5F8463027
:20098C00ADF80220ADF80410ADF80600ADF8083020E0B5F84000F1888842D8BF081CADF8B3
:2009AC0002003189B5F842008842D8BF081CADF804007189B5F844008842D8BF081CADF83D
:2009CC000600B5F84630B0898342D8BF031CDDE78DF80A40684608F085FEF1E0454605F120
:2009EC00F00008F0C1FF7078002840F0E980F088E882308928837089688305F1CC0008F0B6
:200A0C00C1FD002840F0DC80AB6A002B00F0D8801B68E88A298B6A8B9847D1E0B08807F073
:200A2C0009FE45462146062205F1380003F0EAFEEC822C836C83B079687305F1CC0008F0B6
:200A4C0093FF05F1F00008F08FFF01244FF6FF706F79A8824FB9B079082814BF0420052024
:200A6C00A870204608F0BCFBAAE00320A870A7E0707858BB311D0A68454605F1380002601B
:200A8C00898881800627AF707089A882F089E882308A2883708A6883F0784446287394F883
:200AAC003E00012818BF02280AD11F2006F020F94FF47A71024604F1CC00514306F086FB57
:200ACC00F0787289311D06F011FB7BE0707831286FD14D4604202870204623E07778002FA5
:200AEC0067D14546698AA878032A13D02A796F7921B9012A14BF6C712C7106E0174304D013
:200B0C0005F1A80006F062FBA878072814BF0420062007E0062807D02879002808BF0324C9
:200B2C00DAD00220A8704DE00724D5E77078751C00283ED14246F7789078D1799FB9022836
:200B4C0016D0072814D0062802D1517901290FD103280DD002F1A80008F014FD40B90120F5
:200B6C0008F03EFB04E08732204605F055FA28702878F0B924E07078D8B9454602201021B5
:200B8C0005F1480206F0D0FD0320102105F1580206F0CAFDF61C05F12C00B78831688780D2
:200BAC0005F1680201600120A979A87005F034FA40B108204D46287004E0B08808F086FD0F
:200BCC00012C06D14546686A18B1016809B1A8788847BDE8FE83C046E0080020E20800208F
:200BEC00F8B5A0F2013517460E46022D40F20C818649874C874A884B2D1F0F2D04D9143DD9
:200C0C004AD0AD1E1CD011E0DFE815F0BA00B500EB00DB00AE00A700FE009F00980010006B
:200C2C001000900086007A006F006200282880F2EB80022E40F0E880398806F087FBF8BD54
:200C4C00012E40F0E1800A469078012800F0DC80D1783878D07081B9002800F0D580107893
:200C6C00012800F0A080042800F09D80062800F09A80052800F09780F8BD3878002840F0CD
:200C8C00C3801078032800F09980072800F09680052800F09380F8BD012E40F0B5803878EB
:200CAC00012840F0B180254605F1F00008F06AFC002840F0A98004F13E01002003F03CFFEC
:200CCC00002840F0A18004F1CC0008F04DFEF8BD022E40F0998038880A28C0F29580B0F5FF
:200CEC00486F00F39180114614E0022E40F08C803888B0F5FA7F80F2878011460880F8BD8B
:200D0C00022E40F08180388806287DDBB0F5486F7ADC1946891CF1E7022E75D1388806282E
:200D2C0072DBB0F5486F6FDC1946E7E7012E6BD13878062868DA1146891F0CE0012E63D1AD
:200D4C003878042860DA093105E0012E5CD13878082859DA08310870F8BD012E54D1387879
:200D6C00042851DAC91DF6E7012E4DD1387804284ADC891DEFE7022E46D138881031BDE796
:200D8C00012E41D10A46D07801283DD091783878907061B9002837D01078012803D0042886
:200DAC0018BF052830D1012008F01AFAF8BD387850BB1078022818BF052825D108F092FB54
:200DCC00F8BD254600211F2205F18704204603F019FD39463246204602F08EFF0020EE713A
:200DEC000EE0254600211F2205F16804204603F009FD39463246204602F07EFF0120AE715F
:200E0C003146224605F008F9F8BDC046E2080020E008002024090020200900202DE9F04F39
:200E2C000128ADF1140D40F0F280DFF81492D9F8DC00012840F0E9800220C9F8DC0008F079
:200E4C007BFE0290012005F077FC20B101210646C9F8DC10D5E008F06BFE03906E484FF068
:200E6C000008C0F80080012007F0F6FE012818BFCDF8008004D1404604F082FF0120009054
:200E8C0066486E4CC0F800801934D4F8FF0F112008F06AFC00280CBF46460126102008F022
:200EAC0063FC08B146F002060F2008F05DFC08B146F004060B2008F057FC30B158480068F8
:200ECC005849006B0246088890470A2008F04CFC0028404618BF01204FF0805B0BF5DC75D0
:200EEC0028B128685049006B0246088890474F480127076028688069014646F020008847BF
:200F0C004B48076008F02AFC00F001010191400815D2484808F08EFB8246BAF1040FF8D09B
:200F2C00BAF1010F06D1DBF8D801406802464148032190474049086820F0030008604046F9
:200F4C0000F080F82868D4F8FF1F806B8047019801280ED0BAF1010F06D1DBF8D80140686B
:200F6C0002463448394690473349086840F0030008602A4807602868406901463046884726
:200F8C000B2008F0F1FB28B128682649C06A0246088890470A2008F0E7FB28B128682249AD
:200FAC00C06A024608889047204807600322C9F8DC201F4BC3F800802868406B01463046FE
:200FCC0088470128F8D1042005F0B6FB124807601A48D4F8FF1F01688909FCD300980128E2
:200FEC0002D1384604F0CCFE08F0B2FB082005F0A3FB06460398C9F8DC7008F095FD04F004
:20100C009DFB029808F08CFD02E0042600E00126304605B0BDE8F08F0C40094000022243B3
:20102C00B80100108E9D00008A9D0000282008608001044300400340242208401410094093
:20104C005C1200202DE9F84FDFF8E8B10746ABF13500DFF8D4910068800880F0D68007F022
:20106C005BF9064677480830D0F8008000254FEA28725FEA985002F101020AD2C6F13E0095
:20108C0016F10A0F4FEAE000D8BF08208242B8BF021C624BD3F87C01C0F3046008F0C3FA32
:2010AC0004461868C0F3044008F0BDFA12198246162A05DA12F10A0FB8BF6FF0090200E0C5
:2010CC001522574B574802F01F0141F4F8511980006810F0030F18BF0125C00828BF45F008
:2010EC0002050FB145F00405494691F90700301A052804DA8879A84208BF888865D0DFF89C
:20110C002CE10F2EA6F10F0C25DB0CEB0610A0F1F00C4FEA2C27072F88BF07273C46062C42
:20112C0088BF06245EF82400042303EB84037446E3581B1A03F0FF04E80824BFC3F307204C
:20114C000444A80824BFC3F307400444680828BF04EB136401E0002427465EF827E0E808E7
:20116C000EF0FF0324BFCEF307200344A80824BFCEF307400344680828BF03EB1E63A4B253
:20118C00ACEB0727BAEB020004FB07F404F1800403EB1423D8BF0120342208F0FF074243AE
:2011AC007A43B2FBF3F04FF6FF72824238BF101C802E80B2888005DA16F1800FB8BF6FF006
:2011CC007F0600E07F26CE718D71194A12681F280A604FF0000208D340F2FF11814206D235
:2011EC004008521C8142FBD301E01F208880124F0F38000942EAC00247EA0200CBF8FB0FD5
:20120C000026CBF8FF6FBDE8F88F0D4F0B4E494608203760891D0870BDE8F88F3C11005055
:20122C006E620840242208400C2A00209C130050082009403500094000E7A4803010094024
:20124C00FDFDA400AC3F00502DE9F0411C4615468C4208BF854282BF00230022E5E0002CD2
:20126C0008BF002D0AD100290EBF00286FF000006FF0000100F0E1F8BDE8F0815FF0000880
:20128C005FF0000E002C08BF8D429CBF2C1C0025070C47EA01470E0CB44208BFBD429EBF9C
:2012AC005FEA044444EA15445FEA0545070A47EA01670E0AB44208BFBD429EBF5FEA04242B
:2012CC0044EA15645FEA0525470847EAC1774E08B44208BFBD4200F29380870847EA817761
:2012EC008E08B44208BFBD427CD8C70847EA4177CE08B44208BFBD4266D8070947EA0177FB
:20130C000E09B44208BFBD4250D8470947EAC1674E09B44208BFBD423AD8870947EA81674F
:20132C008E09B44208BFBD4224D8C70947EA4167CE09B44208BFBD420DD8E60146EA55665F
:20134C00EF01B14208BFB84201D3C01BB14158EB08085EEB0E0EA60146EA95664FEA8517DD
:20136C00B14208BFB84201D3C01BB14158EB08084EEB0E0E660146EAD5666F01B14208BF68
:20138C00B84201D3C01BB14158EB08084EEB0E0E260146EA15762F01B14208BFB84201D364
:2013AC00C01BB14158EB08085EEB0E0EE60046EA5576EF00B14208BFB84201D3C01BB14177
:2013CC0058EB08084EEB0E0EA60046EA9576AF00B14208BFB84201D3C01BB14158EB080821
:2013EC004EEB0E0E660046EAD5766F00B14208BFB84201D3C01BB14158EB08085EEB0E0E2F
:20140C00A14208BFA84201D3401BA14158EB08085EEB0E0EA34208BFAA423EBF2D0A45EA68
:20142C000465240A89D3734642461E4617460B46024631463846BDE8F08170472DE9F843FF
:20144C00814608F07FF9002100B901216B4E30680028FCD06C4D01242D1DEF6A346009B139
:20146C0008F076F9DFF89881C7F3072008F1BC01086008F067F9002100B9214630680028B1
:20148C00FCD02F68346009B108F062F9C7F38440C8F8C00008F056F90146002001B9204670
:2014AC00014630680028FCD0ED69346009B108F04FF9C5F38120C8F8D000B9F5C061C8F8F1
:2014CC00B81000F0968098F8D80068B9C8F8D410D8F8C000C8F8C800D8F8BC70C8F8C470FD
:2014EC00D8F8D060C8F8CC60D8F8D410D8F8BC60002954BF02206FF00100454605F1C8034A
:20150C001A6801EB41014018411000EB917002EBA0021A60D5F8C810C5F8C46000291CDDC9
:20152C001E293DDDD5F8CC0030B93429B4BF15391E21C5F8C81025E02A29BABFD5F8C80064
:20154C000B381E20C5F8C800D5F8C4003F28B4BF401C3F20C5F8C4001FE0D5F8CC0003280F
:20156C0012D011F10B0FC6BFD5F8C8000B30201CC5F8C800D5F8C4000028CCBF401E002089
:20158C00C5F8C400032009E011F1150FC6BFD5F8C8001530201CC5F8C8000020C5F8CC00C3
:2015AC00B5F8C400174E30214FF47F4208230090304605F055F8009404214FF4003211231F
:2015CC00304605F04DF8B5F8C80004214FF4F80212230090304605F043F8B5F8CC00202153
:2015EC004FF440620A230090304605F039F8BDE8F883002088F8D800BDE8F88300800C401D
:20160C005C12002000A00C4000A00C402DE9F043ADF11C0D04F060FB684C04F1280004F133
:20162C00900102F0B7FBDFF89891E060494608F053F906F035FE07F089FE07F0E1FE0426AF
:20164C004FF47A7200235F49206104F16C00009604F0DCFE1F20012105F078FE0620ADF8A7
:20166C00120001258DF8146000278DF818506423ADF816708046ADF80E7006AAADF80C30ED
:20168C002946ADF8108040F20530FFF7A9FA40F2063002210DF11602FFF7A2FA04F14E0222
:2016AC004FF442701B21FFF79BFA04F1400240F207300E21FFF794FA4FF4447005AA2946FA
:2016CC00FFF78EFA40F2113002210DF11202FFF787FA40F21230022104AAFFF781FA40F279
:2016EC00133002210DF10E02FFF77AFA4FF44570022103AAFFF774FA07F0FAFF4046A0219D
:20170C0005F024FE0720A02105F020FE0820A02105F01CFE0920A02105F018FE02978DF8A0
:20172C0007508DF8067003208DF80450314602AA8DF805004FF4816005F0EEFD4FF480607B
:20174C0029460DF1070205F0E7FD40F2024029460DF1060205F0E0FD40F2034029460DF191
:20176C00050205F0D9FD40F20640294601AA05F0D3FD08F0A2F8FEF77DFE07F0D3FD04F077
:20178C001FFE03F0B5F8A0707F2814BF0A200F20052105F07FF804F087FF06F099FE07F00D
:2017AC003BF907F005FA06F009FB08F062F8E068494608F091F807B0BDE8F083200500203B
:2017CC00658A00005D9100002DE9F04FADF1840D00F096FD04F020FF0026012804D107F0EB
:2017EC000FFC022808BF012658490868C0F38150012806D151F80C0C0127010E07FA01F09B
:20180C0006435348007806F0C3FD524D2C46286038B1FF2204F1400107467F1E01F8012BC2
:20182C00FBD14D4909684FF0000901F0FF02FE2A1BD0DFF824C101F0FF074A460123FF2FE7
:20184C000CD0B8427FD903FA07F73E427BD101F0FF0147EA0909611881F840205CF8041F8A
:20186C00521C01F0FF07FE2FE9D1092001F07AFB3948002124220823606001A808F04CF9C8
:20188C004FF0010804F1240001AA8DF81C80414608F03EF9236843B3002794354FF0040B9A
:2018AC00BA4608FA07F0064219D119EA000F04BF07F0FF0141F4C04105D0E019264990F82A
:2018CC00400051F82010254801F02AFFF8B24FF0FF3107F0EBF92368C5F800A001E0C5F842
:2018EC0000B07F1C2D1D9F42DBD30AA800213022082308F009F90025FF2010210AAB1290A2
:20190C00174A009504F1080008F0FAF816A828220823294608F0F0F804F1600016AA1C9596
:20192C0010491D952B4608F0E3F80F4951F80D0C20F4F85040F4005041F80D0C4746C1F81A
:20194C00FF7F0A4E376021B0BDE8F08FB43F00501D2A0020C0260020389C0000007FC767E8
:20196C00D58C0000196800000D300940080009402DE9F843674C04F1240007F0F1FF154643
:20198C000E46009008F0E8F805F001078146B6F1FF3F0CD1A06A20B9B4F93600401C06B21F
:2019AC0002E0A06AB0F91C60002084F8A300304606F07AFB0326002800F09B80A16ADFF8AC
:2019CC004081814269D0009FB8422ED03FB100990A68904209D0096800290091F7D1832E5D
:2019EC0041D0484608F0B4F83DE004F1A40007F083F800980168AA0802D20A6802600846C7
:201A0C00002202600091009818B9484608F0A0F828E0C17F41F00401C177684607F080FB48
:201A2C000146404605F0E4FDEDE704F1A40007F063F8A8083ABF606A0068002060624846ED
:201A4C0008F086F80099C87F40F00400C877684607F066FB0146404605F0CAFD009808B1D1
:201A6C00A808EFD28326E07988B9207A012843D0244807F01FFE022104F1C80007F0F8FB86
:201A8C006078012838D0204807F014FE34E004F1C800022107F0ECFB2EE0A90803D3616A8E
:201AAC00009100266662C27F0121B9401143C17708F03EF80446002F14BF1448144806F08B
:201ACC006BFF484608F044F8A80801D3009820B9204608F029F883260EE0C17F41F004014D
:201AEC00C177684607F01CFB0146404605F080FDECE7484608F02CF83046BDE8F883C0468E
:201B0C00880E0020ED050000A13200000100020401000104580E00202DE9FC415E4C574D0A
:201B2C00574EDFF860815A4F94F8E410481E0B2861D8DFE800F07B2C4306234306234306C2
:201B4C007664042907D001220A2945F8212C14BF0220032004E02021012045F8211C02469B
:201B6C0084F8E200002045F8390C0827C5F8FF7FC5F8F37F45F8392CBDE8FC81052914BFFB
:201B8C0009200620002584F8E400356070E094F8E1700120383D002FC5F81B0004BF06201D
:201BAC00002102D00021F160032084F8E400032045F8010C31603068800859D294F8E40078
:201BCC00012503280DD00021404660220523009104F046FD94F8E400062814BF0A200720F0
:201BEC00D1E702200090002160220523404604F037FD0420C7E707F077FFBDE8FC8122492A
:201C0C00002622480E60012505600E2001F040F9022005F013FF84F8E45084F8E360BDE89A
:201C2C00FC81002038600C2578601FE01948006800680146202088472C3D41F61D560F2092
:201C4C0000214FF4C072072345F8010C4046C5F803600225009504F003FD404600214FF42E
:201C6C00C072072304F084FF0120386084F8E45004F1780007F064FFBDE8FC8139400C406E
:201C8C0038600C4000A00C402C500C4004800C4034600C40A00100105C1200202DE9F84F54
:201CAC009A4693460E46814607F056FF514C0090B4F93610B4F934000AAF401A40F6F87145
:201CCC000140082980F28780B4F93400401C6FF31F30A086B4F9348006F0DEFE054609F181
:201CEC00700006F009FFAE6085F81EB0C5F804A0A5F81C80C5F80C9097E80C0041A003C8E7
:201D0C00002605F110071040194087E8030004F12400EE770768002F50D1294605F068FC64
:201D2C00002851D0A9F89480E87F40F08000E87789F89660607A40B1607830B10120A072F5
:201D4C0066722779A671781C2071009807F000FFA06A00284BD1607860BBE079012846D05C
:201D6C0007F0FAFE0646207A00BBA86804F074FB224B2149E2681B68086040B9304607F0E2
:201D8C00E7FE04F1C800042107F072FA2FE00968D26804F1A400891AB1FBF3F107F0D4FEBE
:201DAC0004F1A40007F0CCFE30461EE0144901200870F9E7192007F0F5FB18E004F1240042
:201DCC00294605F015FC48B9B4F9340000F6FF706FF31F30A0866FF0010805E0A9F8948062
:201DEC00E87F40F08000E877009807F0B1FE4046BDE8F88F580E0020082A0020E0A1000018
:201E0C00042A0020F1EFFF9F20000000B0B5456884684F48297BADF1180D012916D0217E1F
:201E2C00627E4C4B2F7E0143009143EA02010191494937F0010718BF081CA27E104302901A
:201E4C0095F88D000322FF2811D00DE0677E217E3843A37E019041F00041009143F000401B
:201E6C003E49029095F88D00014304220391FE204DF82200694605F1900001F08BFFC5F833
:201E8C009C00002808BF00205FD0287B344951F8200001282BD02068B0F1804F14BF2222A0
:201EAC000A22217ED5F89C0006F07AF82068B0F1804F14BF21220922617ED5F89C0006F003
:201ECC006FF82068B0F1804F14BF24220C22A17ED5F89C0006F064F895F88D10FF2933D021
:201EEC002068B0F1804F14BF23220B2228E02068B0F1804F14BF21220922217ED5F89C0050
:201F0C0006F04EF82068B0F1804F14BF22220A22617ED5F89C0006F043F82068B0F1804FCD
:201F2C0014BF24220C22A17ED5F89C0006F038F82068B0F1804F14BF23220B2295F88D1039
:201F4C00D5F89C0006F02CF8012006B0B0BDC046000480A0004000800004C0A000200080C0
:201F6C007C9E00002DE9F04305466E68AC680F46ADF1340D07F0F0FD96F8D910241D0129C3
:201F8C0003D107F0E5FD002084E04FF0010986F8D99007F0DDFD4FF00008C6F88880386955
:201FAC00306178697061387E3076387B307338783070786886F8A4807060786941460928E5
:201FCC0028BF494686F88C10207A00F0CBFF284603F0D6FDE07D86F88D002846FFF716FFFC
:201FEC0050B9207A00F054FF07F0B6FD86F8D98007F0AEFD45464CE001A841463022082368
:20200C0007F082FD06956078CDF80080234A0990217801AB06F11C0007F072FD01A8414692
:20202C002822082307F068FD05951D49606801AA4346079006F1380007F05AFD307878B9DA
:20204C0001A841462422082307F066FD8DF81C9006F16C00414601AA07F05AFD114800E02C
:20206C00B868B06003F0F4FBC6F8A000307B012808D1D6F89C000C4907F02EFCD6F89C00ED
:20208C0000B18560094A06F1C40004212B4606F0A7F928460DB0BDE8F083C0468D3A000054
:2020AC00835F00009F980000DD6E0000C99700002DE9F041424C474D8046C8F38140401E47
:2020CC0002D0401E2AD025E0284620300168880C20D24FF4804020603A48D0F802204B0AD4
:2020EC00C1F3033703F0800322F08F02134347EA0302C0F80220D0F801300E1266F30303EF
:20210C00C0F80130026801F0E70722F0E70247EA020102E04FF00041204601602A4E06F1BA
:20212C0008000068C0F3C0070FB94020A0624FF40070206407F006FA40F0300084F8C800AD
:20214C00C8F3815038B3401E03D0401E1ED002211DE0012006F080FD07460420394604F0E7
:20216C0009F9042006F078FD8742FAD1366826F07F4005F01BFC15480068036807214FF018
:20218C006022300E98474FF4806020600321042004F0F0F806E00420012104F0EBF80C4876
:2021AC0005F004FC284600680B4947F6180700F03F0084F8CB0F094E0F803068BDE8F0817F
:2021CC0040A00C400A600840A83F0050B4010010BD3786006C13005070B00C402C200940CF
:2021EC002DE9F04F0C464549CA7AADF12C0D84460592487B09900D7900958A7A488B4B8AFF
:20220C000E7B91F805A091F802800492B1F846E008904A7A088B0392CD7807900A7AC88A55
:20222C0002920F6A0690CA79888A01928A79E146A9F54079B9F11D0F10D8DFE809F05B5558
:20224C0053514F4D4B494643413F3C3A380F34312E2B2923201E1C0F19181716BCF1280F23
:20226C0049DA604604F044FD21E0099EB246D046CDF814801DE00898079007980690DDF807
:20228C0018E005E03831086820608888A08032E070460AE0B1F8440009E0B1F8420004E075
:2022AC00B1F8400001E091F83E00034612E0208021E0059804900498039001E03231E2E738
:2022CC00039802900298009006E0019A87310DE068310BE01846EAE7009D0BE02C31D2E724
:2022EC00276008E0583100E048311022204601F003FD00E025700BB0BDE8F08FE00800209C
:20230C002DE9F041444C94F8E700ADF1280D00286FD1394F387B01250021242284F8E750B1
:20232C007E6884F8E6000823C4F80C6101A807F0D7FB002604F10C00069601ABADF81460FB
:20234C002E490796324607F0C7FB2D4904F1300001AB324607F0C0FB2A4904F1540001AB53
:20236C00324607F0B9FBB868014628468847DFF89C8025487B7B0078D8F80410C1F381574C
:20238C001BB1032F03D184F8E150032F16D0022F14D0012F26D103201D4C009031464FF08C
:2023AC0040521C23204604F05BF9009531464FF400720923204604F053F913E0022005F0F5
:2023CC0055FB032F0CBF4FF47A7142F21071114800685434B1FBF0F1204607F0B5FB204678
:2023EC0007F0AEFBD8F80000C00802D2304605F03DFB0AB0BDE8F08118A10000FB4F00004F
:20240C00494200008D4700001D2A0020B03F005000A00C40E0A100005C1200202DE9F04367
:20242C000746880FADF1140D75D303F03FFA3F4D00261C352E60394845F81C0C384807F08B
:20244C0039F93848BC68B14640F60A0200F13801468790F844300A808046C0F83C9003F0A7
:20246C00F00380F8443090F845306680241D03F0F00343F0010380F8453000E01C1D23689F
:20248C0013B118888242F9D12160607A00F0F000607208F1240007F063FA80680088D21F5F
:2024AC0082421DD0521C82421AD007F120000388B3B197F82C2097F82D30C7F8249002F010
:2024CC00F00287F82C2003F0F00242F0010287F82D20C8F83C00487B7E8400F0F0004873F1
:2024EC00694606F069FA684607F024F828680028FCD02E60012006F0AFFB012808D0607A59
:20250C0000F0F00040F001006072074807F0D2F8B86845F81C0C05B0BDE8F08301010E0456
:20252C00ED050000580E0020E15D000000100440F8B506F07DFD404E3E4F0446A00823D365
:20254C00B96A09B33D4600200B698A69A86204EA0300104340F0020006F1080288610B69A8
:20256C0010689843106001F1100090E80C0030681A1C9043306005F1300005F039F8022166
:20258C0005F1C80006F074FEB86AA10815D200F110020CCA002122400B40002B08BF002A94
:2025AC000BD0016985690C40F8622C434FF48041846107F1C80006F05BFEB86A002837D17D
:2025CC0007F12404204607F0CBF9051C30D0F868E968884226D1A86803F03EFF1749086013
:2025EC00E0B906F1080128690A6810430860326805F1100393E80300081C1043306000232D
:20260C003361A86846F80C0C06F1100000680028FAD0204606F084FDBD62F8BD086803F03F
:20262C0073F9F8BD07F1C8004FF4805106F020FEF8BDC046580E00200C100440082A002092
:20264C002DE9F04104466768A5680E46ADF1380D07F082FA97F8DC102D1D012903D107F09D
:20266C0077FA00205EE04FF0010887F8DC8007F06FFAF168204602F0B7FE0028F1D1307804
:20268C00387070687860307A002130220823F86001A807F039FA0694287A00260990234AFB
:2026AC000096696801AB07F1100007F029FA01A828220823314607F01FFA05941C49E868E6
:2026CC0001AA3346079007F12C0007F011FA01A824220823314607F01FFA8DF81C8007F153
:2026EC006000414601AA07F013FA387838B907F17C00314601AA07F00BFA0E487860C7F818
:20270C00BC603E72C7F8C060286800F02BFC204603F05EFF084A07F1C8000421234605F010
:20272C005FFE20460EB0BDE8F081C046092C0000915C00008F980000A1950000B0B53C4C84
:20274C006078410807D320F0010060700A20014604F0A0F86078374D810807D320F00200C3
:20276C002F786070062F01D103F036FA2078FE2807D10120E07004F10801082005F03CFC52
:20278C002078A778B84249D0E178012905D00120214605F031FCA778207829787A0803D3B1
:2027AC0042083CBF0022A280BA0803D382083CBF0022E280022903D106F0E2FCA778207859
:2027CC00B90808D3810806D22978062903D003F003FAA7782078790808D2410804D301200A
:2027EC0005F04EFEA7782078790806D3410804D2002005F045FEA778207810F0030F0DD05E
:20280C0067B904F11000054606F0BCFE28B9284607F0A8F80020E080A0802078E1780129EB
:20282C0003D10020E0702070B0BDA070B0BDC0462C190020200500202DE9F047ADF1180D0E
:20284C0001F020F83A4D4FF0030908274FF6FF78002605F13E0A2C4606F0F0F920BB009680
:20286C0001A80DF106016A4605F035FAE0B9BDF80400102814D160789DF8061088420FD12E
:20288C0000980188884509D14088C00B08D3042005F12002014604F047FF01E003F002FE65
:2028AC00009808B106F088FB208A41082DD320F0010063792179208253EA010225D073B9C5
:2028CC00207A637A8DF8070005F132018DF808300A680DF109031A608988998001E08DF87D
:2028EC000790A07A8DF80F00E37A8DF810300DF1070006F0E5FE38B1636AA77023B11A6864
:20290C0012B1196838468847208A810807D320F0020020825146304602F00EF9208AC108E0
:20292C009AD320F00400208206F022FA94E7C046E00800202DE9F04706467468B56807F044
:20294C000BF9D4F88810002963D007F001F92968486820F0020048602968486A20F0030065
:20296C004862D4F8A07068692969084379680968C1F804052968486920F001004861286877
:20298C004FF00108C0F82080304605F051FDD4F88800D0F8049007F0DFF804F1D8078246B8
:2029AC00387850B119F0704F02D1042005F046F8022005F043F800203870504607F0C8F801
:2029CC00D4F88810087C042803D003200874D4F888102A696869D4F8A0304746104307FA20
:2029EC0000F258680068C2622868B0F1804F14BF0A480B480F68006800258204A7EB925017
:202A0C00401E08603046A268C4F888509047BDE8F08707F09DF8BDE8F087C0460805002002
:202A2C00380400202DE9F0430646ADF11C0D07F04FF804F0A3FF4FF000090546CDF8009016
:202A4C0006F0C2FE30F0010002D00098A84202D16FF0040059E070684C4658B1B0F1FF3F7E
:202A6C0005D001A904F072FF30B107464CE04FF0FF3000E02046019007F026F801990127F0
:202A8C0001EB000800E001936868019907F018F800282ED003A804F0C1FCD8B99DF8100099
:202AAC0002A904F0A1FC88B9B368BDF808009DF81210059A984748B19DF81270B773BDF891
:202ACC000800B081059B33614F4612E00599684605F0F8F90198641CB0F1FF3FD4D0002800
:202AEC00D2D006F0F1FFB8EB000302D001989842C9D2009905F1080005F0BEFB24B16868D2
:202B0C0006F0DAFF641EFAD1384607B0BDE8F083F0B5ADF1340DFFF7F3FB304908682822A5
:202B2C00082340F00200086001A8002106F0E4FF2B4E2C490524002301AA079406F1C800E2
:202B4C0006F0D6FF00213022082301A806F0DCFF0025FF271921244AADF81C5001AB099736
:202B6C0006F14C00009506F0CBFF2822082301A8294606F0C1FF1D49079406F1FC0001AACF
:202B8C002B4606F0B5FF01A829463022082306F0BBFF0124ADF81C40099706F168001A2169
:202BAC0001AB134A009506F0ABFF12492A4606F1A400134606F090FF0F4806F07BFD86F844
:202BCC00A3507571F57135727572B5727561B4714FF6FF70A6F8A0000DB0F0BD0020094035
:202BEC00580E00204D920000F18700002D340000355E00007D850000A132000098B5354958
:202C0C00446809688068496800688847324A0121916140B1237AFF2B05D0FF2140092172A2
:202C2C0053D2042149E0207A00284ED0401E17D0401E02D0FD3848D044E05368D4F8B40014
:202C4C000370D4F8B400401CC4F8B400D4F8B8707F1EC4F8B8701CD0012F88BF09212CE09B
:202C6C00D4F8B0707F1EC4F8B07014D1D4F8B8707FB10220D4F8A8102072097C012F4FEAB4
:202C8C00410141F0010142F8041C94BF03210B2114E004210FE0D4F8AC0000785060D4F842
:202CAC00AC00022F00F10100C4F8AC0005D2D4F8B87017B90521002020720220116006F0D5
:202CCC0008FE98BDFF20207298BD04F12C0006F0EFFE98BDAC01001004280040BFB5364C0F
:202CEC000746401E39D0334D401E1FD0801E012830D9801E02D0801E23D058E0284606F0DA
:202D0C0041FC10B9284606F02DFEE0680A210022054604F039FC002228460F2104F034FC25
:202D2C0000221521284604F02FFC40E0284606F029FC10B9284606F015FE002006F020FA89
:202D4C0035E006F017FC04F10C0000680A2101220546E7E706F00EFC29E00F20052103F028
:202D6C0099FD4FF441706946FFF73AFA9DF800009DF804308DF808009DF805108DF80E308C
:202D8C009DF801508DF80F109DF803008DF809509DF802308DF80D0002AA8DF80A30002043
:202DAC008DF80C0008218DF80B0001F08FFA27700090BFBD8C0500202005002038B5044673
:202DCC00084602F015F90146182004F0A9FB05F05FFF80B200902C4840F2FF3200232C2126
:202DEC0003F03EFC06F0B6FB01461C2004F098FB05F040FF0146142004F092FB06F03CF98E
:202E0C000146102004F08CFB204601F0E3FF01460C2004F085FB204606F016F91B4D400081
:202E2C0040F020002870204606F01AF940F010002870204605F0D0FD0146282004F070FB41
:202E4C00204606F025F9400040F06000E870204606F02AF9C00040F0800005F8080C20465E
:202E6C0006F02EF9800040F47C40A5F89300204605F080F80146082004F052FB4FF4800043
:202E8C00A5F20911086038BD00A00C4049A10C402DE9F843044606F05FFE81462D480219B1
:202EAC0092F8ED10491ECFB2002F82F8ED704BD12B4D05EB84052E78698836F07F07884673
:202ECC001AD1F10911D24FF08054D4F8B801806901464046884704F5DC742068406B01463E
:202EEC00404688470228F8D121E000EB8800D0F80011002088471AE04FF08054D4F8B801B0
:202F0C00006A014640468847D4F8B801806A014640468847D4F8B801006B01464046884708
:202F2C0001210D4A0D48116001688908FCD306F03F003F2801D0FFF7ABFF687800F03F0061
:202F4C003F2801D0FFF7A4FF484606F001FEBDE8F883C0465C12002028200860282008401D
:202F6C00609D00002DE9F041064606F0F5FD2D4D8046A91991F8ED00421C002881F8ED2049
:202F8C004AD1294C04EB8604277807F03F003F2801D0FFF7E7FF607800F03F003F2801D0F4
:202FAC00FFF7E0FF668837F07F001AD1F80911D24FF08054D4F8B801406901463046884700
:202FCC0004F5DC742068406B0146304688470128F8D121E005EB8605D5F8001101208847A1
:202FEC001AE04FF08054D4F8B801C069014630468847D4F8B801406A014630468847D4F8F7
:20300C00B801C06A0146304688470121074A0848116001688908FCD3404606F099FDBDE881
:20302C00F081C0465C120020609D000028200860282008402DE9F84F0D46064628687468DA
:20304C00D6F80880002855D006F086FDD4F8881021B106F07DFD032028744BE001272F74ED
:20306C00C4F8885006F074FD94F8A40038B194F88D202249D4F89C00114304F0C7FCD5F84C
:20308C0004A006F069FD04F1D80999F80030834653B91AF0704F02D1042004F0E7FC0220FF
:2030AC0004F0E4FC89F80070584606F051FDD8F80010486840F0020048603046294600F01E
:2030CC0085F8D8F80010486940F001004861207830B9616804F16C05284606F0F1FC10B13A
:2030EC003846BDE8F88F3046FFF724FC2846002106F0E6FC0020BDE8F88FC046000006804F
:20310C00294A2DE9F04180460126284816600768002FFCD0294C2A4FC020443C206007F1E6
:20312C00080001682348890804D20168090C41F0F00100E072211E4D85F85412002111634A
:20314C008768384601F098FB40463946FFF736FE1C48B038816D40F20F226FF31F418A4218
:20316C0012D901680068C1F30363C0F3034003B15B1E072805D006280EBF0720801C00F098
:20318C000F0043EA001028703846FEF791FF0E4814380068C1680220884740202060064FE3
:2031AC003E60BDE8F081C046101009409402224302600840AC3F00509404604244600C40D6
:2031CC00A83F00506C130050B4010010F8B58C4645688468DCF8007095F88C10B8B2884061
:2031EC001FFA80FE2068B0F1804F14BF244B254BDCF80820244832B995F88C108E0081599E
:20320C0005F1A60207E095F88C108E00811951F8081C7244521E99605A6021683A0143F689
:20322C00F077103A0831174019609A683A439A602368B3F1804F14BF144A154ADCF804C029
:20324C00BCF1000F04BF805904F10E0605D0801950F8100C0EEB0C06761E90601660516079
:20326C009068074397602169D5F8A06060690843716809688862586A40F003005862F8BD06
:20328C000005002030040020949E00001005002040040020042998B54DD1274C04F12400BA
:2032AC0006F05EFB40B994F8A300400838BFE06804D3D4F8880000E0C068E06041681F4A7F
:2032CC0009781160416812680978914206D0876927B120A20CCA6FF0FF01B847022004F0CF
:2032EC00C5FB1120FFF73EFE0120E071E068011D007C10B16079012804D00E20FFF732FE60
:20330C00E168091D08680E49083007680FB947681FB10020C8610B4F0F600B4A40F2FF7075
:20332C0000271060094C8F6109484C6106F0C2F9192006F0B9FB98BD580E0020D0210840FF
:20334C00001004405100070600000460020000402924000000000000000000022DE9F84369
:20336C000646B0680D4600F1080874686868002710B9E868002850D02078012814D106F0B9
:20338C00EBFBD4F8BC1049B1D4F8C0108D61C4F8C05006F0DDFB0120BDE8F883C4F8BC507C
:2033AC00C4F8C05006F0D4FB022004F05FFB04F160004FF0FF31814606F082FBD8F8000032
:2033CC0006F06EFB3046294600F0A8FE0546D8F8000006F069FB207888B9B5F1FF3F08D0FD
:2033EC0004F17C004FF0FF3106F06AFB207A48B110E003202072022004F020FB0AE0B5F18D
:20340C00FF3F01D0012705E00320207204F12C0006F04EFB484606F04FFB3846BDE8F88303
:20342C00F8B506F099FB2A4C0746103CD4F89C0010F4602F2BD0D4F89C00400CC5B26808A9
:20344C0007D2A80803D2E80828BF022502E0012500E000256E1D70B202F010FDD4F89C30B3
:20346C0005F111010120884023EA00013846C4F89C1006F06DFB04EB8500D0F88C704FB1C5
:20348C00D4F8880013A20CCA3146B84702E0384606F05EFBD4F89C0020B104F1FC000021D1
:2034AC0005F0E6FE94F8A30080080FD3D4F8987037B1D4F8880009A20CCA6FF00101B8479D
:2034CC0094F8A30000F0FD0084F8A300F8BDC046680E00200000000000000008000000004C
:2034EC00000000802DE9F0412D4C0546A41C20781F4690460E46ADF1380D012803D0FFF779
:20350C0007FB012020705EB1B8F1000F6E6007D0C5F8088006F020FB617819B106F018FB7E
:20352C00002038E0491CC9B2617006F011FB01241FB9684605F050FF6F46386828607868E8
:20354C00E860387A2874F8686861386900B1A8610021782205F1200001F054F905A8002168
:20356C002422082306F0D8FA8DF82C4005F13800002105AA06F0CCFA05A80021242208231C
:20358C0006F0AEFA05490B9505F17000002205AB06F0A2FA28460EB0BDE8F081F1980000FE
:2035AC00580E00202DE9FC470AAF3F8882460C4608469946154601A904F0A2FD012808BFD1
:2035CC0001204AD0BDF80400DFF8948042F60211FF26401A2ED048F26311401A012827D808
:2035EC0027BBB9F1010F1FD1BDF804104AF666200027884202D12978032913DA2978E2683B
:20360C001170BDF80410884205D0E1684046884218D13E4618E0E1684046401C884211D1E0
:20362C00012611E080270DE00D270BE00B2709E00A2707E0009750464B4621462A4602F0F9
:20364C007DFF0746FF2E07D04046001D006818B1016809B1304688473846BDE8FC87C046A9
:20366C00D8160020F8B506F06DF806F077F8044604F00C000C2845D0E0081ED204F02AFD3D
:20368C00234E376805460120014605F063FA31686943884211D21F4C8220B0FBF7F0291A35
:2036AC00204606F051FA204606F04AFA0120FDF7B5FB204605F020FA25E0200922D21648FD
:2036CC00610939BF016821F00101016841F0010102460160D2F898004FF0805440F0030013
:2036EC00C2F89800D4F8B8018069014620208847D4F8B801094C806B2168804701202060F2
:20370C00206800E030BF06F023F801F0A5FCF8BDE0A10000681200208C2108402C20094049
:20372C00F8B50D46EEB2290824BF26494D40264BB400195985EA01020240C2F3006C234AF4
:20374C0000EA05078143FF323A4000F4E0270A43B7F5E02F01D1510E15D300F4E0215CEAA1
:20376C00010710D002F4E027B7F5A02707D0B7F5803704BF22F4003242F4A02203E022F4AF
:20378C00803242F4C0221A51114CC10D04D3A4F18001C5F380528A55000E11D306F0DCF9AA
:2037AC00290E03D201210022B14002E00121B1400A46503423688B431A43226006F0C8F904
:2037CC00F8BDC046006000A000100840007F077F802002402DE9F0410E46294990461C469E
:2037EC0006AF8C4672680878BB8851783F881278002502EB012242F62321521A29D0521EF9
:20380C00052A18D9921F0CD0263A34D1072F30D8C7F10700984298BF83B2674407F108017B
:20382C0021E0B84225DBC01B9842D8BF83B22380DCF804000BE0F06805F00AFE80B2B84219
:20384C0017DBC01B9842D8BF83B22380F06839180AE0082F0DD8C7F10800984298BF83B271
:20386C0007EB0C010F31238040461A4600F044FA03E0072501E025800A252846BDE8F081FE
:20388C00881000202DE9FC4704F01EFD284C0025A5704FF6FF70A08203F0B4FC234F2A46F3
:2038AC002070012039461346009004F1A80002F0ADFD4FF002082A4604F1CC003946CDF8EC
:2038CC000080134602F0A2FD04262A4604F1F00039460096134602F099FD04F14809102285
:2038EC0048462946E67000F08DFF04F1580A10225046294600F086FF04F120073D6025729A
:20390C00072065721021A0724A46E572404603F0F1FE03201021524603F0ECFE30463A464C
:20392C00014603F0E7FEBDE8FC87C046ED910000E008002070B5274C274D012806D028BBBA
:20394C0021460020491C05F00BFD1FE02146012005F006FD0878022811D0491C002003F0F0
:20396C00C5FD28680A210022064603F00DFE002230460F2103F008FE04F096FD06E005F02F
:20398C0011FF4870491C002003F0B0FD2146087801281DD1286861780546490834BF002216
:2039AC0001220A2103F0F0FD6078800834BF0022012228460F2103F0E7FD6078C00802D24C
:2039CC0004F072FD70BD284603F0BEFA03F0DAFA70BDC046E01A00202C050020264838B572
:2039EC0050380468B4F1FF3F08BF002405F0D6FC22481749002510380560012008601549AF
:203A0C00086002F059FB1448006820B1134800682046FFF775FB124812490560124C0A68DE
:203A2C006FF35B4244EA0200086010490868C0F30130012806D10A680D48104040F40032B9
:203A4C000A6008600B4908680028FCD138BDC0465C600C400822044380012843000120430B
:203A6C008C210840482003400000390104000940FFFFFCFC0C0068426C130050940460425E
:203A8C00B0B501468B681C68E26948682262520824D2D0F8A01049680A685D69D2F80415E4
:203AAC00294206D01C68616A21F002016162C2F80455D2F8042519690A4230D01A68516A82
:203ACC0021F001015162D0F8A0205268196912683830C2F8041505F0EBFFB0BD1C68626900
:203AEC0022F001026261D0F88870AFB9626822F0020262601C68626A22F003026262D0F825
:203B0C00A0005A6940681C6900682243C0F80425084604F08DFCB0BD0846FEF70BFFB0BD69
:203B2C00F0B520480127F84201D002F0E1FC204D204F214EBD4206D203CD0478A4003459CB
:203B4C00401CA047F6E71D48002800D08047164D164FBD4202D210CDA047FAE7F0BD032500
:203B6C001BE0416808300A1C2A400BD11A1C2A40AB4305D0046804300C600431043BF9D144
:203B8C00131C05D0047801300C700131013BF9D1021C2A4001D0A84304300368002BE0D1F5
:203BAC007047C046FFFFFFFF000000000000000034AA0000B4AA00002CAA000059C50110FF
:203BCC00B0B5244C2278E1889308084603D3491C401CE18080B2A18852080F4603D3491CDB
:203BEC007F1CA180BFB2062F11DB06280FDB04F11000054605F0C6FC58B3284605F0B4FE2C
:203C0C000020A080E080607840F001001CE003280BDA38431DD104F11000044605F0B2FC88
:203C2C00B8B1204605F0A0FEB0BD97B904F11000054605F0A7FC60B1284605F095FE00204A
:203C4C00E080607840F0020060700348006805F033FFB0BD2C1900202805002010B5002040
:203C6C00442100F0DBFF002808BF002440D0214C1F200222214605F0EBFC002835D02188FD
:203C8C000806000C40EA2120782815D11020208021460220024604F0C5F930B3022021464E
:203CAC00024605F0D5FC00B321880806000C40EA2120B0F5805F01D0208016E0002020805E
:203CCC0021460220024604F0ADF970B102202146024605F0BDFC40B121880806000C50EADF
:203CEC002120208008BF012400D0002405F048FD204610BDFC290020002A4AD05FEA000CAC
:203D0C008B071CD1830722D1102A08D370B4103A78C978C0103AFBD270BC103238D0042AE4
:203D2C002CD3082A05D30C2A24BF08C908C008C908C008C908C092072AD0920F22E00B78D1
:203D4C000370491C401C521E22D08B07F7D1C30714D18307D8D0121F12D308C903801B0CF5
:203D6C004380001D121FF8D20AE008C903701B0A43701B0A83701B0AC370001D121FF4D2D2
:203D8C00121D05D00B780370491C401C521EF9D1604670472DE9F843224D884606464FF0AC
:203DAC00FF3105F12400814605F08AFE00200CE0FF2909D02A688A4204D905EB8101D1F8E6
:203DCC0094700FB1002627E0401CB8F1000F03D018F82010FE29EBD1002434607460012728
:203DEC00B46011E0FF280ED005EB80000B787268C0F8946007FA03F0104370600A680A4958
:203E0C00304604F0E3F8641CB8F1000F04D008EB84010878FE28E5D1484605F04DFE30462D
:203E2C00BDE8F883C0260020007FC767FEB5FDF7EDFB234C002504F16C0604F0F1FE58BB23
:203E4C00009501A80DF106016A4603F02DFFD0B9BDF80400102807D160789DF806108842A5
:203E6C0002D1009805F098FC009860B105F08CF809E0206904F0E8FF071C04D004F05CFF8D
:203E8C00384605F051F8206905F006FE0028F0D0FEF754FC04F082FCA088C108CDD320F098
:203EAC0004002778A080022FC7D1304605F05AFD20780228C1D10F20012102F0EBFCBCE787
:203ECC00200500202DE9F8432020EFF3118780F31188214CA068012105F0DAFD4FF00109CE
:203EEC004FF0000865692168A4F81C906A1A2168A4F81E80461B401A904227D387F31188EF
:203F0C0040464519361A4846294605F0BDFDB042F7D92021EFF3118781F31188E18B012995
:203F2C0003D14046294605F0AFFDB0F1FF3F06D0A169801B814238BF081C411901E0A0698F
:203F4C00291805F09DFDA4F820902560A4F81C8087F31188BDE8F883780100201CB50020BF
:203F6C00772100F05BFE002808BF00243FD0D0206946012205F06CFB002835D09DF8000052
:203F8C00582831D1F5206946012205F061FB00282AD09DF8000038BB55208DF80000694608
:203FAC000122F42004F03EF8F0B1F4206946012205F04EFBC0B19DF80000552814D1B62091
:203FCC008DF8000069460122E02004F02BF858B1F4206946012205F03BFB28B19DF80000DF
:203FEC00002808BF012400D0002405F0C9FB20461CBD70472DE9FE4F8046B8F1000F01928A
:20400C000C9802919B46009005D0081C03D0101C01D0009810B90220BDE8FE8F1948017894
:20402C0000252C4629E0A00038F800A04FF6FF7708EB000657451CD0B778D7B10198029A3C
:20404C00594605F02CFA5FEA000912D0780806D3009B504601214A4600F028FF0543B078A3
:20406C00800806D33088009B02214A4600F01EFF054304480178641CE4B2A142D3DC28469D
:20408C00BDE8FE8FE0080020F8B50F4601464C688E683846203804F10C0432D0401E2CD0B0
:2040AC00401E27D120781578012814BF19491A49FF2D41EA05011BD0D4F8900001F0CEF85D
:2040CC0098B93068B0F1804F14BF23220B22D4F89000294603F064FFD4F8900094F881109C
:2040EC0001F05AFB84F8815012E04FF0FF30F8BDFF25F1E76FF00100F8BD002084F89800C7
:20410C00F8BD21780020012908BF012084F898000020F8BD0004C0A00020008080B5406849
:20412C0000F10802C0F8A8100868C2F8A4004868C2F8A8008868C2F8AC00C8681A49C2F885
:20414C00B000D2F8A87097B9D2F8A000007C400040F0010041F8040C022010700B68DB09D8
:20416C0017D2D2F8B020022A17D30B2216E0D2F8A000007C0127400041F8040CD2F8A40072
:20418C001770431CC2F8A430007848600868C00902D34FF0FF3080BD022003220A6005F020
:2041AC0098FB002080BDC0460428004038B5224D401E02D0401E30D038BD05F0F3FAC00808
:2041CC0023D32C78FF2C22D00120694604F0CCF89DF8000068B9A4B105F1080005F0C4FBD7
:2041EC00002003F0BDFD00200A22014605F004F807E034B9012003F0B3FD05F1080005F0D7
:20420C00B1FB9DF80000287038BDFF2028700120FF21024604F0F0FF38BD0220694604F0E7
:20422C00A3F89DF80010284641809DF80010083001F07CFD38BDC046201A00202DE9984376
:20424C0005F08AFC1F4CDFF87880814604F1E000007850B94446A068014602208847074669
:20426C00102002F069FA2FB320E001F039FA002820460FD1144909683222B2FBF1F101B9CE
:20428C00012100F13004204605F05EFC204605F057FC0FE044460022A16880F8E02002202A
:2042AC0088470746102002F047FA1FB1A068014603208847484605F04BFCBDE89883C046D2
:2042CC0018A100005C120020E0A10000F8B50D461F4C20490728164638D8DFE800F0192C9F
:2042EC002A2826242104284604F026FB071C2DD0616804F11700884202D0606804F02CFEF7
:20430C00384631462A46FFF7F7FC67602570F8BD082D1BD130680F34206077686760F8BD5B
:20432C000C46153408E00C4606E0643404E04F3402E03A3400E0253420460021152200F080
:20434C0061FA204631462A46FFF7D6FCF8BDC0468810002001110020F8B5204C820002EBB4
:20436C00C0002418666825680F1C08BF1C4F387830B97888312818BF322815D1207A98B989
:20438C0005F0EAFB0146387838B96B78AA781A434FF0000318BF012302E0227AAA185378A5
:2043AC0023B1084605F0D4FB0020F8BD18B901206870A87003E0207A012228184270084674
:2043CC0005F0C6FB38782870B079FEF7CBFD2046394602F0EFFF2046F8BDC046A09C0000CB
:2043EC00A49F00002DE9F04107467868051DD0F8BC00A8B305F0B0FB1A4E00248046F460B3
:20440C0004203060022005F064FA2B68D5F8A410384622469847022003F010FB09E081699B
:20442C002B6822463846C5F8B8109847022003F005FBD5F8B800D5F8BC108142EFD1204677
:20444C00C5F8A4002C71C5F8B800C5F8BC00064B346038461C6002F0BBF8404605F078FBF2
:20446C00BDE8F081042800401004054270B51E4DAC68064604F0B8FD4FF47A71001B4843E6
:20448C00030C03F049FF2969401A48BF404240F6B8319B19994210D306280EDAE9688C428B
:2044AC000BD8286848B1114A091B51438A0C02EB1141884288BF011C08E00D494868400838
:2044CC000ED208687D2100F0FF004143C82905D3B1F57A6F88BF4FF47A6103E0C82101E005
:2044EC004FF4FA61084670BDE829002040420F00AC3F0050F8B5001D84B214F0030002D0C1
:20450C00241A241DA4B204F078FC01461948102C47680160C8BF8768388800221646C30BDC
:20452C00DD0319D126B984420ADD3A46012617E01388C3189BB29C42138011DC174618469F
:20454C009FB1001B80B20428B4BF3C88385344F400443C803F1D08E080F40040002680B23C
:20456C00C71938880028DAD10027084604F0AEFE3846F8BD7C130020B0B50446A768ADF169
:20458C00280D27BB0C20FFF7B5FF071C16D0684600212422082305F0A3FA002306976A46D7
:2045AC006168ADF810301448059305F065FA386038B904F080FE384603F02CFC6FF0030003
:2045CC0018E0E06878602069B860A7600AE004F014FC0546386804F08FFA2069B8602846AA
:2045EC0004F074FE3868616805F0AEFA386805F0A7FA00200AB0B0BD15970000B0B514465B
:20460C000F4605F0A9FA85B219480068007808B904F0CAFB87B1384603F0B2FD40B114B1A1
:20462C004FF0FF3020700820FEF732FC002419E038687968BA6803E04FF4807001220146E5
:20464C0003F0CCF90B49012008600B4908684008FCD30A4800684168022088470CB10021AC
:20466C0021700446284605F073FA2046B0BDC04628A10000A802504208800240CC010010FE
:20468C00F8B50E46044605F053FA0546304603F00BFD071C03D1284605F046FA26E0F87FAE
:2046AC0010F0070F1BD113487968884202D079682166786010A090E8060004F158072846E4
:2046CC0087E8060005F030FA04F138004FF0FF3105F0F6F904F1680696E80300F8BD2846B3
:2046EC0005F022FAF87F10F0070FFBD102200021F8BDC0466561000002000000000000700E
:20470C0070B504F073FE002832D002F06DF988B301200C2100F082FA60B3184C0F20611D68
:20472C00012208700E460A2003F07CFC1248006842F21071B1FBF0F005F09AF91020032209
:20474C0004F1100104F084FF06F10B0550B128786B78AA788030608103F18000A08102F10A
:20476C008000E08101220B203146627103F05AFC05F006F870BDC046E0A10000F818002094
:20478C001CB5042004F068FA022818D0032816D016480068C0F38150032814BF41F288326A
:2047AC004FF47A721248144C016854342046B2FBF1F105F0C9F9204605F0C2F91CBD032055
:2047CC000C4C009000214FF040521C23204601F047FF012000214FF40072092300902046FE
:2047EC0001F03EFF022003F029F91CBDB43F0050E0A1000000A00C405C12002000221346B6
:20480C000A46194671B510F0030F0BD0002A82BF00F8011BB2F1010210F0030FF6D1002AA2
:20482C0008BF71BD11F0FF0141EA0121042A18D341EA0141082A0FD30E46102A08D30C46D4
:20484C000D46B2F10F0312F00F0272C0103BFCD812F0080F18BF42C012F0040F18BF40F8CA
:20486C00041B12F0020F18BF20F8021B12F0010F18BF017071BDFEE70246184808B50068B4
:20488C00C0F3046004F0CFFE00EB2270401C162805DA10F10A0FB8BF6FF0090000E0152030
:2048AC000F49104B00F01F0040F4F85008801868800803D20C490020086001E042F04062B7
:2048CC000A49D00E930E80F0010000F00100086083F0010000F00100886008BDB812005004
:2048EC006E6208400000094094042A430000204310B51C4C00202070FFF7B0F918B1207806
:20490C0040F00100207000F043FC18B1207840F002002070FFF722FB18B1207840F00800CC
:20492C00207001F041FC18B1207840F00400207000F060FF18B1207840F01000207002F016
:20494C0057F918B1207840F02000207004F09EFD002808BF207803D0207840F04000207039
:20496C0010BDC0461C2A002038B5054601201A4C68712879B0B904F040FA2178002904BF9D
:20498C006FF00704051C15D0491EC9B2217039B904F09CFC606803F059F90020687118E0AC
:2049AC00054613E004F029FA05462078FF2805D16FF00604284604F089FC0BE0401CC0B2AD
:2049CC000128207002D1606803F057F9284604F07DFC0024204638BDD01A002070B506465F
:2049EC00B079F5680B28A5F108052CDA30790B2829DA04F002FA154CB27991000C3401EB31
:204A0C00C20161184968E1B104F060FC30792870B0796870307AA870B179880000EBC10059
:204A2C002018F1684068083003F04CFAB179880000EBC10024186068406805F03DF800206C
:204A4C0070BD04F043FC6FF0020070BDE813002038B519491A4C00204822C1F8F30F94F8BB
:204A6C00E200C1F8FF2F20B3012817D0022807D003281ED151F8310C00F024F80B2016E0B0
:204A8C0051F8315C2846FCF7D9FC40F2FF50A84202D8801CA842F1D2082008E051F8310CDA
:204AAC0000F092FD054800780028E7D0052084F8E400FDF731F838BD39400C4026A10000A4
:204ACC005C12002038B51A4CA0F5C060D4F8B810C4F8D4000029B8BF49420028B8BF4042C4
:204AEC00814220DAB4F8BC00124D30214FF47F4208230090284601F0B3FDB4F8C000042176
:204B0C004FF4F80212230090284601F0A9FDB4F8D00020214FF440620A230090284601F0C4
:204B2C009FFD012000E0002084F8D80038BDC0465C12002000A00C402DE9FF410E460546EE
:204B4C00194C7188E08A81420CDCB188814209DBF088218B884205D13089618B884208BFFC
:204B6C0018271DD0052002F0C3F87788B388ADF80270F288ADF804303189ADF8062080463C
:204B8C00ADF80810A08AADF80000684604F0A4FD071C05D1A57304F1F000414602F016FBBA
:204BAC0038460090BDE8FF81E00800201A4898B5D0F8781203680F0F03F0FF03802B28BF9D
:204BCC00002301F029FD4FF0FF3478B1401E07D0401E012802D9801E19D01AE0BFB118E074
:204BEC00381C12D0801E14D1143311E03846401E0BD0801E07D0001F03D0401E09D1163319
:204C0C0006E0152405E0142403E00A2401E00A335CB2204698BDC046A010005070B50D46D6
:204C2C001549194C134A09680646241F04F11400B2FBF1F104F044FF002808BF002017D083
:204C4C000E4805700E4D20682978B1420CD02E7004F0DDFD04F038F92878012804BF0948BC
:204C6C00206103F041FD2060002100B10121084670BDC04620A10700E0A10000192A0020D5
:204C8C00182A0020FEA100007C290020B0B5194C1649606902F0BAFEFF20E070002565703D
:204CAC006821A5700120FFF7B9FF002808BF2F1C1AD080206071611D01226B2003F0B2F91C
:204CCC0004F05EFD0C480A490068B1FBF0F004F0CFFE00F08FFD071C05D001F0B9FDFFF70C
:204CEC000FFD01F0C5FF25703846B0BD07000080A0860100F8180020E0A10000B0B5ADF105
:204D0C00400D04F019FF044600213C220823684604F0AAFE11484168069181680068049072
:204D2C00104818380068002205900D480891694604F096FE071C0DD004F05FF80546384667
:204D4C0001F0CCFA30B1284604F0C0FA204604F0E7FE01E001F0BEF810B0B0BD6C9B000098
:204D6C003195000088130020F8B5174A174B184C121D22F003019C4621605E1A206825689D
:204D8C0060606768A660002001E025F8020BAB42FBD84FF6FC75B3102A4001EB830323F817
:204DAC00040CACEB0202E82315403B80EC3DA1F8E850E83144F8081CFFF79CFB44F8040CD5
:204DCC00606844F8080CF8BD1E2A0020F83F00208813002038B504461848174D001F0268FC
:204DEC006B68C2F30351C2F303405B0813D22B681D0511EB257103D41029A8BF0F2100E0BD
:204E0C0000211B0410EB237303D4102BA8BF0F2300E00023184640EA011002F47F4102F0C6
:204E2C00FF03222C41EA004143EA010024BF02F08042104338BDC046AC3F00507C1300507D
:204E4C0030B5401E4FF00004ADF12C0D0AD0401E04D0401E20D1FCF75FFE1DE000F064FEEF
:204E6C00044619E001A821462422082304F038FE06940D4DADF8144009490794012201AB8F
:204E8C0005F1780004F028FE064A23462C2105F19C00009304F034FE20460BB030BDC04619
:204EAC00B55400005D4A00005C120020F0B50E4615461C460746ADF11C0D4FF6FF7103AA7C
:204ECC0003F084FE0246059212B300200090BDF80C000DF1120329460190FF2002903846FA
:204EEC00A047041C0FD16889ADF81000700804D3384604A903F074FF03E0384604A904F037
:204F0C0061FB041C05D004A81B2103F06DFE00E01524204607B0F0BDF8B506AF38881D4686
:204F2C0014460E46002818BF0B202AD10846694603F0E6F8012803D1002028800120F8BD29
:204F4C00BDF800004AF681210027401A12D0401E0AD0401E1CBF2F800A2711D1012028804F
:204F6C00F068007820700BE002202880F0680088208005E00E222A80F1682046FEF7BCFE63
:204F8C003846F8BD2DE9F041054615F8017B90460E461CE0B8F1000F05F101050BD0FF2CD7
:204FAC0009D8022015F8011B401E41EA0424F9D101E0042C02D315F8011B00E0394630465A
:204FCC002246FFF71FFCA61901E006F8010B15F8010B8742F9D115F8014B002CE9D115F8AA
:204FEC00010B2C7800022418D4D1BDE8F08170470146184880B5983000688A0CC0F3836706
:20500C00C0F38F2022D241F3072100290BD54A420021400805D17F0806BF0127381C4FF6F1
:20502C00FF70521EF5D1002910DD4FF6FF72400040F00100824207D2780040F001070F2FF7
:20504C0092BF01200F27101C491EF0D140EA074080BDC046B8120050164880B507683FB386
:20506C0015498B6803EA5300C00E21D2134A106880081DD2486880081AD21068096810F079
:20508C00050F4FEA114101F0F00101F5E0710AD1B9420DD2190F38BF40F00100D90E38BF59
:2050AC0040F0040003E0B94202D920F00500106080BDC04628500940AC3F005000000940EA
:2050CC0090B5044645210020ADF1140DFFF7A6FD40B301206946022204F0BAFA00B3BDF860
:2050EC0000006FF30E00B0F5004F19D100206946022204F0ADFA074602A803F0D9FE7FB1D7
:20510C00029FBDF80000039BBDF8001027810002A38040EA21202080380CE080180C60804A
:20512C0004F02EFB05B090BD70B50646880F26D301F074FE124804F0BDFA134DA81C00783F
:20514C00012803D006F1380004F0B6FC0D4800240460022002F072FC1120FDF799FE307CAB
:20516C0010B90E20FDF794FE2846084A04721178447221B11470C830042104F079F870BD2C
:20518C00A132000000000460580E0020042A00201CB500204321FFF741FDFE20022269467E
:2051AC0004F056FA10B3BDF80000BDF8001045F249440006000C40EA21208442ADF80000B6
:2051CC0014D1FF206946022204F042FA70B1BDF80000BDF800100006000C40EA2120B0F5FF
:2051EC00805FADF8000008BF012400D0002404F0C7FA20461CBDFEE770B544688668D4F8DB
:20520C00A40003F098FC13480025C56005601248361D05603068FDF73BFE04F1100004F07D
:20522C001BFC04F12C0004F013FC04F1600004F00BFC207818B904F17C0004F005FC04F113
:20524C00C80003F0D9FB04F087FC84F8DC5004F07FFC70BD04280040100405422DE9F041EA
:20526C00071C0E4604D0144C2068F5B2A84202D80220BDE8F08104F124004FF0FF318046FE
:20528C0004F01EFC04EB85049434206860B979680120A84027603246084308497860384638
:2052AC0002F094FE002400E00124404604F004FC2046BDE8F081C046C0260020007FC76786
:2052CC002DE9F8438146EFF31188202080F311880125114E114CF561114F6560F86A016AB9
:2052EC0014208847D9F81000810C14BF000C0420A06138680268232100209047C6F8805258
:20530C00206820F4C02040F480302060356088F31188BDE8F883C046000024430020094002
:20532C0084010010F8B506AF38881D4614460E46002818BF0B2025D10846694602F0E0FEAC
:20534C00012803D1002028800120F8BDBDF800704AF6712100207F1A0BD07F1E012F84BF0B
:20536C0028800A200ED801212980F16809782170F8BD0A212980F1680A6822604F686760DF
:20538C000B892381F8BD70472DE9F04105462C68287A6E6804EB8000C1632F7A9046082382
:2053AC00ADF1380D3022002101A804F0ADFB7801012100220695A0EB870024187079ADF812
:2053CC001C1001AB241D0092064A31790990204604F096FB4146284603F050F90EB0BDE804
:2053EC00F081C046956500007FB5466819B98068057D447D01E00D784C78FF2D1DD0FF2CE3
:20540C001BD0104840EA05010091FE23029320436946019006F19800FEF7BCFCC6F8A40085
:20542C0058B129460D2202F0BBFDD6F8A40021460E2202F0B5FD002001E04FF0FF30009063
:20544C007FBDC04600200084D0B5044604F040FB00F044FF071C08BF6FF002041FD003F0F8
:20546C00CCFC0146A2880F480023603030F80C6F5EB902804760A268826023737868206117
:20548C000024084603F022FF09E0964208BF6FF00204F6D05B1C0B2BE8D300F01BFD2046F1
:2054AC00D0BDC046881300201648144A144908B5E4300078801E0A2807D8DFE800F018149E
:2054CC00100614100614100609C004F00DFB11E010688008FCD250688008FCD20AE008686A
:2054EC008008FCD306E008688008FCD202E010688008FCD3FCF710FB08BDC04634600C4043
:20550C0038600C405C12002010B504F025FB114C611C097829B10E490C6804F019FB2046C6
:20552C0010BD04F015FB03F02FFF0DA20CCA03F07BFEA26C002314001B1807A044EB010429
:20554C0090E80600C91842EB04021046001C10BD04300440580E0020000000127A000000E4
:20556C0000093D000000000038B5154D041C09D10020287002F056F803F0FEF805F1240095
:20558C0004F0F2F9022C1AD12C46022042F210710A252070E0886570B1FBF0F0E0600020D6
:2055AC00A070E0700749087002F078FA208900F0FF0002F037F804F1240004F0D3F938BDCC
:2055CC002C1800201B2A0020134910B50A684BF2F5214843040AC2F38140012806D102F00F
:2055EC009BFE01F0FDFB604304EB90540C4901F1E500007830B90948006820F07F40241856
:20560C00640802E0002081F8E50006480460210C41600123836010BDB43F005010200940A2
:20562C005C1200203C600C401FB5684604F066F83221ADF8021000208DF800008DF80400DC
:20564C006946FEF789FE0E4C241D206008B904F0F7F902A804F0F0F920684FF0FF3104F0E1
:20566C000CF9206805490122FFF78EFE206800F00FFE4FF0FF3004F0FBF9FAE7C19500008C
:20568C00FC0B0020B0B5044604F09EF830F0010008BF6FF004041ED004F01AFA054603F01B
:2056AC00ACFB01460D480B226C3030F80C7F6FB1A388BB4208D1406800680022854208BF3E
:2056CC000122A260002403E0521EEED14FF0FF34084603F0FBFD2046B0BDC0467C13002030
:2056EC0008B5012003F0B8FA01281DD00F4834210122002301F03CFA002808BF002014D0F9
:20570C000B48006802F0A8FE03F06EFC0A4A93681168D060C01A074BA1EB91014343180CE1
:20572C00884228BF011C1160012008BD00A00C408000001040420F00E829002098B5154B4D
:20574C001B1D18680004070C21D002F0E5FD104991F90720824205DD10F1800FB8BF6FF093
:20576C007F00C8718C88BC4210D80A68D3F8D40F801A801C1F2888BF1F203F1B4008C7409F
:20578C004FF6FF70E719B84238BF071C8F8098BD0C2A00203010094038B50C4620B1426838
:2057AC000121A1400A4201D1022038BD8A43104B42600025A3F1600000EB84012218C1F85F
:2057CC00945002F140010978FF291ABF406850F8211044F020410548FDF7A2FF20464FF0E6
:2057EC00FF3103F063FA284638BDC046007FC7672027002010B503F0F9FDF0B101206821A7
:20580C00FFF70CFA002808BF002419D00D4C207A40B10E480C490068B1FBF0F004F028F9EC
:20582C0000202072611D7520012203F011FF20B16079712808BF012400D0002403F0A0FFBC
:20584C00204610BDF8180020A0860100E0A10000F0B5154C241F65682879ADF1340DFDF7A7
:20586C0081FB04F079F9266807463078A0B901A800213022082304F047F90694A879002305
:20588C000990084A0093697901AB301D04F038F90120307003F0F0F8384604F059F92046B8
:2058AC000DB0F0BD759800003CA1000098B5134C0C342068011D4068406810B18047216895
:2058CC00091D08680830016809B94768A7B10C4A1C321768002FFCD00023136029B10846E0
:2058EC0080472068001D00680830406800B180470448503803F050F898BDC046580E002080
:20590C000010044051000706F8B5074604F024F9124C06462079E0B1401EC0B22071C0B910
:20592C0004F1C800082103F0A3FC97B1E068703003F0E2F8E0680A4DC0683F1A286804F141
:20594C00A405B7FBF0F1284604F0FEF8284604F0F7F8304604F0FCF8F8BDC046580E0020B7
:20596C00E0A1000038B503F041FD18B301206821FFF754F900B3114C0920611D0122087072
:20598C000D466B2002F04EFBA0B13F206071294601226C2002F046FB0021617050B1211DDF
:2059AC001C20012202F03EFB20B13A202946012203F04EFE03F0E4FE38BDC046F818002055
:2059CC001549096821280ADC212819D00C380FD00D380FD0001F0FD0C01E0FD01AE0253832
:2059EC0010D0001F10D0401E10D0401E10D011E0086870474868704788687047C868704733
:205A0C00086970474869704788697047C8697047086A704700207047F001002038B54468B0
:205A2C008568D4F8A00001F041FCD4F89C0003F082F82968486820F00200486004F11C00F2
:205A4C0004F00AF804F1380004F002F8287BFDF71FFA207818B904F16C0003F0F5FF04F1D3
:205A6C00C40002F0C9FF04F077F8002184F8D91004F06EF838BD704738B5134C0B461146B9
:205A8C001A4670B1401E06D0401E1BD1012A04BF0878207038BD022A14D10888641C208047
:205AAC0038BD0E2A0ED104F10C050E222846FEF723F906480090A06804F11C020823294686
:205ACC00FEF798FA38BDC04638150020254F00008C4601461046124A08B571B1491E08D06E
:205AEC00491E1CD1BCF1010F19D1521C0078107008BDBCF1010F12D1F8E7BCF10A0F0ED150
:205B0C00036802F10C010B6043684B6003890B8104480090906808231832FEF76BFA08BDCD
:205B2C00D41500203153000038B5134D95F8E100002410B91148007860B104F00DF895F8BC
:205B4C00E310002906BF012185F8E310012403F0FFFF0CB1002038BD022001F087FF0E2017
:205B6C00FDF700FA02F02CFE01280EBF0120002085F8E20038BDC0465C12002026A1000029
:205B8C007FB5866831684568486820F0020048603168486920F00F004861306803210162F6
:205BAC0002A803F049FF0B4800680468286900906869074B0190297E03EB81010A6A297BC9
:205BCC00306853F821300399A04700907FBDC0467C9E0000C40100101CB5144C207806284A
:205BEC0015D040F205300DF10201FCF7F9FA9DF8020000280CBF0120002001210DF1010278
:205C0C008DF8010040F20530FAF7EAFF207806280AD101248DF8004003F03EF940F2053095
:205C2C006A462146FAF7DCFF1CBDC04620050020F8B5054603F080FF104C0646A41E2078E5
:205C4C000A280DDB03F088FF618841F02001618003F07EFF0A48006803F02EFF002703E034
:205C6C00401C0127C0B22070304603F059FF1FB1284602F051FEF8BD0020F8BD7A1400201A
:205C8C002805002038B505466C68D4F8A810237A002203B9012263689847D4F8BC00D4F87F
:205CAC00C01081420FD081692846C4F8BC10FEF735FAB0F1FF3F0ED10320207204F12C00CE
:205CCC0003F0F6FE38BD0020C4F8A800C4F8BC00022001F0B3FE38BD30B5002124220823B0
:205CEC00ADF1240D684603F017FF0D4C012529466A468DF8185004F1140003F009FF01F092
:205D0C0011FA03F0E1F8257302F0EEFC05492060FF20087004490020087009B030BDC04636
:205D2C0078290020192A0020182A00202DE9F0410C46804603F020FE002700B1012717B199
:205D4C00404602F0D9FE0D4D28684FF47A76B6FBF0F080B204FB00F1404603F0F5FE28681C
:205D6C00B6FBF0F080B204FB00F1404603F006FE17B1404603F0E4FEBDE8F081E0A100002D
:205D8C00012838B51ED1012002F066FF01281BD003F042F90D4D0E480122322305F1E00139
:205DAC0000680A70B3FBF0F404B914463035284602F0A2FE2846214603F0C6FE284603F0FA
:205DCC00BFFE01E001F0C6FB002038BD5C120020E0A10000084610B500F0005100F00400FB
:205DEC00084317D0012002F037FF0E4C01280CD0094909686C3432222046B2FBF1F103F01E
:205E0C00A3FE204603F09CFE10BD044803F052FC0348046010BDC046E0A10000ED05000093
:205E2C0000100440900E002038B51248104C0168114D0C40E1430160A10908D34068800953
:205E4C0005D328464FF40051C83003F011FA14F4602F0BD0284600F19C010A6804F460240A
:205E6C00FC3014430C60002103F002FA38BDC04620000E0008100440580E002098B5044675
:205E8C0003F06AFE8446104890F8A310C90803D390F8A210A14213D0B0F8A0300B4F0122A2
:205EAC0002FA04F11943A0F8A010391D0B6804F10C07BA4093430B600F680FB90021017064
:205ECC00604603F045FE98BD580E00200810044000BF704708B5FFF7FBFFFEE738B50D4C55
:205EEC000546A06820B10C48B0F1FF3F00D080470A4800688047606810B10146284688471A
:205F0C00206800B18047064800688047FFF7E2FF38BDC046AC1A0020FFFFFFFFD81A002032
:205F2C00DC1A0020DCB5044603F0D2FD01F026FD064603F049FC30F0010014BF002E6FF089
:205F4C00040017D0606858B1B0F1FF3F05D0694601F0FCFC30B107460BE04FF0FF3000E0C6
:205F6C00002000907068009903F0AAFD002700B901273846DCBD2DE9F0478046D8F8045004
:205F8C00D5F8880000240474D5F88860D6F8049003F0E2FD05F1D8078246387848B119F0CC
:205FAC00704F02D1042001F049FD022001F046FD3C70504603F0CCFDAA68C5F88840404677
:205FCC0031469047BDE8F087F8B5114C6678E578182002F081FC071C19D00421002203F019
:205FEC0041FA304602F092FB38727D720020B87204F14806FE6004F158033B6104F12002DE
:20600C007A6102F079FC034A394601F033F8F8BDE0080020159900002DE9F04104461148F5
:20602C00401C90F8008016460D46102002F054FC071C12D00421072203F014FA404602F003
:20604C0065FB38727C72BD72FE6002F055FC044A394601F00FF8BDE8F0810420BDE8F08157
:20606C003F990000E0080020F8B5044603F030FD00F034F9071C19D002F0BFFE84460D4826
:20608C000021603030F80C6F6EB94FF6F872028047600025856021717868A060604603F08C
:2060AC0015F92846F8BD491C0B29EBD3FFF712FFF8BDC046881300200F4908680028FCD112
:2060CC00104A131D0D49186820F0030001430C480068C0080CD2106810F0030F0AD041F006
:2060EC0003001860106800F003000328FAD101E041F00101196070470C006842040000209A
:20610C00B03F005000400340F8B516460C4603F023FD02460F484178832554B1641E02D0EA
:20612C00641E10D00DE08179012904D0B0F8A01005E0876A0FB9802506E0806A818B3180E4
:20614C0002E0032500E03170104603F001FD2846F8BDC046580E00202DE998430446276EE2
:20616C009946904607B1B8470020022100EA090001EA0801002808BF00290BD104F158003C
:20618C0090E8060008EA010109EA0200002808BF002907D004F1680080E8000304F13800A8
:2061AC0003F08AFCBDE898831CB500204521FEF735FD002808BF00241BD07E2069460222AD
:2061CC0003F046FA90B1BDF8000044F6541181420CD17F206946022203F03AFA30B1BDF81C
:2061EC000000B0F5987F08BF012400D0002403F0C7FA20461CBDF8B506AF38881C46164624
:20620C000D46002818BF0B201BD10846694601F077FF012808BF012013D0BDF800204AF69C
:20622C0065210020914207D0BDF80020491C91421CBF20800A2004D101212180E9680978E6
:20624C003170F8BD11481CB500788DF8010003F0EBF802F0ADFF03F0DDF803F0E5F80DF1AA
:20626C000100012101F062FC6846012101F046FC044603F0CFF8002C18BF6FF0010004D161
:20628C009DF800004008E8D200201CBD90A1000038B50546104968682B7A02681801A0EB1D
:2062AC0043000B5AD16840F2011018400843D0602C6803F051FC297A64184434217839B9E5
:2062CC000121217003F044FC022001F0CFFB38BD03F03EFC38BDC046889F00002DE9F8435A
:2062EC00804602F08AFD0F4C08250026814654F80C7F5FB93046C4F800800146A6600A46A0
:20630C0003F096FB606018B9FFF7E4FD474501D1264601E06D1EEAD1484602F0D7FF3046C8
:20632C00BDE8F88388130020B0B5054603F0D0FB044603F049FA30F0010008BF6FF0040439
:20634C0014D002F05AFD0A4A002132F80C7F4FB153681B689C4204BF2971002404D0491C04
:20636C000B29F2D36FF0040402F0B0FF2046B0BDE81300207CB5114D04460E46600807D3B3
:20638C00B0B20021009001220B46284600F068F9A00807D3B0B20090002102220123284660
:2063AC0000F05EF9E00807D3B0B2009000210C220223284600F054F97CBDC04600A00C408C
:2063CC0010B5114C01201121621DFDF77FFF022005212246FDF77AFF052022460146FDF766
:2063EC0075FF0320132104F12802FDF76FFF042022460146FDF76AFF0620122104F11602AF
:20640C00FDF764FF10BDC046409E0000F0B50E4615461C460746ADF1240D00212422082304
:20642C00684603F05DFB0E9806900A4800684FF47A716B46B1FBF0F082B200203146544394
:20644C00ADF81000A8B205944243384603F044FB09B0F0BDE0A1000038B50546287B00F0A1
:20646C000F00022818D10D4C2078012814D0FFF74BF8A9686FF070458908A1EB900085421E
:20648C000ADDB0F1704FBCBF05490844E168C96801F57A71814200DB002038BD580E002000
:2064AC00F6FFFF1F10B50178A23902D02E391AD010BD4179132918D100890C4C01280AD1F0
:2064CC002046F038817B022905D1F03003F04CFA02F0E2FC10BD052000F00AFC0146204667
:2064EC0000F074FE10BDFAF705FA10BDD0090020F8B506460F4D104F7388002417E0A00041
:20650C0000EBC400321851689068D26852B9AF420BD00A7855F822200346491C0846194648
:20652C00904701E0FDF7E8FB7388641CA4B2A342E5DCF8BD2CAA000034AA0000F8B506AF7E
:20654C003F880D460646E7B9022B18D15078147804EB002434F001000FD1E968096830466F
:20656C0002F0C8FF844208BF00200BD0E96809683046224601F043FEF8BD8020F8BD0D20C5
:20658C00F8BD0B20F8BDFEE7F8B504466268217A0E482368156803EB81032E6ADF6B801FC8
:2065AC000A01A2EB4102825A06EA02016962227A1101A1EB420140180422801DB1B201F06E
:2065CC00B5FD01460FB12046B847F8BD8E9F00003EB545688468684603F02EFA0B4800689F
:2065EC00E96803682068084C54F82110002201B1012201999847064901208861054A1060F2
:20660C000860C8603EBDC04698A10000AC0100100428004010040542104A1068C0F30F315B
:20662C004BF69A10884207D111680B20B0EB117F14BF0020042070472430884208BF01201E
:20664C000BD04BF64130884208BF032005D0213888420CBF02204FF0FF3070471813005068
:20666C00B0B500EB4100102B04AF00F5007403D3103B00F50174120C3D889D4045EA024565
:20668C0003F060F8002700B90127064A394610680028FCD025600120106009B103F058F84D
:2066AC00B0BDC04600800C407CB501F049FE02F013FD0E4CC82666800025657001F000F813
:2066CC0002200122314602F097FD03F008F9284601F046FB009504496388642204F1080088
:2066EC00FFF794FE7CBDC046458A0000201A00202DE9F041044698460D46142002F0ECF8D2
:20670C0006AF061C13D03A78032102F0ABFE3481002030744046F56001F0F8FF707402F030
:20672C00EBF8044A314600F0A5FCBDE8F0810420BDE8F081898E000070B5104C064620467A
:20674C0003F079F80025B0B9204603F005F90446A06806420AD0E0682269002103463046BD
